:020000040800F2
:1080000030E0FEE754413031008000084D332073EA
:10801000797820617070000000000000003230317B
:10802000332E31322E313000000000004DF804EDC7
:10803000134800F1030020F003001249124B88425C
:1080400006D099423CBF50F8042B41F8042BF8D3DA
:108050000E494FF000028B4238BF43F8042BFAD38D
:108060005DF804FB4DF804ED4DF8040DFFF7DEFF5D
:108070005DF8040B0649086001F0F2F85DF804FBB6
:1080800078940008003000206430002088330020FD
:1080900060300020D2B201E000F8012B491EFBD273
:1080A00070470022F6E710B504460846114602461E
:1080B0002046FFF7EFFF204610BD2DE9FE4F81EA75
:1080C000030421F0004504F0004423F000414FF088
:1080D000000A009450EA050302D052EA010304D1D9
:1080E0000020014603B0BDE8F08FC1F30A53C5F389
:1080F0000A541C44A0FB02B3C5F3130545F4801CCD
:10810000C1F3130141F480180CFB023300FB083E5D
:10811000A4F2F334810A930A41EA8C5143EA88536A
:108120000194A1FB03474FEA9C2505FB03734FEA2B
:10813000982601FB06373D05260545EA1435BBEBBD
:1081400006016EEB0503850E920E45EA8C1542EA98
:108150008812A5FB0206261E67EB00070C0D44EAF9
:108160000334A41947EB1350C1F313064FF0000377
:1081700019464FEA033343EA165343EA0403019CCA
:10818000E5FB0201A4F10C040294009C4FEA0632C4
:10819000CDE900A400F069F8A4E70EB540F2334140
:1081A00002910021CDE900110A460B4600F05DF86E
:1081B00003B000BD30B5002904DB4FF0004440425D
:1081C00064EB0101002B04DB4FF00044524264EBEE
:1081D00003038B4208BF824230BD000030B5002946
:1081E00004DB4FF00044404264EB0101002B04DB50
:1081F0004FF00044524264EB0303994208BF90429F
:1082000030BD000030B50B4601460020202201247D
:1082100009E021FA02F59D4205D303FA02F5491B54
:1082200004FA02F52844151EA2F10102F1DC30BD6A
:10823000202A04DB203A21FA02F00021704721FABB
:1082400002F3D040C2F12002914008431946704722
:1082500010B5002B08DA401C41F1000192185B4177
:108260001A4301D120F0010010BD2DE9F04D9246D6
:108270009B4611B1B1FA81F202E0B0FA80F22032ED
:10828000904600F044F806460F4640EA0A0041EAEC
:108290000B0152465B46084303D130463946BDE8E0
:1082A000F08D194652EA010015D0C8F1400250463F
:1082B000FFF7BEFF04460D4650465946424600F0C1
:1082C00026F8084301D0012000E00020044345EADD
:1082D000E07526432F430A984FEAD625A0EB080005
:1082E0000A304FEA46534FF0000245EA47554FEA3D
:1082F000D72402D500200146D1E70105501961417C
:10830000DDE9084500196941BDE8F04DA0E7202AE4
:1083100004DB203A00FA02F1002070479140C2F1DC
:10832000200320FA03F319439040704710B5074C1F
:108330006060084600F00EF860680028FCD1BDE8D7
:1083400010400021024800F0C0BC0000283000208E
:10835000000400403EB51A4D04460021284600F0B6
:10836000B4FC00220121284600F02AFD022C02D094
:10837000012C02D005E0012001E040F2E730ADF829
:1083800004003F20ADF800000020ADF80600ADF875
:1083900002006946284600F01BFD0121284600F036
:1083A00091FC0121284600F07FFC0122114628465D
:1083B00000F006FD0121284600F087FC3EBD0000CC
:1083C000000400400221FFF7B1BF4FF0E020016937
:1083D00021F00101016170474FF0E020016941F097
:1083E000010101617047F0B5CC78002204F00F0361
:1083F000E40601D58C7823430C884FF00F0C14F061
:10840000FF0F4FF0010E1AD005680E880EFA02F425
:108410002640A6420FD196000CFA06F7BD4303FA98
:1084200006F63543CE78282E02D0482E02D002E040
:10843000446100E00461521C082AE6D305600A8802
:10844000FF2A1DD94568002202F108060EFA06F43B
:108450000E882640A6420FD196000CFA06F725EAB0
:10846000070703FA06F5CE783D43282E00D1446174
:10847000CE78482E00D10461521C082AE4D345600E
:10848000F0BD0246002092680A4200D001207047E9
:1084900041617047016170470148007870470000F2
:1084A0004230002072B60349488800224A8062B6F2
:1084B000704700004230002010B572B60021074816
:1084C0000160A0F58071416081604FF48071A0F57A
:1084D0008070FFF7E6FD62B610BD00007C3300201F
:1084E00030B50446012187B0880300F0F5F84FF459
:1084F0000071ADF8101018218DF813100320244DD1
:108500008DF8120004A92846FFF76DFF2815ADF875
:10851000100004208DF8130004A92846FFF763FF1C
:108520001C4951F8240000900020ADF80400ADF87B
:108530000600ADF80800ADF80C000C20164CADF8A4
:108540000A006946204600F0CDFC0121204600F0DB
:1085500081FC25218DF8141002218DF816100121BF
:108560008DF8171005A800F063F8012240F225519C
:10857000204600F09FFC4021204600F075FC0028BA
:10858000F9D00649252000F0E4FE07B030BD000018
:108590000008014060940008003801400D8E00087A
:1085A00010B5FFF789FFBDE810400120FFF798BF25
:1085B00010B500F0CFFD134C02212046FFF76AFFF3
:1085C000012000F0AFFD02212046FFF761FF3320BC
:1085D00000F0A8FD02212046FFF75CFF032000F019
:1085E000A1FD02212046FFF74CFF10B1032000F04F
:1085F00099FD332000F096FD2046BDE81040022191
:10860000FFF748BF0008014041060748826942F071
:10861000010282610548426822F0E06242604268DD
:108620000A43426070470000001002400000014011
:1086300070B50F24C278017801254FF0E026DAB139
:10864000124A126802F4E062C2F5E062120AC2F154
:108650000403D44042789A408378234013431A019C
:108660000B4BCA54007800F01F018D40400906EB07
:108670008000C0F8005170BD01F01F00854048091E
:1086800006EB8000C0F8805170BD00000CED00E0EA
:1086900000E400E002490843024908607047000016
:1086A0000000FA050CED00E0044A0029D16901D070
:1086B000014300E08143D161704700000010024097
:1086C000044A0029116901D0014300E0814311618E
:1086D0007047000000100240044A0029916901D04F
:1086E000014300E0814391617047000000100240A7
:1086F000044A0029D16801D0014300E08143D160E0
:108700007047000000100240214A10B55168214B0B
:1087100011F00C0103D0042901D0082901D0036015
:1087200012E05168536801F470114FF0020413F421
:10873000803F04EB914102D053689B0301D5164B57
:1087400000E0144B594301605168144B01F0F001F3
:1087500009095C5C0168E1404160546804F4E0642C
:10876000240A1C5D21FA04F48460546804F4605403
:10877000E40A1B5DD940C1605268084B02F44042D4
:10878000920B1B1F9A5CB1FBF2F1016110BD00005E
:108790000010024000127A0000093D004A3000201B
:1087A00008B501210820FFF797FF4FF40060ADF8EE
:1087B000000004208DF8030069460248FFF713FE0D
:1087C00008BD0000000C014010B5044C01232370CB
:1087D00000F046F80021217010BD0000423000205A
:1087E00070B5144D002405EB4400C188002000F052
:1087F0003DF9641CE4B2032CF5D30E4D002418356A
:1088000005EB44008188002000F030F9641CE4B2DC
:10881000022CF5D3074D00242835002035F814101C
:1088200000F024F9641CE4B20E2CF6D302490020B7
:10883000087070BD049400084030002070B5FFF748
:10884000CFFF064D0024002035F8141000F00EF97B
:10885000641CE4B2062CF6D370BD000048940008F6
:108860002DE9F74F82B0029CA41DFFF7B5FD72B64B
:1088700000206E4E708062B602E07088C8287AD8F8
:10888000DDE90301FFF7FDFD0028F6D1FFF70AFE41
:10889000054605E06548418841F638008142EED83A
:1088A000DDE90301FFF7EDFD0028F3D0FFF7FAFD46
:1088B000142D74D905EB4501B0EBC10F6FD905EB51
:1088C000450101EB0511B0EB410F68D22844460980
:1088D00002980660002093E0FFF7E4FD534F41F655
:1088E000380902E079884945C9D8DDE90301FFF775
:1088F000C8FD0028F6D1FFF7D5FDBA4680464F46A1
:1089000003E0BAF80200B84235D8DDE90301FFF709
:10891000B8FD0028F5D0FFF7C5FD07460320B6FBDC
:10892000F0F0A6EB5601081A0090404538DA3046C0
:10893000FFF733FC3E4A3F4BFFF7BFFB82468946B9
:108940004046FFF72AFC52464B46FFF733FC27D23E
:108950003846FFF722FC52464B46FFF73FFC0BD24E
:1089600006EB8600B84207D92178C5F1070201203D
:10897000904081433AE056E006EB4600B7EBC00F6B
:1089800051D906EB460000EB0610B7EB400F4AD278
:1089900002995846A1F804B005B0BDE8F08F32E066
:1089A0003046FFF7FAFB224A224BFFF786FB81464F
:1089B0008A464046FFF7F1FB4A465346FFF70EFC56
:1089C00031D206EB860141452DD90098B8422ADA0A
:1089D0003846FFF7E2FB4A465346FFF7EBFB22D24D
:1089E0002178C5F107020120904001436D1CEDB2D2
:1089F0002170082DFFF470AF0BF10100641CC0B2B0
:108A00008346002568E7A5F1790127290BD21428B0
:108A100009D900EB800205EB850107A000F0CAFA36
:108A20000CA000F0C7FA0020B6E70000423000209A
:108A30005C8FC2F5285CFF3F6E6172726F77203DDC
:108A40002025642C2077696465203D2025640D0A6B
:108A50000000000072656365697665205243383016
:108A60003020686561640D0A000000002DE9F047C0
:108A70001F4E4FF000075FEA00090C46C6F8B471BC
:108A800011D0C6F884710520FFF79CFC44F4004522
:108A90001024B84601274046C6F8B481290405D5FC
:108AA000C6F8BC7104E0C6F8B071ECE7C6F8BC01CA
:108AB0000520FFF787FCC6F8B4716804050C052093
:108AC000FFF780FC641E14F0FF04E4D1C6F8B48103
:108AD000C6F8BC71B9F1000F06D0C6F88471BDE8C4
:108AE000F0470520FFF76EBCC6F8B071F7E700004D
:108AF00000802142F8B501210820FFF7EDFD4FF479
:108B00002040ADF8000003208DF80200144F10241F
:108B10008DF8034069463846FFF765FCA002ADF8C2
:108B2000000004208DF8030069463846FFF75BFC1F
:108B30002002ADF800008DF8034069463846FFF783
:108B400052FC084E0125F5624FF00200ADF800001E
:108B50008DF8034069463846FFF745FC3560F8BD9F
:108B6000000C0140848121423EB501210846FFF7F7
:108B70009BFD4FF08044204600F0B2F841F288316E
:108B8000ADF804103F21ADF800100021ADF802103F
:108B90006946204600F01CF90121204600F08FF8BC
:108BA00001221146204600F00BF90121204600F079
:108BB0008CF802491C2000F0CCFB3EBD258C00083F
:108BC00008B54FF4E060FFF765FD1C208DF800004C
:108BD00000208DF8010003208DF8020001208DF89F
:108BE00003006846FFF724FD08BD000008B54FF4F8
:108BF000C060FFF74FFD1D208DF8000000208DF8AC
:108C0000010004208DF8020001208DF80300684661
:108C1000FFF70EFD02491D2000F09BFB08BD000080
:108C2000798F000810B54FF080414FF6FE70088232
:108C30001A4A1B495088401C80B250800978072985
:108C40000ED01849097859B9C821B0FBF1F301FBDE
:108C5000130028B91078C043C0B2107000F06DFB4B
:108C60000E480830017811B14188491C41800B48F9
:108C70000C30017811B14188491C418007481030FF
:108C8000017811B14188491C4180044814300178B1
:108C9000002902D04188491C418010BD28300020A5
:108CA00025300020243000200029018802D041F026
:108CB000800102E040F27F32114001807047C943D9
:108CC00001827047C943018270470029018802D0A0
:108CD00041F0010102E040F2FE3211400180704794
:108CE0002A4910B5884202D10121C41443E0B0F1F1
:108CF000804F09D0264988420DD101210220FFF77B
:108D0000DFFC002102202DE001210846FFF7D8FCFE
:108D10000021012026E01F49884206D101210420BC
:108D2000FFF7CEFC002104201CE01B49884206D13D
:108D300001210820FFF7C4FC0021082012E0174998
:108D4000884206D101211020FFF7BAFC0021102033
:108D500008E01349884209D101212020FFF7B0FC27
:108D600000212020BDE81040FFF7AABC0D49884231
:108D70000AD1012144142046FFF7BAFC2046BDE881
:108D800010400021FFF7B4BC10BD0000002C0140D2
:108D90000004004000080040000C004000100040AB
:108DA000001400400034014002460020138A9289DA
:108DB0000B4202EA010202D0002A00D001207047D3
:108DC000002A828901D00A4300E08A4382817047E9
:108DD000028802F08F020280CA884B881A430388F7
:108DE0001A4302808A8882850A880285054A904251
:108DF00002D0054A904201D1097A0186012181827F
:108E000070470000002C01400034014010B572B6DC
:108E100040F225510D4800F02EF8A0B10C49086829
:108E2000FF2810D84A680846824202D3A0F5807015
:108E300048600648001D0288486800F8012B486019
:108E40000868401C086062B610BD00000038014090
:108E50007C3300200029818902D041F4005101E0D7
:108E600021F40051818170470246002012880A4295
:108E700000D00120704770B501F01F0601250024C5
:108E8000C1F3421305FA06F2012B0FD0022B0FD0CB
:108E9000838A4FEA11210088134205FA01F500EA9E
:108EA000050001D000B10124204670BD8389F0E7A0
:108EB000038AEEE710B5C1F3421301F01F0401214C
:108EC000A140012B07D0022B07D01430002A0268E2
:108ED00005D00A4304E00C30F8E71030F6E78A4387
:108EE000026010BD30B50446008A85B00D464CF6D0
:108EF000FF710840E98801432182A1894EF6F310F1
:108F00000140A8882A8910436A890A431043A08136
:108F1000A08A4FF6FF410840A9890143A182684613
:108F2000FFF7F2FB1148844201D1039800E0029858
:108F3000642200EBC00101EB001029686FF01805F6
:108F40008900B0FBF1F0B0FBF2F109010B096B43B2
:108F500000EB8300322303EB0010B0FBF2F000F0D3
:108F60000F000843208105B030BD000000380140EB
:108F7000C1F308018180704710B50C4C01212046D7
:108F8000FFF712FF002809D001212046FFF79AFEC3
:108F900007494A681AB14868401E486010BD20461B
:108FA000BDE810400021FFF790BE00000004004023
:108FB000283000200FB4054B10B503A9044A0298CD
:108FC00000F008F810BC5DF814FB00008191000867
:108FD0005C3000202DE9FF4F89B004469B460025F8
:108FE00096E0252833D10027641C4D4AB84601215C
:108FF0002378203B01FA03F0104202D00743641C9F
:10900000F6E720782E2819D114F8010F47F004074D
:109010002A280ED06FF02F022078A0F13001092904
:109020000CD808EB880102EB410100EB0108641C3D
:10903000F2E70A98641C50F8048B0A902078002804
:109040006AD0642808D0692806D075281FD05A46EF
:109050000B9990476D1C5AE00A994FF00A0901C913
:109060000A91002804DAC0F100004FF02D0102E05F
:10907000390504D52B218DF82010012104E0F907D2
:1090800001D02021F7E700218A4608AE0CE00A99BA
:109090004FF00A0901C90A91F5E74946FFF7B2F80E
:1090A00001F1300106F8011D0028F6D1ADEB0600F4
:1090B00000F12009780701D44FF00108C84502DD0E
:1090C000A8EB090000E000208046002706E008A881
:1090D0005A46C05D0B9990476D1C7F1C5745F6DBC7
:1090E00004E030205A460B9990476D1CB8F10001FE
:1090F000A8F10108F5DC05E016F8010B5A460B99BA
:1091000090476D1CB9F10001A9F10109F4DC641C60
:10911000207800287FF465AF0DB02846BDE8F08FB9
:109120000928010000B5034602E00B2000F003F817
:109130005B1EFAD200BD09E0032100BF00BF00BFE3
:1091400000BF00BF00BF00BF491EF8D2401EF3D2CF
:109150007047000008B501210420FFF7BDFA102078
:109160008DF8030003208DF802000220ADF8000006
:1091700069460248FFF737F908BD000000080140C2
:1091800070B5074D0446C1B22846FFF7F1FE4021F5
:109190002846FFF769FE0028F9D0204670BD000080
:1091A0000044004010B5FFF777F9002803D00248CB
:1091B0000188491C018010BD4430002008B5012100
:1091C0000820FFF789FA8020ADF8000003208DF811
:1091D000020010208DF8030069460348FFF703F9E9
:1091E00000F004F808BD0000000C014010B580211B
:1091F0000248FFF74DF9002010BD0000000C0140AF
:1092000010B580210248FFF745F9012010BD00008C
:10921000000C014008B501210820FFF75DFA01218B
:109220000420FFF759FA4020ADF8000003208DF824
:10923000020010208DF8030069460748FFF7D3F8B5
:109240000820ADF8000004208DF8030069460348AB
:10925000FFF7C9F808BD000000080140000C0140FC
:109260000120FFF7D1F91F48016821F47021016046
:10927000016841F440310160FFF7A0FF012000F0D8
:109280005CF800F098F8FFF7C5FFFFF791F900F0E0
:109290004DF8FFF7ABFC0021134800F091F8FFF701
:1092A00094F80020FFF726FCFFF77AFAFFF778F929
:1092B00000F038F80DA0FFF77DFEFFF78DF8FFF7FF
:1092C000BDFA0F4F0F4D4FF4006600243246394669
:1092D0000D48FFF779FA0028F8D0EC700BA0FFF7E3
:1092E00069FEF3E700100140A591000875617274F2
:1092F00020697320776F726B696E670D0A0000003A
:10930000000C014000300020643000207374616E56
:109310006461726420343333206973206F6B0D0AEB
:109320000000000001210846FFF7BEB910B5FFF7A5
:1093300047FCBDE81040FFF717BC08B1FFF760BF5E
:10934000FFF754BF2D49096851F820000199019099
:1093500001BD03B44FF00000DFF8A4F003B44FF0F8
:109360000100DFF89CF003B44FF00200DFF890F04A
:1093700003B44FF00300DFF888F003B44FF00400AB
:10938000DFF87CF003B44FF00500DFF874F003B4AD
:109390004FF00600DFF868F003B44FF00700DFF885
:1093A00060F003B44FF00800DFF854F003B44FF05E
:1093B0000900DFF84CF003B44FF00A00DFF840F08A
:1093C00003B44FF00B00DFF838F003B44FF00C009B
:1093D000DFF82CF003B44FF00D00DFF824F003B4F5
:1093E0004FF00E00DFF818F003B44FF00F00DFF875
:1093F00010F003B44FF01000DFF804F060300020EC
:10940000459300084E07C00800096C078008000952
:10941000D90700080009E407C008000968032B0405
:10942000340315041A030B040D03050468020F131B
:1094300002054106F0198B1A101E401B801C061DE8
:1094400088181B58006F04019F1144251013555AAA
:10945000705C100104250F135D5A7C5C0C01000048
:109460000000000080250000004B00000096000076
:1094700000E1000000C20100000000000101020341
:109480000405060708090A0B0C0D0E0F1011121324
:109490001415161718191A1B1C1D1E1F000000009A
:1094A00000000000000000000000000000000000BC
:1094B00000000000000000000000000000000204A6
:1094C000060800000000010203040102030406076D
:0C94D0000809000000000000000000007F
:04000005080080016E
:00000001FF
