:020000040800F2
:1080000030E0FEE754413031008000084D332073EA
:10801000797820617070000000000000003230317B
:10802000332E31322E313000000000004DF804EDC7
:10803000134800F1030020F003001249124B88425C
:1080400006D099423CBF50F8042B41F8042BF8D3DA
:108050000E494FF000028B4238BF43F8042BFAD38D
:108060005DF804FB4DF804ED4DF8040DFFF7DEFF5D
:108070005DF8040B0649086001F0BAFD5DF804FBE9
:1080800064A300080030002084300020A0320020CB
:108090008030002040EA01039B0703D009E008C9B3
:1080A000121F08C0042AFAD203E011F8013B00F8BD
:1080B000013B521EF9D27047D2B201E000F8012B09
:1080C000491EFBD270470022F6E710B50446084669
:1080D000114602462046FFF7EFFF204610BD30B59F
:1080E0000EE003460A4601E05B1C521C1C78157822
:1080F000AC4201D1002CF7D115F0FF0F04D0401C89
:108100000278002AEDD1002030BD2DE9FE4F81EA32
:10811000030421F0004504F0004423F000414FF037
:10812000000A009450EA050302D052EA010304D188
:108130000020014603B0BDE8F08FC1F30A53C5F338
:108140000A541C44A0FB02B3C5F3130545F4801C7C
:10815000C1F3130141F480180CFB023300FB083E0D
:10816000A4F2F334810A930A41EA8C5143EA88531A
:108170000194A1FB03474FEA9C2505FB03734FEADB
:10818000982601FB06373D05260545EA1435BBEB6D
:1081900006016EEB0503850E920E45EA8C1542EA48
:1081A0008812A5FB0206261E67EB00070C0D44EAA9
:1081B0000334A41947EB1350C1F313064FF0000327
:1081C00019464FEA033343EA165343EA0403019C7A
:1081D000E5FB0201A4F10C040294009C4FEA063274
:1081E000CDE900A400F09BF8A4E770B521F00043AE
:1081F00003430CD0C1F30A540026D4EB060566EB0A
:108200000603D417AD1AA34102DB0020014670BD5E
:10821000001C41EB025170BD0EB5C10F80EAE07049
:108220000844CA07002140F233438DE80E000A4695
:108230000B4600F074F803B000BD0EB540F23341B8
:1082400002910021CDE900110A460B4600F067F8C3
:1082500003B000BD70B5C1F30A5201F0004500241F
:10826000C1F3130140F2FF3341F480119A4201DA65
:10827000002070BD40F233439A42A2F2334203DC45
:10828000524200F02FF800E090402C43F1D04042E1
:1082900070BD000030B5002904DB4FF000444042BF
:1082A00064EB0101002B04DB4FF00044524264EB0D
:1082B00003038B4208BF824230BD000030B5002965
:1082C00004DB4FF00044404264EB0101002B04DB6F
:1082D0004FF00044524264EB0303994208BF9042BE
:1082E00030BD0000202A04DB203A21FA02F00021F0
:1082F000704721FA02F3D040C2F1200291400843B6
:108300001946704710B5002B08DA401C41F10001F6
:1083100092185B411A4301D120F0010010BD2DE9F4
:10832000F04D92469B4611B1B1FA81F202E0B0FAEB
:1083300080F22032904600F044F806460F4640EAAC
:108340000A0041EA0B0152465B46084303D130461E
:108350003946BDE8F08D194652EA010015D0C8F142
:1083600040025046FFF7BEFF04460D4650465946B0
:10837000424600F026F8084301D0012000E000202A
:10838000044345EAE07526432F430A984FEAD62571
:10839000A0EB08000A304FEA46534FF0000245EACE
:1083A00047554FEAD72402D500200146D1E7010501
:1083B00050196141DDE9084500196941BDE8F04DFA
:1083C000A0E7202A04DB203A00FA02F100207047DF
:1083D0009140C2F1200320FA03F319439040704703
:1083E00010B5074C6060084600F00EF86068002881
:1083F000FCD1BDE810400021024801F082B8000025
:1084000044300020000400403EB51A4D04460021CF
:10841000284601F076F800220121284601F0ECF808
:10842000022C02D0012C02D005E0012001E040F234
:10843000E730ADF804003F20ADF800000020ADF8B3
:108440000600ADF802006946284601F0DDF801217A
:10845000284601F053F80121284601F041F8012295
:108460001146284601F0C8F80121284601F049F8D4
:108470003EBD0000000400400121FFF7B1BF00B580
:10848000012001F042FA022001F03FFA02205DF8DB
:1084900004EB01F03ABA4FF0E020016921F001014C
:1084A000016170474FF0E020016941F00101016175
:1084B0007047F0B5CC78002204F00F03E40601D534
:1084C0008C7823430C884FF00F0C14F0FF0F4FF003
:1084D000010E1AD005680E880EFA02F42640A64254
:1084E0000FD196000CFA06F7BD4303FA06F63543A2
:1084F000CE78282E02D0482E02D002E0446100E05F
:108500000461521C082AE6D305600A88FF2A1DD997
:108510004568002202F108060EFA06F40E8826408D
:10852000A6420FD196000CFA06F725EA070703FAD0
:1085300006F5CE783D43282E00D14461CE78482EF2
:1085400000D10461521C082AE4D34560F0BD024604
:10855000002092680A4200D00120704741617047B4
:10856000016170470AB101617047416170470000C5
:1085700001480078704700006430002070B500F0BA
:10858000E7F9CC2001F064F9442001F061F93320CF
:1085900001F0BBF900F0DCF9CC2001F059F9BE2064
:1085A00001F056F900F030FD054600F02DFD45EADA
:1085B000002424F47840FFF72FFE6FF00302FFF74A
:1085C00014FEFFF747FE14F4784F00D0404270BD10
:1085D00001480068704700009432002072B60349D9
:1085E000488800224A8062B670470000643000204C
:1085F00008B50121082000F06DFA0420ADF8000054
:108600008DF8030069460248FFF753FF08BD0000DC
:10861000000C014070B500240721012000F096FDF8
:10862000054602462721012000F014FE68060BD5FE
:108630002023094A6121012000F01AFDFF22E221D6
:10864000012000F007FE0124FF222721012000F075
:1086500001FE204670BD00001830002070B50546B0
:108660000024FF222721012000F0F4FD284601F01C
:10867000BFF9FFF7BDFF0949D1F80821002AFBD156
:108680000721012000F062FD800600D50124FF22B1
:108690002721012000F0DEFD204670BD0080214230
:1086A00008B5FF208DF8000000F01EF802210748F1
:1086B00000F038F91E220121684600F089F89DF883
:1086C000000008B1002008BD012008BD4030002096
:1086D00010B50221034800F025F900F005F801204B
:1086E00010BD00003E30002010B572B600210748D2
:1086F0000160A0F58071416081604FF48071A0F548
:108700008070FFF7E0FC62B610BD000094320020DC
:1087100030B50446012187B0880300F0DBF94FF43F
:108720000071ADF8101018218DF813100320244D9E
:108730008DF8120004A92846FFF7BBFE2815ADF8F6
:10874000100004208DF8130004A92846FFF7B1FE9D
:108750001C4951F8240000900020ADF80400ADF849
:108760000600ADF80800ADF80C000C20164CADF872
:108770000A006946204601F003F80121204600F076
:10878000B7FF25218DF8141002218DF81610012154
:108790008DF8171005A800F01BF9012240F22551B1
:1087A000204600F0D5FF4021204600F0ABFF002816
:1087B000F9D00649252001F02EFD07B030BD00009C
:1087C000000801404CA3000800380140A9960008A9
:1087D0002DE9F05FDFF8388182460C46D8F80000BA
:1087E0001746A8F5807B0BF580760FFA81F9A04239
:1087F0002AD372B6D8F808100819B04215D9ABEBD5
:10880000010505F580755E462A465046FFF742FC95
:10881000671B0AEB05003A463146C8F80860FFF7C7
:1088200039FCD8F80810C81906E022465046FFF770
:1088300031FCD8F808002044C8F80800D8F8000037
:10884000001BC8F800002FE000250120FFF714FEF0
:10885000D8F800006D1CA0422AD372B64546D8F85D
:1088600008100819B04215D9ABEB010606F5807661
:108870005F4632465046FFF70DFCA4EB06080AEBB4
:10888000060042463946AF60FFF704FCA96801EBD9
:10889000080005E022465046FFF7FCFBA86820448C
:1088A000A8602868001B286062B64846BDE8F09FB3
:1088B000002FCAD0BD42C8D372B64446D8F80810BB
:1088C000D8F8000000270844B04214D3ABEB0105F0
:1088D00005F580755E462A465046FFF7DBFBA6602D
:1088E00020683146421B0AEB0500FFF7D3FB2168E5
:1088F000A068491B05E022685046FFF7CBFB2168C2
:10890000A0680844A0602068276062B600B2CDE786
:108910009432002010B5FFF7E7FEBDE810400120BB
:10892000FFF7F6BE70B504460D46084E0BE06D1E0F
:1089300014F8011B304600F069FF4021304600F07A
:10894000E1FE0028F9D0002DF1D170BD00380140C2
:1089500010B500F0F1FF134C02212046FFF700FE96
:10896000012000F0D2FF02212046FFF7F7FD33205F
:1089700000F0CBFF02212046FFF7F2FD032000F0BC
:10898000C4FF02212046FFF7E2FD10B1032000F0F2
:10899000BCFF332000F0B9FF2046BDE810400221A3
:1089A000FFF7DEBD0008014041060748826942F03A
:1089B000010282610548426822F0E062426042683A
:1089C0000A4342607047000000100240000001406E
:1089D00070B50F24C278017801254FF0E026DAB196
:1089E000124A126802F4E062C2F5E062120AC2F1B1
:1089F0000403D44042789A408378234013431A01F9
:108A00000B4BCA54007800F01F018D40400906EB63
:108A10008000C0F8005170BD01F01F00854048097A
:108A200006EB8000C0F8805170BD00000CED00E046
:108A300000E400E002490843024908607047000072
:108A40000000FA050CED00E070B5C0B00646002548
:108A5000FFF7BEFDC0B10DF10304FFF7B9FD01043E
:108A6000090C0CD00A466846FFF7B2FE9DF80000DC
:108A7000FA2804D19DF80100005DED2807D00120FF
:108A8000FFF7FAFC142DE8D3002040B070BD9DF82C
:108A900001206946D21C3280B01CFFF7FBFA01208E
:108AA000F3E70000044A0029D16901D0014300E046
:108AB0008143D1617047000000100240044A002940
:108AC000116901D0014300E081431161704700004A
:108AD00000100240044A0029916901D0014300E0DE
:108AE000814391617047000000100240044A002950
:108AF000D16801D0014300E08143D160704700009C
:108B000000100240214A10B55168214B11F00C01B0
:108B100003D0042901D0082901D0036012E0516874
:108B2000536801F470114FF0020413F4803F04EB1A
:108B3000914102D053689B0301D5164B00E0144BC2
:108B4000594301605168144B01F0F00109095C5C64
:108B50000168E1404160546804F4E064240A1C5D4B
:108B600021FA04F48460546804F46054E40A1B5D40
:108B7000D940C1605268084B02F44042920B1B1F5F
:108B80009A5CB1FBF2F1016110BD000000100240DF
:108B900000127A0000093D006C30002008B5012168
:108BA0000820FFF797FF4FF40060ADF800000420A5
:108BB0008DF8030069460248FFF77BFC08BD000002
:108BC000000C014008B501210820FFF783FF4FF496
:108BD0000060ADF8000003208DF8020010208DF831
:108BE000030069460148FFF764FC08BD000C014022
:108BF0002DE9F05F414E0546871D012088469146CC
:108C00003070FFF74FFC2C6872B64FF0000BA6F8DF
:108C100002B062B6012249464046FFF7A3FC7088C5
:108C2000A042FCD972B6A6F802B062B6002249464C
:108C30004046FFF797FCC4EB441071888842FCD291
:108C400000204FE000243978C4F107020120904051
:108C50002E68014272B61FD028494FF0000BA1F8D0
:108C600002B062B6012249464046FFF77BFC23482A
:108C700006EB460142889142FCD272B659468346C1
:108C8000418062B6002249464046FFF76BFC5846D9
:108C90004188B142FCD91DE0DFF860B00020ABF89C
:108CA000020062B6012249464046FFF75BFC584687
:108CB0004188B142FCD972B60021418062B60A46B1
:108CC00049464046FFF74EFC584606EB46014288AF
:108CD0009142FCD2641CE4B2082CB4D30AF1010026
:108CE0007F1CC0B2A98882465145ABD803490020F9
:108CF0000870FFF7D0FB0120BDE8F09F6430002032
:108D000010B5044C0123237000F0A4F80021217059
:108D100010BD00006430002070B5144D002405EB38
:108D20004400C188002000F055FA641CE4B2032C12
:108D3000F5D30E4D0024183505EB44008188002042
:108D400000F048FA641CE4B2022CF5D3074D00246D
:108D50002835002035F8141000F03CFA641CE4B209
:108D60000E2CF6D302490020087070BDECA200085A
:108D70005C30002070B5FFF7CFFF064D00240020C7
:108D800035F8141000F026FA641CE4B2062CF6D371
:108D900070BD000030A3000870B5FFF7BDFF41F2C1
:108DA0007F142146002000F015FA2146002000F033
:108DB00011FA064D0024002035F8141000F00AFACC
:108DC000641CE4B2052CF6D370BD00003CA300087F
:108DD00010B500F009F8002803D0024900200870FF
:108DE000012010BD5C30002070B5002427212046F2
:108DF00000F0ACF903254FF4FA76B5EB901F03D1E0
:108E0000FF2801D0012070BD641CA4B2B44201D37C
:108E1000002070BD2721002000F098F9EDE770B523
:108E200000242721204600F091F9A0254FF4FA767E
:108E300035EA000103D1FF2801D0012070BD641C78
:108E4000A4B2B44201D3002070BD2721002000F05D
:108E50007DF9EDE72DE9F74F82B0029CA41DFFF7E5
:108E600021FB72B60020654E708062B602E0708809
:108E7000C8287AD8DDE90301FFF769FB0028F6D19D
:108E8000FFF7ACFB054605E05C48418841F6380039
:108E900081426AD8DDE90301FFF759FB0028F3D0CE
:108EA000FFF79CFB142D60D905EB4501B0EBC10F1A
:108EB0005BD905EB450101EB0511B0EB410F54D235
:108EC0002844460902980660002092E0FFF786FBDE
:108ED0004A4F41F6380902E07988494545D8DDE92D
:108EE0000301FFF734FB0028F6D1FFF777FBBA4602
:108EF00080464F4603E0BAF80200B8427CD8DDE96C
:108F00000301FFF724FB0028F5D0FFF767FB0746B6
:108F10000320B6FBF0F0A6EB5601081A009040457E
:108F200037DA3046FFF789F9354A364BFFF7EDF867
:108F3000824689464046FFF780F952464B46FFF786
:108F4000A9F926D23846FFF778F952464B46FFF783
:108F5000B5F90BD206EB8600B84207D92178C5F1E6
:108F6000070201209040814339E045E006EB4600CE
:108F7000B7EBC00F40D906EB460000EB0610B7EB8D
:108F8000400F39D202995846A1F804B005B0BDE8A7
:108F9000F08F3046FFF751F9194A1A4BFFF7B5F831
:108FA00081468A464046FFF748F94A465346FFF74E
:108FB00085F921D206EB860141451DD90098B842BA
:108FC0001ADA3846FFF739F94A465346FFF762F98D
:108FD00012D22178C5F107020120904001436D1C97
:108FE000EDB22170082DFFF471AF0BF10100641C8C
:108FF000C0B28346002569E70020C7E7643000203F
:109000005C8FC2F5285CFF3F70B50024174E2546E3
:10901000640802213046FFF7A3FA00BF00BF022117
:109020003046FFF79BFA00BF00BF00BF0221304669
:10903000FFF796FA00BF00BF00BF00BF00BF0221CC
:109040003046FFF784FA08B144F08004042000F0B1
:109050005CFC6D1CEDB2082DDAD302213046FFF71F
:109060007FFA042000F051FC204670BD000801404A
:109070002DE9F04107460C4690461E46012B25D9A6
:10908000134D0020C5F8B4014FB1C5F8840100F0BC
:1090900024FC2146384600F01DF8002409E0C5F8FC
:1090A000B001F4E7384600F067F808F80400641CE3
:1090B000E4B2B442F6D301202FB1C5F88401BDE873
:1090C000F04100F00ABCC5F8B001F8E7BDE8F08156
:1090D000008021422DE9F047002702001A480D4682
:1090E0003E462DD0C0F884618046C0F8B46100F0DF
:1090F000F4FBB146464608244FF001084846C6F83E
:10910000B491290600D54046C6F8BC0100F0E5FB45
:10911000C6F8B4816806050E00F0DFFBD6F838010A
:1091200008B147F00107641E14F0FF04E6D1C6F849
:10913000B491C6F8BC8100F0D0FB3846BDE8F0879A
:10914000C0F8B061D0E700000080214270B505464C
:10915000FFF7C0FF284600F00FF80446054801213C
:109160002DB1C0F8841100F0B8FB204670BDC0F8E6
:10917000B011F8E7008021422DE9F0410024144E9F
:10918000274610B3C6F884714FF00108C6F8BC81B9
:1091900000F0A3FB0825C6F8B47100F09EFB600642
:1091A000040EC6F8B48100F098FBD6F8380108B177
:1091B00044F001046D1E15F0FF05ECD1C6F8B47142
:1091C00000F08BFB2046BDE8F081C6F8B071DBE70C
:1091D000008021422DE9F0471D4E4FF000075FEA65
:1091E00000090C46C6F8B47110D0C6F8847100F0BE
:1091F00074FB44F400451024B84601274046C6F8E5
:10920000B481290405D5C6F8BC7104E0C6F8B07174
:10921000EDE7C6F8BC0100F060FBC6F8B471680465
:10922000050C00F05AFB641E14F0FF04E6D1C6F8EA
:10923000B481C6F8BC71B9F1000F05D0C6F88471CD
:10924000BDE8F04700F049BBC6F8B071F8E7000090
:109250000080214270B504461646FFF73BFF0546E5
:1092600031462046FFF736FF054901202CB1C1F8F1
:10927000840100F032FB284670BDC1F8B001F8E768
:10928000008021422DE9F041074615461E46FFF7B2
:1092900021FF8046002406E015F8011B3846FFF741
:1092A00019FF641CE4B2B442F6D30549012027B18A
:1092B000C1F884014046BDE8F081C1F8B001F9E78A
:1092C00000802142F8B501210820FFF703FC4FF48C
:1092D0002040ADF8000003208DF80200144F102448
:1092E0008DF8034069463846FFF7E3F8A002ADF871
:1092F000000004208DF8030069463846FFF7D9F8CE
:109300002002ADF800008DF8034069463846FFF7AB
:10931000D0F8084E0125F5624FF00200ADF80000CC
:109320008DF8034069463846FFF7C3F83560F8BD4D
:10933000000C0140848121423EB501210846FFF71F
:10934000B1FB4FF08044204600F0E6F841F288314E
:10935000ADF804103F21ADF800100021ADF8021067
:109360006946204600F050F90121204600F0C3F87C
:1093700001221146204600F03FF90121204600F06D
:10938000C0F802491C2000F046FF3EBDF5930008DE
:1093900008B54FF4E060FFF74DFB1C208DF800008E
:1093A00000208DF8010003208DF8020001208DF8C7
:1093B00003006846FFF70CFB08BD000008B54FF43A
:1093C000C060FFF737FB1D208DF8000000208DF8EE
:1093D000010004208DF8020001208DF8030068468A
:1093E000FFF7F6FA02491D2000F015FF08BD000046
:1093F0001598000870B54FF080404FF6FE7101825D
:109400003149087810B14888401C48802E48001D1A
:10941000017811B14188491C41802B4808300178FE
:1094200011B14188491C418027480C30017811B1A5
:109430004188491C4180254D234A01242868083A67
:1094400058B1401C2860322806D11078C0431070F3
:10945000107800F0D4FE2C6070BD1D4B00251868FC
:10946000401C18605188491C89B25180B0F5C87FF2
:1094700002D1184804601D60C829EDD155801648F6
:1094800000F054FB01281BD1134D28787E2817D1FA
:1094900068787E2814D1A878342811D17E2000F075
:1094A000FBF87E2000F0F8F80024285D00F0F4F8C6
:1094B000641CE4B2202CF8D3022108A000F0F2F8DA
:1094C000BDE87040FFF756BC4C300020143000203F
:1094D000103000200C300020183000203C3C0000F0
:1094E0000029018802D041F0800102E040F27F3281
:1094F000114001807047C94301827047C94301820E
:1095000070470029018802D041F0010102E040F2D9
:10951000FE321140018070472A4910B5884202D1BD
:109520000121C41443E0B0F1804F09D0264988429C
:109530000DD101210220FFF7C1FA002102202DE008
:1095400001210846FFF7BAFA0021012026E01F4951
:10955000884206D101210420FFF7B0FA002104203F
:109560001CE01B49884206D101210820FFF7A6FA1A
:109570000021082012E01749884206D1012110205D
:10958000FFF79CFA0021102008E01349884209D116
:1095900001212020FFF792FA00212020BDE8104091
:1095A000FFF78CBA0D4988420AD1012144142046A4
:1095B000FFF79CFA2046BDE810400021FFF796BA5D
:1095C00010BD0000002C01400004004000080040D5
:1095D000000C004000100040001400400034014026
:1095E00002460020138A92890B4202EA010202D04D
:1095F000002A00D001207047002A828901D00A4346
:1096000000E08A4382817047028802F08F02028064
:10961000CA884B881A4303881A4302808A88828545
:109620000A880285054A904202D0054A904201D13B
:10963000097A01860121818270470000002C0140D7
:10964000003401402DE9F041114D0027114E2F60EB
:1096500000F031FE040012D0286822463044114642
:1096600000F0EDFD2868315C3C2904D1311811F877
:10967000011C3C2909D020440027286000E07F1C01
:109680000120FEF7F9FE142FE2D3BDE8F0810000BF
:10969000383000209430002001B50121684600F0E8
:1096A000C9FD08BD00F0C6BD10B572B640F2255127
:1096B0000D4800F02EF8A0B10C490868FF2810D81A
:1096C0004A680846824202D3A0F580704860064886
:1096D000001D0288486800F8012B48600868401C9B
:1096E000086062B610BD00000038014094320020CE
:1096F0000029818902D041F4005101E021F4005198
:10970000818170470246002012880A4200D0012061
:10971000704770B501F01F0601250024C1F3421304
:1097200005FA06F2012B0FD0022B0FD0838A4FEAE5
:1097300011210088134205FA01F500EA050001D065
:1097400000B10124204670BD8389F0E7038AEEE76B
:1097500010B5C1F3421301F01F040121A140012BF8
:1097600007D0022B07D01430002A026805D00A4324
:1097700004E00C30F8E71030F6E78A43026010BDD1
:1097800030B50446008A85B00D464CF6FF7108409E
:10979000E98801432182A1894EF6F3100140A8888F
:1097A0002A8910436A890A431043A081A08A4FF690
:1097B000FF410840A9890143A1826846FFF7A2F949
:1097C0001148844201D1039800E00298642200EB22
:1097D000C00101EB001029686FF018058900B0FB8B
:1097E000F1F0B0FBF2F109010B096B4300EB8300D0
:1097F000322303EB0010B0FBF2F000F00F0008433F
:10980000208105B030BD000000380140C1F30801DF
:109810008180704710B50C4C01212046FFF7E0FE17
:10982000002809D001212046FFF768FE07494A6851
:109830001AB14868401E486010BD2046BDE810407F
:109840000021FFF75EBE000000040040443000200D
:1098500070B5144E0546002402213046FEF77EFE08
:10986000022000F052F8E8074FF00201304602D023
:10987000FEF776FE01E0FEF771FE6D08FEF7FFFDD4
:1098800002213046FEF76CFE641CE4B2082CE3D3E0
:1098900002213046FEF764FEBDE87040072000F06C
:1098A00034B8000000080140014A024900F004B841
:1098B000659900087C3000202DE9F04104460F46F0
:1098C0001646002503E03946B0476D1C641C20781D
:1098D0000028F8D12846BDE8F081032000BF00BF72
:1098E00000BF00BF00BF00BF00BF401EF8D27047DE
:1098F00070B5051E00DA0125002403E0642000F0A5
:1099000004F8641CAC42F9DB70BD00B5034602E00C
:109910000B2000F003F85B1EFAD200BD09E0032122
:1099200000BF00BF00BF00BF00BF00BF00BF491E97
:10993000F8D2401EF3D2704708B501210420FFF78A
:10994000C9F810208DF8030003208DF802000220D2
:10995000ADF8000069460248FEF7ABFD08BD000007
:109960000008014070B5074D0446C1B22846FFF714
:109970004DFF40212846FFF7C5FE0028F9D02046BC
:1099800070BD00000044004010B500F0EDF8164C2A
:10999000002020604FF00503144A4FF02A014FF0D9
:1099A0000100FFF76FFC012221211046FFF752FC56
:1099B000012222211046FFF74DFC282225210120FB
:1099C000FFF748FC202231210120FFF743FC07224A
:1099D00026210120FFF73EFC0F2220210120FFF766
:1099E00039FC0120206010BD8081214246A300087F
:1099F00070B5054600F0B8F81C4C002121604FF00E
:109A000005031B4A4FF030014FF00100FFF73AFC0D
:109A10000523174A2A210120FFF734FC20232A4678
:109A2000A0210120FFF72EFC012221211046FFF783
:109A300011FC012222211046FFF70CFC1A222421DE
:109A40000120FFF707FC282225210120FFF702FC57
:109A5000072226210120FFF7FDFB0E2220210120F5
:109A6000FFF7F8FB0120206070BD000080812142DB
:109A700046A3000810B5FEF77BFD002803D002487E
:109A80000188491C018010BD6630002008B5012105
:109A90000420FFF71FF81020ADF8000003218DF817
:109AA00002108DF8030069460248FEF702FD00F03F
:109AB00003F808BD0008014010B510210248FEF768
:109AC0004DFD002010BD00000008014010B5102120
:109AD0000248FEF745FD012010BD000000080140CE
:109AE00008B501210820FEF7F5FF01210420FEF74B
:109AF000F1FF0820ADF8000003208DF802001020CF
:109B00008DF8030069460748FEF7D3FC4FF48070D8
:109B1000ADF8000004208DF8030069460248FEF706
:109B2000C8FC08BD000C01400008014070B50646A5
:109B3000002407210120FFF709FB0546FF2227210A
:109B40000120FFF787FB68060BD5202332466121F1
:109B50000120FFF78DFAFF22E2210120FFF77AFBB7
:109B60000124204670BD000010B5074C0020206085
:109B70004FF00D024FF020014FF00100FFF76AFB9C
:109B80000120206010BD00008081214210B5092114
:109B900011A000F04FFB4FF4487421461148FEF726
:109BA00092FA4FF4966214210E4800F048FB0EA181
:109BB0000C48FEF794FA40B10C4A00202146106090
:109BC0000848FEF780FA002010BD21460548FEF740
:109BD0007AFA012010BD000041542B454E544D0D22
:109BE0000A000000943000202B6F6B00043000202E
:109BF000C2B00120FEF7D8FEFD48016821F47021B3
:109C00000160016841F440310160FFF73FFF01202E
:109C100000F0F5FA00F031FBFFF762FFFEF798FE67
:109C200000F0E6FAFFF7CAFB0021F24800F02AFB39
:109C3000FEF731FC0020FFF745FBFEF7AFFFFEF714
:109C400069FEEDA0FFF730FEDFF8C0B3DFF8C09388
:109C500001254FF47A760024EE4F7878012802D05F
:109C6000022811D02FE0B9F80200B04204D97C706C
:109C70000621E948FFF716FDE6481830FEF7CAFC52
:109C8000012820D17C7019E0B9F80200B04204D953
:109C90007C700621E048FFF705FDDE481830FEF72E
:109CA000B9FC01280FD1DC487C7002210E38FFF787
:109CB000F9FCD84820211830FFF7F4FCD6480621DB
:109CC000801FFFF7EFFC3878012802D0022811D05E
:109CD00029E0D2484088B04203D93C700621CE48E2
:109CE0001FE06846FEF7B0FEE8B1CB4802213C70A9
:109CF0001A380BE0C9484088B042EED86846FEF7F3
:109D0000A3FE80B1C4483C7002211838FFF7CAFC9A
:109D1000BDF800100DF10200FFF7C4FCBE4802219F
:109D20001E38FFF7BFFC00F0C6FA00287ED0FFF710
:109D300089FCDFF8EC8298F802003A2877D198F88D
:109D400000004C280CD006DC422871D0442870D08A
:109D50004628F3D1B0E053286CD05428EED193E1DB
:109D600098F8010048280CD006DC42287ED0442810
:109D70007DD04628E2D143E0542879D05728DDD160
:109D80000BE0FEF78DFC002839D0A4483D704480DC
:109D90000570A14802211A3861E1BA46BD70A14F91
:109DA0007C809D483D7002211638FFF77BFCB84649
:109DB00057464FF4807A16E052469B496846FEF7B4
:109DC0009FFF80B19448BC7002211638FFF76AFCEF
:109DD000BDF8041068460831FFF764FC8E48022184
:109DE0001E38FFF75FFCB8F80200B04202D8B8781E
:109DF0000128E1D0B8F80200B04218D9BC70B7E031
:109E0000DFF82882FD70A8F8024088F8005000F0C2
:109E1000EBF9814802211238FFF744FCFEF7E4FF1A
:109E200038B3FEF7BBFE4FF4006A1BE05AE13CE09A
:109E3000A1E031E14BE1524659466846FEF760FF2A
:109E400080B17548FC7002211238FFF72BFCBDF879
:109E5000041068460831FFF725FC6F4802211E38C0
:109E6000FFF720FCB8F80200B04203E01EE020E05B
:109E70000AE003E002D8F8780128DCD0B8F8020044
:109E8000B042BAD9FC7073E0787802280DD06248ED
:109E900002211238FFF706FCFFF776FDA9F8024011
:109EA00089F8005000F0A0F97D706CE100F0E0F955
:109EB000EEE000F0E2F9EBE098F80100462831D03E
:109EC000482804D054284ED05728EED10EE0FEF793
:109ED000FFFB514802211C38FFF7E4FB98F80410FF
:109EE00008F10300091DFEF71DFDD1E04A480027D7
:109EF00003210C38FFF7D6FB4FF4847208F10301FD
:109F00006846FEF7C7F8002208215846FEF72AFBEC
:109F10007F1CFFB2082259466846FEF769FE062FED
:109F2000F6D3B5E03C48002703210938FFF7BAFB18
:109F3000FEF7F2FEFEF730FFFEF771FFC0B1FEF74D
:109F400041FE822208F103016846FEF7A3F84FF4B0
:109F500000687F1CFFB2424659466846FEF748FE3D
:109F6000062FF6D394E008F10400FEF777FBE8BB78
:109F70000621294873E098F80100482895D004DCB0
:109F8000442892D0462890D155E054286AD05728CA
:109F90008BD1BA46BD70234F7C801F483D70022193
:109FA0001438FFF77FFBB84657464FF4807A16E027
:109FB00052461D496846FEF7A3FE80B11648BC70A4
:109FC00002211638FFF76EFBBDF804106846083111
:109FD000FFF768FB104802211E38FFF763FBB8F853
:109FE0000200B0423FF606AFB87821E050E0000032
:109FF00000100140759A0008756172742069732021
:10A00000776F726B696E670D0A000000000C0140EB
:10A010005030002000300020E6A200085830002018
:10A02000943000204C3000200008014054300020C3
:10A030000128BDD0DEE602215648FFF733FB564823
:10A040004480057000F0D0F8FEF766FEFEF792FE41
:10A050006846FEF7BDFE00288ADD82216846FFF7CC
:10A0600021FB90E0787801280DD002214948FFF7C4
:10A0700019FBFFF789FCA9F8024089F8005000F0AD
:10A08000B3F8022078707EE098F801004B287AD16E
:10A09000404806210A30E2E798F80100542802D02F
:10A0A00053280FD06FE0FEF769FAC0B288F80200BB
:10A0B0005528F8D03C2088F8030088F804000521D2
:10A0C0003648CCE7C7E90145042135A0C7E798F831
:10A0D0000100582857D10E2133A000F0ABF800F052
:10A0E000E5F847E034A12D48FDF7F9FFF0B333A1BF
:10A0F0002A48FDF7F4FF28B10A20FFF7F9FB0A21EF
:10A100002FA0ACE731A12548FDF7E9FF48B17D61FB
:10A11000BC6000F069F8FFF739FD38BBBC607C60BB
:10A1200031E02CA11D48FDF7DAFF30B31B481021A8
:10A130001038FDF7C8FF28A11848FDF7D0FF0146E9
:10A14000164810221038FDF7A5FFFFF71FFD80B954
:10A15000FC60032122A07C60FFF7A4FA0F481021C5
:10A160001038FFF79FFA02211EA000E00BE0FFF776
:10A1700099FA3C6100F038F805E0FFF707FD10B9E7
:10A18000BC607C607C614FF480710448FDF79BFFEC
:10A1900062E50000D6A200084C3000209430002078
:10A1A00044533C3C00000000656E7465725F75703E
:10A1B000675F6D6F646500002B6F00004150000009
:10A1C00041542B57414B45590D0A00004F50454E05
:10A1D000000000004D4143002B6F6B3D000000006C
:10A1E000444D3A003C3C000001210846FEF75ABCB1
:10A1F00010B5FFF7CDF8BDE81040FFF79DB808B1E6
:10A20000FFF764BCFFF758BC2D49096851F82000DE
:10A210000199019001BD03B44FF00000DFF8A4F0F4
:10A2200003B44FF00100DFF89CF003B44FF00200DC
:10A23000DFF890F003B44FF00300DFF888F003B4C8
:10A240004FF00400DFF87CF003B44FF00500DFF8B6
:10A2500074F003B44FF00600DFF868F003B44FF079
:10A260000700DFF860F003B44FF00800DFF854F0A7
:10A2700003B44FF00900DFF84CF003B44FF00A00CC
:10A28000DFF840F003B44FF00B00DFF838F003B410
:10A290004FF00C00DFF82CF003B44FF00D00DFF8A6
:10A2A00024F003B44FF00E00DFF818F003B44FF0C1
:10A2B0000F00DFF810F003B44FF01000DFF804F0E7
:10A2C0008030002009A200083C3C46484C484248E7
:10A2D0004C5742574C464246425446573A46463AF5
:10A2E00052453A303C3C52453A313C3C4E07C0085E
:10A2F00000096C0780080009D90700080009E40775
:10A30000C008000968032B04340315041A030B0466
:10A310000D03050468020F1302054106F0198B1A9C
:10A32000101E401B801C061D88181B58006F04015E
:10A330009F1144251013555A705C100104250F130A
:10A340005D5A7C5C0C0134431010010000000000D9
:10A3500080250000004B00000096000000E1000096
:10A3600000C2010000000000000000000100000029
:10A3700000000000000000000000000001010203D6
:10A380000405060708090A0B0C0D0E0F1011121315
:10A390001415161718191A1B1C1D1E1F000000008B
:10A3A000FAF4FAF6FAFD00000000000000000000D8
:10A3B000000000000000000000000000000000009D
:10A3C0000000000000000000000000000204060879
:10A3D000000000000102030401020304060708094B
:08A3E000000000000000000075
:04000005080080016E
:00000001FF
