:020000040800F2
:1080000030E0FEE754413031008000084D332073EA
:10801000797820617070000000000000003230317B
:10802000332E31322E313000000000004DF804EDC7
:10803000134800F1030020F003001249124B88425C
:1080400006D099423CBF50F8042B41F8042BF8D3DA
:108050000E494FF000028B4238BF43F8042BFAD38D
:108060005DF804FB4DF804ED4DF8040DFFF7DEFF5D
:108070005DF8040B0649086001F0D6F95DF804FBD1
:10808000FB970008003000208030002028340020BA
:108090007C300020D2B201E000F8012B491EFBD257
:1080A00070470022F6E710B504460846114602461E
:1080B0002046FFF7EFFF204610BD30B50B460146C6
:1080C00000202022012409E021FA02F59D4205D377
:1080D00003FA02F5491B04FA02F52844151EA2F121
:1080E0000102F1DC30BD000070B505460C460748C2
:1080F0000560204600F00EF800BF04480068002824
:10810000FBD10021024800F071FE70BD3430002028
:10811000000400403EB504460021194800F066FE08
:1081200000220121164800F0EEFE022C03D10120AE
:10813000ADF8040005E0012C03D140F2E730ADF8C2
:1081400004003F20ADF800000020ADF80600ADF8B7
:10815000020069460A4800F0E3FE0121084800F0E9
:1081600042FE0121064800F02FFE0122114604487C
:1081700000F0C9FE0121024800F038FE3EBD0000BB
:108180000004004010B5044602212046FFF7ACFF72
:1081900010BD4FF0E020006920F001004FF0E02119
:1081A000086170474FF0E020006940F001004FF097
:1081B000E021086170472DE9F041024600250026C4
:1081C000002000230024002791F803C00CF00F05C5
:1081D00091F803C01CF0100F03D091F802C04CEAD4
:1081E0000505B1F800C01CF0FF0F31D01468002065
:1081F0002BE04FF0010C0CFA00F3B1F800C00CEAD0
:1082000003069E4220D183004FF00F0C0CFA03F7B7
:10821000BC4305FA03FC4CEA040491F803C0BCF12A
:10822000280F06D14FF0010C0CFA00FCC2F814C064
:108230000AE091F803C0BCF1480F05D14FF0010CE2
:108240000CFA00FCC2F810C0401C0828D1D31460FE
:10825000B1F800C0BCF1FF0F34DD546800202EE0FF
:1082600000F1080C4FF0010808FA0CF3B1F800C057
:108270000CEA03069E4221D183004FF00F0C0CFA4A
:1082800003F7BC4305FA03FC4CEA040491F803C06D
:10829000BCF1280F05D100F1080C08FA0CF8C2F85F
:1082A000148091F803C0BCF1480F07D100F1080C0D
:1082B0004FF0010808FA0CF8C2F81080401C08289A
:1082C000CED35460BDE8F0810246002093680B4293
:1082D00001D0012000E0002070474161704701613A
:1082E00070470000014800787047000054300020BB
:1082F000002072B6034908880021024A118062B644
:10830000704700005630002010B572B600200549B5
:1083100008600548486088604FF48071FFF7C1FE2F
:1083200062B610BD1C3400201C33002010B586B08E
:1083300004460121880300F007F94FF40070ADF8FE
:10834000140018208DF8170003208DF8160005A9D9
:108350002248FFF730FF4FF48060ADF8140004208E
:108360008DF8170005A91D48FFF725FF1C4850F898
:10837000240001900020ADF80800ADF80A00ADF827
:108380000C00ADF810000C20ADF80E0001A9154846
:1083900000F078FE0121134800F00CFE25208DF836
:1083A000000002208DF8020001208DF803006846CD
:1083B00000F066F8012240F225510A4800F03DFE27
:1083C00000BF4021074800F001FE0028F9D006490F
:1083D000252001F09AF806B010BD00000008014009
:1083E00020960008003801405D8F000810B5FFF7A7
:1083F0008BFF0120FFF79AFF10BD000010B500F0C1
:108400008DFF02211148FFF76AFF012000F062FF93
:1084100002210E48FFF761FF332000F05BFF0221CD
:108420000A48FFF75CFF032000F054FF02210748D1
:10843000FFF74AFF10B1032000F04CFF332000F09B
:1084400049FF02210148FFF74AFF10BD0008014023
:1084500001464906084A926942F00102064B9A61B8
:10846000064A526822F0E062044B5A601A4652688B
:108470000A435A60704700000010024000000140AB
:1084800070B5002100230F22C4780CB3164C246869
:1084900004F4E064C4F5E064210AC1F10403CA40B5
:1084A000447804FA03F184781440214309010F4C05
:1084B0000678A155047804F01F050124AC40057826
:1084C0006D114FF0E02606EB8505C5F8004109E087
:1084D000047804F01F050124AC40054D06787611A0
:1084E00045F8264070BD00000CED00E000E400E01F
:1084F00080E100E002490143024A11607047000038
:108500000000FA050CED00E029B1064AD2690243E9
:10851000044BDA6104E0034AD2698243014BDA6119
:10852000704700000010024029B1064A1269024358
:10853000044B1A6104E0034A12698243014B1A6139
:10854000704700000010024029B1064A92690243B8
:10855000044B9A6104E0034A92698243014B9A6199
:10856000704700000010024029B1064AD268024359
:10857000044BDA6004E0034AD2688243014BDA60BC
:10858000704700000010024030B500210022002496
:1085900000232D4D6D6805F00C0121B1042905D093
:1085A000082923D105E0294D056022E0274D05600B
:1085B0001FE0254D6D6805F47012234D6D6805F4BC
:1085C0008034022505EB92421CB9214D55430560CC
:1085D0000BE01D4D6D6815F4003F03D01C4D554355
:1085E000056002E0194D5543056002E0174D056036
:1085F00000BF00BF144D6D6805F0F0010909154D6D
:108600006B5C0568DD4045600F4D6D6805F4E06109
:10861000090A104D6B5C4568DD4085600A4D6D6848
:1086200005F46051C90A0B4D6B5C4568DD40C560BF
:10863000054D6D6805F44041890B074D6B5CC568BD
:10864000B5FBF3F5056130BD0010024000127A0061
:1086500000093D00643000207430002008B501217D
:108660000820FFF771FF4FF40060ADF80000042010
:108670008DF8030069460248FFF79DFD08BD000024
:10868000000C01402DE9F04104460D461646002736
:1086900001200749087032462946204600F04EF86E
:1086A00007460020024908703846BDE8F081000006
:1086B0005430002010B5002407E0134830F814109F
:1086C000002000F037FA601CC4B2032CF5DB002454
:1086D00007E00E4830F81410002000F02BFA601C60
:1086E000C4B2022CF5DB002407E0094830F814106E
:1086F000002000F01FFA601CC4B20E2CF5DB002035
:108700000449087010BD0000C2950008E0950008FB
:10871000EC9500084C30002010B5FFF7CBFF00248B
:1087200007E0054830F81410002000F003FA601C40
:10873000C4B2062CF5DB10BD089600082DE9F04FF9
:1087400085B08046894692460024002500260027F1
:1087500000200390029001908346D4490870D449C8
:10876000088008F106000490FFF71CFDFFF7C0FD2C
:1087700009E0D048008841F63801884203DD002036
:1087800005B0BDE8F08F51464846FFF79DFD002833
:10879000EFD0FFF7ADFD8346BBF10F0F02DDBBF15C
:1087A000320F01DB0020EBE705E0C2480088C82853
:1087B00001DD0020E4E751464846FFF785FD00282B
:1087C000F3D1FFF795FD06460A2E01DA0020D7E720
:1087D00007E0B848008841F63801884201DD0020F2
:1087E000CEE751464846FFF76FFD0028F1D0FFF76E
:1087F0007FFD0746142E0BDD06EB4600B7EBC00FDE
:1088000006DD06EB460000EB0610B7EB400F72DB0F
:10881000782E70DDA02E6EDA1E2FFADD322FFADAF6
:1088200007EB870206EB8601A3A000F09BFC002467
:108830001FE1002518E19D48007800285CD1FFF772
:1088400057FD51464846FFF73FFD50B310E09948A9
:10885000008864280CDD97480095008800EB8002B2
:108860002346924801789B4800F07CFC002087E773
:1088700051464846FFF728FD0028E8D1FFF738FDAC
:108880008B49088008460088022803DD01208749BB
:108890000870E9E0864801888FA000F063FC0020A2
:1088A0006EE70FE08348008864280BDD814800886C
:1088B00000EB80012B4622468648583000F052FCDF
:1088C00000205DE751464846FFF7FEFC0028E9D04E
:1088D000FFF70EFD7649088008460088022803DD70
:1088E000012072490870BFE0714801887AA000F049
:1088F00039FC002044E7D7E06C480078012899D182
:10890000FFF7F6FC51464846FFF7DEFC88B30FE060
:1089100068480088C8280BDD6648008800EB8001A5
:108920002B4622466B48A43000F01CFC002027E7B1
:1089300051464846FFF7C8FC0028E9D1FFF7D8FCAC
:108940005B49088008460088022813DD0846008835
:1089500031280FDC681CC5B20020544908706348F8
:1089600030F814000121A1408843604921F8140027
:108970007AE022E04E480088322812DD4C48008818
:1089800064280EDA681CC5B20120484908705748AF
:1089900030F814000121A1400840544921F8140086
:1089A00062E04348008800EB80012B46224649489C
:1089B000EC3000F0D7FB0020E2E6FFF799FC0EE078
:1089C0003C48008864280ADB3A48008800EB8001B4
:1089D0002B462246464800F0C5FB0020D0E6514613
:1089E0004846FFF771FC0028EAD0FFF781FC3049C8
:1089F000088008460088022813DD084600883128D0
:108A00000FDC681CC5B2002028490870374830F8D0
:108A100014100120A040014388B2344921F8140009
:108A200022E023480088322812DD2148008864288B
:108A30000EDA681CC5B201201C4908702B4830F8BA
:108A400014000121A1400843284921F814000BE03B
:108A50001748008800EB80012B4622462448483006
:108A600000F080FB00208BE6092DFFF6E4AE601CD1
:108A7000C4B2042CFFF6DDAE0D4803882A46214619
:108A80001CA000F06FFB002407E0184830F8141019
:108A900026A000F067FB601CC4B2042CF5DB0CA020
:108AA00000F060FB00206BE6002069E658300020F3
:108AB0005A300020563000206E6172726F77203D70
:108AC0002025642C2077696465203D2025640D0AEB
:108AD0000D0A0000389600082A2A2A2A2A6572728E
:108AE0006F2074696D65203D202564005C30002096
:108AF000689700087265636569766520524338306F
:108B000030206973206F6B2C2069203D2025642C58
:108B1000206B203D2025642C20207469746D652015
:108B20003D2025640D0A0D0A000000002564202068
:108B30000000000070B505460C4600202249086080
:108B40001DB9A1F10401086002E000201F4908607E
:108B50004FF00500FFF716FB44F4004410261DE01B
:108B600000201949086014F4004F03D0012018496F
:108B7000086002E00020164908604FF00500FFF78A
:108B800001FB0120104908604FEA44404FEA1044BD
:108B90004FF00500FFF7F6FA701EC6B2002EDFD1C7
:108BA0000020094908604FF001000A49C1F8BC01E2
:108BB00015B90949086002E00120044908604FF036
:108BC0000500FFF7DFFA70BDB481214284812142A4
:108BD000BC81214200802142B081214238B5044647
:108BE00001210820FFF7B0FC4FF42040ADF8000051
:108BF00003208DF8020010208DF803006946164806
:108C0000FFF7D9FA4FF48040ADF8000004208DF84A
:108C1000030069461048FFF7CEFA4FF48050ADF8D4
:108C2000000010208DF8030069460B48FFF7C3FAD7
:108C300001200A4908604FF00200ADF800004FF033
:108C400010008DF8030069460348FFF7B4FA0120CD
:108C50000349C1F8840138BD000C0140B0812142B4
:108C6000008021420EB501210846FFF74DFC4FF070
:108C7000804000F0C7F841F28830ADF804003F2092
:108C8000ADF800000020ADF8020069464FF08040CA
:108C900000F046F90121880700F0A2F801221146F0
:108CA000900700F030F90121880700F09FF8024991
:108CB0001C2000F02AFC0EBD218D000808B54FF4E1
:108CC000E060FFF717FC1C208DF8000000208DF8F5
:108CD000010003208DF8020001208DF80300684692
:108CE000FFF7CEFB08BD000008B54FF4C060FFF7EA
:108CF00001FC1D208DF8000000208DF801000420EB
:108D00008DF8020001208DF803006846FFF7B8FBDC
:108D100002491D2000F0F9FB08BD00002D9100085C
:108D200010B54FF6FE704FF0804108821E48008853
:108D3000401C1D4908801D480078072813D01C4896
:108D4000007880B908460088C82190FBF1F201FB49
:108D5000120040B917480078C04316490870084609
:108D6000007800F0C1FB1448007820B11248408818
:108D7000401C114948801148007820B10F484088B4
:108D8000401C0E4948800E48007820B10C484088AD
:108D9000401C0B4948800B48007820B109484088A6
:108DA000401C0849488010BD383000203030002079
:108DB0000D3000203A3000203C30002040300020B0
:108DC000443000204830002021B1028842F0800267
:108DD000028004E0028840F27F331A40028070472C
:108DE000CA4302827047CA430282704721B1028897
:108DF00042F00102028004E0028840F2FE331A4091
:108E00000280704710B504462F48844208D10121E2
:108E1000C014FFF7A9FB0021E014FFF7A5FB52E007
:108E2000B4F1804F08D101210846FFF77DFB0021F6
:108E30000120FFF779FB46E02448844208D1012154
:108E40000220FFF771FB00210220FFF76DFB3AE0E3
:108E50001F48844208D101210420FFF765FB00214F
:108E60000420FFF761FB2EE01A48844208D101215B
:108E70000820FFF759FB00210820FFF755FB22E0EF
:108E80001548844208D101211020FFF74DFB002135
:108E90001020FFF749FB16E01048844208D1012159
:108EA0002020FFF741FB00212020FFF73DFB0AE0D7
:108EB0000B48844207D101214014FFF755FB0021E4
:108EC0006014FFF751FB10BD002C0140000400406E
:108ED00000080040000C004000100040001400405A
:108EE0000034014030B50246002000230024158ADA
:108EF00005EA0103958905EA010413B10CB10120CB
:108F000000E0002030BD10B51AB183890B43838186
:108F100004E08389CC43A4B22340838110BD0000C8
:108F2000028802F08F020280CA884B881A430388A5
:108F30001A4302808A8882850A880285054A9042FF
:108F400002D0054A904201D10A7A02860122828229
:108F500070470000002C01400034014010B572B68B
:108F600040F22551104800F03EF8D8B10F48006893
:108F7000FF2817D80D4841680D48814203D3A0F55A
:108F800080700A4948600848001D00880749496800
:108F9000087006484068401C04494860084600685C
:108FA000401C086062B610BD003801401C3400202F
:108FB0001C34002021B1828942F40052828104E0F5
:108FC00082894DF6FF731A40828170470246002065
:108FD000B1F5007F00D100BF13880B4201D0012002
:108FE00000E00020704770B50246002400230025F1
:108FF0000020A1F510666A3E00D100BFC1F3421502
:1090000001F01F03012606FA03F3012D02D1968910
:10901000334006E0022D02D1168A334001E0968AE1
:1090200033400C12012606FA04F41688344013B1BA
:109030000CB1012000E0002070BDF0B50346002413
:10904000002600250020A1F510676A3F00D100BF6F
:109050001846C1F3421401F01F06012707FA06F56E
:10906000012C01D10C3004E0022C01D1103000E0C1
:1090700014301AB107682F43076002E00768AF4356
:109080000760F0BD2DE9F04786B005460E46002486
:10909000A24600BF00BF0027B08900B100BF2F4625
:1090A0002C8A4CF6FF700440F08804432C82AC8973
:1090B0004EF6F3100440B0883189084371890843A3
:1090C0000443AC81AC8A4FF6FF400440B0890443AE
:1090D000AC8201A8FFF758FA1148874202D1DDF8A7
:1090E00010A001E0DDF80CA00AEBCA0000EB0A10AA
:1090F00031688900B0FBF1F86420B8FBF0F004019E
:109100002009642101FB1089322000EB0910B0FB1B
:10911000F1F000F00F0004432C8106B0BDE8F087A9
:1091200000380140C1F308028280704710B5012168
:109130000A48FFF7D7FE80B101210848FFF753FE28
:109140000748006828B106480068401E04490860C6
:1091500003E000210148FFF749FE10BD0004004074
:10916000343000200FB4054B10B503A9044A02980F
:1091700000F008F810BC5DF814FB000049930008EB
:10918000783000202DE9FF4F89B004469B4600252A
:1091900096E0252833D10027641C4D4AB8460121AA
:1091A0002378203B01FA03F0104202D00743641CED
:1091B000F6E720782E2819D114F8010F47F004079C
:1091C0002A280ED06FF02F022078A0F13001092953
:1091D0000CD808EB880102EB410100EB0108641C8C
:1091E000F2E70A98641C50F8048B0A902078002853
:1091F0006AD0642808D0692806D075281FD05A463E
:109200000B9990476D1C5AE00A994FF00A0901C961
:109210000A91002804DAC0F100004FF02D0102E0AD
:10922000390504D52B218DF82010012104E0F90720
:1092300001D02021F7E700218A4608AE0CE00A9908
:109240004FF00A0901C90A91F5E74946FEF735FFD3
:1092500001F1300106F8011D0028F6D1ADEB060042
:1092600000F12009780701D44FF00108C84502DD5C
:10927000A8EB090000E000208046002706E008A8CF
:109280005A46C05D0B9990476D1C7F1C5745F6DB15
:1092900004E030205A460B9990476D1CB8F100014C
:1092A000A8F10108F5DC05E016F8010B5A460B9908
:1092B00090476D1CB9F10001A9F10109F4DC641CAF
:1092C000207800287FF465AF0DB02846BDE8F08F08
:1092D0000928010010B5044602E00B2000F005F853
:1092E0002000A4F10104F8D110BD11E0032100BF5A
:1092F00000BF00BF00BF00BF00BF00BF04E000BF51
:1093000000BF00BF00BF00BF0A00A1F10101F6D1FC
:109310000200A0F10100E9D17047000008B5012169
:109320000420FFF711F910208DF8030003208DF8B9
:1093300002000220ADF8000069460248FEF73BFF3C
:1093400008BD00000008014070B504460D46E1B2BA
:109350000548FFF7E7FE00BF40210348FFF736FE50
:109360000028F9D0204670BD0044004010B5FEF73B
:10937000B9FF20B102480088401C0149088010BD97
:109380005630002008B501210820FFF7DDF88020C5
:10939000ADF8000003208DF8020010208DF80300C6
:1093A00069460348FEF707FF00F004F808BD000017
:1093B000000C014010B580210248FEF78EFF00200E
:1093C00010BD0000000C014010B580210248FEF7DE
:1093D00086FF012010BD0000000C014008B50121EE
:1093E0000820FFF7B1F801210420FFF7ADF8402075
:1093F000ADF8000003208DF8020010208DF8030066
:1094000069460748FEF7D7FE0820ADF800000420A3
:109410008DF8030069460348FEF7CDFE08BD000045
:1094200000080140000C01400120FFF711F81E4820
:10943000006820F470201C4908600846006840F469
:1094400040300860FFF79EFF012000F04DF800F06B
:109450008EF8FFF7C3FFFEF7D1FF00F03FF8FFF7EC
:1094600043FC0021114800F087F8FEF792FE00202F
:10947000FFF7B4FBFFF7F2F8FEF7B8FF00F028F8AB
:109480000BA0FFF76FFEFEF78DFEFFF745F909E031
:109490004FF400620B490C48FFF7F4F810B10020BC
:1094A0000A490870F4E70000001001406D930008BD
:1094B0007561727420697320776F726B696E670DC6
:1094C0000A000000000C0140803000200C30002019
:1094D00010B501210846FFF717F810BD10B5FFF7CA
:1094E000EDFBFFF7BFFB10BD10B5044614B1FFF74D
:1094F0006BFF01E0FFF75EFF10BD00002D4909681A
:1095000051F820000199019001BD03B44FF0000013
:10951000DFF8A4F003B44FF00100DFF89CF003B4CF
:109520004FF00200DFF890F003B44FF00300DFF8D3
:1095300088F003B44FF00400DFF87CF003B44FF080
:109540000500DFF874F003B44FF00600DFF868F0B0
:1095500003B44FF00700DFF860F003B44FF00800E9
:10956000DFF854F003B44FF00900DFF84CF003B417
:109570004FF00A00DFF840F003B44FF00B00DFF8C3
:1095800038F003B44FF00C00DFF82CF003B44FF0C8
:109590000D00DFF824F003B44FF00E00DFF818F0F0
:1095A00003B44FF00F00DFF810F003B44FF01000D9
:1095B000DFF804F07C300020FD9400084E07C0085E
:1095C00000096C0780080009D90700080009E407B2
:1095D000C00800097F117C117911761168032B04F2
:1095E000340315041A030B040D03050468020F135A
:1095F00002054106F0198B1A101E401B801C061D27
:1096000088181B58006F04019F1144251013555AE8
:10961000705C100104250F135D5A7C5C0C01000086
:109620000000000080250000004B000000960000B4
:1096300000E1000000C201006572726F3A2073758C
:10964000636F64653A20302C204750494F3A2031EF
:109650002C203E444F55424C455F482C2073756387
:109660006F64653D2025642C20312E2074696D6562
:10967000636F756E742069732025642C20693D200A
:1096800025642C206B3D2025640D0A0D0A00000086
:109690006572726F3A207375636F64653A20302C7F
:1096A000204750494F3A20302C203E444F55424CE1
:1096B000455F482C20302E2074696D65636F756E90
:1096C000742069732025642C693D2025642C206B4F
:1096D0003D2025640D0A0D0A000000006572726FBE
:1096E0003A207375636F64653A20312C20475049E6
:1096F0004F3A20312C203E444F55424C455F482C78
:109700002074696D65636F756E74206973202564BC
:109710002C20693D2025642C206B3D2025640D0AFA
:109720000D0A00006572726F3A207375636F64658D
:10973000207469656D3A20312C204750494F3A20FA
:10974000312C2074696D65636F756E7420697320A8
:1097500025642C20693D2025642C206B3D20256448
:109760000D0A0D0A000000006572726F3A207375D1
:10977000636F64653A20312C204750494F3A2030BE
:109780002C203E444F55424C455F482C2074696D57
:1097900065636F756E742069732025642C693D20A4
:1097A00025642C206B3D2025640D0A0D0A00000065
:1097B0006572726F2074696D653A207375636F64AA
:1097C000653A20312C204750494F3A20302C206FE9
:1097D00074686572206572722C2074696D65636FA0
:1097E000756E742069732025642C693D2025642CD6
:1097F000206B3D2025640D0A0D0A0000FAF50000DB
:109800000000000000000000000001010203040548
:10981000060708090A0B0C0D0E0F10111213141570
:10982000161718191A1B1C1D1E1F0000000000002F
:109830000000000000000000000000000000000028
:109840000000000000000000000000000000000018
:109850000000000000000000000000000000000008
:1098600000000000010203040102030406070809C6
:0C987000020406080000000000000000D8
:04000005080080016E
:00000001FF
