:020000040800F2
:1080000030E0FEE754413031008000084D332073EA
:10801000797820617070000000000000003230317B
:10802000332E31322E313000000000004DF804EDC7
:10803000134800F1030020F003001249124B88425C
:1080400006D099423CBF50F8042B41F8042BF8D3DA
:108050000E494FF000028B4238BF43F8042BFAD38D
:108060005DF804FB4DF804ED4DF8040DFFF7DEFF5D
:108070005DF8040B0649086001F020FD5DF804FB83
:10808000E0A0000800300020743000209032002072
:108090007030002040EA01039B0703D009E008C9C3
:1080A000121F08C0042AFAD203E011F8013B00F8BD
:1080B000013B521EF9D27047D2B201E000F8012B09
:1080C000491EFBD270470022F6E710B50446084669
:1080D000114602462046FFF7EFFF204610BD30B59F
:1080E0000EE003460A4601E05B1C521C1C78157822
:1080F000AC4201D1002CF7D115F0FF0F04D0401C89
:108100000278002AEDD1002030BD2DE9FE4F81EA32
:10811000030421F0004504F0004423F000414FF037
:10812000000A009450EA050302D052EA010304D188
:108130000020014603B0BDE8F08FC1F30A53C5F338
:108140000A541C44A0FB02B3C5F3130545F4801C7C
:10815000C1F3130141F480180CFB023300FB083E0D
:10816000A4F2F334810A930A41EA8C5143EA88531A
:108170000194A1FB03474FEA9C2505FB03734FEADB
:10818000982601FB06373D05260545EA1435BBEB6D
:1081900006016EEB0503850E920E45EA8C1542EA48
:1081A0008812A5FB0206261E67EB00070C0D44EAA9
:1081B0000334A41947EB1350C1F313064FF0000327
:1081C00019464FEA033343EA165343EA0403019C7A
:1081D000E5FB0201A4F10C040294009C4FEA063274
:1081E000CDE900A400F09BF8A4E770B521F00043AE
:1081F00003430CD0C1F30A540026D4EB060566EB0A
:108200000603D417AD1AA34102DB0020014670BD5E
:10821000001C41EB025170BD0EB5C10F80EAE07049
:108220000844CA07002140F233438DE80E000A4695
:108230000B4600F074F803B000BD0EB540F23341B8
:1082400002910021CDE900110A460B4600F067F8C3
:1082500003B000BD70B5C1F30A5201F0004500241F
:10826000C1F3130140F2FF3341F480119A4201DA65
:10827000002070BD40F233439A42A2F2334203DC45
:10828000524200F02FF800E090402C43F1D04042E1
:1082900070BD000030B5002904DB4FF000444042BF
:1082A00064EB0101002B04DB4FF00044524264EB0D
:1082B00003038B4208BF824230BD000030B5002965
:1082C00004DB4FF00044404264EB0101002B04DB6F
:1082D0004FF00044524264EB0303994208BF9042BE
:1082E00030BD0000202A04DB203A21FA02F00021F0
:1082F000704721FA02F3D040C2F1200291400843B6
:108300001946704710B5002B08DA401C41F10001F6
:1083100092185B411A4301D120F0010010BD2DE9F4
:10832000F04D92469B4611B1B1FA81F202E0B0FAEB
:1083300080F22032904600F044F806460F4640EAAC
:108340000A0041EA0B0152465B46084303D130461E
:108350003946BDE8F08D194652EA010015D0C8F142
:1083600040025046FFF7BEFF04460D4650465946B0
:10837000424600F026F8084301D0012000E000202A
:10838000044345EAE07526432F430A984FEAD62571
:10839000A0EB08000A304FEA46534FF0000245EACE
:1083A00047554FEAD72402D500200146D1E7010501
:1083B00050196141DDE9084500196941BDE8F04DFA
:1083C000A0E7202A04DB203A00FA02F100207047DF
:1083D0009140C2F1200320FA03F319439040704703
:1083E00010B5074C6060084600F00EF86068002881
:1083F000FCD1BDE810400021024801F048B800005F
:1084000038300020000400403EB51A4D04460021DB
:10841000284601F03CF800220121284601F0B2F87C
:10842000022C02D0012C02D005E0012001E040F234
:10843000E730ADF804003F20ADF800000020ADF8B3
:108440000600ADF802006946284601F0A3F80121B4
:10845000284601F019F80121284601F007F8012209
:108460001146284601F08EF80121284601F00FF848
:108470003EBD0000000400400121FFF7B1BF00B580
:10848000012001F0F5F9022001F0F2F902205DF877
:1084900004EB01F0EDB94FF0E020016921F001019A
:1084A000016170474FF0E020016941F00101016175
:1084B0007047F0B5CC78002204F00F03E40601D534
:1084C0008C7823430C884FF00F0C14F0FF0F4FF003
:1084D000010E1AD005680E880EFA02F42640A64254
:1084E0000FD196000CFA06F7BD4303FA06F63543A2
:1084F000CE78282E02D0482E02D002E0446100E05F
:108500000461521C082AE6D305600A88FF2A1DD997
:108510004568002202F108060EFA06F40E8826408D
:10852000A6420FD196000CFA06F725EA070703FAD0
:1085300006F5CE783D43282E00D14461CE78482EF2
:1085400000D10461521C082AE4D34560F0BD024604
:10855000002092680A4200D00120704741617047B4
:10856000016170470AB101617047416170470000C5
:1085700001480078704700005230002070B500F0CC
:10858000EBF9CC2001F024F9442001F021F933204B
:1085900001F06EF900F0E0F9CC2001F019F9BE20ED
:1085A00001F016F900F036FD054600F033FD45EA0E
:1085B000002424F47840FFF72FFE6FF00302FFF74A
:1085C00014FEFFF747FE14F4784F00D0404270BD10
:1085D00001480068704700008432002072B60349E9
:1085E000488800224A8062B670470000523000205E
:1085F00008B50121082000F083FA0420ADF800003E
:108600008DF8030069460248FFF753FF08BD0000DC
:10861000000C014070B500240721012000F09CFDF2
:10862000054602462721012000F01AFE68060BD5F8
:108630002023094A6121012000F020FDFF22E221D0
:10864000012000F00DFE0124FF222721012000F06F
:1086500007FE204670BD00000C30002070B50546B6
:108660000024FF222721012000F0FAFD284601F016
:1086700073F9FFF7BDFF0949D1F80821002AFBD1A2
:108680000721012000F068FD800600D50124FF22AB
:108690002721012000F0E4FD204670BD008021422A
:1086A00038B5FF208DF8000000F022F802210948BB
:1086B00000F03CF91E220121684600F08DF89DF87B
:1086C000000020B1002400F013F8204638BD01243A
:1086D000F9E700003530002010B50221034800F012
:1086E00025F900F005F8012010BD0000333000200E
:1086F00010B572B6002107480160A0F58071416095
:1087000081604FF48071A0F58070FFF7DCFC62B6E9
:1087100010BD00008432002030B50446012187B02E
:10872000880300F0EDF94FF40071ADF81010182136
:108730008DF813100320244D8DF8120004A928464B
:10874000FFF7B7FE2815ADF8100004208DF81300D0
:1087500004A92846FFF7ADFE1C4951F824000090FB
:108760000020ADF80400ADF80600ADF80800ADF843
:108770000C000C20164CADF80A006946204600F0AB
:10878000BFFF0121204600F073FF25218DF8141052
:1087900002218DF8161001218DF8171005A800F0A0
:1087A0001BF9012240F22551204600F091FF4021A3
:1087B000204600F067FF0028F9D00649252001F087
:1087C000E4FB07B030BD000000080140C8A000086D
:1087D00000380140299600082DE9F05FDFF8388164
:1087E00082460C46D8F800001746A8F5807B0BF5AA
:1087F00080760FFA81F9A0422AD372B6D8F8081011
:108800000819B04215D9ABEB010505F580755E4638
:108810002A465046FFF73EFC671B0AEB05003A4626
:108820003146C8F80860FFF735FCD8F80810C819B9
:1088300006E022465046FFF72DFCD8F808002044F9
:10884000C8F80800D8F80000001BC8F800002FE0A6
:1088500000250120FFF710FED8F800006D1CA04293
:108860002AD372B64546D8F808100819B04215D96F
:10887000ABEB010606F580765F4632465046FFF7C1
:1088800009FCA4EB06080AEB060042463946AF6035
:10889000FFF700FCA96801EB080005E022465046FE
:1088A000FFF7F8FBA8682044A8602868001B286030
:1088B00062B64846BDE8F09F002FCAD0BD42C8D37B
:1088C00072B64446D8F80810D8F8000000270844CB
:1088D000B04214D3ABEB010505F580755E462A4620
:1088E0005046FFF7D7FBA66020683146421B0AEBD3
:1088F0000500FFF7CFFB2168A068491B05E022684F
:108900005046FFF7C7FB2168A0680844A0602068B4
:10891000276062B600B2CDE78432002010B5FFF7C1
:10892000E7FEBDE810400120FFF7F6BE70B5044633
:108930000D46084E0BE06D1E14F8011B304600F08A
:1089400025FF4021304600F09DFE0028F9D0002D83
:10895000F1D170BD0038014010B500F0A1FF134CFB
:1089600002212046FFF7FCFD012000F081FF0221DB
:108970002046FFF7F3FD332000F07AFF0221204666
:10898000FFF7EEFD032000F073FF02212046FFF702
:10899000DEFD10B1032000F06BFF332000F068FF14
:1089A0002046BDE810400221FFF7DABD0008014073
:1089B00041060748826942F0010282610548426827
:1089C00022F0E062426042680A4342607047000061
:1089D000001002400000014070B50F24C2780178F9
:1089E00001254FF0E026DAB1124A126802F4E06283
:1089F000C2F5E062120AC2F10403D44042789A4000
:108A00008378234013431A010B4BCA54007800F0BB
:108A10001F018D40400906EB8000C0F8005170BD79
:108A200001F01F008540480906EB8000C0F8805126
:108A300070BD00000CED00E000E400E002490843D6
:108A400002490860704700000000FA050CED00E0E4
:108A50002DE9F0430024C1B081462546FFF7B8FD5B
:108A6000A0B3E8460DF10307FFF7B2FD0604360C8C
:108A700025D0002508EB040005223146FFF7ACFEA7
:108A8000A01984B2062C1CD39DF80000FA2818D136
:108A90009DF80100C05DED2813D19DF801206946C5
:108AA000121DA9F8002009F10200FFF7F3FA214690
:108AB0006846FFF708FB012041B0BDE8F0836D1C5C
:108AC000EDB20120FFF7D8FC0A2DCDD30020F3E74B
:108AD000044A0029D16901D0014300E08143D161FA
:108AE0007047000000100240044A0029116901D0BB
:108AF000014300E081431161704700000010024013
:108B0000044A0029916901D0014300E08143916149
:108B10007047000000100240044A0029D16801D0CB
:108B2000014300E08143D160704700000010024023
:108B3000214A10B55168214B11F00C0103D00429D2
:108B400001D0082901D0036012E05168536801F494
:108B500070114FF0020413F4803F04EB914102D0F6
:108B600053689B0301D5164B00E0144B5943016039
:108B70005168144B01F0F00109095C5C0168E140A7
:108B80004160546804F4E064240A1C5D21FA04F492
:108B90008460546804F46054E40A1B5DD940C160E9
:108BA0005268084B02F44042920B1B1F9A5CB1FBC7
:108BB000F2F1016110BD00000010024000127A00C5
:108BC00000093D005A30002008B501210820FFF7B8
:108BD00097FF4FF40060ADF8000004208DF803000B
:108BE00069460248FFF765FC08BD0000000C014023
:108BF00008B501210820FFF783FF4FF40060ADF8AE
:108C0000000003208DF8020010208DF80300694653
:108C10000148FFF74EFC08BD000C01402DE9F05F54
:108C2000414E0546871D0120884691463070FFF76A
:108C300039FC2C6872B64FF0000BA6F802B062B691
:108C4000012249464046FFF78DFC7088A042FCD9BE
:108C500072B6A6F802B062B6002249464046FFF757
:108C600081FCC4EB441071888842FCD200204FE0A4
:108C700000243978C4F10702012090402E68014297
:108C800072B61FD028494FF0000BA1F802B062B6AF
:108C9000012249464046FFF765FC234806EB4601A2
:108CA00042889142FCD272B659468346418062B6F0
:108CB000002249464046FFF755FC58464188B142DC
:108CC000FCD91DE0DFF860B00020ABF8020062B60E
:108CD000012249464046FFF745FC58464188B142CB
:108CE000FCD972B60021418062B60A464946404628
:108CF000FFF738FC584606EB460142889142FCD209
:108D0000641CE4B2082CB4D30AF101007F1CC0B289
:108D1000A98882465145ABD8034900200870FFF767
:108D2000BAFB0120BDE8F09F5230002010B5044C82
:108D30000123237000F094F80021217010BD000081
:108D40005230002070B5144D002405EB4400C1885A
:108D5000002000F045FA641CE4B2032CF5D30E4D5C
:108D60000024183505EB44008188002000F038FA13
:108D7000641CE4B2022CF5D3074D002428350020F2
:108D800035F8141000F02CFA641CE4B20E2CF6D363
:108D900002490020087070BD68A000085030002013
:108DA00070B5FFF7CFFF41F27F142146002000F09D
:108DB00017FA2146002000F013FA064D0024002087
:108DC00035F8141000F00CFA641CE4B2052CF6D34C
:108DD00070BD0000B8A0000870B50024272120460F
:108DE00000F0BAF903254FF4FA76B5EB901F06D1DF
:108DF000FF2804D00AA000F017FD012070BD641CFC
:108E0000A4B2B44201D3002070BD06A000F00CFD56
:108E10000120FFF731FB2721002000F09DF9E4E756
:108E2000310D0A00300D0A0070B5002427212046BC
:108E300000F092F9A0254FF4FA7635EA000103D14B
:108E4000FF2801D0012070BD641CA4B2B44201D33C
:108E5000002070BD2721002000F07EF9EDE7000022
:108E60002DE9F74F82B0029CA41DFFF71BFB72B6E1
:108E70000020654E708062B602E07088C8287AD8FB
:108E8000DDE90301FFF763FB0028F6D1FFF7A6FB3E
:108E9000054605E05C48418841F6380081426AD8C1
:108EA000DDE90301FFF753FB0028F3D0FFF796FB42
:108EB000142D60D905EB4501B0EBC10F5BD905EB73
:108EC000450101EB0511B0EB410F54D2284446098E
:108ED00002980660002092E0FFF780FB4A4F41F6BF
:108EE000380902E07988494545D8DDE90301FFF7F3
:108EF0002EFB0028F6D1FFF771FBBA4680464F469D
:108F000003E0BAF80200B8427CD8DDE90301FFF7BC
:108F10001EFB0028F5D0FFF761FB07460320B6FBD8
:108F2000F0F0A6EB5601081A0090404537DA3046BB
:108F3000FFF783F9354A364BFFF7E7F88246894653
:108F40004046FFF77AF952464B46FFF7A3F926D27F
:108F50003846FFF772F952464B46FFF7AFF90BD28E
:108F600006EB8600B84207D92178C5F10702012037
:108F70009040814339E045E006EB4600B7EBC00F77
:108F800040D906EB460000EB0610B7EB400F39D294
:108F900002995846A1F804B005B0BDE8F08F3046FC
:108FA000FFF74BF9194A1A4BFFF7AFF881468A468B
:108FB0004046FFF742F94A465346FFF77FF921D270
:108FC00006EB860141451DD90098B8421ADA3846A9
:108FD000FFF733F94A465346FFF75CF912D221787E
:108FE000C5F107020120904001436D1CEDB22170D4
:108FF000082DFFF471AF0BF10100641CC0B2834671
:10900000002569E70020C7E7523000205C8FC2F5D9
:10901000285CFF3F70B50024174E254664080221E6
:109020003046FFF79DFA00BF00BF02213046FFF730
:1090300095FA00BF00BF00BF02213046FFF790FA4B
:1090400000BF00BF00BF00BF00BF02213046FFF7D6
:109050007EFA08B144F08004042000F009FC6D1C85
:10906000EDB2082DDAD302213046FFF779FA042059
:1090700000F0FEFB204670BD000801402DE9F041E4
:1090800007460C4690461E46012B25D9134D00205D
:10909000C5F8B4014FB1C5F8840100F0DEFB2146EC
:1090A000384600F01DF8002409E0C5F8B001F4E7E7
:1090B000384600F067F808F80400641CE4B2B442D3
:1090C000F6D301202FB1C5F88401BDE8F04100F0CE
:1090D000C4BBC5F8B001F8E7BDE8F08100802142CB
:1090E0002DE9F047002702001A480D463E462DD0D4
:1090F000C0F884618046C0F8B46100F0AEFBB146B0
:10910000464608244FF001084846C6F8B49129069F
:1091100000D54046C6F8BC0100F09FFBC6F8B481FC
:109120006806050E00F099FBD6F8380108B147F043
:109130000107641E14F0FF04E6D1C6F8B491C6F826
:10914000BC8100F08AFB3846BDE8F087C0F8B0610A
:10915000D0E700000080214270B50546FFF7C0FF50
:10916000284600F00FF80446054801212DB1C0F84B
:10917000841100F072FB204670BDC0F8B011F8E712
:10918000008021422DE9F0410024144E274610B3FF
:10919000C6F884714FF00108C6F8BC8100F05DFB91
:1091A0000825C6F8B47100F058FB6006040EC6F836
:1091B000B48100F052FBD6F8380108B144F0010444
:1091C0006D1E15F0FF05ECD1C6F8B47100F045FB3B
:1091D0002046BDE8F081C6F8B071DBE7008021428F
:1091E0002DE9F0471D4E4FF000075FEA00090C46DD
:1091F000C6F8B47110D0C6F8847100F02EFB44F4A8
:1092000000451024B84601274046C6F8B481290419
:1092100005D5C6F8BC7104E0C6F8B071EDE7C6F834
:10922000BC0100F01AFBC6F8B4716804050C00F02C
:1092300014FB641E14F0FF04E6D1C6F8B481C6F82E
:10924000BC71B9F1000F05D0C6F88471BDE8F047D4
:1092500000F003BBC6F8B071F8E7000000802142BF
:1092600070B504461646FFF73BFF054631462046DB
:10927000FFF736FF054901202CB1C1F8840100F049
:10928000ECFA284670BDC1F8B001F8E70080214231
:109290002DE9F041074615461E46FFF721FF80469F
:1092A000002406E015F8011B3846FFF719FF641C7F
:1092B000E4B2B442F6D30549012027B1C1F88401D4
:1092C0004046BDE8F081C1F8B001F9E700802142D5
:1092D000F8B501210820FFF713FC4FF42040ADF84A
:1092E000000003208DF80200144F10248DF8034075
:1092F00069463846FFF7DDF8A002ADF8000004200B
:109300008DF8030069463846FFF7D3F82002ADF820
:1093100000008DF8034069463846FFF7CAF8084E4A
:109320000125F5624FF00200ADF800008DF8034012
:1093300069463846FFF7BDF83560F8BD000C0140BE
:10934000848121423EB501210846FFF7C1FB4FF061
:109350008044204600F0A6F841F28831ADF80410B0
:109360003F21ADF800100021ADF8021069462046FB
:1093700000F010F90121204600F083F80122114687
:10938000204600F0FFF80121204600F080F8024955
:109390001C2000F0FAFD3EBD0194000808B54FF412
:1093A000E060FFF74BFB1C208DF8000000208DF8DB
:1093B000010003208DF8020001208DF803006846AB
:1093C000FFF70AFB08BD000008B54FF4C060FFF7C7
:1093D00035FB1D208DF8000000208DF801000420D1
:1093E0008DF8020001208DF803006846FFF7F4FABB
:1093F00002491D2000F0C9FD08BD00009597000836
:1094000010B54FF080404FF6FE710182154800788C
:10941000062801D000F006FB1348017811B14188FD
:10942000491C41801048001D017811B14188491C38
:1094300041800D480830017811B14188491C4180B4
:1094400009480C30017811B14188491C4180064817
:1094500008380178C94301700078BDE8104000F079
:1094600088BD0000303000204030002000290188F5
:1094700002D041F0800102E040F27F3211400180D1
:109480007047C94301827047C94301827047002970
:10949000018802D041F0010102E040F2FE321140A9
:1094A000018070472A4910B5884202D10121C414B5
:1094B00043E0B0F1804F09D0264988420DD1012107
:1094C0000220FFF711FB002102202DE001210846B8
:1094D000FFF70AFB0021012026E01F49884206D140
:1094E00001210420FFF700FB002104201CE01B49A0
:1094F000884206D101210820FFF7F6FA0021082052
:1095000012E01749884206D101211020FFF7ECFA3A
:109510000021102008E01349884209D101212020B0
:10952000FFF7E2FA00212020BDE81040FFF7DCBA87
:109530000D4988420AD1012144142046FFF7ECFA74
:109540002046BDE810400021FFF7E6BA10BD00003C
:10955000002C01400004004000080040000C0040C6
:10956000001000400014004000340140024600207A
:10957000138A92890B4202EA010202D0002A00D02B
:1095800001207047002A828901D00A4300E08A4303
:1095900082817047028802F08F020280CA884B885D
:1095A0001A4303881A4302808A8882850A880285C2
:1095B000054A904202D0054A904201D1097A0186BB
:1095C0000121818270470000002C014000340140DD
:1095D0002DE9F041114D0027114E2F6000F025FDBF
:1095E000040012D0286822463044114600F0E1FC05
:1095F0002868315C3C2904D1311811F8011C3C2940
:1096000009D020440027286000E07F1C0120FEF7DD
:1096100033FF142FE2D3BDE8F08100002C3000208E
:109620007430002000F0C0BC10B572B640F2255175
:109630000D4800F02EF8A0B10C490868FF2810D89A
:109640004A680846824202D3A0F580704860064806
:10965000001D0288486800F8012B48600868401C1B
:10966000086062B610BD000000380140843200205E
:109670000029818902D041F4005101E021F4005118
:10968000818170470246002012880A4200D00120E2
:10969000704770B501F01F0601250024C1F3421385
:1096A00005FA06F2012B0FD0022B0FD0838A4FEA66
:1096B00011210088134205FA01F500EA050001D0E6
:1096C00000B10124204670BD8389F0E7038AEEE7EC
:1096D00010B5C1F3421301F01F040121A140012B79
:1096E00007D0022B07D01430002A026805D00A43A5
:1096F00004E00C30F8E71030F6E78A43026010BD52
:1097000030B50446008A85B00D464CF6FF7108401E
:10971000E98801432182A1894EF6F3100140A8880F
:109720002A8910436A890A431043A081A08A4FF610
:10973000FF410840A9890143A1826846FFF7F8F973
:109740001148844201D1039800E00298642200EBA2
:10975000C00101EB001029686FF018058900B0FB0B
:10976000F1F0B0FBF2F109010B096B4300EB830050
:10977000322303EB0010B0FBF2F000F00F000843BF
:10978000208105B030BD000000380140C1F3080160
:109790008180704710B50C4C01212046FFF7E6FE92
:1097A000002809D001212046FFF76EFE07494A68CC
:1097B0001AB14868401E486010BD2046BDE8104000
:1097C0000021FFF764BE0000000400403830002094
:1097D00070B5144E0546002402213046FEF7BEFE49
:1097E000022000F045F8E8074FF00201304602D0B1
:1097F000FEF7B6FE01E0FEF7B1FE6D08FEF73FFE94
:1098000002213046FEF7ACFE641CE4B2082CE3D320
:1098100002213046FEF7A4FEBDE87040072000F0AC
:1098200027B8000000080140014A024900F004B8CE
:10983000CD9800086C3000202DE9F04104460F4619
:109840001646002503E03946B0476D1C641C20789D
:109850000028F8D12846BDE8F081032000BF00BFF2
:1098600000BF00BF00BF00BF00BF401EF8D270475E
:1098700000B5034602E00B2000F003F85B1EFAD2AD
:1098800000BD09E0032100BF00BF00BF00BF00BF53
:1098900000BF00BF491EF8D2401EF3D2704700003F
:1098A00008B501210420FFF72BF910208DF80300E3
:1098B00003208DF802000220ADF80000694602483E
:1098C000FEF7F7FD08BD00000008014070B5074D28
:1098D0000446C1B22846FFF759FF40212846FFF74A
:1098E000D1FE0028F9D0204670BD000000440040A1
:1098F00010B500F0D1F8164C002020604FF00503A1
:10990000144A4FF02A014FF00100FFF7C1FC012279
:1099100021211046FFF7A4FC012222211046FFF767
:109920009FFC282225210120FFF79AFC20223121CB
:109930000120FFF795FC072226210120FFF790FC6C
:109940000F2220210120FFF78BFC0120206010BD99
:1099500080812142C2A0000870B5054600F09CF845
:109960001C4C002121604FF005031B4A4FF03001D1
:109970004FF00100FFF78CFC0523174A2A21012034
:10998000FFF786FC20232A46A0210120FFF780FC58
:10999000012221211046FFF763FC012222211046FB
:1099A000FFF75EFC1A2224210120FFF759FC282230
:1099B00025210120FFF754FC072226210120FFF773
:1099C0004FFC0E2220210120FFF74AFC01202060DD
:1099D00070BD000080812142C2A0000810B5FEF7D2
:1099E000C7FD002803D002480188491C018010BD32
:1099F0005430002008B501210820FFF781F88020AD
:109A0000ADF8000003208DF8020010208DF803004F
:109A100069460348FEF74DFD00F004F808BD00005C
:109A2000000C014010B580210248FEF797FD002090
:109A300010BD0000000C014010B580210248FEF767
:109A40008FFD012010BD0000000C014008B5012170
:109A50000820FFF755F801210420FFF751F84020B6
:109A6000ADF8000003208DF8020010208DF80300EF
:109A700069460748FEF71DFD0820ADF800000420E8
:109A80008DF8030069460348FEF713FD08BD00008A
:109A900000080140000C014010B5074C0020206078
:109AA0004FF00D024FF020014FF00100FFF7D8FBFF
:109AB0000120206010BD000080812142C2B0012041
:109AC000FEF776FFFE48016821F47021016001680D
:109AD00041F440310160FFF78DFF012000F049FAA9
:109AE00000F085FAFFF7B2FFFEF736FF00F03AFA12
:109AF000FFF76AFC0021F34800F07EFAFEF7CBFC8A
:109B00000020FFF7E5FBFFF75FF8FEF707FF00F027
:109B100025FAEDA0FFF788FEDFF8C0B3DFF8C093A9
:109B200001264FF47A784FF4006A0024ED4D6878EE
:109B300001281DD1BBF80200404504D96C700621F4
:109B4000E948FFF76FFDE7480C30FEF763FD012899
:109B50000ED1E5486C7003210D38FFF763FDE14835
:109B600004210C30FFF75EFD0621DF48FFF75AFDA8
:109B70002878012820D1DD484088404505D92C703F
:109B8000FEF7AAFD0621D84814E06846FEF760FFFC
:109B900090B1D5482C7003211638FFF743FDBDF86E
:109BA00000100DF10200FFF73DFDFEF795FDCE48D8
:109BB00002211F38FFF736FD00F037FA00287DD06C
:109BC000FFF706FDCA4FB8783A2877D1387853287E
:109BD00075D006DC442873D0462872D04C28F4D1C6
:109BE00004E054286ED05628EFD146E17878482812
:109BF0000CD006DC422866D0442871D04628E4D137
:109C00003AE054286ED05728DFD10EE0287800289B
:109C100031D1FEF745FD00282DD0B4482E70448088
:109C20000670B14802211D3824E1B24FAE707C802D
:109C30003E7016E0082249466846FFF777F880B183
:109C4000A948AC7003211338FFF7ECFCBDF80410F1
:109C500068460831FFF7E6FCA34802211F38FFF7EA
:109C6000E1FC7888404502D8A8780128E2D07888BD
:109C7000404523D9AC706BE09F4FEE707C803E7006
:109C8000FFF7AAF818B39DA0FFF7CEFDFEF79CFFE3
:109C90001EE0524649466846FFF748F8C0B1924870
:109CA000EC7003211038FFF7BDFCBDF804106846C6
:109CB0000831FFF7B7FC02218B4805E023E0EBE019
:109CC00095E027E08CE01FE01F38FFF7ABFC05E0D4
:109CD0007888404502D8E8780128DAD0EC7037E07F
:109CE00015E0FFE7687802280DD07F4802211B3875
:109CF000FFF798FCFFF7FCFDABF802408BF8006023
:109D000000F02CF96E70D4E000F06CF93EE000F049
:109D10006EF93BE0787846283CD0482804D0542897
:109D200058D05728EFD116E06F4803211938FFF7B4
:109D300079FCF9783846FA2908D00021415C39B11C
:109D40000179F81C091DFEF7F1FD1FE00121F5E77F
:109D5000062165488EE06448002503211338FFF78B
:109D600061FC4FF48472F91C6846FEF793F9664F64
:109D7000002240213846FEF7F5FB6D1CEDB2402273
:109D800039466846FEF74AFF062DF6D356480621A7
:109D9000801F6FE05448002503211038FFF742FC74
:109DA000FEF7D0FFFEF7FCFFFFF73EF80028CFD00C
:109DB000FEF71EFF8222F91C6846FEF76BF94F463C
:109DC0006D1CEDB2524639466846FEF727FF062D58
:109DD000F6D3DBE7381DFEF741FC0028D6D1B7E704
:109DE00078784B2865D140480621801D42E078787C
:109DF000542804D0532810D04D2813D059E0FEF732
:109E0000BDFB80B2ADF800005528F8D003213FA07B
:109E1000FFF708FC0221684639E0C5E90146042144
:109E20003BA027E000F0CAF80A213BA0FFF7FAFBAD
:109E30003220FEF721FB00F0F8F8D0B300F0F5F87F
:109E400001460A222A4800F0B4F836A12848FEF755
:109E500046F970B334A12648FEF741F901461022B5
:109E60003348FEF717F9032132A0FFF7DBFB10217F
:109E70002F480CE0FFF7D6FB1BE07878452818D177
:109E800004212DA0FFF7CEFB174804210A38FFF765
:109E9000C9FB02212AA0EDE77878582809D10E21C4
:109EA00028A000F081F800F055F800F0B9F800F0B3
:109EB00055F84FF480710E48FEF705F936E60000BC
:109EC00000100140DD9900087561727420697320EB
:109ED000776F726B696E670D0A00000044300020D6
:109EE000000C0140003000205BA000084C30002036
:109EF00074300020403000204830002034333320BC
:109F00006973206F6B0D0A000008014044543A0049
:109F100044533C3C0000000041542B57534D4143F7
:109F20000D0A00004D4143002B6F6B3D0000000007
:109F300074310020444D3A005645523A000000006A
:109F40003C3C0000656E7465725F7570675F6D6F95
:109F50006465000000210120FEF7BABD012108461A
:109F6000FEF7B6BD10B5FFF719FABDE81040FFF7D0
:109F7000E9B908B1FFF760BDFFF754BD2D49096885
:109F800051F820000199019001BD03B44FF0000089
:109F9000DFF8A4F003B44FF00100DFF89CF003B445
:109FA0004FF00200DFF890F003B44FF00300DFF849
:109FB00088F003B44FF00400DFF87CF003B44FF0F6
:109FC0000500DFF874F003B44FF00600DFF868F026
:109FD00003B44FF00700DFF860F003B44FF008005F
:109FE000DFF854F003B44FF00900DFF84CF003B48D
:109FF0004FF00A00DFF840F003B44FF00B00DFF839
:10A0000038F003B44FF00C00DFF82CF003B44FF03D
:10A010000D00DFF824F003B44FF00E00DFF818F065
:10A0200003B44FF00F00DFF810F003B44FF010004E
:10A03000DFF804F0703000207D9F00083C3C4C4865
:10A040004C4646483A42483A46573A46463A4254BF
:10A050003A56312E3052453A303C3C52453A313C2A
:10A060003C544B3A303C3C004E07C00800096C079A
:10A0700080080009D90700080009E407C0080009A2
:10A0800068032B04340315041A030B040D030504A1
:10A0900068020F1302054106F0198B1A101E401BAF
:10A0A000801C061D88181B58006F04019F11442551
:10A0B0001013555A705C100104250F135D5A7C5C17
:10A0C0000C01344310100100000000008025000046
:10A0D000004B00000096000000E1000000C20100FB
:10A0E0000000000000000000010000000101020368
:10A0F0000405060708090A0B0C0D0E0F10111213A8
:10A100001415161718191A1B1C1D1E1F000000001D
:10A1100000FAF4FAF6FAFD0000000000000000006A
:10A12000000000000000000000000000000000002F
:10A130000000000000000204060800000000010208
:10A1400003040102030406070809000000000000E0
:04A15000000000000B
:04000005080080016E
:00000001FF
