:020000040800F2
:1080000030E0FEE754413031008000084D332073EA
:10801000797820617070000000000000003230317B
:10802000332E31322E313000000000004DF804EDC7
:10803000134800F1030020F003001249124B88425C
:1080400006D099423CBF50F8042B41F8042BF8D3DA
:108050000E494FF000028B4238BF43F8042BFAD38D
:108060005DF804FB4DF804ED4DF8040DFFF7DEFF5D
:108070005DF8040B0649086000F074FC5DF804FB31
:108080001C8B0008003000204C300020863300207C
:10809000483000204FF0E020016921F0010101612A
:1080A0007047F0B5CC78002204F00F03E40601D548
:1080B0008C7823430C884FF00F0C14F0FF0F4FF017
:1080C000010E1AD005680E880EFA02F42640A64268
:1080D0000FD196000CFA06F7BD4303FA06F63543B6
:1080E000CE78282E02D0482E02D002E0446100E073
:1080F0000461521C082AE6D305600A88FF2A1DD9AC
:108100004568002202F108060EFA06F40E882640A1
:10811000A6420FD196000CFA06F725EA070703FAE4
:1081200006F5CE783D43282E00D14461CE78482E06
:1081300000D10461521C082AE4D34560F0BD024618
:10814000002092680A4200D00120704741617047C8
:108150000161704710B500F061FB134C022120460D
:10816000FFF7F6FF012000F050FB02212046FFF749
:10817000EDFF332000F049FB02212046FFF7E8FF26
:10818000032000F042FB02212046FFF7D8FF10B188
:10819000032000F03AFB332000F037FB2046BDE817
:1081A00010400221FFF7D4BF0008014070B50F2432
:1081B000C278017801254FF0E026DAB1124A126840
:1081C00002F4E062C2F5E062120AC2F10403D44094
:1081D00042789A408378234013431A010B4BCA54C8
:1081E000007800F01F018D40400906EB8000C0F8C8
:1081F000005170BD01F01F008540480906EB80006A
:10820000C0F8805170BD00000CED00E000E400E01B
:108210000249084302490860704700000000FA055F
:108220000CED00E0044A0029D16901D0014300E0CF
:108230008143D1617047000000100240044A0029C8
:10824000116901D0014300E08143116170470000D2
:1082500000100240044A0029916901D0014300E066
:10826000814391617047000000100240044A0029D8
:10827000D16801D0014300E08143D1607047000024
:108280000010024010B54FF4827000F0BFF8BDE856
:1082900010404FF4887000F0B9B8000070B5114D6F
:1082A000002405EB4400C08800F0B0F8641CE4B280
:1082B000032CF6D30B4D0024183505EB44008088C1
:1082C00000F0A4F8641CE4B2022CF6D3054D00249F
:1082D000283535F8140000F099F8641CE4B2112C2C
:1082E000F7D370BDBC8A000870B5FFF7D7FF054D06
:1082F000002435F8140000F089F8641CE4B2062C60
:10830000F7D370BD068B000870B50646002400F058
:108310001BF800280BD00B4DD5F8080140B10A22FC
:108320003146002000F024F8FFF7ACFF012070BDBB
:10833000641CA4B20A2C01D3002070BD0A2000F0F6
:1083400049FAE9E70080214210B5002404E000204A
:1083500010BD0A2000F03EFA272000F02FF8272059
:1083600000F02CF8641CA4B2322CF2D3EFE700002A
:108370002DE9F041002480460E461546012A0FD90A
:108380000D4F0221384600F06DF828B141463846BD
:1083900000F071F800240BE0641CE4B2C82CF0D9A2
:1083A000BDE8F081384600F064F83055641CE4B252
:1083B000AC42F7D3F4E700000038004070B5064641
:1083C0000024114D03E0641CE4B2C82C0FD8022134
:1083D000284600F047F80028F5D03146284600F03E
:1083E0004AF8002405E0641CE4B2C82C01D900203E
:1083F00070BD0121284600F035F80028F3D028464A
:1084000000F037F8C0B270BD0038004070B50546C6
:1084100000244FF4006000F04DF845F400450B4E89
:1084200003E0641CE4B2C82C0ED80221304600F0F0
:1084300019F80028F5D02946304600F01CF8BDE8B0
:108440007040002000F036B870BD000000380040D9
:108450000029018802D041F0400101E021F04001F3
:10846000018070470246002012890A4200D0012094
:108470007047808970478181704730B502884C8889
:1084800002F441530A88CD8822438C882C4322432E
:108490000C8922434C8922438C892243CC89224374
:1084A0001A430280828B22F400628283098A01824D
:1084B00030BD000010B586B00021ADF804000120E9
:1084C000ADF808004002ADF80A000820ADF80C0035
:1084D000ADF8001007200A4C4FF48272ADF8061078
:1084E000ADF80E10ADF81000ADF802206946204638
:1084F000FFF7C3FF01212046FFF7AAFF06B010BD1A
:108500000038004038B501210820FFF7A3FE012103
:108510008803FFF787FE4FF42040ADF800000320EA
:108520008DF802000E4D18248DF803406946284648
:10853000FFF7B7FD44F20401ADF8001004208DF8F8
:10854000030069462846FFF7ACFDA814ADF800000B
:108550008DF8034069462846FFF7A3FD38BD0000AB
:10856000000C01403EB501210846FFF75BFE4FF0CD
:108570008044204600F09CF841F28831ADF80410A8
:108580003F21ADF800100021ADF8021069462046E9
:1085900000F0FAF80121204600F07CF80122114693
:1085A000204600F0E9F80121204600F076F8024963
:1085B0001C2000F02AFA3EBDE985000808B54FF4FA
:1085C000E060FFF725FE1C208DF8000000208DF8EC
:1085D000010003208DF8020001208DF80300684699
:1085E000FFF7E4FD08BD000070B54FF080414FF685
:1085F000FE700882214D224A0124286858B1401C8F
:108600002860322806D11078C0431070107800F02E
:10861000F0F92C6070BD1B4B00251968491C1960CE
:108620005088401C80B25080B1F5C87F02D11649F5
:108630000C601D60C828EDD1002455801348FFF759
:1086400063FE012815D1114D287869788842E1D060
:108650007E2000F0B7F87F2000F0B4F8285D00F02D
:10866000B1F8641CE4B20A2CF8D3022108A000F08F
:10867000AFF8BDE87040FFF737BE000018300020AB
:108680004030002014300020103000207C330020C7
:108690003C3C0000C943018270470029018802D098
:1086A00041F0010102E040F2FE32114001807047CA
:1086B0002A4910B5884202D10121C41443E0B0F127
:1086C000804F09D0264988420DD101210220FFF7B1
:1086D000B5FD002102202DE001210846FFF7AEFD87
:1086E0000021012026E01F49884206D101210420F3
:1086F000FFF7A4FD002104201CE01B49884206D19D
:1087000001210820FFF79AFD0021082012E01749F7
:10871000884206D101211020FFF790FD0021102092
:1087200008E01349884209D101212020FFF786FD86
:1087300000212020BDE81040FFF780BD0D49884290
:108740000AD1012144142046FFF790FD2046BDE8E0
:1087500010400021FFF78ABD10BD0000002C014031
:108760000004004000080040000C004000100040E1
:108770000014004000340140002A828901D00A43DD
:1087800000E08A4382817047028802F08F020280F3
:10879000CA884B881A4303881A4302808A888285D4
:1087A0000A880285054A904202D0054A904201D1CA
:1087B000097A01860121818270470000002C014066
:1087C0000034014001B50121684600F02DF908BDD3
:1087D00000F02AB970B5051E00DA0125002403E077
:1087E000642000F012F8641CAC42F9DB70BD09E0B3
:1087F000032100BF00BF00BF00BF00BF00BF00BF1C
:10880000491EF8D2401EF3D2704700B5034602E07D
:108810000B20FFF7ECFF5B1EFAD200BD08B501216B
:108820000420FFF717FD10208DF8030003208DF8BA
:1088300002000220ADF8000069460248FFF731FC53
:1088400008BD000000080140F8B501210420FFF731
:1088500001FD4025ADF8005003248DF802401020A2
:108860000B4E8DF8030069463046FFF71AFC0848A6
:10887000103005602020ADF800008DF80240042083
:108880008DF8030069463046FFF70BFCF8BD000089
:10889000000801400A480168491C01600948006855
:1088A00000280CD00848426840211AB100224260DA
:1088B000064803E0012242600448001D0160704741
:1088C00024300020043000204030002010080140F7
:1088D00008B501210820FFF7BDFC8020ADF800009D
:1088E00003208DF8020010208DF80300694603482C
:1088F000FFF7D7FB00F004F808BD0000000C0140B2
:1089000010B580210248FFF721FC002010BD0000B7
:10891000000C014010B580210248FFF719FC01202E
:1089200010BD0000000C014008210148FFF70EBCFB
:10893000000C014008B501210820FFF78BFC08203E
:10894000ADF8000003208DF8020010208DF8030020
:1089500069460348FFF7A5FBFFF7E6FF08BD0000E7
:10896000000C01401948016821F470210160016880
:1089700041F440310160FFF7ABFFFFF7DBFFFFF78A
:1089800063FFFFF7D1FF012000F033F800F06FF82C
:10899000FFF7E0FB00F026F800210D4800F06CF82E
:1089A000FFF778FBFFF7AEFD0020FFF783FDFFF731
:1089B00075FCFFF799FC0748FFF7A6FC0028FAD0E2
:1089C0000A2105A0FFF704FFF5E7000000100140B1
:1089D000958800087C3300207265636520310D0A9C
:1089E0000000000010B5FFF7E9FDBDE81040FFF7FB
:1089F000B9BD08B1FFF78EBFFFF782BF2D490968E7
:108A000051F820000199019001BD03B44FF000001E
:108A1000DFF8A4F003B44FF00100DFF89CF003B4DA
:108A20004FF00200DFF890F003B44FF00300DFF8DE
:108A300088F003B44FF00400DFF87CF003B44FF08B
:108A40000500DFF874F003B44FF00600DFF868F0BB
:108A500003B44FF00700DFF860F003B44FF00800F4
:108A6000DFF854F003B44FF00900DFF84CF003B422
:108A70004FF00A00DFF840F003B44FF00B00DFF8CE
:108A800038F003B44FF00C00DFF82CF003B44FF0D3
:108A90000D00DFF824F003B44FF00E00DFF818F0FB
:108AA00003B44FF00F00DFF810F003B44FF01000E4
:108AB000DFF804F048300020FD8900084E07C008A8
:108AC00000096C0780080009D90700080009E407BD
:108AD000C008000968032B04340315041A030B04AF
:108AE0000D0305040002020541065219002C052D54
:108AF000902EAA2F2D30D43100371538953C881888
:108B00001B58306F04019F1144251013555A705C97
:108B1000100104250F135D5A7C5C0C01000000005D
:108B20000000000000000000010000000000000044
:108B30000000000000000000000000000000000035
:108B40000000000000000000000000000000000025
:108B50004142434445464748496D0000000000003B
:088B600001000000000000000C
:04000005080080016E
:00000001FF
