:020000040800F2
:1080000030E0FEE754413031008000084D332073EA
:10801000797820617070000000000000003230317B
:10802000332E31322E313000000000004DF804EDC7
:10803000134800F1030020F003001249124B88425C
:1080400006D099423CBF50F8042B41F8042BF8D3DA
:108050000E494FF000028B4238BF43F8042BFAD38D
:108060005DF804FB4DF804ED4DF8040DFFF7DEFF5D
:108070005DF8040B0649086002F088FA5DF804FB1D
:10808000E4AD00080030002094300020843500204A
:108090009030002040EA01039B0703D009E008C9A3
:1080A000121F08C0042AFAD203E011F8013B00F8BD
:1080B000013B521EF9D27047D2B201E000F8012B09
:1080C000491EFBD270470022F6E710B50446084669
:1080D000114602462046FFF7EFFF204610BD30B59F
:1080E0000EE003460A4601E05B1C521C1C78157822
:1080F000AC4201D1002CF7D115F0FF0F04D0401C89
:108100000278002AEDD1002030BD2DE9FE4F81EA32
:10811000030421F0004504F0004423F000414FF037
:10812000000A009450EA050302D052EA010304D188
:108130000020014603B0BDE8F08FC1F30A53C5F338
:108140000A541C44A0FB02B3C5F3130545F4801C7C
:10815000C1F3130141F480180CFB023300FB083E0D
:10816000A4F2F334810A930A41EA8C5143EA88531A
:108170000194A1FB03474FEA9C2505FB03734FEADB
:10818000982601FB06373D05260545EA1435BBEB6D
:1081900006016EEB0503850E920E45EA8C1542EA48
:1081A0008812A5FB0206261E67EB00070C0D44EAA9
:1081B0000334A41947EB1350C1F313064FF0000327
:1081C00019464FEA033343EA165343EA0403019C7A
:1081D000E5FB0201A4F10C040294009C4FEA063274
:1081E000CDE900A400F083F8A4E70EB5C10F80EA42
:1081F000E0700844CA07002140F233438DE80E00C6
:108200000A460B4600F073F803B000BD0EB540F20D
:10821000334102910021CDE900110A460B4600F0DE
:1082200066F803B000BD70B5C1F30A5201F0004515
:108230000024C1F3130140F2FF3341F480119A424C
:1082400001DA002070BD40F233439A42A2F2334279
:1082500003DC524200F02EF800E090402C43F1D0B5
:10826000404270BD30B5002904DB4FF0004440426D
:1082700064EB0101002B04DB4FF00044524264EB3D
:1082800003038B4208BF824230BD000030B5002995
:1082900004DB4FF00044404264EB0101002B04DB9F
:1082A0004FF00044524264EB0303994208BF9042EE
:1082B00030BD0000202A04DB203A21FA02F0002120
:1082C000704721FA02F3D040C2F1200291400843E6
:1082D0001946704710B5002B08DA401C41F1000127
:1082E00092185B411A4301D120F0010010BD2DE925
:1082F000F04D92469B4611B1B1FA81F202E0B0FA1C
:1083000080F22032904600F044F806460F4640EADC
:108310000A0041EA0B0152465B46084303D130464E
:108320003946BDE8F08D194652EA010015D0C8F172
:1083300040025046FFF7BEFF04460D4650465946E0
:10834000424600F026F8084301D0012000E000205A
:10835000044345EAE07526432F430A984FEAD625A1
:10836000A0EB08000A304FEA46534FF0000245EAFE
:1083700047554FEAD72402D500200146D1E7010531
:1083800050196141DDE9084500196941BDE8F04D2A
:10839000A0E7202A04DB203A00FA02F1002070470F
:1083A0009140C2F1200320FA03F319439040704733
:1083B00070B505460C4607480560204600F00EF8EB
:1083C00000BF044800680028FBD10021024801F0EA
:1083D00023FC70BD48300020000400403EB5044638
:1083E0000021194801F018FC00220121164801F073
:1083F000A0FC022C03D10120ADF8040005E0012C03
:1084000003D140F2E730ADF804003F20ADF80000A2
:108410000020ADF80600ADF8020069460A4801F0F8
:1084200095FC0121084801F0F4FB0121064801F008
:10843000E1FB01221146044801F07BFC01210248C6
:1084400001F0EAFB3EBD00000004004010B5044608
:1084500001212046FFF7ACFF10BD10B504460221F4
:108460002046FFF7A5FF10BD00B5022001F011FF67
:1084700000BD00B5012001F00CFF022001F009FF52
:10848000022001F006FF00BD4FF0E020006920F05F
:1084900001004FF0E021086170474FF0E0200069D3
:1084A00040F001004FF0E021086170472DE9F041F4
:1084B000024600250026002000230024002791F812
:1084C00003C00CF00F0591F803C01CF0100F03D08F
:1084D00091F802C04CEA0505B1F800C01CF0FF0F8E
:1084E00031D0146800202BE04FF0010C0CFA00F39F
:1084F000B1F800C00CEA03069E4220D183004FF081
:108500000F0C0CFA03F7BC4305FA03FC4CEA040415
:1085100091F803C0BCF1280F06D14FF0010C0CFA02
:1085200000FCC2F814C00AE091F803C0BCF1480F87
:1085300005D14FF0010C0CFA00FCC2F810C0401C31
:108540000828D1D31460B1F800C0BCF1FF0F34DDAE
:10855000546800202EE000F1080C4FF0010808FAE2
:108560000CF3B1F800C00CEA03069E4221D183004F
:108570004FF00F0C0CFA03F7BC4305FA03FC4CEA6E
:10858000040491F803C0BCF1280F05D100F1080CD8
:1085900008FA0CF8C2F8148091F803C0BCF1480F37
:1085A00007D100F1080C4FF0010808FA0CF8C2F8E6
:1085B0001080401C0828CED35460BDE8F0810246EC
:1085C000002093680B4201D0012000E0002070479A
:1085D00041617047016170470AB1016100E041618A
:1085E00070470000014800787047000068300020A4
:1085F0002DE9F05F4FF0000AD146C84600F028FA96
:10860000CC2001F001FE442001F0FEFD332001F0FA
:1086100040FE00F01DFACC2001F0F6FDBE2001F076
:10862000F3FD00F095FF824600F092FF8146C846B8
:108630004FEA082848EA0A0828F47840FFF7D5FDF1
:1086400006460022074BFFF760FD0446FFF7EBFDEF
:10865000834618F4784F03D0CBF10000BDE8F09FBB
:108660005846FBE70000B03F014800687047000033
:1086700030350020002072B6034908880021024AE4
:10868000118062B6704700006A30002008B50121F1
:10869000082000F03BFB0420ADF800008DF803003B
:1086A00069460248FFF702FF08BD0000000C0140C8
:1086B00070B5064600250721012001F011F8044697
:1086C00022462721012001F0C3F814F0400F0BD0FF
:1086D0002023094A6121012000F06EFFFF22E221E0
:1086E000012001F0B5F80125FF222721012001F02A
:1086F000AFF8284670BD00001130002070B5054667
:108700000026FF222721012001F0A2F8284601F0CF
:1087100043FEFFF7BBFF00BF0A4800680028FBD1FB
:108720004FF007014FF0010000F0DAFF044614F0AB
:10873000200F00D00126FF222721012001F088F818
:10874000304670BD0881214238B5FF20009000F00E
:1087500021F80221084800F065F91E22012168462F
:1087600000F08AF89DF8000008B9012400E0002418
:1087700000F010F8204638BD4530002010B5022129
:10878000034800F04FF900F005F8012010BD00008B
:108790003F30002010B572B600200549086005483A
:1087A000486088604FF48071FFF78DFC62B610BDA1
:1087B000303500203034002010B586B00446012149
:1087C000880300F0A3FA4FF40070ADF814001820ED
:1087D0008DF8170003208DF8160005A92248FFF731
:1087E00065FE4FF48060ADF8140004208DF817008A
:1087F00005A91D48FFF75AFE1C4850F824000190B7
:108800000020ADF80800ADF80A00ADF80C00ADF896
:1088100010000C20ADF80E0001A9154801F086FBF0
:108820000121134801F01AFB25208DF800000220D9
:108830008DF8020001208DF80300684600F04AF927
:10884000012240F225510A4801F04BFB00BF4021B4
:10885000074801F00FFB0028F9D00649252002F057
:1088600002FA06B010BD000000080140CCAD0008BF
:1088700000380140059E00082DE9F04106460C46EF
:10888000174661480068A04237D372B65E488068D8
:1088900001195E4881421DD95B4881685B48451AD1
:1088A00059482A4681683046FFF7F4FB5848564934
:1088B0008860621B0B4670199968FFF7EBFB524802
:1088C0008068611B08445049886008460068001BA6
:1088D00008600EE04C48224681683046FFF7DAFB1C
:1088E0004948806820444849886008460068001B61
:1088F000086062B620B2BDE8F0814FF0000882E067
:108900000120FFF7A3FD08F101083F480068A042DD
:1089100036D372B63C48806801193C4881421DD963
:10892000394881683948451A37482A4681683046AF
:10893000FFF7B0FB364834498860621B0B4670195C
:108940009968FFF7A7FB30488068611B08442E49EF
:10895000886008460068001B08600EE02A4822462E
:1089600081683046FFF796FB2748806820442649F7
:10897000886008460068001B086062B620B2BAE74B
:10898000002F40D0B8453ED372B61F4880681E49BC
:10899000096801441D48814221D31B4881681B4856
:1089A000451A19482A4681683046FFF773FB184874
:1089B000154988600B461B685A1B0B46701999684D
:1089C000FFF768FB104880680F490968491B084495
:1089D0000D498860084605680020086010E00A48D4
:1089E000026881683046FFF755FB074880680649F2
:1089F0000968084404498860084605680020086042
:108A000062B628B277E77BE73035002030350020AA
:108A10003034002010B5FFF7BDFE0120FFF7CCFE7B
:108A200010BD000070B504460D460CE06D1E14F834
:108A3000011B064801F0CAFA00BF4021034801F0BB
:108A400019FA0028F9D0002DF0D170BD003801408E
:108A500010B501F041FC02211148FFF7BBFD0120D8
:108A600001F017FC02210E48FFF7B2FD332001F0A0
:108A700010FC02210A48FFF7ADFD032001F009FCBC
:108A800002210748FFF79BFD10B1032001F001FC14
:108A9000332001F0FEFB02210148FFF79BFD10BDD2
:108AA0000008014001464906084A926942F0010265
:108AB000064B9A61064A526822F0E062044B5A6003
:108AC0001A4652680A435A6070470000001002407C
:108AD0000000014070B5002100230F22C4780CB3C0
:108AE000164C246804F4E064C4F5E064210AC1F182
:108AF0000403CA40447804FA03F184781440214303
:108B000009010F4C0678A155047804F01F050124D3
:108B1000AC4005786D114FF0E02606EB8505C5F8F1
:108B2000004109E0047804F01F050124AC40054D24
:108B30000678761145F8264070BD00000CED00E087
:108B400000E400E080E100E002490143024A1160D4
:108B5000704700000000FA050CED00E070B5044617
:108B60000D4672B600200E49088062B600222946E2
:108B70002046FFF731FD00BF094800882328FBDDB0
:108B800072B600200649088062B6012229462046B6
:108B9000FFF722FD00BF024800882328FBDD70BDDF
:108BA0006A30002070B504460D4672B600200E49AA
:108BB000088062B6012229462046FFF70DFD00BF5E
:108BC000094800882328FBDD72B60020064908808A
:108BD00062B6002229462046FFF7FEFC00BF02488D
:108BE00000882328FBDD70BD6A30002070B5044684
:108BF0000D4672B600201649088062B6002229464A
:108C00002046FFF7E9FC00BF114800882328FBDD60
:108C100072B600200E49088062B60122294620461D
:108C2000FFF7DAFC00BF0A4800888C28FBDD72B62B
:108C300000200749088062B6002229462046FFF737
:108C4000CBFC00BF024800882328FBDD70BD00007C
:108C50006A300020F0B5C1B0044600250027FFF7B8
:108C600003FD002830D02DE0FFF7FEFC86B226B3CE
:108C7000002701A9481905223146FFF7FDFDA81973
:108C800085B2062D1BDB9DF80400FA2817D19DF84C
:108C90000500C01C01A9085CED2810D19DF8050055
:108CA000001D20802288A01CFFF7F4F9294601A8A6
:108CB000FFF709FA012041B0F0BD781CC7B20120CE
:108CC000FFF7C4FB0A2FCFDB0020F4E729B1064AE7
:108CD000D2690243044BDA6104E0034AD269824359
:108CE000014BDA61704700000010024029B1064ACA
:108CF00012690243044B1A6104E0034A1269824379
:108D0000014B1A61704700000010024029B1064A69
:108D100092690243044B9A6104E0034A92698243D8
:108D2000014B9A61704700000010024029B1064AC9
:108D3000D2680243044BDA6004E0034AD2688243FB
:108D4000014BDA60704700000010024030B500218E
:108D50000022002400232D4D6D6805F00C0121B187
:108D6000042905D0082923D105E0294D056022E01A
:108D7000274D05601FE0254D6D6805F47012234DE9
:108D80006D6805F48034022505EB92421CB9214D33
:108D9000554305600BE01D4D6D6815F4003F03D091
:108DA0001C4D5543056002E0194D5543056002E036
:108DB000174D056000BF00BF144D6D6805F0F00150
:108DC0000909154D6B5C0568DD4045600F4D6D6808
:108DD00005F4E061090A104D6B5C4568DD40856073
:108DE0000A4D6D6805F46051C90A0B4D6B5C45680E
:108DF000DD40C560054D6D6805F44041890B074DA8
:108E00006B5CC568B5FBF3F5056130BD0010024031
:108E100000127A0000093D007830002088300020E0
:108E200008B501210820FFF771FF4FF40060ADF88D
:108E3000000004208DF8030069460248FFF736FB66
:108E400008BD0000000C014008B501210820FFF713
:108E50005DFF4FF40060ADF8000003208DF80200C4
:108E600010208DF8030069460148FFF71FFB08BD7D
:108E7000000C01402DE9F047044688469146A71DA5
:108E800001202B490870FFF708FBB4F8060228BB45
:108E90004A464146206800F083FD00251AE000267E
:108EA00013E03888C6F1070201219140084205D03D
:108EB0004A464146206800F04BFD04E04A464146E0
:108EC000206800F01DFD701CC6B2082EE9DBBF1C37
:108ED000681CC5B2A088A842E1DC20E049464046B3
:108EE000FFF784FE002518E0002611E03888C6F15F
:108EF000080201219140084204D049464046FFF74C
:108F000051FE03E049464046FFF728FE701CC6B2FA
:108F1000092EEBDBBF1C681CC5B2042DE4DB00206E
:108F200003490870FFF7B0FA0120BDE8F0870000A0
:108F3000683000202DE9F04104460D461646002712
:108F400001200749087032462946204600F0AAF859
:108F500007460020024908703846BDE8F08100004D
:108F60006830002010B5002407E0134830F81410D2
:108F7000002000F019FC601CC4B2032CF5DB0024B7
:108F800007E00E4830F81410002000F00DFC601CC3
:108F9000C4B2022CF5DB002407E0094830F81410B5
:108FA000002000F001FC601CC4B20E2CF5DB002098
:108FB0000449087010BD00006AAD000888AD0008C3
:108FC00094AD00086030002010B5FFF7CBFF0024FF
:108FD00007E0054830F81410002000F0E5FB601CA5
:108FE000C4B2062CF5DB10BDB0AD000810B5FFF71C
:108FF000B9FF0B480188002000F0D6FB0848018823
:10900000002000F0D1FB002407E0064830F81410DF
:10901000002000F0C9FB601CC4B2052CF5DB10BDBC
:109020007CAD0008BCAD000870B5002527210020EC
:1090300000F056FB044616E004F0C000C02803D13F
:10904000FF2C01D0012070BD681C85B2B5F5FA7FF8
:1090500001DB0020F7E70120FFF7F8F927210020C6
:1090600000F03EFB0446E7E770B50025272100200D
:1090700000F036FB044613E004F0A000A02803D162
:10908000FF2C01D0012070BD681C85B2B5F5FA7FB8
:1090900001DB0020F7E72721002000F021FB044638
:1090A000EAE700002DE9F74F88B007464FF0000BC4
:1090B0000024A046A1460020079082460026FE49D3
:1090C0000870FE490880BD1DFFF7E7F9FFF7D2FAE7
:1090D00007E0FB480088C82803DD00200BB0BDE88E
:1090E000F08FDDE90901FFF76AFA0028F1D1FFF7F7
:1090F000C1FA8046B8F10A0F01DA0020EEE707E076
:10910000EF48008841F63801884201DD0020E5E79C
:10911000DDE90901FFF753FA0028F1D0FFF7AAFAB9
:109120008146B8F1140F7DDD08EB4800B9EBC00FA4
:10913000F9DD08EB480000EB0810B9EB400F71DADD
:109140000020A7F8060209EB0800C11700EBD16167
:1091500049110E4639604FF0000BCDE00024C3E00A
:10916000FFF788FA07E0D648008841F638018842C0
:1091700001DD0020B2E7DDE90901FFF720FA002850
:10918000F1D1FFF777FA079007E0CD48008841F664
:109190003801884201DD0020A0E7DDE90901FFF781
:1091A0000EFA0028F1D0FFF765FA8246032096FBFD
:1091B000F0F006EBD671A6EB6101091A0696079846
:1091C000814249DA3046FFF721F8BE4ABE4BCDE96D
:1091D0000001FEF79AFFCDE904010798FFF716F8A2
:1091E000CDE90201DDE90423FFF73CF834D2304633
:1091F000FFF70CF8B34AB44BCDE90001FEF785FF49
:10920000CDE904015046FFF701F8CDE90201DDE99F
:109210000423FFF73BF80DD206EB8600504509DD2D
:10922000288800E06DE0C4F10702012191408843E5
:10923000288057E006EB4600BAEBC00F0ADD06EBCC
:10924000460000EB0610BAEB400F03DAA7F804B0B3
:10925000584643E7002041E73046FEF7D7FF994ADA
:10926000994BCDE90001FEF750FFCDE904010798C5
:10927000FEF7CCFFCDE90201DDE90423FFF706F894
:109280002ED206EB86010798814229DD032096FB4A
:10929000F0F006EBD671A6EB6101081A0696504570
:1092A0001CDA3046FEF7B2FF864A874BCDE9000153
:1092B000FEF72BFFCDE904015046FEF7A7FFCDE9ED
:1092C0000201DDE90423FEF7CDFF07D22888C4F1AF
:1092D0000702012191400843288003E00020FDE6B9
:1092E0000020FBE6601CC4B2082CFFF639AFAD1CB1
:1092F0000BF1010000F0FF0BBBF1FF0F7FF72EAF6A
:1093000022E1B8F17C0FFBDDB8F1A00FF8DAB9F17A
:109310001E0FF5DDB9F1320FF2DA00240120A7F8B3
:109320000602F2E005E066480088A02801DD002082
:10933000D4E6DDE90901FFF742F90028F3D105E0A1
:109340005F480088A02801DD0020C7E6DDE90901AB
:10935000FFF735F90028F3D0FFF78CF95B4921F8C6
:109360001400564908800846008832282EDB08463B
:10937000008856282ADC5048007890B9092094FBD0
:10938000F0F035F81000092194FBF1F201FB1242D4
:10939000012191400843092194FBF1F125F81100C6
:1093A00011E0092094FBF0F035F81000092194FB3E
:1093B000F1F201FB1242012191408843092194FB03
:1093C000F1F125F81100601CC4B29EE03B48008812
:1093D00059284EDB3948008879284ADC364800781D
:1093E000B8B9092094FBF0F035F81000092194FB7E
:1093F000F1F201FB1242012191400843092194FB43
:10940000F1F125F8110001202B490870601CC4B24D
:109410007BE0002028490870092094FBF0F035F823
:109420001000092194FBF1F201FB1242012191404D
:109430008843092194FBF1F125F81100601CC4B2A6
:10944000242C01DB002049E6092094FBF0F035F8DC
:109450001000092194FBF1F201FB1242012191401D
:109460000843092194FBF1F125F81100601CC4B2F6
:109470004BE0124800887C2845DB10480088A02873
:1094800041DC0D48007801283BD10B4908700920C8
:1094900094FBF0F035F81000092194FBF1F201FB88
:1094A0001242012191408843092194FBF1F125F8F2
:1094B0001100601CC4B20BE06C3000206E30002044
:1094C0006A3000205C8FC2F5285CFF3F3C350020ED
:1094D000242C01DB002001E6092094FBF0F035F894
:1094E0001000092194FBF1F201FB1242012191408D
:1094F0000843092194FBF1F125F81100601CC4B266
:1095000003E00020EAE50020E8E5242CFFF60AAF9E
:109510001ADB05E00D480088A02801DD0020DDE50C
:10952000DDE90901FFF74BF80028F3D1074800886F
:109530007C2807DB05480088A02803DC0420B880CD
:10954000B888CBE50020C9E50020C7E56A300020D7
:1095500070B50024002522E0641002211548FFF7B1
:1095600039F800BF00BF02211248FFF731F800BFF1
:1095700000BF00BF02210F48FFF72CF800BF00BF5B
:1095800000BF00BF00BF02210A48FFF718F808B16A
:1095900044F08004042000F07CFE681CC5B2082D55
:1095A000DADB02210348FFF715F8042000F071FE12
:1095B000204670BD000801402DE9F041054688466F
:1095C00017461E46012E01DCBDE8F081002015493A
:1095D00008601DB9A1F10401086002E000201249F1
:1095E00008604FF00500FEF738FF4146284600F0BE
:1095F0001FF8002405E0284600F090F83855601C5C
:10960000C4B2B442F7DB1DB901200849086002E08A
:109610000120054908604FF00500FEF71EFF00BF5E
:10962000D2E70000B481214284812142B0812142ED
:109630002DE9F04107460D4600241FB900202349BB
:10964000086002E00020224908604FF00000214934
:1096500008604FF00500FEF700FF082625E0002017
:109660001C49086015F0800F03D001201A490860DA
:1096700002E00020184908604FF00500FEF7EDFEFB
:109680000120144908604FEA45604FEA10654FF029
:109690000500FEF7E2FE1148D0F8380110B144F0A1
:1096A000010400E000BF701EC6B2002ED7D100201A
:1096B000084908604FF001000849C1F8BC014FF0AB
:1096C0000500FEF7CAFE2046BDE8F081B0812142C8
:1096D00084812142B4812142BC8121420080214207
:1096E00070B504460D4629462046FFF7A1FF2046E7
:1096F00000F014F806461CB901200649086002E093
:109700000120054908604FF00500FEF7A6FE30462F
:1097100070BD0000B08121428481214270B50646AF
:1097200000241EB900201A49086002E000201949EF
:1097300008604FF00100184908604FF00500FEF77F
:109740008CFE082518E00020144908604FF0050041
:10975000FEF783FE6006040E01201149C1F8B40132
:109760000520FEF77AFE0F48006810B144F00104AE
:1097700000E000BF681EC5B2002DE4D100200749FB
:1097800008604FF00500FEF768FE204670BD00003F
:10979000B081214284812142BC812142B481214295
:1097A000008021423881214270B505460C460020D8
:1097B000224908601DB9A1F10401086002E00020FF
:1097C0001F4908604FF00500FEF747FE44F40044CF
:1097D00010261DE000201949086014F4004F03D042
:1097E00001201849086002E00020164908604FF087
:1097F0000500FEF732FE0120104908604FEA4440A0
:109800004FEA10444FF00500FEF727FE701EC6B267
:10981000002EDFD10020094908604FF001000A49FD
:10982000C1F8BC0115B90949086002E001200449EA
:1098300008604FF00500FEF710FE70BDB4812142B4
:1098400084812142BC81214200802142B081214299
:109850002DE9F04104460E46154631462046FFF7F5
:10986000E7FE074629462046FFF7E2FE1CB9012025
:109870000649086002E00120054908604FF0050034
:10988000FEF7EBFD3846BDE8F0810000B0812142D3
:10989000848121422DE9F0470546884614461E463C
:1098A00041462846FFF7C4FE8146002706E014F82B
:1098B000011B2846FFF7BCFE781CC7B2B742F6DB97
:1098C0001DB901200449086002E001200349086035
:1098D0004846BDE8F0870000B081214284812142E2
:1098E00010B500240548006830B96420FEF7AEFDCD
:1098F0000248006800B90124204610BD3C01214205
:1099000070B504460D46164672B600200F49088011
:1099100062B6012231462846FEF75EFE00BF0B48C4
:109920000088A042FBD972B600200849088062B6C0
:10993000002231462846FEF74FFE00BF04EB4400EC
:10994000024909888842F9D270BD00006A300020BF
:1099500070B504460D46164672B600200F490880C1
:1099600062B6012231462846FEF736FE00BF04EB00
:1099700044000A4909888842F9D272B60020074992
:10998000088062B6002231462846FEF725FE00BF59
:1099900002480088A042FBD970BD00006A30002058
:1099A00070B504460D46164672B600200F49088071
:1099B00062B6012231462846FEF70EFE00BF0B4874
:1099C0000088A042FBD972B600200849088062B620
:1099D000002231462846FEF7FFFD00BFC4EB4410CD
:1099E000024909888842F9D270BD00006A3000201F
:1099F00038B5044601210820FFF788F94FF42040CC
:109A0000ADF8000003208DF8020010208DF803004F
:109A100069461648FEF74AFD4FF48040ADF8000055
:109A200004208DF8030069461048FEF73FFD4FF40F
:109A30008050ADF8000010208DF8030069460B48F7
:109A4000FEF734FD01200A4908604FF00200ADF82E
:109A500000004FF010008DF8030069460348FEF740
:109A600025FD01200349C1F8840138BD000C0140E7
:109A7000B0812142008021420EB501210846FFF746
:109A800025F94FF0804000F0D3F841F28830ADF86E
:109A900004003F20ADF800000020ADF80200694648
:109AA0004FF0804000F052F90121880700F0AEF835
:109AB00001221146900700F03CF90121880700F0CF
:109AC000ABF802491C2001F0CEF80EBD359B000812
:109AD00008B54FF4E060FFF737F81C208DF8000060
:109AE00000208DF8010003208DF8020001208DF880
:109AF00003006846FEF7EEFF08BD000008B54FF40E
:109B0000C060FFF721F81D208DF8000000208DF8BF
:109B1000010004208DF8020001208DF80300684642
:109B2000FEF7D8FF02491D2001F09DF808BD000096
:109B3000D59F000810B54FF6FE704FF080410882A7
:109B400023480088401C22490880224800780728C2
:109B500013D02148007880B908460088C82190FBBE
:109B6000F1F201FB120040B91C480078C0431B49C8
:109B700008700846007801F065F819480088002848
:109B800004DD17480088401E1549088015480078F4
:109B900020B114484088401C12494880124800787F
:109BA00020B111484088401C0F4948800F48007878
:109BB00020B10E484088401C0C4948800C48007871
:109BC00020B10B484088401C0949488010BD000066
:109BD0004C30002034300020103000204E30002067
:109BE0000C3000205030002054300020583000202D
:109BF0005C30002021B1028842F08002028004E043
:109C0000028840F27F331A4002807047CA430282C2
:109C10007047CA430282704721B1028842F00102B4
:109C2000028004E0028840F2FE331A40028070474E
:109C300010B504462F48844208D10121C014FFF713
:109C400075F80021E014FFF771F852E0B4F1804F8D
:109C500008D101210846FFF749F800210120FFF74C
:109C600045F846E02448844208D101210220FFF74C
:109C70003DF800210220FFF739F83AE01F488442FE
:109C800008D101210420FFF731F800210420FFF75B
:109C90002DF82EE01A48844208D101210820FFF750
:109CA00025F800210820FFF721F822E0154884421A
:109CB00008D101211020FFF719F800211020FFF72B
:109CC00015F816E01048844208D101212020FFF742
:109CD0000DF800212020FFF709F80AE00B48844224
:109CE00007D101214014FFF721F800216014FFF78C
:109CF0001DF810BD002C0140000400400008004089
:109D0000000C0040001000400014004000340140EE
:109D100030B50246002000230024158A05EA01031D
:109D2000958905EA010413B10CB1012000E000207F
:109D300030BD10B51AB183890B43838104E0838958
:109D4000CC43A4B22340838110BD0000028802F0FE
:109D50008F020280CA884B881A4303881A43028004
:109D60008A8882850A880285054A904202D0054A7F
:109D7000904201D10A7A0286012282827047000055
:109D8000002C01400034014070B500250024002063
:109D90001649086025E000F0B6FF0446ECB114490E
:109DA000124A126888182246214600F070FF1048B7
:109DB0000E490968405C3C2807D10C480068401EE9
:109DC0000B49085C3C2800D10DE00848006820449D
:109DD000064908600024002500E06D1C0120FEF704
:109DE00035FB142DD7D300BF70BD00000430002018
:109DF0009C32002070B504460D462946204600F0EE
:109E000041FF70BD10B572B640F22551104800F008
:109E10003EF8D8B10F480068FF2817D80D484168B0
:109E20000D48814203D3A0F580700A494860084874
:109E3000001D008807494968087006484068401CB2
:109E40000449486008460068401C086062B610BDBE
:109E500000380140303500203035002021B18289A2
:109E600042F40052828104E082894DF6FF731A4069
:109E70008281704702460020B1F5007F00D100BF0B
:109E800013880B4201D0012000E00020704770B51C
:109E900002460024002300250020A1F510666A3E3A
:109EA00000D100BFC1F3421501F01F03012606FADD
:109EB00003F3012D02D19689334006E0022D02D131
:109EC000168A334001E0968A33400C12012606FAC6
:109ED00004F41688344013B10CB1012000E00020D6
:109EE00070BDF0B503460024002600250020A1F532
:109EF00010676A3F00D100BF1846C1F3421401F059
:109F00001F06012707FA06F5012C01D10C3004E0E9
:109F1000022C01D1103000E014301AB107682F4331
:109F2000076002E00768AF430760F0BD2DE9F04726
:109F300086B005460E460024A24600BF00BF00279B
:109F4000B08900B100BF2F462C8A4CF6FF70044048
:109F5000F08804432C82AC894EF6F3100440B0889C
:109F600031890843718908430443AC81AC8A4FF6B8
:109F7000FF400440B0890443AC8201A8FEF7E6FE2E
:109F80001148874202D1DDF810A001E0DDF80CA0F5
:109F90000AEBCA0000EB0A1031688900B0FBF1F847
:109FA0006420B8FBF0F004012009642101FB108952
:109FB000322000EB0910B0FBF1F000F00F00044379
:109FC0002C8106B0BDE8F08700380140C1F30802DB
:109FD0008280704710B501210A48FFF799FE80B1D1
:109FE00001210848FFF715FE0748006828B1064818
:109FF0000068401E0449086003E000210148FFF7A3
:10A000000BFE10BD0004004048300020F0B591B0B8
:10A0100000246748007830B900F078FA012801D1AF
:10A0200063490870BDE06248007801282FD100F034
:10A0300033FE402101A8FEF746F80A215DA0FFF794
:10A04000D9FE4FF49670FEF701FA00F05CFE0600B0
:10A0500007D000F058FE06460A22314601A800F05B
:10A0600016FE57A101A8FEF73AF818B1032050498F
:10A07000087096E053A101A8FEF731F818B103204B
:10A080004B4908708DE000204949087089E0484834
:10A090000078032826D100F0FFFD0A214AA0FFF72F
:10A0A000A9FE4FF49670FEF7D1F900F02CFE0600E1
:10A0B00007D000F028FE06460A22314601A800F02B
:10A0C000E6FD44A101A8FEF70AF838B1402101A835
:10A0D000FDF7F9FF04203649087062E0002034499A
:10A0E00008705EE03248007804282CD1002500F08A
:10A0F000D3FD0A2139A0FFF77DFE3220FEF7A6F935
:10A1000000F001FE05001DD000F0FDFD05460A220D
:10A11000294601A800F0BBFD33A101A8FDF7DFFF30
:10A1200068B132A101A8FDF7DAFF074610223946CF
:10A130003048FDF7AFFF05201D49087002E0002000
:10A140001B4908702DE01A480078052822D100F03C
:10A15000A3FD092128A000F095FD4FF49670FEF7AD
:10A1600075F900F0D0FD060007D000F0CCFD0646E2
:10A170000A22314601A800F08AFD22A101A8FDF7BC
:10A18000AEFF18B107200A4908700AE0002008490C
:10A19000087006E006480078072802D1012400F084
:10A1A0006FF9402101A8FDF78EFF204611B0F0BDE8
:10A1B0003430002041542B574D4F44450D0A0000C8
:10A1C000415000005354410041542B57414B4559D5
:10A1D0000D0A00004F50454E0000000041542B571F
:10A1E000534D41430D0A00004D4143002B6F6B3D21
:10A1F000000000009C33002041542B454E544D0D6F
:10A200000A0000002B6F6B0070B5044600251AE0B1
:10A2100002211248FEF7DCF9FEF726F914F0010FCF
:10A2200004D002210D48FEF7D5F903E002210B48C6
:10A23000FEF7CEF96410FEF71CF902210748FEF77D
:10A24000C9F9681CC5B2082DE2DB02210348FEF7FC
:10A25000C1F9072000F01DF870BD000000080140A2
:10A26000014A024900F004B805A300088C30002020
:10A270002DE9F04104460F461646002503E0394615
:10A28000B0476D1C641C20780028F8D12846BDE832
:10A29000F08110B5044602E00B2000F005F8200024
:10A2A000A4F10104F8D110BD11E0032100BF00BFEB
:10A2B00000BF00BF00BF00BF00BF04E000BF00BF81
:10A2C00000BF00BF00BF0A00A1F10101F6D10200EA
:10A2D000A0F10100E9D1704708B501210420FEF783
:10A2E00015FD10208DF8030003208DF802000220D8
:10A2F000ADF8000069460248FEF7D8F808BD000036
:10A300000008014070B504460D46E1B20548FFF76C
:10A310005DFE00BF40210348FFF7ACFD0028F9D0E7
:10A32000204670BD0044004010B500F0D9F8002070
:10A33000164908604FF00503154A4FF02A014FF007
:10A340000100FFF7A7FA012221211046FFF780FA4A
:10A35000012222211046FFF77BFA28222521012025
:10A36000FFF776FA202231210120FFF771FA072248
:10A3700026210120FFF76CFA0F2220210120FFF790
:10A3800067FA01200349C1F8800110BD8081214294
:10A39000C6AD00080080214210B5044600F0A0F8C8
:10A3A00000201D4908604FF005031C4A4FF03001A2
:10A3B0004FF00100FFF76EFA0523184A2A21012009
:10A3C000FFF768FA20232246A0210120FFF762FA56
:10A3D000012221211046FFF73BFA012222211046DB
:10A3E000FFF736FA1A2224210120FFF731FA28223A
:10A3F00025210120FFF72CFA072226210120FFF753
:10A4000027FA0E2220210120FFF722FA0120044919
:10A41000C1F8800110BD000080812142C6AD000856
:10A420000080214210B5FEF7DDF820B10248008817
:10A43000401C0149088010BD6A30002008B5012188
:10A440000820FEF763FC8020ADF8000003208DF8A3
:10A45000020010208DF8030069460348FEF726F835
:10A4600000F004F808BD0000000C014010B5802188
:10A470000248FEF7ADF8002010BD0000000C0140BE
:10A4800010B580210248FEF7A5F8012010BD00009C
:10A49000000C014008B501210820FEF737FC01211E
:10A4A0000420FEF733FC4020ADF8000003208DF8B7
:10A4B000020010208DF8030069460748FDF7F6FFFB
:10A4C0000820ADF8000004208DF803006946034819
:10A4D000FDF7ECFF08BD000000080140000C014042
:10A4E00010B50020074908604FF00D024FF0200121
:10A4F0004FF00100FFF7ACF901200349C1F88001DA
:10A5000010BD0000808121420080214210B500F082
:10A51000C3FB032119A000F0B5FB4FF400711848EC
:10A52000FDF7D1FD4FF496620121154800F0AFFB15
:10A530001348007861281AD14FF400711048FDF7D4
:10A54000C2FD01210FA0FFF755FC40F6B8320321F0
:10A550000B4800F09CFB0CA10948FDF7C0FD30B191
:10A560004FF400710648FDF7AEFD012010BD4FF419
:10A5700000710348FDF7A7FD0020F7E72B2B2B0008
:10A580009C320020610000002B6F6B00ADF5027D56
:10A590000120FEF787FAFB48006820F47020F94993
:10A5A00008600846006840F440300860FFF746FF46
:10A5B000012000F047FB00F088FBFFF76BFFFEF780
:10A5C00047FA00F039FBFFF799FA0021EE4800F056
:10A5D00081FBFDF759FF0020FFF70AFAFEF720FC88
:10A5E000FEF718FA00F022FBE8A0FFF739FEFDF7AE
:10A5F00054FFFEF7E9FCE6E200BFFFF771F938B15E
:10A600000120E7490870FFF731FF0020E549087095
:10A6100000BFFFF765F90028FBD00020E049087073
:10A62000FFF7F4FC0028E8D000BF00BFDE48007848
:10A6300001281FD1DD484088B0F57A7F06DD002073
:10A64000D94908700621DA48FFF7D4FBD948FEF74C
:10A650002FF801280ED10020D34908700321D648D5
:10A66000FFF7C8FB0421D348FFF7C4FB0621D048FD
:10A67000FFF7C0FBD1480078012827D1D048408897
:10A6800047F23051884209DD0020CC490870FEF7BE
:10A6900075F80621C648FFF7ADFB16E041A8FEF7A6
:10A6A000D9FA90B10020C54908700321C548FFF7C9
:10A6B000A1FBBDF804110DF58370FFF79BFBFEF7BE
:10A6C0005DF80221C048FFF795FB00BF00F01BFBBF
:10A6D00000287CD0FFF758FBBC4880783A2876D118
:10A6E000BA4800784C280ED006DC422870D04428A6
:10A6F0006FD046286ED1DDE053286CD054286BD043
:10A700005628F7D1EDE1B148407848280CD006DC56
:10A71000422879D0442878D0462877D160E0542860
:10A7200075D05728F9D117E0A448007878B9FEF71A
:10A730000BF860B10120A14908700020A0494880B1
:10A74000012008700221A248FFF754FB03E0062114
:10A750009748FFF74FFBABE001209E4908700020AF
:10A760009D4948800120087002219C48FFF742FB68
:10A7700018E008229A496846FEF7DCFB90B10020F9
:10A780009449087003219748FFF734FBBDF8040093
:10A7900000F108016846FFF72DFB02218A48FFF708
:10A7A00029FB08E08C484088B0F57A7F03DC8948B3
:10A7B00000780128DDD000BF87484088B0F57A7F57
:10A7C0000DDD0020834908700621794805E0D2E1BB
:10A7D000A9E14CE1CDE196E13FE1FFF70BFB67E03A
:10A7E00001208149087000208049488001200870BC
:10A7F000FEF7EAFB02217E48FFF7FCFAFEF714FCA5
:10A8000050B3FEF70DFB1DE043E049E04FE02BE0C5
:10A810004FF4006272496846FEF78CFB90B100204D
:10A820007149087003217348FFF7E4FABDF804008A
:10A8300000F108016846FFF7DDFA02216248FFF7E0
:10A84000D9FA08E069484088B0F57A7F03DC6648A9
:10A8500000780128DCD000BF002063490870062181
:10A860005348FFF7C7FA23E04F48007802280FD07B
:10A8700002215F48FFF7BEFAFFF756FD00204B4963
:10A8800048800120087000F0D1F901204649087085
:10A890000EE000F015FA06215748FFF7ABFA07E083
:10A8A00000F013FA06215448FFF7A4FA00E000BFB5
:10A8B00000BF5FE145484078462845D0482804D08D
:10A8C00054285AD0572859D11EE003214B48FFF78E
:10A8D00091FA3E48C078FA2801D1012000E000201A
:10A8E0003A49085C58B108460079011D3748C01C38
:10A8F000FEF798F806214048FFF77CFA03E00621AE
:10A900002B48FFF777FAA6E0002403213C48FFF725
:10A9100071FA4FF402722D49C91C6846FDF7BAFB63
:10A92000002240213748FDF757FE06E0601CC4B204
:10A93000402234496846FEF79DFA062CF6DB0621D4
:10A940002D48FFF757FA86E0002403212E48FFF731
:10A9500051FAFEF707FBFEF749FBFEF785FB70B1E6
:10A96000FEF772FA82221949C91C6846FDF792FB6C
:10A97000BDF8060220B9062449E05DE06AE056E031
:10A9800044E000000010014025A4000875617274C5
:10A9900020697320776F726B696E670D0A00000083
:10A9A00010300020343000200A30002054300020C5
:10A9B00022AD00081130002046AD0008093000200B
:10A9C0005C3000202FAD000828AD00089C3200202C
:10A9D0002DAD00080E3000205030002035AD0008AD
:10A9E000000C014037AD00080F3000205830002027
:10A9F0003DAD00083FAD00081CAD00082AAD0008C1
:10AA000032AD0008000801403AAD00080F2407E00D
:10AA1000601EC4B24FF400626B496846FEF72AFA22
:10AA2000002CF5D106216948FFF7E4F903E006217F
:10AA30006748FFF7DFF90EE06648FDF75FFE20B1DB
:10AA400006216248FFF7D6F903E006216048FFF7C8
:10AA5000D1F900E000BF00BF8CE05E48001F4078E5
:10AA60004B2803D106215C48FFF7C4F982E059481E
:10AA7000001F4078542813D100BFFDF7B9FD80B204
:10AA800081905528F9D0032154A0FFF7B3F9022192
:10AA900081A8FFF7AFF9022151A0FFF7ABF91FE042
:10AAA0004C48001F4078532804D104214DA0FFF7E3
:10AAB000A1F915E04748001F40784D280CD103212B
:10AAC0004AA0FFF797F90C214948FFF793F90221B3
:10AAD00043A0FFF78FF903E006213D48FFF78AF90D
:10AAE00048E03C48001F407845280BD1042141A094
:10AAF000FFF780F904214048FFF77CF9022138A0D4
:10AB0000FFF778F936E03348001F4078582809D11C
:10AB10000E213AA000F0B6F800F082F800F0EEF84E
:10AB200000F084F826E02B48001F407844281FD10D
:10AB30002848001FD0F803107F91D0F807108091AB
:10AB4000D0F80B008190032130A0FFF753F90C21BE
:10AB50002748FFF74FF901212DA0FFF74BF90C21F2
:10AB60007FA8FFF747F902211DA0FFF743F900BFB7
:10AB700000BF00BF00BF27480088F0B94FF4006253
:10AB800011492548FEF7D6F9B8B12348B0F80602B6
:10AB9000012803D147F6F8701E49088003211FA041
:10ABA000FFF728F91C48808800F108011A48FFF7D0
:10ABB00021F902210AA0FFF71DF94FF48071054821
:10ABC000001FFDF780FA17E5000C01401CAD0008DE
:10ABD00022AD0008A03200205DAD000844543A00C8
:10ABE0003C3C000044533C3C00000000444D3A0013
:10ABF000A033002056453A0018AD0008656E746514
:10AC0000725F7570675F6D6F6465000042443A0063
:10AC10002C0000000C30002094300020424E3A00FE
:10AC200010B500210120FEF751F810BD10B501212B
:10AC30000846FEF74BF810BD10B5FEF749FFFEF7CA
:10AC40001BFF10BD10B5044614B1FFF719FC01E05D
:10AC5000FFF70CFC10BD00002D49096851F82000D9
:10AC60000199019001BD03B44FF00000DFF8A4F09A
:10AC700003B44FF00100DFF89CF003B44FF0020082
:10AC8000DFF890F003B44FF00300DFF888F003B46E
:10AC90004FF00400DFF87CF003B44FF00500DFF85C
:10ACA00074F003B44FF00600DFF868F003B44FF01F
:10ACB0000700DFF860F003B44FF00800DFF854F04D
:10ACC00003B44FF00900DFF84CF003B44FF00A0072
:10ACD000DFF840F003B44FF00B00DFF838F003B4B6
:10ACE0004FF00C00DFF82CF003B44FF00D00DFF84C
:10ACF00024F003B44FF00E00DFF818F003B44FF067
:10AD00000F00DFF810F003B44FF01000DFF804F08C
:10AD10009030002059AC000856312E3052453A3060
:10AD20003C3C52453A313C3C3C3C46483A4C48421B
:10AD3000483A46573A4C5742573A46463A4C4642AA
:10AD4000463A46544C5442543A4654445444534C64
:10AD500042004C44444D42445358424E3A544B3ABC
:10AD6000303C3C004E07C00800096C078008000911
:10AD7000D90700080009E407C00800097F117C1109
:10AD80007911761168032B04340315041A030B049C
:10AD90000D03050468020F1302054106F0198B1A12
:10ADA000101E401B801C061D88181B58006F0401D4
:10ADB0009F1144251013555A705C100104250F1380
:10ADC0005D5A7C5C0C01344310100100000000004F
:10ADD00080250000004B00000096000000E100000C
:10ADE00000C20100FAF500000000000000000000B1
:10ADF0000000000000010102030405060708090A1B
:10AE00000B0C0D0E0F101112131415161718191A1A
:10AE10001B1C1D1E1F00000000FAF1FAF2FAF3FAE3
:10AE2000F4FAF5FAF6FAF7FAF8FAFD000000000075
:10AE30000000000000000000000000000000000012
:10AE40000000000000000000000000000000000002
:10AE500000000000000000000000000000000000F2
:10AE6000010203040102030406070809020406089C
:08AE70000000000000000000DA
:04000005080080016E
:00000001FF
