:020000040800F2
:1080000030E0FEE754413031008000084D332073EA
:10801000797820617070000000000000003230317B
:10802000332E31322E313000000000004DF804EDC7
:10803000134800F1030020F003001249124B88425C
:1080400006D099423CBF50F8042B41F8042BF8D3DA
:108050000E494FF000028B4238BF43F8042BFAD38D
:108060005DF804FB4DF804ED4DF8040DFFF7DEFF5D
:108070005DF8040B0649086001F0D2FC5DF804FBD2
:10808000959E0008003000206C3000207C310020DC
:108090006830002040EA01039B0703D009E008C9CB
:1080A000121F08C0042AFAD203E011F8013B00F8BD
:1080B000013B521EF9D27047D2B201E000F8012B09
:1080C000491EFBD270470022F6E710B50446084669
:1080D000114602462046FFF7EFFF204610BD30B59F
:1080E0000EE003460A4601E05B1C521C1C78157822
:1080F000AC4201D1002CF7D115F0FF0F04D0401C89
:108100000278002AEDD1002030BD2DE9FE4F81EA32
:10811000030421F0004504F0004423F000414FF037
:10812000000A009450EA050302D052EA010304D188
:108130000020014603B0BDE8F08FC1F30A53C5F338
:108140000A541C44A0FB02B3C5F3130545F4801C7C
:10815000C1F3130141F480180CFB023300FB083E0D
:10816000A4F2F334810A930A41EA8C5143EA88531A
:108170000194A1FB03474FEA9C2505FB03734FEADB
:10818000982601FB06373D05260545EA1435BBEB6D
:1081900006016EEB0503850E920E45EA8C1542EA48
:1081A0008812A5FB0206261E67EB00070C0D44EAA9
:1081B0000334A41947EB1350C1F313064FF0000327
:1081C00019464FEA033343EA165343EA0403019C7A
:1081D000E5FB0201A4F10C040294009C4FEA063274
:1081E000CDE900A400F09BF8A4E770B521F00043AE
:1081F00003430CD0C1F30A540026D4EB060566EB0A
:108200000603D417AD1AA34102DB0020014670BD5E
:10821000001C41EB025170BD0EB5C10F80EAE07049
:108220000844CA07002140F233438DE80E000A4695
:108230000B4600F074F803B000BD0EB540F23341B8
:1082400002910021CDE900110A460B4600F067F8C3
:1082500003B000BD70B5C1F30A5201F0004500241F
:10826000C1F3130140F2FF3341F480119A4201DA65
:10827000002070BD40F233439A42A2F2334203DC45
:10828000524200F02FF800E090402C43F1D04042E1
:1082900070BD000030B5002904DB4FF000444042BF
:1082A00064EB0101002B04DB4FF00044524264EB0D
:1082B00003038B4208BF824230BD000030B5002965
:1082C00004DB4FF00044404264EB0101002B04DB6F
:1082D0004FF00044524264EB0303994208BF9042BE
:1082E00030BD0000202A04DB203A21FA02F00021F0
:1082F000704721FA02F3D040C2F1200291400843B6
:108300001946704710B5002B08DA401C41F10001F6
:1083100092185B411A4301D120F0010010BD2DE9F4
:10832000F04D92469B4611B1B1FA81F202E0B0FAEB
:1083300080F22032904600F044F806460F4640EAAC
:108340000A0041EA0B0152465B46084303D130461E
:108350003946BDE8F08D194652EA010015D0C8F142
:1083600040025046FFF7BEFF04460D4650465946B0
:10837000424600F026F8084301D0012000E000202A
:10838000044345EAE07526432F430A984FEAD62571
:10839000A0EB08000A304FEA46534FF0000245EACE
:1083A00047554FEAD72402D500200146D1E7010501
:1083B00050196141DDE9084500196941BDE8F04DFA
:1083C000A0E7202A04DB203A00FA02F100207047DF
:1083D0009140C2F1200320FA03F319439040704703
:1083E00010B5074CA060084600F00EF8A068002801
:1083F000FCD1BDE810400021024801F01EB8000089
:1084000028300020000400403EB51A4D04460021EB
:10841000284601F012F800220121284601F088F8D0
:10842000022C02D0012C02D005E0012001E040F234
:10843000E730ADF804003F20ADF800000020ADF8B3
:108440000600ADF802006946284601F079F80121DE
:10845000284600F0EFFF0121284600F0DDFF012251
:108460001146284601F064F80121284600F0E5FF96
:108470003EBD0000000400400121FFF7B1BF022112
:10848000FFF7AEBF2DE9F04107460C4690461E4669
:10849000012B26D9144D0020C5F8B40157B1C5F8F9
:1084A000840101F00CF944F08001384600F0BCFD75
:1084B000002409E0C5F8B001F3E718F80410002023
:1084C00000F0B2FD641CE4B2B442F6D301202FB137
:1084D000C5F88401BDE8F04101F0F1B8C5F8B0017C
:1084E000F8E7BDE8F08100000080214200B50120DE
:1084F00001F0FDF8022001F0FAF802205DF804EB2B
:1085000001F0F5B84FF0E020016921F001010161AF
:1085100070474FF0E020016941F0010101617047AF
:10852000F0B5CC78002204F00F03E40601D58C7876
:1085300023430C884FF00F0C14F0FF0F4FF0010E87
:108540001AD005680E880EFA02F42640A6420FD112
:1085500096000CFA06F7BD4303FA06F63543CE78CB
:10856000282E02D0482E02D002E0446100E00461CF
:10857000521C082AE6D305600A88FF2A1DD94568DF
:10858000002202F108060EFA06F40E882640A642E2
:108590000FD196000CFA06F725EA070703FA06F54D
:1085A000CE783D43282E00D14461CE78482E00D1AC
:1085B0000461521C082AE4D34560F0BD0246002045
:1085C00092680A4200D00120704741617047016102
:1085D000704770B500F072F8CC2001F02BF8442001
:1085E00001F028F8332001F082F800F067F8CC2081
:1085F00001F020F8BE2001F01DF800F0AFFC0546A8
:1086000000F0ACFC45EA002424F47840FFF704FEB7
:108610006FF00302FFF7E9FDFFF71CFE14F4784F3B
:1086200000D0404270BD0000014800787047000053
:108630003C30002072B60349488800224A8062B666
:108640007047000024300020014800787047000087
:108650002430002008B50121082000F0C3F80420D0
:10866000ADF800008DF8030069460248FFF758FF97
:1086700008BD0000000C014070B505460024FF2233
:108680002721012000F090FD284601F06FF8FFF748
:10869000E1FF0949D1F80821002AFBD10721012077
:1086A00000F0FEFC800600D50124FF2227210120D6
:1086B00000F07AFD204670BD0080214210B501F027
:1086C0002DF8134C02212046FFF781FF012001F015
:1086D0000EF802212046FFF778FF332001F007F85B
:1086E00002212046FFF773FF032001F000F802216A
:1086F0002046FFF763FF10B1032000F0F8FF33209E
:1087000000F0F5FF2046BDE810400221FFF75FBFF3
:108710000008014041060748826942F00102826177
:108720000548426822F0E062426042680A434260C3
:1087300070470000001002400000014070B50F2497
:10874000C278017801254FF0E026DAB1124A1268AA
:1087500002F4E062C2F5E062120AC2F10403D440FE
:1087600042789A408378234013431A010B4BCA5432
:10877000007800F01F018D40400906EB8000C0F832
:10878000005170BD01F01F008540480906EB8000D4
:10879000C0F8805170BD00000CED00E000E400E086
:1087A0000249084302490860704700000000FA05CA
:1087B0000CED00E0044A0029D16901D0014300E03A
:1087C0008143D1617047000000100240044A002933
:1087D000116901D0014300E081431161704700003D
:1087E00000100240044A0029916901D0014300E0D1
:1087F000814391617047000000100240044A002943
:10880000D16801D0014300E08143D160704700008E
:108810000010024070B50D4C06460020608001201B
:10882000207001F08FFA4FF47A7504E0304600F0C2
:1088300093FA032806D06088A842F7D901F07EFA9F
:10884000002070BD01F07AFA012070BD34300020A4
:108850002DE9F047DFF8589001240546061D89F8F8
:108860000040FFF756FE286800F058F80027A046A1
:1088700000243178C4F1070208FA02F001422868A6
:1088800002D000F031F801E000F014F8641CE4B20A
:10889000082CEED37F1C761CFFB2032FE8D30021F7
:1088A00089F80010FFF72EFE0120BDE8F0870000D8
:1088B0002430002070B5054672B60026094C66804B
:1088C00062B601F045F86088A842FCD972B66680AD
:1088D00062B601F00FF805EB450061888842FCD2D2
:1088E00070BD00002430002070B5054672B6002629
:1088F000094C668062B601F02BF805EB45016088F3
:108900008142FCD272B6668062B600F0F3FF6088E6
:10891000A842FCD970BD00002430002070B5054687
:1089200072B60026094C668062B601F011F86088C4
:10893000A842FCD972B6668062B600F0DBFFC5EBD8
:10894000451061888842FCD270BD000024300020B0
:1089500008B501210820FFF745FF4FF40060ADF88E
:10896000000004208DF8030069460248FFF7D8FD97
:1089700008BD0000000C014008B501210820FFF7E8
:1089800031FF4FF40060ADF8000003208DF80200C5
:1089900010208DF8030069460148FFF7C1FD08BDAE
:1089A000000C01402DE9F0474E4F064600240120FF
:1089B00025463870FFF7CCFF4B494FF0FF3941F2A5
:1089C000883C4FF0C808002235B1012D20D0022D7F
:1089D00035D0032D55D07CE072B67A6062B64CF289
:1089E000503005E07B6803EB8303B0EB430F70D39B
:1089F000D1F82C31002BF5D1786840F2DC5300EB34
:108A00008000B3EB400F01D2012564E0002562E055
:108A100072B67A6062B6354805E07B6803EB830383
:108A2000B0EB430F55D3D1F82C31002BF5D078683B
:108A300000EB8000BCEB400F4DD202254BE072B63C
:108A40007A6062B602E0BCEB400F21D3D1F82C0172
:108A50000028786800EB8000F5D1B8EB400F3AD2DF
:108A6000786800EB8000450006EB8400641C4368D6
:108A7000A4B265F30E0343F400434360348003253E
:108A800029E072B67A6062B605E0BCEB400F02D214
:108A90002046BDE8F087D1F82C010028786800EB6B
:108AA0008000F2D0B8EB400F15D2786800EB800060
:108AB000450006EB8400641C4368A4B265F30E0312
:108AC00023F400434360348072B67A6062B6B4E740
:108AD000FFE74846DDE7402CFFF476AFFFF712FDD5
:108AE000D6E700003C30002000802142A086010033
:108AF00070B5144D002405EB4400C188002000F03F
:108B000013FB641CE4B2032CF5D30E4D002418357E
:108B100005EB44008188002000F006FB641CE4B2F1
:108B2000022CF5D3074D00242835002035F8141009
:108B300000F0FAFA641CE4B20E2CF6D302490020CD
:108B4000087070BD369E00083C30002070B5FFF7FD
:108B5000CFFF064D0024002035F8141000F0E4FA91
:108B6000641CE4B2062CF6D370BD00007A9E0008A7
:108B700070B5FFF7BDFF41F27F142146002000F0E1
:108B8000D3FA2146002000F0CFFA064D0024002041
:108B900035F8141000F0C8FA641CE4B2052CF6D3C2
:108BA00070BD0000869E000810B5044600F012F863
:108BB00000280BD0FFF7ADFC2046FFF7F3FE04467C
:108BC000FFF7A0FC024A00212046117010BD0000F2
:108BD0003C30002070B500242721204600F060FAC8
:108BE0000325B5EB901F03D1FF2801D0012070BDF4
:108BF000641CA4B2322C01D3002070BD27210020B8
:108C000000F04EFAEDE700002DE9F041104C01268E
:108C1000074626604FF00A00FFF72EFC384600F0AA
:108C200019F8002525600A20FFF726FC384600F0D9
:108C300011F825600A20FFF71FFC384600F00AF8FB
:108C400026603220FFF718FC0120BDE8F08100000B
:108C5000AC8121422DE9F04105460024FFF759FC83
:108C6000FFF78AFE1B4E022000273070DFF8688075
:108C700015E005EB84004168090472B6776062B6BE
:108C80001BD50122C8F8AC214068C0F30E01706802
:108C900000EB8000B1EB400FF9D8641CA4B2288827
:108CA000A042E6D8FFF72EFCC8F8AC711420FFF7FD
:108CB000E6FB37700120BDE8F081C8F8AC71406870
:108CC000C0F30E01706800EB8000B1EB400FF9D8E3
:108CD000E3E700003C3000200080214270B50546EB
:108CE000002400F01DF800280ED000210A232A4697
:108CF0000846FFF7C7FB094907E0641CA4B2322C01
:108D000003D3FFF7F5FE002070BDD1F8080100285D
:108D1000F3D02846FFF778FF012070BD0080214284
:108D200070B500242721204600F0BAF9A0254FF4A1
:108D3000FA7635EA000103D1FF2801D0012070BD89
:108D4000641CA4B2B44201D3002070BD27210020CE
:108D500000F0A6F9EDE700002DE9F14F7B4C82B061
:108D600002202070FFF7D5FB72B60020608062B64B
:108D7000774B02E0608864287ED8D3F82001002871
:108D8000F8D1FFF757FC054605E07048418840F2EE
:108D9000DC508142F0D8D3F820010028F5D0FFF74D
:108DA00049FC41194A090299142D0A6064D905EB5E
:108DB0004501B0EBC10FF9D905EB450101EB0511F8
:108DC000B0EB410F58D20027994600240026FFF748
:108DD00031FC4A4605E05D48418840F2DC50814262
:108DE0004AD8D2F8200191460028F4D1FFF722FC9E
:108DF00080460320B5FBF0F0A5EB5501091A41456B
:108E00001CDA2846FFF719FA524A534BFFF77DF94F
:108E100082468B464046FFF710FA52465B46FFF704
:108E200039FA0BD207EB470168460844C6F107033D
:108E3000025D012199408A43025521E02846FFF74F
:108E4000FCF9444A444BFFF760F982468B464046A2
:108E5000FFF7F3F952465B46FFF730FA73D205EBA2
:108E6000850141456FD907EB470168460844C6F1C3
:108E70000703015D012200E065E09A4011430155BE
:108E8000DFF8C88040F2DC5A4B46D3F8200158B1D5
:108E9000761CF6B2082E9AD3641CE4B2032C95D348
:108EA000FFF7C8FB444607E0B8F802105145ECD97B
:108EB00049E06088642846D8D3F820010028F8D11A
:108EC000FFF7B8FB0546504602E0618881423AD878
:108ED000D3F820110029F8D0FFF7ACFB05EB850192
:108EE00001EBC501B0EB410F2DD305EB450101EBC3
:108EF0000511B0EB410F26D8029928447F1C096860
:108F0000FFB201EB501041080298022F0160FFF4FC
:108F10005CAF9DF800009DF80310884213D19DF8C6
:108F200001109DF8040081420DD19DF802109DF8BA
:108F30000500814207D10298BDF80020828081712E
:108F40000320BDE8FE8F4FF0FF30FAE72430002009
:108F5000000021425C8FC2F5285CFF3F70B5002401
:108F6000174E2546640802213046FFF730FB00BF4C
:108F700000BF02213046FFF728FB00BF00BF00BF43
:108F800002213046FFF723FB00BF00BF00BF00BF38
:108F900000BF02213046FFF711FB08B144F0800406
:108FA000042000F0A4FB6D1CEDB2082DDAD30221E1
:108FB0003046FFF70CFB042000F099FB204670BD03
:108FC000000801402DE9F04107460C4690461E4638
:108FD000012B25D9134D0020C5F8B4014FB1C5F8B8
:108FE000840100F06CFB2146384600F01DF8002497
:108FF00009E0C5F8B001F4E7384600F067F808F872
:109000000400641CE4B2B442F6D301202FB1C5F8C9
:109010008401BDE8F04100F052BBC5F8B001F8E7AB
:10902000BDE8F081008021422DE9F04700270200D1
:109030001A480D463E462DD0C0F884618046C0F8DF
:10904000B46100F03CFBB146464608244FF00108ED
:109050004846C6F8B491290600D54046C6F8BC017A
:1090600000F02DFBC6F8B4816806050E00F027FB62
:10907000D6F8380108B147F00107641E14F0FF0468
:10908000E6D1C6F8B491C6F8BC8100F018FB3846AA
:10909000BDE8F087C0F8B061D0E700000080214251
:1090A00070B50546FFF7C0FF284600F00FF80446EC
:1090B000054801212DB1C0F8841100F000FB2046C5
:1090C00070BDC0F8B011F8E7008021422DE9F041F1
:1090D0000024144E274610B3C6F884714FF00108DF
:1090E000C6F8BC8100F0EBFA0825C6F8B47100F0B0
:1090F000E6FA6006040EC6F8B48100F0E0FAD6F88D
:10910000380108B144F001046D1E15F0FF05ECD1E3
:10911000C6F8B47100F0D3FA2046BDE8F081C6F875
:10912000B071DBE7008021422DE9F0471D4E4FF082
:1091300000075FEA00090C46C6F8B47110D0C6F803
:10914000847100F0BCFA44F400451024B8460127AD
:109150004046C6F8B481290405D5C6F8BC7104E0C0
:10916000C6F8B071EDE7C6F8BC0100F0A8FAC6F881
:10917000B4716804050C00F0A2FA641E14F0FF0438
:10918000E6D1C6F8B481C6F8BC71B9F1000F05D0BC
:10919000C6F88471BDE8F04700F091BAC6F8B07126
:1091A000F8E700000080214270B504461646FFF73C
:1091B0003BFF054631462046FFF736FF05490120B3
:1091C0002CB1C1F8840100F07AFA284670BDC1F8CC
:1091D000B001F8E7008021422DE9F041074615462D
:1091E0001E46FFF721FF8046002406E015F8011B0C
:1091F0003846FFF719FF641CE4B2B442F6D30549C0
:10920000012027B1C1F884014046BDE8F081C1F8D2
:10921000B001F9E700802142F8B501210820FFF7ED
:10922000E1FA4FF42040ADF8000003208DF8020071
:10923000144F10248DF8034069463846FFF770F943
:10924000A002ADF8000004208DF8030069463846FE
:10925000FFF766F92002ADF800008DF8034069467B
:109260003846FFF75DF9084E0125F5624FF0020020
:10927000ADF800008DF8034069463846FFF750F915
:109280003560F8BD000C0140848121423EB50121CA
:109290000846FFF78FFA4FF08044204600F0D8F8D8
:1092A00041F28831ADF804103F21ADF800100021E3
:1092B000ADF802106946204600F042F9012120462F
:1092C00000F0B5F801221146204600F031F90121E5
:1092D000204600F0B2F802491C2000F04AFD3EBDD5
:1092E0004993000808B54FF4E060FFF759FA1C20D5
:1092F0008DF8000000208DF8010003208DF8020099
:1093000001208DF803006846FFF718FA08BD000039
:1093100008B54FF4C060FFF743FA1D208DF8000038
:1093200000208DF8010004208DF8020001208DF846
:1093300003006846FFF702FA02491D2000F019FDFC
:1093400008BD0000F995000870B54FF080414FF658
:10935000FE7008822A48017811B14188491C418079
:109360002748001D017811B14188491C4180254DD5
:10937000234A012428680C3A58B1401C286032283E
:1093800006D11078C0431070107800F0E6FC2C6015
:1093900070BD1D4B00251868401C18605188491C81
:1093A00089B25180B0F5C87F02D1184804601D60B1
:1093B000C829EDD15580164800F0D0FA01281BD1FC
:1093C000134D28787E2817D168787E2814D1A87884
:1093D000342811D17E2000F0FBF87E2000F0F8F850
:1093E0000024285D00F0F4F8641CE4B2202CF8D3CB
:1093F000022108A000F0F2F8BDE87040FFF7A6BB1C
:1094000034300020183000201430002010300020AC
:10941000443000203C3C00000029018802D041F08B
:10942000800102E040F27F32114001807047C94361
:1094300001827047C943018270470029018802D028
:1094400041F0010102E040F2FE321140018070471C
:109450002A4910B5884202D10121C41443E0B0F179
:10946000804F09D0264988420DD101210220FFF703
:10947000ADF9002102202DE001210846FFF7A6F9F1
:109480000021012026E01F49884206D10121042045
:10949000FFF79CF9002104201CE01B49884206D1FB
:1094A00001210820FFF792F90021082012E0174956
:1094B000884206D101211020FFF788F900211020F1
:1094C00008E01349884209D101212020FFF77EF9E5
:1094D00000212020BDE81040FFF778B90D498842EF
:1094E0000AD1012144142046FFF788F92046BDE83F
:1094F00010400021FFF782B910BD0000002C014090
:109500000004004000080040000C00400010004033
:10951000001400400034014002460020138A928962
:109520000B4202EA010202D0002A00D0012070475B
:10953000002A828901D00A4300E08A438281704771
:10954000028802F08F020280CA884B881A4303887F
:109550001A4302808A8882850A880285054A9042D9
:1095600002D0054A904201D1097A01860121818207
:1095700070470000002C0140003401402DE9F0410B
:10958000114D0027114E2F6000F043FC040012D053
:10959000286822463044114600F0FFFB2868315C01
:1095A0003C2904D1311811F8011C3C2909D0204470
:1095B0000027286000E07F1C0120FEF75DFF642F7C
:1095C000E2D3BDE8F0810000203000207C30002094
:1095D00001B50121684600F0DBFB08BD00F0D8BBF7
:1095E0000246002012880A4200D001207047C1F3D1
:1095F000080181807047000010B50C4C0121204605
:10960000FFF78AFF002809D001212046FFF712FF4B
:1096100007498A681AB18868401E886010BD2046D4
:10962000BDE810400021FFF708BF00000004004023
:109630002830002070B5144E054600240221304623
:10964000FEF7C3FF022000F052F8E8074FF00201D6
:10965000304602D0FEF7BBFF01E0FEF7B6FF6D0813
:10966000FEF744FF02213046FEF7B1FF641CE4B26E
:10967000082CE3D302213046FEF7A9FFBDE8704075
:10968000072000F034B8000000080140014A0249F8
:1096900000F004B849970008643000202DE9F0413B
:1096A00004460F461646002503E03946B0476D1CB8
:1096B000641C20780028F8D12846BDE8F0810320FA
:1096C00000BF00BF00BF00BF00BF00BF00BF401E03
:1096D000F8D2704770B5051E00DA0125002403E0BA
:1096E000642000F004F8641CAC42F9DB70BD00B5E6
:1096F000034602E00B2000F003F85B1EFAD200BD27
:1097000009E0032100BF00BF00BF00BF00BF00BFD2
:1097100000BF491EF8D2401EF3D2704708B50121A0
:109720000420FFF75FF810208DF8030003208DF868
:1097300002000220ADF8000069460248FEF7F0FE84
:1097400008BD00000008014070B5074D0446C1B2D5
:109750002846FFF74CFF40212846FFF741FF00282D
:10976000F9D0204670BD00000044004070B50546A9
:1097700000F012F91C4C002121604FF005031B4A38
:109780004FF030014FF00100FFF726FD0523174A87
:109790002A210120FFF720FD20232A46A0210120B5
:1097A000FFF71AFD012221211046FFF7FDFC0122DF
:1097B00022211046FFF7F8FC1A2224210120FFF78E
:1097C000F3FC282225210120FFF7EEFC07222621A9
:1097D0000120FFF7E9FC0E2220210120FFF7E4FC25
:1097E0000120206070BD000080812142909E000811
:1097F000F8B501210420FEF7F5FF4025ADF8005033
:1098000003248DF8024010200B4E8DF803006946AA
:109810003046FEF785FE0848103005602020ADF880
:1098200000008DF8024004208DF8030069463046A0
:10983000FEF776FEF8BD000000080140124810B5A2
:109840000168491C01601148006860B11048426815
:1098500040211AB1002242600E4803E0012242601A
:109860000C48001D0160FEF7DFFE18B10A480168D0
:10987000491C0160FEF7E8FE002803D00748018874
:10988000491C018010BD00001C3000200030002069
:1098900028300020100801404030002026300020F1
:1098A00008B501210420FEF79DFF1020ADF800004F
:1098B00003218DF802108DF8030069460248FEF777
:1098C0002FFE00F003F808BD0008014010B510217C
:1098D0000248FEF77AFE002010BD0000000801409B
:1098E00010B510210248FEF772FE012010BD0000E5
:1098F0000008014008210148FEF767BE000C014046
:1099000008B501210820FEF76DFF01210420FEF7B4
:1099100069FF0820ADF8000003208DF80200102038
:109920008DF8030069460848FEF7FAFD4FF4807091
:10993000ADF8000004208DF8030069460348FEF7E7
:10994000EFFDFFF7D7FF08BD000C01400008014004
:1099500008210148FEF73BBE000C014070B50646E9
:10996000002407210120FFF79BFB0546FF2227214A
:109970000120FFF719FC68060BD520233246612130
:109980000120FFF71FFBFF22E2210120FFF70CFC63
:109990000124204670BD000010B5074C0020206057
:1099A0004FF00D024FF020014FF00100FFF7FCFBDC
:1099B0000120206010BD00008081214210B50921E6
:1099C00011A000F0E5F94FF4487421461148FEF764
:1099D0007AFB4FF4966214210E4800F0DEF90EA1D6
:1099E0000C48FEF77CFB40B10C4A00202146106079
:1099F0000848FEF768FB002010BD21460548FEF729
:109A000062FB012010BD000041542B454E544D0D0A
:109A10000A0000007C3000202B6F6B000830002013
:109A2000A34CC2B0002565700120FEF773FEA1486B
:109A3000016821F470210160016841F44031016046
:109A4000FFF72EFF012000F088F900F0C4F9FFF7BE
:109A500057FFFFF7CDFEFEF731FE00F077F9FFF775
:109A600057FC0021944800F0BBF9FEF74BFD0020A5
:109A7000FFF7D2FB91A0FFF709FE954F0126A04604
:109A8000444698F80100A0B16846FEF7C3FE58B1FD
:109A9000657003218FA0FFF7A1FD08216846FFF73D
:109AA0009DFD03218C4802E08B4807210A30FFF717
:109AB00095FD00F0AEF9002838D0FFF75FFDB878CB
:109AC0003A2811D085A18248FEF709FB0028F3D07F
:109AD00083A17F48FEF703FB002875D00A20FFF71B
:109AE000F9FD0A217FA03AE000F028F938784C28E7
:109AF0000CD006DC4228DFD0442870D0462815D18F
:109B00003EE053286AD05428F9D162E0787848289A
:109B1000D2D006DC422827D0442828D04628EED1CF
:109B200005E054281ED05728E9D16670B9E002211B
:109B30006FA0FFF753FDFEF7DBFFFFF707F868465E
:109B4000FFF732F8002840DD03216AA0FFF746FD49
:109B50004FF482716846FFF741FD03215E48FFF72D
:109B60003DFD9EE026709CE000F030F999E0042174
:109B700061A0FFF733FD00F02EF9042160A0EEE7AD
:109B80007878462810D0482826D0542814D0572852
:109B900022D10024381DFEF75BFE641CE4B2062CC3
:109BA000F8D3FFF7A7FE0BE0FEF7A2FFFEF7E0FFFA
:109BB000381DFFF793F803E0381DFEF75DFD20B177
:109BC00045480721C01CCAE72CE0434807210A305A
:109BD000C5E778784B28F3D063E000E016E07878AA
:109BE000542802D053280CD05BE0FEF7F2FCC0B240
:109BF000B8705528F9D03C20F870387105213448E8
:109C0000ADE7C4E9015604213FA0A8E778785828B9
:109C100047D10E213EA000F0BBF800F08FF800F015
:109C2000F3F835E03EA12A48FEF759FA48B16661DB
:109C3000A56000F087F8FFF7C1FE58BBA56065601E
:109C40002FE039A12248FEF74AFA20B3204810211C
:109C50001038FEF738FA35A11D48FEF740FA0146E4
:109C60001B4810221038FEF715FAFFF7A7FE70B94F
:109C7000E56003212FA06560FFF7B0FC14481021B8
:109C80001038FFF7ABFC02212BA0FFF7A7FC2561E2
:109C900000F058F805E0FFF791FE10B9A560656087
:109CA0006561BD704FF480710948FEF70CFAE7E674
:109CB00004300020001001403D9800087561727466
:109CC00020697320776F726B696E670D0A00000060
:109CD0007C3000204C573A00249E00082B6F000077
:109CE0004150000041542B57414B45590D0A00008B
:109CF0004C46000046463A0054463C3C00000000FA
:109D00004C443C3C0000000044533C3C000000003C
:109D1000656E7465725F7570675F6D6F6465000076
:109D20004F50454E000000004D4143002B6F6B3DEE
:109D300000000000444D3A003C3C0000002101209E
:109D4000FEF738BD01210846FEF734BD10B5FFF718
:109D5000C9FABDE81040FFF799BA08B1FFF7C0BDD6
:109D6000FFF7B4BD2D49096851F820000199019011
:109D700001BD03B44FF00000DFF8A4F003B44FF0CE
:109D80000100DFF89CF003B44FF00200DFF890F020
:109D900003B44FF00300DFF888F003B44FF0040081
:109DA000DFF87CF003B44FF00500DFF874F003B483
:109DB0004FF00600DFF868F003B44FF00700DFF85B
:109DC00060F003B44FF00800DFF854F003B44FF034
:109DD0000900DFF84CF003B44FF00A00DFF840F060
:109DE00003B44FF00B00DFF838F003B44FF00C0071
:109DF000DFF82CF003B44FF00D00DFF824F003B4CB
:109E00004FF00E00DFF818F003B44FF00F00DFF84A
:109E100010F003B44FF01000DFF804F068300020B9
:109E2000659D00083C3C0052453A303C3C005245A0
:109E30003A313C3C00004E07C00800096C0780081E
:109E40000009D90700080009E407C00800096803F1
:109E50002B04340315041A030B040D0305046802D4
:109E60000F1302054106F0198B1A101E401B801CAF
:109E7000061D88181B58006F04019F1144251013FC
:109E8000555A705C100104250F135D5A7C5C0C015F
:109E9000344310100100000000000000000000002A
:109EA00000000000010000000000000000000000B1
:109EB00000000000000000000000000000000000A2
:109EC0000000000001000000000000000000000091
:109ED000000000000000000000000000010102037B
:109EE0000405060708090A0B0C0D0E0F10111213BA
:109EF0001415161718191A1B1C1D1E1F0000000030
:049F0000000000005D
:04000005080080016E
:00000001FF
