:020000040800F2
:1080000030E0FEE754413031008000084D332073EA
:10801000797820617070000000000000003230317B
:10802000332E31322E313000000000004DF804EDC7
:10803000134800F1030020F003001249124B88425C
:1080400006D099423CBF50F8042B41F8042BF8D3DA
:108050000E494FF000028B4238BF43F8042BFAD38D
:108060005DF804FB4DF804ED4DF8040DFFF7DEFF5D
:108070005DF8040B0649086001F030F85DF804FB78
:10808000469D0008003000205C300020A037002012
:108090005830002030B505460B462A4613F8014BF0
:1080A00012F8010B08B1A042F8D01CB1002802D090
:1080B0006D1CF1E7284630BD032A40F2308010F0F5
:1080C000030C00F0158011F8013BBCF1020F624473
:1080D00098BF11F801CB00F8013B38BF11F8013B04
:1080E000A2F1040298BF00F801CB38BF00F8013BB1
:1080F00011F0030300F04780083AC0F0088051F8FF
:10810000043B083A51F804CBA0E80810F5E7121D2B
:108110005CBF51F8043B40F8043BAFF30080D2074A
:1081200024BF11F8013B11F801CB48BF11F8012B16
:1081300024BF00F8013B00F801CB48BF00F8012B39
:1081400070474FF000020429C0F0128010F0030CB9
:1081500000F04D80CCF1040CBCF1020F18BF00F808
:10816000012BA8BF20F8022BA1EB0C0100F03FB8B7
:108170005FEAC17C24BF00F8012B00F8012B48BF47
:1081800000F8012B704710B5203AC0F00B80B1E821
:108190001850203AA0E81850B1E81850A0E818503C
:1081A000BFF4F5AF5FEA027C24BFB1E81850A0E845
:1081B000185044BF18C918C0BDE810405FEA827C5F
:1081C00024BF51F8043B40F8043B08BF7047D20776
:1081D00028BF31F8023B48BF11F8012B28BF20F817
:1081E000023B48BF00F8012B70474FF0000200B57A
:1081F000134694469646203922BFA0E80C50A0E8CA
:108200000C50B1F12001BFF4F7AF090728BFA0E877
:108210000C5048BF0CC05DF804EB890028BF40F843
:10822000042B08BF704748BF20F8022B11F0804F85
:1082300018BF00F8012B70472DE9F04107460C46A6
:1082400090461E46012B26D9144D0020C5F8B401D6
:1082500057B1C5F8840100F0C1FD44F080013846F3
:1082600000F068FB002409E0C5F8B001F3E718F856
:108270000410002000F05EFB641CE4B2B442F6D3AC
:1082800001202FB1C5F88401BDE8F04100F0A6BD82
:10829000C5F8B001F8E7BDE8F08100000080214298
:1082A00000B5012000F0C0FD022000F0BDFD02205D
:1082B0005DF804EB00F0B8BD4FF0E020016921F05B
:1082C0000101016170474FF0E020016941F00101B7
:1082D00001617047F0B5CC78002204F00F03E4068A
:1082E00001D58C7823430C884FF00F0C14F0FF0F4E
:1082F0004FF0010E1AD005680E880EFA02F42640DF
:10830000A6420FD196000CFA06F7BD4303FA06F613
:108310003543CE78282E02D0482E02D002E04461A8
:1083200000E00461521C082AE6D305600A88FF2A8F
:108330001DD94568002202F108060EFA06F40E88DF
:108340002640A6420FD196000CFA06F725EA070749
:1083500003FA06F5CE783D43282E00D14461CE784D
:10836000482E00D10461521C082AE4D34560F0BDB8
:108370000246002092680A4200D001207047416105
:1083800070470161704770B500F028F8CC2000F00C
:10839000EBFC442000F0E8FC332000F045FD00F049
:1083A0001DF8CC2000F0E0FCBE2000F0DDFC00F069
:1083B0008DFA054600F08AFA45EA002424F4784054
:1083C00001F081FA6FF0030201F04AFC01F04CFA6F
:1083D00014F4784F00D0404270BD000010B500F09A
:1083E0002DFD134C02212046FFF7CBFF012000F0AA
:1083F0001BFD02212046FFF7C2FF332000F014FDD1
:1084000002212046FFF7BDFF032000F00DFD0221F1
:108410002046FFF7ADFF10B1032000F005FD33202B
:1084200000F002FD2046BDE810400221FFF7A9BF81
:108430000008014070B50F24C278017801254FF083
:10844000E026DAB1124A126802F4E062C2F5E06294
:10845000120AC2F10403D44042789A408378234040
:1084600013431A010B4BCA54007800F01F018D40D2
:10847000400906EB8000C0F8005170BD01F01F00FC
:108480008540480906EB8000C0F8805170BD0000AF
:108490000CED00E000E400E00249084302490860F6
:1084A000704700000000FA050CED00E0044A0029C6
:1084B000D16901D0014300E08143D16170470000E0
:1084C00000100240044A0029116901D0014300E074
:1084D000814311617047000000100240044A0029E6
:1084E000916901D0014300E0814391617047000030
:1084F00000100240044A0029D16801D0014300E085
:108500008143D16070470000001002402DE9F04126
:1085100000F0FCF814484178002923D00027477068
:10852000042112A000F01EFCDFF83C80002508F1B9
:10853000020805EB4500002400EB0806305D00F062
:108540000BFC641CE4B2032CF8D36D1CEDB2022DBD
:10855000EFD3022107A000F005FC07480749077088
:1085600001200870BDE8F0814830002057463C3CAF
:10857000000000003C3C00000030002001300020E2
:1085800070B5144D002405EB4400C188002000F0B4
:1085900047FA641CE4B2032CF5D30E4D00241835C1
:1085A00005EB44008188002000F03AFA641CE4B234
:1085B000022CF5D3074D00242835002035F814107F
:1085C00000F02EFA641CE4B20E2CF6D3024900200F
:1085D000487070BDEC9C00089833002070B5FFF720
:1085E000CFFF064D0024002035F8141000F018FAD3
:1085F000641CE4B2062CF6D370BD0000309D000868
:1086000070B5FFF7BDFF41F27F142146002000F056
:1086100007FA2146002000F003FA064D002400204E
:1086200035F8141000F0FCF9641CE4B2052CF6D304
:1086300070BD00003C9D000810B500F005F8002852
:1086400000D0012010BD000070B500242721204675
:1086500000F0A2F90325B5EB901F06D1FF2804D046
:10866000094902204870012070BD641CA4B2322C5C
:1086700001D3002070BD0A2000F0BBFB27210020A1
:1086800000F08AF9E7E700009833002070B505464E
:10869000002400F01BF800280ED000210A232A46EF
:1086A0000846FFF7C9FD084807E0641CA4B2322C55
:1086B00003D3FFF765FF002070BDD0F80811002933
:1086C000F3D0012070BD00000080214270B500246D
:1086D0002721204600F060F9A0254FF4FA7635EA0C
:1086E000000106D1FF2804D007490220487001206C
:1086F00070BD641CA4B2B44201D3002070BD272118
:10870000002000F049F9EAE7983300202DE9F05FF6
:108710006A4B00252A461D70694C04E000F050FBAE
:108720001878401C1870D4F8200130B1FA2DF5D318
:1087300003E000F045FB521CD2B2D4F8200100281F
:10874000F7D0187800EB4001B2EBC10F79D900EBFC
:10875000400101EB00109B46B2EB400F71D20027A5
:10876000A046002400260025424603E000F028FB36
:108770006D1CEDB2D2F82001904608B1F52DF5D36D
:108780009BF800000321B0FBF1F1A0EB5002511A5D
:10879000A9421CDA01F0AEF84A4A4B4B01F0FAF854
:1087A00081468A46284601F0A5F84A46534601F01C
:1087B000B5F80CD2414807EB4701801C0844C6F1CC
:1087C0000703025D012199408A43025523E09BF88B
:1087D000000001F08FF83B4A3B4B01F0DBF881468B
:1087E0008A46284601F086F84A46534601F0D0F9F9
:1087F00061D29BF8000000EB8000A8425BD92F48B3
:1088000007EB4701801C0844C6F10703015D012204
:108810009A40114301550022434603E000F0D0FA8C
:10882000521CD2B2D3F8200108B9962AF6D3761C8E
:10883000F6B2082E97D3641CE4B2032C92D3002224
:1088400004E038E000F0BCFA521CD2B2D3F82001A8
:1088500008B1C82AF6D3002203E000F0B1FA521C96
:10886000D2B2D3F820010028F7D09BF8000000EB2B
:10887000800101EBC001B2EB410F1CD300EB4001C2
:1088800001EB0010B2EB400F15D87F1CFFB2022F96
:10889000FFF467AF0948801C0178C27891420AD181
:1088A00041780279914206D181784079814202D1A2
:1088B00001208BF80100BDE8F09F00004830002047
:1088C000000021425C8FC2F5285CFF3F70B5002498
:1088D000174E2546640802213046FFF752FD00BFBF
:1088E00000BF02213046FFF74AFD00BF00BF00BFB6
:1088F00002213046FFF745FD00BF00BF00BF00BFAB
:1089000000BF02213046FFF733FD08B144F0800478
:10891000042000F089FA6D1CEDB2082DDAD3022193
:108920003046FFF72EFD042000F07EFA204670BD91
:10893000000801402DE9F041164E0D46002780B198
:10894000C6F88471C6F8B47100F048FA0824B84635
:1089500001274046C6F8B481290605D5C6F8BC7182
:1089600004E0C6F8B071EDE7C6F8BC0100F036FAD5
:10897000C6F8B4716806050E00F030FA641E14F0F3
:10898000FF04E6D1C6F8B481C6F8BC71BDE8F04179
:1089900000F024BA0080214270B50546FFF7CAFFF7
:1089A000284600F00FF80446054801212DB1C0F813
:1089B000841100F013FA204670BDC0F8B011F8E73A
:1089C000008021422DE9F0410024144E274610B3C7
:1089D000C6F884714FF00108C6F8BC8100F0FEF9BA
:1089E0000825C6F8B47100F0F9F96006040EC6F85F
:1089F000B48100F0F3F9D6F8380108B144F001046D
:108A00006D1E15F0FF05ECD1C6F8B47100F0E6F963
:108A10002046BDE8F081C6F8B071DBE70080214256
:108A20002DE9F0471D4E4FF000075FEA00090C46A4
:108A3000C6F8B47110D0C6F8847100F0CFF944F4D0
:108A400000451024B84601274046C6F8B4812904E1
:108A500005D5C6F8BC7104E0C6F8B071EDE7C6F8FC
:108A6000BC0100F0BBF9C6F8B4716804050C00F055
:108A7000B5F9641E14F0FF04E6D1C6F8B481C6F857
:108A8000BC71B9F1000F05D0C6F88471BDE8F0479C
:108A900000F0A4B9C6F8B071F8E7000000802142E8
:108AA0003EB501210846FFF701FD4FF08044204606
:108AB00000F09CF841F28831ADF804103F21ADF888
:108AC00000100021ADF802106946204600F0FAF8C7
:108AD0000121204600F07CF801221146204600F0DA
:108AE000E9F80121204600F076F802491C2000F048
:108AF0004EFE3EBD258B000808B54FF4E060FFF741
:108B0000CBFC1C208DF8000000208DF80100032014
:108B10008DF8020001208DF803006846FFF78AFCFB
:108B200008BD000070B54FF080414FF6FE7008821E
:108B3000214D224A0124286858B1401C286032285F
:108B400006D11078C0431070107800F014FE2C602D
:108B500070BD1B4B00251968491C19605088401CCA
:108B600080B25080B1F5C87F02D116490C601D60FB
:108B7000C828EDD1002455801348FFF75DFD01287A
:108B800015D1114D287869788842E1D07E2000F017
:108B9000E3F87F2000F0E0F8285D00F0DDF8641CC9
:108BA000E4B20A2CF8D3022108A000F0DBF8BDE8FB
:108BB0007040FFF713BD0000183000205030002037
:108BC00014300020103000208C3300203C3C00008A
:108BD000C943018270470029018802D041F0010198
:108BE00002E040F2FE321140018070472A4910B580
:108BF000884202D10121C41443E0B0F1804F09D072
:108C0000264988420DD101210220FFF75BFC00219B
:108C100002202DE001210846FFF754FC002101202D
:108C200026E01F49884206D101210420FFF74AFCB3
:108C3000002104201CE01B49884206D101210820A4
:108C4000FFF740FC0021082012E01749884206D1B6
:108C500001211020FFF736FC0021102008E0134905
:108C6000884209D101212020FFF72CFC002120207F
:108C7000BDE81040FFF726BC0D4988420AD101210A
:108C800044142046FFF736FC2046BDE81040002182
:108C9000FFF730BC10BD0000002C01400004004074
:108CA00000080040000C004000100040001400408C
:108CB00000340140002A828901D00A4300E08A433F
:108CC00082817047028802F08F020280CA884B8836
:108CD0001A4303881A4302808A8882850A8802859B
:108CE000054A904202D0054A904201D1097A018694
:108CF0000121818270470000002C014000340140B6
:108D00002DE9F041124D0027124E4FF47A782F6072
:108D100000F08DFD040012D0286822463044114630
:108D200000F049FD2868315C3C2904D1311811F864
:108D3000011C3C2909D020440027286000E07F1C4A
:108D4000404600F063F8642FE2D3BDE8F0810000F4
:108D5000443000206C30002001B50121684600F04D
:108D600025FD08BD00F022BD70B5144E0546002457
:108D700002213046FFF703FB022000F055F8E80718
:108D80004FF00201304602D0FFF7FBFA01E0FFF797
:108D9000F6FA6D08FFF784FA02213046FFF7F1FA80
:108DA000641CE4B2082CE3D302213046FFF7E9FA51
:108DB000BDE87040072000F037B80000000801400F
:108DC000032000BF00BF00BF00BF00BF00BF00BF47
:108DD0000100A0F10100C0B2F5D17047032000BF2F
:108DE00000BF00BF00BF00BF00BF00BF401EF8D2E1
:108DF000704770B5051E00DA0125002403E06420E9
:108E000000F012F8641CAC42F9DB70BD09E00321EC
:108E100000BF00BF00BF00BF00BF00BF00BF491EB2
:108E2000F8D2401EF3D2704700B5034602E00B2093
:108E3000FFF7ECFF5B1EFAD200BD000008B5012170
:108E40000420FFF74BFB10208DF8030003208DF862
:108E500002000220ADF8000069460248FFF73AFA26
:108E600008BD000000080140F8B501210420FFF70B
:108E700035FB4025ADF8005003248DF8024010204A
:108E80000B4E8DF8030069463046FFF723FA084879
:108E9000103005602020ADF800008DF8024004205D
:108EA0008DF8030069463046FFF714FAF8BD00005C
:108EB000000801400F480168491C01600E48006825
:108EC00060B10E48426840211AB1002242600C484D
:108ED00003E0012242600A48001D01600948407811
:108EE000002806D0074800F20441D0F80404401CD2
:108EF00008607047243000200430002050300020EB
:108F0000100801409833002008B501210820FFF720
:108F1000E5FA8020ADF8000003208DF80200102053
:108F20008DF8030069460348FFF7D4F900F004F810
:108F300008BD0000000C014010B580210248FFF779
:108F40001EFA002010BD0000000C014010B5802169
:108F50000248FFF716FA012010BD0000000C014086
:108F600008210148FFF70BBA000C014008B50121A8
:108F70000820FFF7B3FA01210420FFF7AFFA082019
:108F8000ADF8000003208DF8020010208DF80300DA
:108F900069460848FFF79EF94FF48070ADF800006D
:108FA00004208DF8030069460348FFF793F9FFF7A3
:108FB000D7FF08BD000C014000080140082101480E
:108FC000FFF7DFB9000C014008B54FF40040ADF8E1
:108FD000000003208DF8020004208DF8030069468C
:108FE0000148FFF777F908BD0008014010B50321DB
:108FF0001CA000F0DBFB4FF4487421461A48FFF731
:10900000A0F84FF496620121174800F0D4FB1648EF
:10901000007861281FD121461348FFF792F84FF4DA
:109020007A70FFF7E6FE012110A0FFF79BFE40F6E5
:10903000B83203210C4800F0BEFB0DA10A48FFF72F
:1090400029F840B10B4A0120214610600648FFF77D
:1090500078F8012010BD21460348FFF772F8002080
:1090600010BD00002B2B2B006C3000206100000095
:109070002B6F6B000830002010B5092111A000F003
:1090800095FB4FF4487421461148FFF75AF84FF406
:10909000966214210E4800F08EFB0EA10C48FEF7DC
:1090A000F9FF40B10C4A0020214610600848FFF744
:1090B00048F8002010BD21460548FFF742F801207E
:1090C00010BD000041542B454E544D0D0A000000C8
:1090D0006C3000202B6F6B0008300020FD4D002409
:1090E000FD482C7001266C636E70016821F47021BC
:1090F0000160016841F440310160FFF705FFFFF7AF
:1091000035FFFFF7B1FEFFF72BFF012000F033FB27
:1091100000F06FFBFFF762F900F026FB0021EF483B
:1091200000F06CFBFFF7C8F805F1020AE94F387848
:10913000D8B100F011FB4FF4FA7511E0FFF7E6F932
:10914000786B401C7863A8420AD17C637878401C15
:10915000C1B2481C7870052902D37E703C7002E0D1
:1091600038780028EAD100F0FBFAF86888B100F0FE
:10917000F3FAB86818B9FFF739FFB86838B10A20B0
:10918000FFF737FE0A21D6A0FFF7ECFDFC6000F0E8
:10919000E7FAB869F0B94FF40041D448FFF7E8F8AE
:1091A00000F0E9FA3869A8B100F0D6FAD0480078A2
:1091B000E0B13C610321CFA0BC60FFF7D3FD1021DB
:1091C000CB48FFF7CFFD0221CBA0FFF7CBFD7C61A1
:1091D00000F0C6FAFFF7F8FEDFF810834FF40049FD
:1091E00049464046FFF7C4F878B12CE0B86820B98A
:1091F000FFF7FCFEB8680028ECD00A20FFF7F9FD65
:109200000921BEA0FFF7AEFDE4E700F0A5FA4FF696
:10921000FF7508E0F869401CF861A84203D1FC61C1
:10922000386A401C386249464046FFF7A1F80028DA
:10923000F0D0386A052804D3BC60C7E90364FC6138
:109240003C6200F08DFA00F0F2FA002819D0FFF726
:1092500057FDA74D1035A8783A2813D0AAA1284663
:10926000FEF718FF0028F1D0A8A12846FEF712FF4C
:10927000002870D00A20FFF7BCFD0A21A4A0FFF748
:1092800071FD33E200F068FA287846280ED006DC3B
:1092900042286ED043286DD0442811D17FE14C285C
:1092A00069D0532868D05728F7D1D5E1002000F0C5
:1092B00062FA6878482804D0572855D053287AD0C5
:1092C000D2E10421B962E9788AF801102979B84617
:1092D0008AF80010BAF800105746C8F82C10FEF7AC
:1092E000F2FF4046D8F82CC020E072B644624660D7
:1092F00062B6491C81626A5C2AB37C703A70398814
:10930000426A9142FCD872B64462446062B640211F
:10931000764A10321160816A491C81626A5CDAB156
:109320007C703A703988426A9142FCD8816A614502
:10933000DBD3FEF7C1FF042178A0FFF713FD012066
:1093400000F019FA90E1891C6A5C7A70491C81620C
:10935000695C3970D3E78AE1891C6A5C7A70491CC0
:109360008162695C3970DDE73C63FEF7ACFF386B06
:1093700041E062E14BE042E153E172B67C6262B6E9
:10938000FFF71CFE0420B862786A1C28FCD372B672
:109390007C6262B6FFF7E4FDE9788AF8011029796A
:1093A0008AF80010BAF80000F8624FF44A70796A3F
:1093B0008142FCD318E027E072B67C6262B6FFF708
:1093C000FDFDB86A401CB862295C786A8142FCD80D
:1093D00072B67C6262B6FFF7C3FDB86A401CB86221
:1093E000285C796A8842FCD8D7E90A018842E3D32D
:1093F000386B401C38630628BFD3FEF75DFFFFF7CC
:10940000AFFD042147A009E1042148A006E10421A1
:1094100048A0FFF7A7FC0520C7E90A04FEF753FFA1
:109420004FF43D79B4E072B67E6262B620214046C8
:10943000FEF79EFF0028F9D0786A05287ED9786A61
:10944000AAF8000072B67E6262B69AF8011039B1CD
:10945000B86A2C54401C2C54401C2954401CB8623F
:10946000B86A9AF8001041F2707B2954401CB86227
:1094700020E0796A59451DD9B96A6C54491CAAF88B
:1094800000109AF80120EA709AF8000028713C2038
:109490006854491C6854491C4320B962287048200C
:1094A00068703A20A87012481030FFF75BFCC7F8CC
:1094B000289071E020214046FEF75AFF0128D8D0BD
:1094C000B86A484568D27A6AAAF800209AF801205A
:1094D000AAB335E00030002000100140B58E00082E
:1094E00041542B574D4F44450D0A000000080140E0
:1094F0005C300020444D3A003C3C000041542B4E6F
:109500004D41430D0A0000002B6F00004150000048
:1095100041542B57414B45590D0A000046483C3CED
:109520000000000046573C3C0000000046533C3C15
:109530000000000043413C3C0000000020E006E049
:109540002C54401C2C54401C2A54401CB8629AF8DD
:1095500000102954401CC7E90A0419E0796A5945EA
:1095600010D972B67C6262B6F86A401CF8621E2896
:1095700008D9042161A0C7F82890FFF7F3FB07E0A2
:109580004CF2503B20214046FEF7F2FE0128E5D088
:10959000B86A4845FFF447AFFEF78EFE64E03E70C0
:1095A000FEF7EEFFFFF72CF85648FFF76FF8FFF7CE
:1095B00015F8C820FFF71DFC042153A0FFF7D2FBCC
:1095C0006878532816D054284ED14FF4487150482B
:1095D000FEF7B7FD4420287054206870FEF7D3FED4
:1095E000C0B2A8705528F9D03C20E8702871052138
:1095F000474813E0C7E90246042146A00EE0687818
:10960000422802D0442805D02EE000F0EDF80421D5
:1096100042A003E000F0EDF8042142A0FFF7A2FB16
:1096200022E0687858281FD10E2140A000F0BEF833
:1096300000F092F800F0F6F816E0FEF7A1FFFEF752
:10964000DFFF3048FFF722F8FEF7C8FFC820FFF71A
:10965000D0FB04212CA0E1E73E707E70C820FFF70C
:10966000C8FB042135A0D9E700F07AF83EE035A127
:109670002748FEF70FFD48B1BE61FC6000F070F8AE
:10968000FFF7FAFC90BBFC60BC602FE02FA12048E4
:10969000FEF700FD20B31E4810211038FEF751FDE3
:1096A0002BA11B48FEF7F6FC014619481022103882
:1096B000FEF702FDFFF7E0FC80B93C610321AFF249
:1096C000CC10BC60FFF74EFB114810211038FFF79B
:1096D00049FB0221AFF2E010FFF744FB7C61C3E7D6
:1096E000FFF7CAFC10B9FC60BC60BC6108484FF4CD
:1096F00048718470FEF725FD18E5000043433C3CAB
:10970000000000003830002042463C3C00000000D1
:109710006C30002044533C3C000000004C423C3C78
:10972000000000004C443C3C00000000656E746585
:10973000725F7570675F6D6F6465000057463C3CF3
:10974000000000004F50454E000000004D41430016
:109750002B6F6B3D0000000000210120FEF7A6BE2C
:1097600001210846FEF7A2BE10B5FFF7C5F9BDE816
:109770001040FFF795B908B1FFF7E8BBFFF7DCBB76
:109780002D49096851F820000199019001BD03B4E9
:109790004FF00000DFF8A4F003B44FF00100DFF851
:1097A0009CF003B44FF00200DFF890F003B44FF0E8
:1097B0000300DFF888F003B44FF00400DFF87CF01A
:1097C00003B44FF00500DFF874F003B44FF0060067
:1097D000DFF868F003B44FF00700DFF860F003B47F
:1097E0004FF00800DFF854F003B44FF00900DFF841
:1097F0004CF003B44FF00A00DFF840F003B44FF030
:109800000B00DFF838F003B44FF00C00DFF82CF059
:1098100003B44FF00D00DFF824F003B44FF00E0056
:10982000DFF818F003B44FF00F00DFF810F003B4C6
:109830004FF01000DFF804F0583000208197000846
:1098400002494FF0000000F0D9B900BF0000F87FD6
:10985000491058BFC1F140415B1058BFC3F14043AC
:109860008B42EFF3008070474FEA41034FEA5353B6
:10987000A3F58063D3F11E03C8BFD3F1210C0CDD27
:109880004FF0004242EAC12242EA505232FA03FC4F
:109890008CEAE17CACEBE1707047102BC4BF002078
:1098A000704703F5787CBCF1FF3F04D06FF00042B5
:1098B00082EA2100704770B500F016F949922480C1
:1098C00000207047F2E710F0004248BF4042B0FA73
:1098D00080F310FA03F10AD0C3F11D0303F580638E
:1098E0004FEA415002EB035202EBD12170474FF097
:1098F00000007047B0FA80F310FA03F10AD0C3F108
:109900001D0303F580634FEA41504FEA035202EB17
:10991000D12170474FF000007047000051EA030C5E
:1099200017D41CF5801F58BFBCF5801F00F10680BE
:10993000994218BF704708BF9042704707D711F58A
:10994000801F58BF13F5801F19D499427047894270
:1099500070471CF5801F08D5BCF5801FF7D58B42DA
:1099600018BF704708BF824270474FF4001C1CEBC1
:10997000410F38BF1CEB430F01D28B42704770B5CB
:1099800000F0B2F8922449004FF000514FF080539C
:10999000FFF75EBFDFF848C170B51CEA111E1EBF9D
:1099A0001CEA13159EEA0C0F95EA0C0F00F06F806D
:1099B00081EA030423EA4C134EEAD47E21EA4C11D7
:1099C00041F4801143F48013AE44A1FB024CA0FB90
:1099D0000365AEF17F7E361955EB0C05A1FB034CF8
:1099E0004CF10003A0FB021C16EB0C06654153F181
:1099F0000003094218BF46F0010613F4007F0BD1A3
:109A00004FEA03314FEA0530340341EA155140EA89
:109A100016506FF003020AE04FEAC3214FEAC52057
:109A2000F40241EA555140EA56506FF0020202EB4F
:109A30002E4201EB025585EACE710AD05FEA440C52
:109A400018BF24F0004450F1000041F1000120EA69
:109A5000D47040F2FE7C624500D270BDA84214BFB3
:109A60004FF080444FF04044002E08BF0024BEF168
:109A7000806FA8BFA1F1C041BDE8704080F2828034
:109A80004FF0000001F1C04101F0004170479EEA33
:109A90000C0F0CEA131518BF95EA0C0F06D04FF007
:109AA000000081EA030E0EF0004170BD00F01CF8CA
:109AB0008900013E00F007B800F009B84FEA430CF6
:109AC0005FEA5C5C08D081EA030100F05BB84FEA12
:109AD000410C5FEA5C5CF6D14FF000000149704731
:109AE0000000FF070000F87F0EF1020E2EF0030EBB
:109AF0005EF8046B364205D4012A43EB030515F5E5
:109B0000001F12D8012841EB010C1CF5001F0CD8D6
:109B10000ED14FEAD17C15F5001F0CEB4C0C0CF16B
:109B2000020C08BF4CEBD37C04E04FF0080C01E0C2
:109B30004FEAD37C0CEB4C0526FA05F606F0070637
:109B4000B6F1040C06D20EEB860CBDE870404CF06A
:109B5000010C6047DFE80CF0090B02024FF00041F6
:109B60004FF00000A1F5002170BD194610460128F4
:109B700051EB010418BFD4F5001484BF002001F09C
:109B8000004170BD0808A0F500114FEA310170478F
:109B900053EA010C17D41CF5801F58BFBCF5801F79
:109BA00000F106808B4218BF704708BF82427047A1
:109BB00007D713F5801F58BF11F5801F19D48B42AA
:109BC00070479B4270471CF5801F08D5BCF5801F6D
:109BD000F7D5994218BF704708BF904270474FF4BD
:109BE000001C1CEB430F38BF1CEB410F01D2994204
:109BF00070470FB40CBC03BCFFF7C1BE0CF00F03E1
:109C0000092B08BF082000F059800A2B0BD0082B25
:109C100018BF704708BF1CF0400F0AD04FF000007B
:109C20004FF0000170471CF0400F18BF4FF000408C
:109C300070471CF0100F08D020F0704300F07F42F6
:109C400042EAD3014FEA4370704700F0604021F0D0
:109C50007F4242EA000201F07F4040EA72707047A2
:109C60004FF0FF0C4CF4E06C1CEA11531CBF9CEA53
:109C7000030C9445C2BFDA4201EB02517047002B3E
:109C80000DD0BCF1000F0FD0002A01F00041A4BF9D
:109C900041F0E04141F07F614FF00000704701F07A
:109CA00000414FF00000704750EA01334FF09B0C29
:109CB00018BF4CF0806C7FF4C3AD70471CF4801F5C
:109CC00011D01CF4E02F03D06FEACC31490070476B
:109CD0004FF04050EFF3008222F0704242EA00025F
:109CE00082F3008870474FF0000070474E07C008AD
:109CF00000096C0780080009D90700080009E4077B
:109D0000C008000968032B04340315041A030B046C
:109D10000D03050468020F1302054106F0198B1AA2
:109D2000101E401B801C061D88181B58006F040164
:109D30009F1144251013555A705C100104250F1310
:109D40005D5A7C5C0C010000000000000000000077
:109D50000000000001000000000000000000000002
:109D600000000000000000000000000000000000F3
:109D700000000000000000000000000000000000E3
:109D80004142434445464748496D000000000000F9
:109D900000000000000000000000000001000000C2
:049DA00000000000BF
:04000005080080016E
:00000001FF
