:020000040800F2
:1080000030E0FEE754413031008000084D332073EA
:10801000797820617070000000000000003230317B
:10802000332E31322E313000000000004DF804EDC7
:10803000134800F1030020F003001249124B88425C
:1080400006D099423CBF50F8042B41F8042BF8D3DA
:108050000E494FF000028B4238BF43F8042BFAD38D
:108060005DF804FB4DF804ED4DF8040DFFF7DEFF5D
:108070005DF8040B0649086001F00EFD5DF804FB95
:1080800043A1000800300020703000208031002023
:108090006C30002040EA01039B0703D009E008C9C7
:1080A000121F08C0042AFAD203E011F8013B00F8BD
:1080B000013B521EF9D27047D2B201E000F8012B09
:1080C000491EFBD270470022F6E710B50446084669
:1080D000114602462046FFF7EFFF204610BD30B59F
:1080E0000EE003460A4601E05B1C521C1C78157822
:1080F000AC4201D1002CF7D115F0FF0F04D0401C89
:108100000278002AEDD1002030BD2DE9FE4F81EA32
:10811000030421F0004504F0004423F000414FF037
:10812000000A009450EA050302D052EA010304D188
:108130000020014603B0BDE8F08FC1F30A53C5F338
:108140000A541C44A0FB02B3C5F3130545F4801C7C
:10815000C1F3130141F480180CFB023300FB083E0D
:10816000A4F2F334810A930A41EA8C5143EA88531A
:108170000194A1FB03474FEA9C2505FB03734FEADB
:10818000982601FB06373D05260545EA1435BBEB6D
:1081900006016EEB0503850E920E45EA8C1542EA48
:1081A0008812A5FB0206261E67EB00070C0D44EAA9
:1081B0000334A41947EB1350C1F313064FF0000327
:1081C00019464FEA033343EA165343EA0403019C7A
:1081D000E5FB0201A4F10C040294009C4FEA063274
:1081E000CDE900A400F0CCF8A4E770B521F000437D
:1081F00003430CD0C1F30A540026D4EB060566EB0A
:108200000603D417AD1AA34102DB0020014670BD5E
:10821000001C41EB025170BD0EB5C10F80EAE07049
:108220000844CA07002140F233438DE80E000A4695
:108230000B4600F0A5F803B000BD0EB540F2334187
:1082400002910021CDE900110A460B4600F098F892
:1082500003B000BD70B5C1F30A5201F0004500241F
:10826000C1F3130140F2FF3341F480119A4201DA65
:10827000002070BD40F233439A42A2F2334203DC45
:10828000524200F060F800E090402C43F1D04042B0
:1082900070BD000030B5002904DB4FF000444042BF
:1082A00064EB0101002B04DB4FF00044524264EB0D
:1082B00003038B4208BF824230BD000030B5002965
:1082C00004DB4FF00044404264EB0101002B04DB6F
:1082D0004FF00044524264EB0303994208BF9042BE
:1082E00030BD00002DE9F05F0546002092469B4618
:1082F00088460646814640241BE0284641464746BC
:10830000224600F020F852465B46801A994110D36D
:1083100010461946224600F085F82D1A67EB010831
:108320004F4622460120002100F07CF817EB00099F
:108330004E41201EA4F10104DFDC484631462A46A6
:108340004346BDE8F09F202A04DB203A21FA02F0E0
:108350000021704721FA02F3D040C2F1200291407F
:1083600008431946704710B5002B08DA401C41F14C
:10837000000192185B411A4301D120F0010010BDA9
:108380002DE9F04D92469B4611B1B1FA81F202E01F
:10839000B0FA80F22032904600F044F806460F46CC
:1083A00040EA0A0041EA0B0152465B46084303D10A
:1083B00030463946BDE8F08D194652EA010015D025
:1083C000C8F140025046FFF7BEFF04460D46504636
:1083D0005946424600F026F8084301D0012000E04B
:1083E0000020044345EAE07526432F430A984FEAEC
:1083F000D625A0EB08000A304FEA46534FF00002A2
:1084000045EA47554FEAD72402D500200146D1E777
:10841000010550196141DDE9084500196941BDE8D0
:10842000F04DA0E7202A04DB203A00FA02F10020F8
:1084300070479140C2F1200320FA03F319439040A2
:108440007047000010B5074CA060084600F00EF819
:10845000A0680028FCD1BDE810400021024800F0CF
:10846000A4BE000044300020000400403EB51A4D78
:1084700004460021284600F098FE002201212846EB
:1084800000F00EFF022C02D0012C02D005E00120EA
:1084900001E040F2E730ADF804003F20ADF8000005
:1084A0000020ADF80600ADF802006946284600F04D
:1084B000FFFE0121284600F075FE0121284600F04C
:1084C00063FE01221146284600F0EAFE01212846FB
:1084D00000F06BFE3EBD0000000400400121FFF7EC
:1084E000B1BF00B5012001F019F9022001F016F921
:1084F00002205DF804EB01F011B94FF0E0200169B2
:1085000021F00101016170474FF0E020016941F065
:10851000010101617047F0B5CC78002204F00F032F
:10852000E40601D58C7823430C884FF00F0C14F02F
:10853000FF0F4FF0010E1AD005680E880EFA02F4F4
:108540002640A6420FD196000CFA06F7BD4303FA67
:1085500006F63543CE78282E02D0482E02D002E00F
:10856000446100E00461521C082AE6D305600A88D1
:10857000FF2A1DD94568002202F108060EFA06F40A
:108580000E882640A6420FD196000CFA06F725EA7F
:10859000070703FA06F5CE783D43282E00D1446143
:1085A000CE78482E00D10461521C082AE4D34560DD
:1085B000F0BD0246002092680A4200D001207047B8
:1085C00041617047016170470AB1016170474161C3
:1085D00070470000014800787047000064300020B8
:1085E00070B500F089F8CC2000F0DCFE442000F0EB
:1085F000D9FE332001F092F800F07EF8CC2000F094
:10860000D1FEBE2000F0CEFE00F058FB054600F083
:1086100055FB45EA002424F47840FFF7FDFD6FF098
:108620000302FFF7E2FDFFF715FE14F4784F00D0C8
:10863000404270BD72B60349488800224A8062B643
:10864000704700006430002008B50121082000F0C8
:10865000E7F80420ADF800008DF8030069460248F1
:10866000FFF759FF08BD0000000C014070B5002461
:108670000721012000F0C4FB054602462721012006
:1086800000F042FC68060BD52023094A6121012035
:1086900000F048FBFF22E221012000F035FC01241C
:1086A000FF222721012000F02FFC204670BD000092
:1086B0001C30002070B505460024FF222721012030
:1086C00000F022FC284601F09DF8FFF7BDFF0949A4
:1086D000D1F80821002AFBD10721012000F090FBEE
:1086E000800600D50124FF222721012000F00CFC88
:1086F000204670BD0080214210B501F027F8134CD0
:1087000002212046FFF75EFF012001F007F8022159
:108710002046FFF755FF332001F000F802212046E4
:10872000FFF750FF032000F0F9FF02212046FFF77A
:1087300040FF10B1032000F0F1FF332000F0EEFF06
:108740002046BDE810400221FFF73CBF0008014071
:1087500041060748826942F0010282610548426889
:1087600022F0E062426042680A43426070470000C3
:10877000001002400000014070B50F24C27801785B
:1087800001254FF0E026DAB1124A126802F4E062E5
:10879000C2F5E062120AC2F10403D44042789A4062
:1087A0008378234013431A010B4BCA54007800F01E
:1087B0001F018D40400906EB8000C0F8005170BDDC
:1087C00001F01F008540480906EB8000C0F8805189
:1087D00070BD00000CED00E000E400E00249084339
:1087E00002490860704700000000FA050CED00E047
:1087F000044A0029D16901D0014300E08143D161DD
:108800007047000000100240044A0029116901D09D
:10881000014300E0814311617047000000100240F5
:10882000044A0029916901D0014300E0814391612C
:108830007047000000100240044A0029D16801D0AE
:10884000014300E08143D160704700000010024006
:1088500008B501210820FFF7E3FF4FF40060ADF8F1
:10886000000004208DF8030069460248FFF753FE1C
:1088700008BD0000000C014008B501210820FFF7E9
:10888000CFFF4FF40060ADF8000003208DF8020028
:1088900010208DF8030069460148FFF73CFE08BD33
:1088A000000C01402DE9F05F414E0546871D012077
:1088B000884691463070FFF727FE2C6872B64FF05D
:1088C000000BA6F802B062B6012249464046FFF707
:1088D0007BFE7088A042FCD972B6A6F802B062B6E0
:1088E000002249464046FFF76FFEC4EB44107188F2
:1088F0008842FCD200204FE000243978C4F10702FE
:10890000012090402E68014272B61FD028494FF0D6
:10891000000BA1F802B062B6012249464046FFF7BB
:1089200053FE234806EB460142889142FCD272B6C0
:1089300059468346418062B6002249464046FFF7C9
:1089400043FE58464188B142FCD91DE0DFF860B0D3
:108950000020ABF8020062B6012249464046FFF70C
:1089600033FE58464188B142FCD972B6002141809D
:1089700062B60A4649464046FFF726FE584606EBD1
:10898000460142889142FCD2641CE4B2082CB4D364
:108990000AF101007F1CC0B2A98882465145ABD8BC
:1089A000034900200870FFF7A8FD0120BDE8F09FF3
:1089B0006430002010B5044C0123237000F0A4F8AB
:1089C0000021217010BD00006430002070B5144DEE
:1089D000002405EB4400C188002000F055FA641C17
:1089E000E4B2032CF5D30E4D0024183505EB4400FA
:1089F0008188002000F048FA641CE4B2022CF5D310
:108A0000074D00242835002035F8141000F03CFAFA
:108A1000641CE4B20E2CF6D302490020087070BD2D
:108A2000E4A000085C30002070B5FFF7CFFF064DD2
:108A30000024002035F8141000F026FA641CE4B27B
:108A4000062CF6D370BD000028A1000870B5FFF712
:108A5000BDFF41F27F142146002000F015FA2146A7
:108A6000002000F011FA064D0024002035F8141003
:108A700000F00AFA641CE4B2052CF6D370BD0000C5
:108A800034A1000810B500F009F8002803D002490D
:108A900000200870012010BD5C30002070B500245B
:108AA0002721204600F0ACF903254FF4FA76B5EB08
:108AB000901F03D1FF2801D0012070BD641CA4B217
:108AC000B44201D3002070BD2721002000F098F9A6
:108AD000EDE770B500242721204600F091F9A0258C
:108AE0004FF4FA7635EA000103D1FF2801D00120C6
:108AF00070BD641CA4B2B44201D3002070BD272114
:108B0000002000F07DF9EDE72DE9F74F82B0029CDF
:108B1000A41DFFF7F9FC72B60020654E708062B6A6
:108B200002E07088C8287AD8DDE90301FFF741FD2B
:108B30000028F6D1FFF77EFD054605E05C48418838
:108B400041F6380081426AD8DDE90301FFF731FDC3
:108B50000028F3D0FFF76EFD142D60D905EB450119
:108B6000B0EBC10F5BD905EB450101EB0511B0EB93
:108B7000410F54D22844460902980660002092E032
:108B8000FFF758FD4A4F41F6380902E07988494518
:108B900045D8DDE90301FFF70CFD0028F6D1FFF70A
:108BA00049FDBA4680464F4603E0BAF80200B84293
:108BB0007CD8DDE90301FFF7FCFC0028F5D0FFF7C6
:108BC00039FD07460320B6FBF0F0A6EB5601081A64
:108BD0000090404537DA3046FFF72FFB354A364BD9
:108BE000FFF793FA824689464046FFF726FB524636
:108BF0004B46FFF74FFB26D23846FFF71EFB524687
:108C00004B46FFF75BFB0BD206EB8600B84207D959
:108C10002178C5F1070201209040814339E045E009
:108C200006EB4600B7EBC00F40D906EB460000EB61
:108C30000610B7EB400F39D202995846A1F804B09C
:108C400005B0BDE8F08F3046FFF7F7FA194A1A4B26
:108C5000FFF75BFA81468A464046FFF7EEFA4A463E
:108C60005346FFF72BFB21D206EB860141451DD968
:108C70000098B8421ADA3846FFF7DFFA4A465346F8
:108C8000FFF708FB12D22178C5F1070201209040BE
:108C900001436D1CEDB22170082DFFF471AF0BF193
:108CA0000100641CC0B28346002569E70020C7E7C5
:108CB000643000205C8FC2F5285CFF3F70B5002453
:108CC000174E2546640802213046FFF77BFC00BFA3
:108CD00000BF02213046FFF773FC00BF00BF00BF9A
:108CE00002213046FFF76EFC00BF00BF00BF00BF8F
:108CF00000BF02213046FFF75CFC08B144F080045D
:108D0000042000F00BFD6D1CEDB2082DDAD302211A
:108D10003046FFF757FC042000F000FD204670BDF0
:108D2000000801402DE9F04107460C4690461E46DA
:108D3000012B25D9134D0020C5F8B4014FB1C5F85A
:108D4000840100F0D3FC2146384600F01DF80024D1
:108D500009E0C5F8B001F4E7384600F067F808F814
:108D60000400641CE4B2B442F6D301202FB1C5F86C
:108D70008401BDE8F04100F0B9BCC5F8B001F8E7E6
:108D8000BDE8F081008021422DE9F0470027020074
:108D90001A480D463E462DD0C0F884618046C0F882
:108DA000B46100F0A3FCB146464608244FF0010828
:108DB0004846C6F8B491290600D54046C6F8BC011D
:108DC00000F094FCC6F8B4816806050E00F08EFC35
:108DD000D6F8380108B147F00107641E14F0FF040B
:108DE000E6D1C6F8B491C6F8BC8100F07FFC3846E5
:108DF000BDE8F087C0F8B061D0E7000000802142F4
:108E000070B50546FFF7C0FF284600F00FF804468E
:108E1000054801212DB1C0F8841100F067FC2046FF
:108E200070BDC0F8B011F8E7008021422DE9F04193
:108E30000024144E274610B3C6F884714FF0010881
:108E4000C6F8BC8100F052FC0825C6F8B47100F0E9
:108E50004DFC6006040EC6F8B48100F047FCD6F85D
:108E6000380108B144F001046D1E15F0FF05ECD186
:108E7000C6F8B47100F03AFC2046BDE8F081C6F8AF
:108E8000B071DBE7008021422DE9F0471D4E4FF025
:108E900000075FEA00090C46C6F8B47110D0C6F8A6
:108EA000847100F023FC44F400451024B8460127E7
:108EB0004046C6F8B481290405D5C6F8BC7104E063
:108EC000C6F8B071EDE7C6F8BC0100F00FFCC6F8BB
:108ED000B4716804050C00F009FC641E14F0FF0472
:108EE000E6D1C6F8B481C6F8BC71B9F1000F05D05F
:108EF000C6F88471BDE8F04700F0F8BBC6F8B07161
:108F0000F8E700000080214270B504461646FFF7DE
:108F10003BFF054631462046FFF736FF0549012055
:108F20002CB1C1F8840100F0E1FB284670BDC1F806
:108F3000B001F8E7008021422DE9F04107461546CF
:108F40001E46FFF721FF8046002406E015F8011BAE
:108F50003846FFF719FF641CE4B2B442F6D3054962
:108F6000012027B1C1F884014046BDE8F081C1F875
:108F7000B001F9E700802142F8B501210820FFF790
:108F80004FFC4FF42040ADF8000003208DF80200A4
:108F9000144F10248DF8034069463846FFF7BBFA9A
:108FA000A002ADF8000004208DF8030069463846A1
:108FB000FFF7B1FA2002ADF800008DF803406946D2
:108FC0003846FFF7A8FA084E0125F5624FF0020077
:108FD000ADF800008DF8034069463846FFF79BFA6C
:108FE0003560F8BD000C0140848121423EB501216D
:108FF0000846FFF7FDFB4FF08044204600F0E0F804
:1090000041F28831ADF804103F21ADF80010002185
:10901000ADF802106946204600F04AF901212046C9
:1090200000F0BDF801221146204600F039F9012177
:10903000204600F0BAF802491C2000F0EEFF3EBDC9
:10904000A990000808B54FF4E060FFF7C7FB1C20AB
:109050008DF8000000208DF8010003208DF802003B
:1090600001208DF803006846FFF786FB08BD00006D
:1090700008B54FF4C060FFF7B1FB1D208DF800006C
:1090800000208DF8010004208DF8020001208DF8E9
:1090900003006846FFF770FB02491D2000F0BDFF8A
:1090A00008BD00006993000870B54FF080404FF68E
:1090B000FE7101822E48017811B14188491C41801E
:1090C0002B48001D017811B14188491C4180284876
:1090D0000830017811B14188491C4180254D244A4E
:1090E000012428680C3A58B1401C2860322806D167
:1090F0001078C0431070107800F083FF2C6070BDB2
:109100001D4B00251968491C19605088401C80B20D
:109110005080B1F5C87F02D118490C601D60C82885
:10912000EDD15580164800F055FC01281BD1144D97
:1091300028787E2817D168787E2814D1A87834281A
:1091400011D17E2000F0FCF87E2000F0F9F8002418
:10915000285D00F0F5F8641CE4B2202CF8D302215D
:1091600008A000F0F3F8BDE87040FFF75DBC000018
:109170005030002018300020143000201030002023
:109180001C3000203C3C00000029018802D041F046
:10919000800102E040F27F32114001807047C943F4
:1091A00001827047C943018270470029018802D0BB
:1091B00041F0010102E040F2FE32114001807047AF
:1091C0002A4910B5884202D10121C41443E0B0F10C
:1091D000804F09D0264988420DD101210220FFF796
:1091E00013FB002102202DE001210846FFF70CFBB4
:1091F0000021012026E01F49884206D101210420D8
:10920000FFF702FB002104201CE01B49884206D125
:1092100001210820FFF7F8FA0021082012E0174981
:10922000884206D101211020FFF7EEFA002110201C
:1092300008E01349884209D101212020FFF7E4FA10
:1092400000212020BDE81040FFF7DEBA0D4988421A
:109250000AD1012144142046FFF7EEFA2046BDE86A
:1092600010400021FFF7E8BA10BD0000002C0140BB
:109270000004004000080040000C004000100040C6
:10928000001400400034014002460020138A9289F5
:109290000B4202EA010202D0002A00D001207047EE
:1092A000002A828901D00A4300E08A438281704704
:1092B000028802F08F020280CA884B881A43038812
:1092C0001A4302808A8882850A880285054A90426C
:1092D00002D0054A904201D1097A0186012181829A
:1092E00070470000002C0140003401402DE9F0419E
:1092F000114D0027114E2F6000F0DFFE040012D048
:10930000286822463044114600F09BFE2868315CF4
:109310003C2904D1311811F8011C3C2909D0204402
:109320000027286000E07F1C0120FFF7D7F8642F9A
:10933000E2D3BDE8F0810000403000208030002002
:1093400001B50121684600F077FE08BD00F074BE4B
:109350000246002012880A4200D001207047C1F363
:10936000080181807047000010B50C4C0121204697
:10937000FFF78AFF002809D001212046FFF712FFDE
:1093800007498A681AB18868401E886010BD204667
:10939000BDE810400021FFF708BF000000040040B6
:1093A0004430002070B5144E05460024022130469A
:1093B000FFF706F9022000F0B1F9E8074FF00201CB
:1093C000304602D0FFF7FEF801E0FFF7F9F86D082C
:1093D000FFF787F802213046FFF7F4F8641CE4B287
:1093E000082CE3D302213046FFF7ECF8BDE87040CB
:1093F000072000F093B90000000801400FB4054BAE
:1094000010B503A9044A029800F008F810BC5DF8F2
:1094100014FB000079970008683000202DE9FF4F09
:109420008DB004469B460F46002641E1252801D019
:109430000F9963E00025641CA14AA8460121237806
:10944000203B01FA03F0104202D00543641CF6E70A
:1094500020782E2817D114F8010F45F004052A288A
:109460000ED06FF02F022078A0F1300109290AD820
:1094700008EB880102EB410100EB0108641CF2E7F4
:1094800057F8048B641C20786C280DD004DC4C2821
:1094900012D06A2811D104E074280DD07A280CD19A
:1094A0000AE045F4001507E0617845F48015814233
:1094B00002D1641C05F58015641C94F800C0BCF151
:1094C000690F4DD00CDCBCF1000F6ED0BCF1580F11
:1094D0006FD0BCF1630F16D0BCF1640F0CD13FE02C
:1094E000BCF1700F6AD0BCF1730F15D0BCF1750FD1
:1094F0005DD0BCF1780F5CD00F9960465A4690471A
:1095000006F10106D3E001CF8DF8000000208DF8B0
:109510000100E946012003E057F8049B4FF0FF30BB
:1095200069074FF0000501D40AE06D1C45450DDACE
:109530008542FADB19F805100029F6D106E06D1C0A
:109540008542FCDB19F805100029F8D12E4404E00F
:1095500019F8010B5A460F9990476D1EF8D2A6E0F4
:109560000A200021CDE90801C5F3025002280AD0E3
:1095700001CFC11700290DDA0023D0EB030063EB04
:1095800001012D2209E007F1070727F00707F7E897
:109590000201EFE72A0504D52B228DF828200122AD
:1095A00030E0EA072ED02022F7E785E001E00A202C
:1095B00000E010200021CDE9080107E01020002183
:1095C00045F00405CDE908014FF00808C5F3025045
:1095D00002281CD001CF00214FF0000A2A0712D523
:1095E000BCF1700F19D0DDE9083283F0100313438A
:1095F00009D150EA010206D030228DF828208DF8DA
:1096000029C002229246BCF1580F10D00AE0FF1D7B
:1096100027F00707F7E80201DEE740228DF828204F
:109620004FF0010A27A20DF120090B9209E02AA2AE
:10963000F9E7DDE90823FEF755FE0B9B9B5C09F873
:10964000013D50EA0102F4D1ADEB090000F1200028
:109650000890680701D44FF001080899884502DD99
:10966000A8EB010000E000208046002506E00AA8E3
:109670005A46405D0F999047761C6D1C5545F6DBA8
:1096800004E030205A460F999047761CB8F100014B
:10969000A8F10108F5DC05E019F8010B5A460F990D
:1096A0009047761C0899481E08900029F4DC641C39
:1096B000207800287FF4BAAE11B03046BDE8F08FB4
:1096C0000928010030313233343536373839616298
:1096D000636465660000000030313233343536375C
:1096E000383941424344454600000000032000BF92
:1096F00000BF00BF00BF00BF00BF00BF401EF8D2C8
:10970000704770B5051E00DA0125002403E06420CF
:1097100000F004F8641CAC42F9DB70BD00B50346F0
:1097200002E00B2000F003F85B1EFAD200BD09E056
:10973000032100BF00BF00BF00BF00BF00BF00BFCC
:10974000491EF8D2401EF3D27047000008B501212F
:109750000420FFF765F810208DF8030003208DF832
:1097600002000220ADF8000069460248FEF7D3FE71
:1097700008BD00000008014070B5074D0446C1B2A5
:109780002846FFF7ECFD40212846FFF7E1FD0028C1
:10979000F9D0204670BD00000044004010B500F034
:1097A00037F9164C002020604FF00503144A4FF0A3
:1097B0002A014FF00100FFF7BFFB012221211046D3
:1097C000FFF7A2FB012222211046FFF79DFB282272
:1097D00025210120FFF798FB202231210120FFF7EE
:1097E00093FB072226210120FFF78EFB0F22202169
:1097F0000120FFF789FB0120206010BD80812142FC
:109800003EA1000870B5054600F002F91C4C00218D
:1098100021604FF005031B4A4FF030014FF001006B
:10982000FFF78AFB0523174A2A210120FFF784FB53
:1098300020232A46A0210120FFF77EFB01222121BF
:109840001046FFF761FB012222211046FFF75CFB67
:109850001A2224210120FFF757FB2822252101206D
:10986000FFF752FB072226210120FFF74DFB0E22B6
:1098700020210120FFF748FB0120206070BD00007F
:10988000808121423EA10008F8B501210420FEF7A5
:10989000C7FF4025ADF8005003248DF8024010208A
:1098A0000B4E8DF8030069463046FEF734FE08483B
:1098B000103005602020ADF800008DF80240042033
:1098C0008DF8030069463046FEF725FEF8BD00001E
:1098D000000801400E4810B50168491C01600D48A0
:1098E000006860B10C48426840211AB10022426011
:1098F0000A4803E0012242600848001D0160FEF7AB
:1099000069FE002803D006490888401C088010BD65
:109910003C3000200030002044300020100801407E
:109920006630002008B501210420FEF779FF1020E1
:10993000ADF8000003218DF802108DF80300694690
:109940000248FEF7E8FD00F003F808BD00080140FA
:1099500010B510210248FEF733FE002010BD0000B4
:109960000008014010B510210248FEF72BFE01202F
:1099700010BD00000008014008210148FEF720BE8C
:10998000000C014008B501210820FEF749FF012124
:109990000420FEF745FF0820ADF8000003208DF8F5
:1099A000020010208DF8030069460848FEF7B3FD59
:1099B0004FF48070ADF8000004208DF80300694674
:1099C0000348FEF7A8FDFFF7D7FF08BD000C0140D4
:1099D0000008014070B50646002407210120FFF76A
:1099E0000FFA0546FF2227210120FFF78DFA6806AE
:1099F0000BD52023324661210120FFF793F9FF2286
:109A0000E2210120FFF780FA0124204670BD00000A
:109A100010B5074C002020604FF00D024FF02001E0
:109A20004FF00100FFF770FA0120206010BD000028
:109A30008081214210B5092111A000F0FDFA4FF4F8
:109A4000487421461148FEF73EFB4FF496621421FC
:109A50000E4800F0F6FA0EA10C48FEF740FB40B1AC
:109A60000C4A0020214610600848FEF72CFB00201D
:109A700010BD21460548FEF726FB012010BD000061
:109A800041542B454E544D0D0A00000080300020FB
:109A90002B6F6B0008300020C4B00120FEF758FE89
:109AA000F848016821F470210160016841F44031F7
:109AB0000160FFF737FF012000F0A3FA00F0DFFAA2
:109AC000FFF760FFFFF7E0FEFEF716FE00F092FAE8
:109AD000FFF7CEFA0021EC4800F0D6FAFEF70DFDB4
:109AE0000020FFF749FAFEF7B3FEE8A0FFF786FC77
:109AF000DFF8ACA3DFF8AC9301254FF47A784FF48C
:109B0000006B0024E84E3078012802D0022815D0DE
:109B100037E0B9F80200404506D9347000F062FA27
:109B20000621E248FFF712FCDF481830FEF79EFDE1
:109B3000012826D1347000F055FA1DE0B9F8020072
:109B4000404506D9347000F04DFA0621D748FFF79A
:109B5000FDFBD5481830FEF789FD012811D134707E
:109B600000F040FAD14802210E38FFF7EFFBCE4853
:109B700020211830FFF7EAFBCC480621801FFFF7B1
:109B8000E5FB00F09AFA002818D0FFF7AFFBC84FAA
:109B9000B8783A2813D0C7A13846FEF7A0FA0028B3
:109BA000F2D0C5A13846FEF79AFA00287AD00A20EA
:109BB000FFF7A7FD0A21C1A0FFF7C8FBFBE100F0FA
:109BC00011FA38784C280CD006DC42286BD0442897
:109BD0006AD0462869D18AE0532867D05428F9D141
:109BE00025E17878482860D006DC422873D04428E4
:109BF00074D04628EED12AE0542858D05728E9D10D
:109C0000B14F75707C803D7000F0F0F912E04FF4B8
:109C10008072AE496846FEF7CDFE58B1A348747015
:109C200003210C38FFF792FBBDF804106846083199
:109C3000FFF78CFB7888404502D870780128E6D081
:109C400000F0D0F9788840452FD97470B0E0A04F6B
:109C5000B5707C803D7000F0C9F9FEF71FFFD0B1F0
:109C6000FEF7F6FD11E05A4651466846FEF7A2FEA1
:109C700058B18E48B47003210938FFF767FBBDF86F
:109C8000041068460831FFF761FB7888404502D828
:109C9000B0780128E7D000F0A5F978884045D3D9FD
:109CA000B47085E04AE186E0C5E078E0DAE030783B
:109CB000022898D07D4802211238FFF747FBFFF7B2
:109CC0006DFDA9F8024089F8005000F08FF9357059
:109CD000D5E000E002E000F0CDF9D0E004217DA065
:109CE000FFF734FB00F0CBF904217CA055E0787835
:109CF000462822D04828EBD0542851D05728E7D105
:109D00006A48002603210C38FFF720FB4FF48472C9
:109D1000F91C6846FEF7BEF900224FF480716B48CB
:109D2000FEF752FC5746761CF6B2082239466846C2
:109D3000FEF7B8FD062EF6D336E05C480026032178
:109D40000938FFF703FBFEF741FEFEF77FFEFEF743
:109D5000C0FE002823D0FEF78FFD8222F91C01A847
:109D6000FEF798F99DF80C0000909DF80B309DF8D7
:109D70000A205CA00199FFF741FBBDF8081066A01E
:109D8000FFF73CFB5F46761CF6B23A46514601A807
:109D9000FEF788FD062EF6D306E0FFF7D7FA6EE051
:109DA000381DFEF787FC18B140480621801FF4E7F4
:109DB00006213E48F1E77878482860D004DC442842
:109DC0005DD046285BD102E0542858D11CE03748CA
:109DD00002211038FFF7BAFA3B484480057000F0C2
:109DE00005F9FEF7F3FDFEF71FFE6846FEF74AFE93
:109DF000002802DD8221684601E006212B48FFF79A
:109E0000A5FA00F0EFF83AE03078012837D027487B
:109E100002211038FFF79AFAFFF7C0FCA9F80240B8
:109E200089F8005000F0E2F80220307027E07878DE
:109E30004B28B9D023E07878542802D053280CD08E
:109E40001DE0FEF7CDFBC0B2B8705528F9D03C201C
:109E5000F8703871052116489FE7C6E901450421CD
:109E600030A09AE77878582809D10E212FA000F069
:109E7000E3F800F0B7F800F01BF900F0B7F800F0D5
:109E8000B5F898E000100140D5980008756172742B
:109E900020697320776F726B696E670D0A0000008E
:109EA000000C01405430002004300020DEA00008E7
:109EB000803000202B6F00004150000041542B5790
:109EC000414B45590D0A0000503000200008014068
:109ED0005830002054463C3C000000004C443C3CC0
:109EE0000000000054696D65426173653A25642C79
:109EF00020646174615B305D3A25582C2064617484
:109F0000615B315D3A25582C20646174615B325D80
:109F10003A25580D0A0000006C656E203D2025642E
:109F20000D0A000044533C3C00000000656E74655F
:109F3000725F7570675F6D6F6465000021A12348D3
:109F4000FEF7CDF848B17561B46000F04FF8FFF747
:109F500071FD80BBB46074602DE01DA11B48FEF74D
:109F6000BEF810B3194810211038FEF7ACF819A14B
:109F70001648FEF7B4F80146144810221038FEF7D0
:109F800089F8FFF757FD70B9F460032113A07460DE
:109F9000FFF7DCF90D4810211038FFF7D7F902213F
:109FA0000FA0FFF7D3F9346169E7FFF743FD10B95C
:109FB000B4607460746105484FF480718470FEF77A
:109FC00082F89FE54F50454E000000008030002091
:109FD0004D4143002B6F6B3D00000000444D3A00A3
:109FE0003C3C000000210120FEF702BC0121084694
:109FF000FEF7FEBB10B5FFF725F8BDE81040FEF7F1
:10A00000F5BF08B1FFF7AEBCFFF7A2BC2D49096848
:10A0100051F820000199019001BD03B44FF00000F8
:10A02000DFF8A4F003B44FF00100DFF89CF003B4B4
:10A030004FF00200DFF890F003B44FF00300DFF8B8
:10A0400088F003B44FF00400DFF87CF003B44FF065
:10A050000500DFF874F003B44FF00600DFF868F095
:10A0600003B44FF00700DFF860F003B44FF00800CE
:10A07000DFF854F003B44FF00900DFF84CF003B4FC
:10A080004FF00A00DFF840F003B44FF00B00DFF8A8
:10A0900038F003B44FF00C00DFF82CF003B44FF0AD
:10A0A0000D00DFF824F003B44FF00E00DFF818F0D5
:10A0B00003B44FF00F00DFF810F003B44FF01000BE
:10A0C000DFF804F06C3000200DA000084C4642463A
:10A0D000425446573A46463A52453A303C3C52453D
:10A0E0003A313C3C4E07C00800096C078008000963
:10A0F000D90700080009E407C008000968032B0419
:10A10000340315041A030B040D03050468020F132E
:10A1100002054106F0198B1A101E401B801C061DFB
:10A1200088181B58006F04019F1144251013555ABD
:10A13000705C100104250F135D5A7C5C0C013443E4
:10A1400010100100000000000000000000000000EE
:10A1500001000000000000000000000000000000FE
:10A16000010102030405060708090A0B0C0D0E0F76
:10A17000101112131415161718191A1B1C1D1E1F67
:10A1800000000000000000000000000001000000CE
:10A1900000000000000000000000000000000000BF
:10A1A00000000000000000000000000000000000AF
:04A1B00000000000AB
:04000005080080016E
:00000001FF
