:020000040800F2
:1080000030E0FEE754413031008000084D332073EA
:10801000797820617070000000000000003230317B
:10802000332E31322E313000000000004DF804EDC7
:10803000134800F1030020F003001249124B88425C
:1080400006D099423CBF50F8042B41F8042BF8D3DA
:108050000E494FF000028B4238BF43F8042BFAD38D
:108060005DF804FB4DF804ED4DF8040DFFF7DEFF5D
:108070005DF8040B0649086001F040FD5DF804FB63
:1080800057A100080030002070300020803100200F
:108090006C30002040EA01039B0703D009E008C9C7
:1080A000121F08C0042AFAD203E011F8013B00F8BD
:1080B000013B521EF9D27047D2B201E000F8012B09
:1080C000491EFBD270470022F6E710B50446084669
:1080D000114602462046FFF7EFFF204610BD30B59F
:1080E0000EE003460A4601E05B1C521C1C78157822
:1080F000AC4201D1002CF7D115F0FF0F04D0401C89
:108100000278002AEDD1002030BD2DE9FE4F81EA32
:10811000030421F0004504F0004423F000414FF037
:10812000000A009450EA050302D052EA010304D188
:108130000020014603B0BDE8F08FC1F30A53C5F338
:108140000A541C44A0FB02B3C5F3130545F4801C7C
:10815000C1F3130141F480180CFB023300FB083E0D
:10816000A4F2F334810A930A41EA8C5143EA88531A
:108170000194A1FB03474FEA9C2505FB03734FEADB
:10818000982601FB06373D05260545EA1435BBEB6D
:1081900006016EEB0503850E920E45EA8C1542EA48
:1081A0008812A5FB0206261E67EB00070C0D44EAA9
:1081B0000334A41947EB1350C1F313064FF0000327
:1081C00019464FEA033343EA165343EA0403019C7A
:1081D000E5FB0201A4F10C040294009C4FEA063274
:1081E000CDE900A400F0B1F8A4E770B521F0004398
:1081F00003430CD0C1F30A540026D4EB060566EB0A
:108200000603D417AD1AA34102DB0020014670BD5E
:10821000001C41EB025170BD0EB5C10F80EAE07049
:108220000844CA07002140F233438DE80E000A4695
:108230000B4600F08AF803B000BD0EB540F23341A2
:1082400002910021CDE900110A460B4600F07DF8AD
:1082500003B000BD70B5C1F30A5201F0004500241F
:10826000C1F3130140F2FF3341F480119A4201DA65
:10827000002070BD40F233439A42A2F2334203DC45
:10828000524200F045F800E090402C43F1D04042CB
:1082900070BD000030B5002904DB4FF000444042BF
:1082A00064EB0101002B04DB4FF00044524264EB0D
:1082B00003038B4208BF824230BD000030B5002965
:1082C00004DB4FF00044404264EB0101002B04DB6F
:1082D0004FF00044524264EB0303994208BF9042BE
:1082E00030BD000030B50B4601460020202201249D
:1082F00009E021FA02F59D4205D303FA02F5491B74
:1083000004FA02F52844151EA2F10102F1DC30BD89
:10831000202A04DB203A21FA02F00021704721FADA
:1083200002F3D040C2F12002914008431946704741
:1083300010B5002B08DA401C41F1000192185B4196
:108340001A4301D120F0010010BD2DE9F04D9246F5
:108350009B4611B1B1FA81F202E0B0FA80F220320C
:10836000904600F044F806460F4640EA0A0041EA0B
:108370000B0152465B46084303D130463946BDE8FF
:10838000F08D194652EA010015D0C8F1400250465E
:10839000FFF7BEFF04460D4650465946424600F0E0
:1083A00026F8084301D0012000E00020044345EAFC
:1083B000E07526432F430A984FEAD625A0EB080024
:1083C0000A304FEA46534FF0000245EA47554FEA5C
:1083D000D72402D500200146D1E70105501961419B
:1083E000DDE9084500196941BDE8F04DA0E7202A04
:1083F00004DB203A00FA02F1002070479140C2F1FC
:10840000200320FA03F319439040704710B5074C3E
:10841000A060084600F00EF8A0680028FCD1BDE876
:1084200010400021024800F0A2BF000048300020A8
:10843000000400403EB51A4D04460021284600F0D5
:1084400096FF00220121284601F00CF8022C02D0F0
:10845000012C02D005E0012001E040F2E730ADF848
:1084600004003F20ADF800000020ADF80600ADF894
:1084700002006946284600F0FDFF0121284600F071
:1084800073FF0121284600F061FF012211462846B2
:1084900000F0E8FF0121284600F069FF3EBD000022
:1084A000000400400121FFF7B1BF0221FFF7AEBF7A
:1084B0002DE9F04107460C4690461E46012B26D971
:1084C000144D0020C5F8B40157B1C5F8840101F07E
:1084D0002FF944F08001384600F038FD002409E00F
:1084E000C5F8B001F3E718F80410002000F02EFDE5
:1084F000641CE4B2B442F6D301202FB1C5F8840164
:10850000BDE8F04101F014B9C5F8B001F8E7BDE8E5
:10851000F08100000080214200B5012001F020F927
:10852000022001F01DF902205DF804EB01F018B9FA
:108530004FF0E020016921F00101016170474FF027
:10854000E020016941F0010101617047F0B5CC788C
:10855000002204F00F03E40601D58C7823430C8835
:108560004FF00F0C14F0FF0F4FF0010E1AD00568FA
:108570000E880EFA02F42640A6420FD196000CFA9D
:1085800006F7BD4303FA06F63543CE78282E02D00F
:10859000482E02D002E0446100E00461521C082A27
:1085A000E6D305600A88FF2A1DD94568002202F13A
:1085B00008060EFA06F40E882640A6420FD1960051
:1085C0000CFA06F725EA070703FA06F5CE783D43CD
:1085D000282E00D14461CE78482E00D10461521C6F
:1085E000082AE4D34560F0BD0246002092680A42A2
:1085F00000D001207047416170470161704770B53C
:1086000000F096F8CC2000F0AFFF442000F0ACFF63
:10861000332001F0A5F800F08BF8CC2000F0A4FF87
:10862000BE2000F0A1FF00F02BFC054600F028FC66
:1086300045EA002424F47840FFF7EEFD6FF00302D2
:10864000FFF7D3FDFFF706FE14F4784F00D0404249
:1086500070BD0000014800787047000060300020C5
:1086600072B60349488800224A8062B6704700000B
:10867000443000200148007870470000443000205A
:1086800008B50121082000F0E7F80420ADF800004B
:108690008DF8030069460248FFF758FF08BD000047
:1086A000000C014070B500240721012000F08AFC75
:1086B000054602462721012000F008FD68060BD57B
:1086C0002023094A6121012000F00EFCFF22E22153
:1086D000012000F0FBFC0124FF222721012000F0F3
:1086E000F5FC204670BD00001C30002070B505462A
:1086F0000024FF222721012000F0E8FC284601F099
:10870000A3F8FFF7BDFF0949D1F80821002AFBD1E2
:108710000721012000F056FC800600D50124FF222D
:108720002721012000F0D2FC204670BD00802142AC
:1087300010B501F02DF8134C02212046FFF75DFF24
:10874000012001F00DF802212046FFF754FF3320ED
:1087500001F006F802212046FFF74FFF032000F04A
:10876000FFFF02212046FFF73FFF10B1032000F07A
:10877000F7FF332000F0F4FF2046BDE8104002214F
:10878000FFF73BBF0008014041060748826942F0FD
:10879000010282610548426822F0E062426042685C
:1087A0000A43426070470000001002400000014090
:1087B00070B50F24C278017801254FF0E026DAB1B8
:1087C000124A126802F4E062C2F5E062120AC2F1D3
:1087D0000403D44042789A408378234013431A011B
:1087E0000B4BCA54007800F01F018D40400906EB86
:1087F0008000C0F8005170BD01F01F00854048099D
:1088000006EB8000C0F8805170BD00000CED00E068
:1088100000E400E002490843024908607047000094
:108820000000FA050CED00E0044A0029D16901D0EE
:10883000014300E08143D161704700000010024015
:10884000044A0029116901D0014300E0814311610C
:108850007047000000100240044A0029916901D0CD
:10886000014300E081439161704700000010024025
:10887000044A0029D16801D0014300E08143D1605E
:1088800070470000001002402DE9F047DFF85C90CF
:1088900001240546861D89F80040FFF750FE286830
:1088A00000F05AF80027A04614E000243178C4F103
:1088B000070208FA02F00142286802D000F032F8FC
:1088C00001E000F015F8641CE4B2082CEED3761C2D
:1088D0007F1CFFB2A888B842E7D8002189F80010B1
:1088E000FFF726FE0120BDE8F0870000443000209D
:1088F00070B5054672B60026094C668062B601F076
:1089000095F86088A842FCD972B6668062B601F01C
:108910005FF805EB450061888842FCD270BD00001D
:108920004430002070B5054672B60026094C6680BA
:1089300062B601F07BF805EB450160888142FCD20C
:1089400072B6668062B601F043F86088A842FCD92E
:1089500070BD00004430002070B5054672B6002698
:10896000094C668062B601F061F86088A842FCD9C3
:1089700072B6668062B601F02BF8C5EB45106188CF
:108980008842FCD270BD00004430002008B50121AF
:108990000820FFF761FF4FF40060ADF800000420ED
:1089A0008DF8030069460248FFF7D0FD08BD0000BE
:1089B000000C014008B501210820FFF74DFF4FF4DE
:1089C0000060ADF8000003208DF8020010208DF843
:1089D000030069460148FFF7B9FD08BD000C0140DE
:1089E00070B5144D002405EB4400C188002000F050
:1089F0002DFB641CE4B2032CF5D30E4D0024183576
:108A000005EB44008188002000F020FB641CE4B2E8
:108A1000022CF5D3074D00242835002035F814101A
:108A200000F014FB641CE4B20E2CF6D302490020C3
:108A3000087070BDF8A000086030002070B5FFF726
:108A4000CFFF064D0024002035F8141000F0FEFA88
:108A5000641CE4B2062CF6D370BD00003CA10008F3
:108A600070B5FFF7BDFF41F27F142146002000F0F2
:108A7000EDFA2146002000F0E9FA064D002400201E
:108A800035F8141000F0E2FA641CE4B2052CF6D3B9
:108A900070BD000048A1000810B500F009F80028DA
:108AA00003D0024900200870012010BD6030002072
:108AB00070B500242721204600F084FA03254FF4E6
:108AC000FA76B5EB901F03D1FF2801D0012070BDCD
:108AD000641CA4B2B44201D3002070BD2721002041
:108AE00000F070FAEDE700002DE9F041104C01268E
:108AF000074626604FF00A00FFF7D4FC384600F026
:108B000019F8002525600A20FFF7CCFC384600F054
:108B100011F825600A20FFF7C5FC384600F00AF876
:108B200026603220FFF7BEFC0120BDE8F081000086
:108B3000AC8121422DE9F04105460024FFF7FFFCFE
:108B4000FFF738FF1BA000F03BFD1D4E0220002761
:108B50003070DFF8708014E005EB440041880904B0
:108B600072B6776062B61AD50122C8F8AC21408887
:108B7000C0F30E01706800EB80008842FAD3641CD9
:108B8000A4B22888A042E7D8FFF7D2FCC8F8AC719D
:108B90001420FFF78AFC37700120BDE8F081C8F887
:108BA000AC714088C0F30E01706800EB8000884211
:108BB000FAD3E4E773656E64696E670D0A0000001E
:108BC000603000200080214270B50546002400F08E
:108BD0001FF8002810D000210A232A460846FFF774
:108BE00067FC4FF4FA70094907E0641CA4B28442A0
:108BF00003D3FFF7F5FE002070BDD1F80821002A4D
:108C0000F3D02846FFF770FF012070BD008021429D
:108C100070B500242721204600F0D4F9A0254FF498
:108C2000FA7635EA000103D1FF2801D0012070BD9A
:108C3000641CA4B2B44201D3002070BD27210020DF
:108C400000F0C0F9EDE700002DE9F74F714E02206A
:108C50003070009DAD1DFFF772FC72B60020708071
:108C600062B602E07088C8287BD8DDE90101FFF711
:108C7000BBFC0028F6D1FFF7F3FC044605E065488D
:108C8000418841F638008142EED8DDE90101FFF765
:108C9000ABFC0028F3D0FFF7E3FC142C61D904EB04
:108CA0004401B0EBC10FF9D904EB440101EB04110D
:108CB000B0EB410F55D220444609009806600020D1
:108CC0009DE0FFF7CDFC534F41F6380A02E079886A
:108CD0005145C9D8DDE90101FFF786FC0028F6D12E
:108CE000FFF7BEFCBB468046574603E0BBF80200D8
:108CF000B842B9D8DDE90101FFF776FC0028F5D0CC
:108D0000FFF7AEFC0746022C2CD00320B6FBF0F098
:108D1000A6EB5601091A41454CDA3046FFF78DFAA9
:108D20003D4A3E4BFFF7F1F983468A464046FFF73E
:108D300084FA5A465346FFF7ADFA3BD23846FFF75E
:108D40007CFA5A465346FFF7B9FA13D206EB86006F
:108D5000B8420FD92978C4F107020120904081431D
:108D600043E054E0014642462DA000F029FC0320D8
:108D7000BDE8FE8F06EB4600B7EBC00F47D906EB08
:108D8000460000EB0610B7EB400F40D24A462146A2
:108D90002BA000F015FC002405E029782DA000F0A0
:108DA0000FFC641CE4B24C45F7D300994846A1F887
:108DB0000490DDE73046FFF740FA174A174BFFF7FC
:108DC000A4F982468B464046FFF737FA52465B4687
:108DD000FFF774FA16D206EB8601414512D92978BD
:108DE000C4F10702012090400143641CE4B22970E1
:108DF000082CFFF466AF09F101006D1CC0B281467A
:108E000000245EE74246394614A000F0D9FB00205A
:108E1000AEE70000443000205C8FC2F5285CFF3FC5
:108E200054696D654C6F77203D2025642C20546972
:108E30006D6548696768203D2025640D0A000000C3
:108E40006B203D2025642C206969203D2025640D80
:108E50000A00000025640D0A00000000333A205487
:108E6000696D654C6F77203D2025642C2054696D19
:108E70006548696768203D2025640D0A00000000F0
:108E800070B50024174E2546640802213046FFF7CE
:108E9000B4FB00BF00BF02213046FFF7ACFB00BFB0
:108EA00000BF00BF02213046FFF7A7FB00BF00BF95
:108EB00000BF00BF00BF02213046FFF795FB08B19D
:108EC00044F08004042000F04BFC6D1CEDB2082D32
:108ED000DAD302213046FFF790FB042000F040FC7B
:108EE000204670BD000801402DE9F04107460C46C0
:108EF00090461E46012B25D9134D0020C5F8B4011C
:108F00004FB1C5F8840100F013FC2146384600F04B
:108F10001DF8002409E0C5F8B001F4E7384600F078
:108F200067F808F80400641CE4B2B442F6D30120E8
:108F30002FB1C5F88401BDE8F04100F0F9BBC5F8D8
:108F4000B001F8E7BDE8F081008021422DE9F0474B
:108F5000002702001A480D463E462DD0C0F8846115
:108F60008046C0F8B46100F0E3FBB14646460824F1
:108F70004FF001084846C6F8B491290600D540468E
:108F8000C6F8BC0100F0D4FBC6F8B4816806050E33
:108F900000F0CEFBD6F8380108B147F00107641E97
:108FA00014F0FF04E6D1C6F8B491C6F8BC8100F015
:108FB000BFFB3846BDE8F087C0F8B061D0E70000DD
:108FC0000080214270B50546FFF7C0FF284600F03B
:108FD0000FF80446054801212DB1C0F8841100F0B6
:108FE000A7FB204670BDC0F8B011F8E70080214211
:108FF0002DE9F0410024144E274610B3C6F88471C1
:109000004FF00108C6F8BC8100F092FB0825C6F8B5
:10901000B47100F08DFB6006040EC6F8B48100F058
:1090200087FBD6F8380108B144F001046D1E15F035
:10903000FF05ECD1C6F8B47100F07AFB2046BDE81C
:10904000F081C6F8B071DBE7008021422DE9F047DE
:109050001D4E4FF000075FEA00090C46C6F8B471D8
:1090600010D0C6F8847100F063FB44F4004510246E
:10907000B84601274046C6F8B481290405D5C6F88C
:10908000BC7104E0C6F8B071EDE7C6F8BC0100F0B1
:109090004FFBC6F8B4716804050C00F049FB641E70
:1090A00014F0FF04E6D1C6F8B481C6F8BC71B9F17A
:1090B000000F05D0C6F88471BDE8F04700F038BB5A
:1090C000C6F8B071F8E700000080214270B5044690
:1090D0001646FFF73BFF054631462046FFF736FFB1
:1090E000054901202CB1C1F8840100F021FB28467C
:1090F00070BDC1F8B001F8E7008021422DE9F041D0
:10910000074615461E46FFF721FF8046002406E06D
:1091100015F8011B3846FFF719FF641CE4B2B4428E
:10912000F6D30549012027B1C1F884014046BDE8C6
:10913000F081C1F8B001F9E700802142F8B50121C2
:109140000820FFF789FB4FF42040ADF80000032012
:109150008DF80200144F10248DF8034069463846FC
:10916000FFF7F4F9A002ADF8000004208DF8030029
:1091700069463846FFF7EAF92002ADF800008DF89D
:10918000034069463846FFF7E1F9084E0125F562CC
:109190004FF00200ADF800008DF8034069463846F4
:1091A000FFF7D4F93560F8BD000C014084812142FD
:1091B0003EB501210846FFF737FB4FF080442046BB
:1091C00000F0E0F841F28831ADF804103F21ADF82D
:1091D00000100021ADF802106946204600F04AF95F
:1091E0000121204600F0BDF801221146204600F082
:1091F00039F90121204600F0BAF802491C2000F09C
:1092000014FF3EBD6D92000808B54FF4E060FFF713
:1092100001FB1C208DF8000000208DF801000320C8
:109220008DF8020001208DF803006846FFF7C0FAB0
:1092300008BD000008B54FF4C060FFF7EBFA1D2031
:109240008DF8000000208DF8010004208DF8020048
:1092500001208DF803006846FFF7AAFA02491D2095
:1092600000F0E3FE08BD00002D95000870B54FF03A
:1092700080404FF6FE7101822E48017811B141887D
:10928000491C41802B48001D017811B14188491CBF
:10929000418028480830017811B14188491C41803B
:1092A000254D244A012428680C3A58B1401C2860F6
:1092B000322806D11078C0431070107800F0A9FE53
:1092C0002C6070BD1D4B00251968491C1960508821
:1092D000401C80B25080B1F5C87F02D118490C60A3
:1092E0001D60C828EDD15580164800F0A5FB012867
:1092F0001BD1144D28787E2817D168787E2814D188
:10930000A878342811D17E2000F0FCF87E2000F0EF
:10931000F9F80024285D00F0F5F8641CE4B2202C74
:10932000F8D3022108A000F0F3F8BDE87040FFF781
:1093300085BB00005430002018300020143000207D
:10934000103000201C3000203C3C00000029018827
:1093500002D041F0800102E040F27F3211400180F2
:109360007047C94301827047C94301827047002991
:10937000018802D041F0010102E040F2FE321140CA
:10938000018070472A4910B5884202D10121C414D6
:1093900043E0B0F1804F09D0264988420DD1012128
:1093A0000220FFF74DFA002102202DE0012108469E
:1093B000FFF746FA0021012026E01F49884206D126
:1093C00001210420FFF73CFA002104201CE01B4986
:1093D000884206D101210820FFF732FA0021082037
:1093E00012E01749884206D101211020FFF728FA20
:1093F0000021102008E01349884209D101212020D2
:10940000FFF71EFA00212020BDE81040FFF718BA30
:109410000D4988420AD1012144142046FFF728FA59
:109420002046BDE810400021FFF722BA10BD000021
:10943000002C01400004004000080040000C0040E7
:10944000001000400014004000340140024600209B
:10945000138A92890B4202EA010202D0002A00D04C
:1094600001207047002A828901D00A4300E08A4324
:1094700082817047028802F08F020280CA884B887E
:109480001A4303881A4302808A8882850A880285E3
:10949000054A904202D0054A904201D1097A0186DC
:1094A0000121818270470000002C014000340140FE
:1094B0002DE9F041114D0027114E2F6000F005FEFF
:1094C000040012D0286822463044114600F0C1FD45
:1094D0002868315C3C2904D1311811F8011C3C2961
:1094E00009D020440027286000E07F1C0120FEF7FF
:1094F000D9FF642FE2D3BDE8F081000040300020A6
:109500008030002001B50121684600F09DFD08BDB6
:1095100000F09ABD0246002012880A4200D00120C5
:109520007047C1F3080181807047000010B50C4CF2
:1095300001212046FFF78AFF002809D0012120469B
:10954000FFF712FF07498A681AB18868401E8860D1
:1095500010BD2046BDE810400021FFF708BF000005
:10956000000400404830002070B5144E0546002429
:1095700002213046FFF73FF8022000F0F1F8E8073B
:109580004FF00201304602D0FFF737F801E0FFF755
:1095900032F86D08FEF7C0FF02213046FFF72DF8C4
:1095A000641CE4B2082CE3D302213046FFF725F80F
:1095B000BDE87040072000F0D3B80000000801406B
:1095C0000FB4054B10B503A9044A029800F008F83F
:1095D00010BC5DF814FB0000BD9700086830002047
:1095E0002DE9FF4F89B004469B46002596E02528CB
:1095F00033D10027641C4D4AB84601212378203B13
:1096000001FA03F0104202D00743641CF6E7207809
:109610002E2819D114F8010F47F004072A280ED07C
:109620006FF02F022078A0F1300109290CD808EB47
:10963000880102EB410100EB0108641CF2E70A9883
:10964000641C50F8048B0A90207800286AD06428A3
:1096500008D0692806D075281FD05A460B99904724
:109660006D1C5AE00A994FF00A0901C90A910028B5
:1096700004DAC0F100004FF02D0102E0390504D5F5
:109680002B218DF82010012104E0F90701D02021C1
:10969000F7E700218A4608AE0CE00A994FF00A0964
:1096A00001C90A91F5E74946FEF71CFE01F13001B8
:1096B00006F8011D0028F6D1ADEB060000F12009E7
:1096C000780701D44FF00108C84502DDA8EB090076
:1096D00000E000208046002706E008A85A46C05D4A
:1096E0000B9990476D1C7F1C5745F6DB04E030203A
:1096F0005A460B9990476D1CB8F10001A8F101087A
:10970000F5DC05E016F8010B5A460B9990476D1CE5
:10971000B9F10001A9F10109F4DC641C20780028EA
:109720007FF465AF0DB02846BDE8F08F0928010031
:10973000032000BF00BF00BF00BF00BF00BF00BFCD
:10974000401EF8D2704770B5051E00DA01250024CE
:1097500003E0642000F004F8641CAC42F9DB70BD47
:1097600000B5034602E00B2000F003F85B1EFAD2BE
:1097700000BD09E0032100BF00BF00BF00BF00BF64
:1097800000BF00BF491EF8D2401EF3D27047000050
:1097900008B501210420FFF75FF810208DF80300C1
:1097A00003208DF802000220ADF80000694602484F
:1097B000FEF7CCFE08BD00000008014070B5074D63
:1097C0000446C1B22846FFF7ACFE40212846FFF709
:1097D000A1FE0028F9D0204670BD000000440040E2
:1097E00010B500F047F9164C002020604FF005033B
:1097F000144A4FF02A014FF00100FFF77FFC0122CD
:1098000021211046FFF762FC012222211046FFF7BA
:109810005DFC282225210120FFF758FC2022312160
:109820000120FFF753FC072226210120FFF74EFC01
:109830000F2220210120FFF749FC0120206010BDEC
:109840008081214252A1000870B5054600F012F94E
:109850001C4C002121604FF005031B4A4FF03001E2
:109860004FF00100FFF74AFC0523174A2A21012087
:10987000FFF744FC20232A46A0210120FFF73EFCED
:10988000012221211046FFF721FC0122222110464E
:10989000FFF71CFC1A2224210120FFF717FC2822C5
:1098A00025210120FFF712FC072226210120FFF7C6
:1098B0000DFC0E2220210120FFF708FC0120206072
:1098C00070BD00008081214252A10008F8B501213D
:1098D0000420FEF7C1FF4025ADF8005003248DF8A9
:1098E000024010200B4E8DF8030069463046FEF70B
:1098F0002DFE0848103005602020ADF800008DF8DE
:10990000024004208DF8030069463046FEF71EFE33
:10991000F8BD000000080140124810B50168491C5C
:1099200001601148006860B11048426840211AB1D6
:10993000002242600E4803E0012242600C48001DF4
:109940000160FEF787FE18B10A480168491C0160F2
:10995000FEF790FE002803D007480188491C0180CB
:1099600010BD00003C3000200030002048300020B6
:1099700010080140643000204630002008B5012165
:109980000420FEF769FF1020ADF8000003218DF8D8
:1099900002108DF8030069460248FEF7D7FD00F07B
:1099A00003F808BD0008014010B510210248FEF779
:1099B00022FE002010BD00000008014010B510215B
:1099C0000248FEF71AFE012010BD00000008014009
:1099D00008210148FEF70FBE000C014008B5012127
:1099E0000820FEF739FF01210420FEF735FF08208B
:1099F000ADF8000003208DF8020010208DF8030060
:109A000069460848FEF7A2FD4FF48070ADF80000EB
:109A100004208DF8030069460348FEF797FDFFF721
:109A2000D7FF08BD000C0140000801400821014893
:109A3000FEF7E3BD000C014070B506460024072187
:109A40000120FFF7BFFA0546FF2227210120FFF77B
:109A50003DFB68060BD52023324661210120FFF72C
:109A600043FAFF22E2210120FFF730FB01242046C8
:109A700070BD000010B5074C002020604FF00D02B3
:109A80004FF020014FF00100FFF720FB0120206084
:109A900010BD00008081214210B5092111A000F005
:109AA000D3FA4FF4487421461148FEF70CFB4FF4EB
:109AB000966214210E4800F0CCFA0EA10C48FEF775
:109AC0000EFB40B10C4A0020214610600848FEF70A
:109AD000FAFA002010BD21460548FEF7F4FA0120ED
:109AE00010BD000041542B454E544D0D0A0000009E
:109AF000803000202B6F6B0008300020E4B0FB4E5C
:109B0000002401207470FEF73FFEF948016821F43B
:109B100070210160016841F440310160FFF72EFFC0
:109B2000012000F076FA00F0B2FAFFF757FFFFF7D6
:109B3000CDFEFEF7FDFD00F065FAFFF77BFB00218F
:109B4000EC4800F0A9FAFEF7F3FC0020FFF7F6FA64
:109B5000FEF71CFFE8A0FFF733FDDFF8B0A3DFF846
:109B6000B093DFF8B0B34FF47A780125DF4E307848
:109B7000012802D0022815D037E0B9F8020040458C
:109B800006D9347000F036FA0621E348FFF7C0FC2E
:109B9000D6481830FEF786FD012826D1347000F033
:109BA00029FA1DE0B9F80200404506D9347000F0EA
:109BB00021FA0621D848FFF7ABFCCC481830FEF755
:109BC00071FD012811D1347000F014FAD24802213D
:109BD0000E38FFF79DFCC54820211830FFF798FC90
:109BE000CD480621801FFFF793FC00F06EFA002895
:109BF00019D0FFF75DFC9BF802005F463A2813D0AE
:109C0000C6A1C448FEF76BFA0028F1D0C4A1C14830
:109C1000FEF765FA002873D00A20FFF794FD0A21A9
:109C2000C0A0FFF775FCD1E100F0E4F938784C28CA
:109C30000CD006DC422870D044286FD046284CD186
:109C40006EE053286BD05428F9D111E17878482878
:109C500043D006DC422854D0442855D04628EED1C3
:109C600024E054283AD05728E9D175705746AAF80D
:109C700002408AF8005000F0C1F942A8FEF70CFF3C
:109C800068B9BBE04FF40062A9496846FEF7DCFF03
:109C900028B1BDF80410A7A0FFF792FC7470788873
:109CA000404502D870780128ECD0A7E0FEF798FE76
:109CB000FEF7C4FE6846FEF7EFFE002807DD964873
:109CC00003210938FFF724FC8221684601E00621C0
:109CD0009148FFF71DFC00F091F9F2E0307802287E
:109CE000FBD08D4802211238FFF712FCFFF778FDF8
:109CF000A9F8024089F8005000F080F93570E0E0E2
:109D0000E2E000F0BFF9DCE004218DA0FFF700FCE9
:109D100000F0BDF904218CA0C4E040E0ACE0C4E058
:109D20007878462819D04828D7D054282CD05728DE
:109D30007ED17948002603210C38FFF7E9FB4FF468
:109D40008472F91C6846FEF7A5F96846FEF79CFD8B
:109D5000761CF6B2062EF8D31AE06F4803210938B4
:109D6000FFF7D6FBFEF73CFEFEF77AFE8222F91CD7
:109D70006846FEF78FF9BDF800106EA0FFF720FCD3
:109D80006846FEF721FF03E0381DFEF7AFFC18B16F
:109D900061480621801F85E006215F4882E07878CF
:109DA000482845D004DC442842D0462840D12CE045
:109DB00054284AD057283BD175705746AAF802401C
:109DC0008AF8005000F01AF95348022114380DE0C7
:109DD0005148747002211438FFF79AFB4FF48471D4
:109DE0006846FFF795FB4C4802211638FFF790FBB9
:109DF0007888404502D870780128E9D000F0FAF858
:109E0000788840455DD97470C6E743480221103810
:109E1000FFF77EFBAAF802408AF8005000F0EEF847
:109E2000FEF7DEFDFEF70AFE6846FEF735FE00E0AF
:109E30001DE0002802DD8221684601E00621364847
:109E4000FFF766FB00F0D6F83BE03078012838D009
:109E5000314802211038FFF75BFBFFF7C1FCA9F87E
:109E6000024089F8005000F0C9F80220307028E064
:109E700078784B288CD024E07878542802D0532866
:109E80000CD01EE0FEF7BBFBC0B2B8705528F9D06D
:109E90003C20F870387105211E4803E0C6E90145F1
:109EA00004212BA0FFF734FB0BE07878582808D169
:109EB0000E2129A000F0C8F800F09CF800F000F98D
:109EC00009E700F09BF881E027A11248FEF707F9A7
:109ED00048B17561B46000F091F8FFF7DDFD18B985
:109EE000B460746072E043E070E000000430002071
:109EF000001001401999000875617274206973207F
:109F0000776F726B696E670D0A0000005430002095
:109F10005830002080300020F2A000082B6F000095
:109F20004150000041542B57414B45590D0A000048
:109F3000000C01406C656E203D2025640D0A000078
:109F400054463C3C000000004C443C3C00000000F7
:109F500044533C3C00000000656E7465725F757090
:109F6000675F6D6F646500004F50454E0000000054
:109F70001AA11B48FEF7B3F810B319481021103886
:109F8000FEF7A1F817A11648FEF7A9F801461448F4
:109F900010221038FEF77EF8FFF77EFD70B9F460EE
:109FA000032112A07460FFF7B3FA0D481021103896
:109FB000FFF7AEFA02210EA0FFF7AAFA346180E79C
:109FC000FFF76AFD10B9B460746074618BF80240E9
:109FD0004FF480710248FEF776F8C7E54D41430023
:109FE000803000202B6F6B3D00000000444D3A0094
:109FF0003C3C000000210120FEF716BC0121084670
:10A00000FEF712BC10B5FFF7FFF8BDE81040FFF7F0
:10A01000CFB808B1FFF7D2BCFFF7C6BC2D4909681D
:10A0200051F820000199019001BD03B44FF00000E8
:10A03000DFF8A4F003B44FF00100DFF89CF003B4A4
:10A040004FF00200DFF890F003B44FF00300DFF8A8
:10A0500088F003B44FF00400DFF87CF003B44FF055
:10A060000500DFF874F003B44FF00600DFF868F085
:10A0700003B44FF00700DFF860F003B44FF00800BE
:10A08000DFF854F003B44FF00900DFF84CF003B4EC
:10A090004FF00A00DFF840F003B44FF00B00DFF898
:10A0A00038F003B44FF00C00DFF82CF003B44FF09D
:10A0B0000D00DFF824F003B44FF00E00DFF818F0C5
:10A0C00003B44FF00F00DFF810F003B44FF01000AE
:10A0D000DFF804F06C3000201DA000083C3C425723
:10A0E0004C464246425446573A46463A52453A3022
:10A0F0003C3C52453A313C3C4E07C00800096C07D5
:10A1000080080009D90700080009E407C008000911
:10A1100068032B04340315041A030B040D03050410
:10A1200068020F1302054106F0198B1A101E401B1E
:10A13000801C061D88181B58006F04019F114425C0
:10A140001013555A705C100104250F135D5A7C5C86
:10A150000C0134431010010000000000000000005A
:10A1600000000000010000000000000000000000EE
:10A1700000000000010102030405060708090A0B9C
:10A180000C0D0E0F101112131415161718191A1B97
:10A190001C1D1E1F00000000000000000000000049
:10A1A00000000000010000000000000000000000AE
:10A1B000000000000000000000000000000000009F
:08A1C000000000000000000097
:04000005080080016E
:00000001FF
