:020000040800F2
:1080000030E0FEE754413031008000084D332073EA
:10801000797820617070000000000000003230317B
:10802000332E31322E313000000000004DF804EDC7
:10803000134800F1030020F003001249124B88425C
:1080400006D099423CBF50F8042B41F8042BF8D3DA
:108050000E494FF000028B4238BF43F8042BFAD38D
:108060005DF804FB4DF804ED4DF8040DFFF7DEFF5D
:108070005DF8040B0649086000F0EEFE5DF804FBB5
:10808000EC97000800300020503000208A33002098
:108090004C30002030B505460B462A4613F8014BFC
:1080A00012F8010B08B1A042F8D01CB1002802D090
:1080B0006D1CF1E7284630BD032A40F2308010F0F5
:1080C000030C00F0158011F8013BBCF1020F624473
:1080D00098BF11F801CB00F8013B38BF11F8013B04
:1080E000A2F1040298BF00F801CB38BF00F8013BB1
:1080F00011F0030300F04780083AC0F0088051F8FF
:10810000043B083A51F804CBA0E80810F5E7121D2B
:108110005CBF51F8043B40F8043BAFF30080D2074A
:1081200024BF11F8013B11F801CB48BF11F8012B16
:1081300024BF00F8013B00F801CB48BF00F8012B39
:1081400070474FF000020429C0F0128010F0030CB9
:1081500000F04D80CCF1040CBCF1020F18BF00F808
:10816000012BA8BF20F8022BA1EB0C0100F03FB8B7
:108170005FEAC17C24BF00F8012B00F8012B48BF47
:1081800000F8012B704710B5203AC0F00B80B1E821
:108190001850203AA0E81850B1E81850A0E818503C
:1081A000BFF4F5AF5FEA027C24BFB1E81850A0E845
:1081B000185044BF18C918C0BDE810405FEA827C5F
:1081C00024BF51F8043B40F8043B08BF7047D20776
:1081D00028BF31F8023B48BF11F8012B28BF20F817
:1081E000023B48BF00F8012B70474FF0000200B57A
:1081F000134694469646203922BFA0E80C50A0E8CA
:108200000C50B1F12001BFF4F7AF090728BFA0E877
:108210000C5048BF0CC05DF804EB890028BF40F843
:10822000042B08BF704748BF20F8022B11F0804F85
:1082300018BF00F8012B70472DE9F04100240646D5
:108240001546012A0FD90D4F0221384600F0CAFA0F
:1082500028B13146384600F0CEFA00240BE0641C09
:10826000E4B2C82CF0D9BDE8F0813146384600F0C0
:10827000C2FA641CE4B2AC42F7D3F4E70038004021
:1082800000B5012000F0ABFC022000F0A8FC0220A9
:108290005DF804EB00F0A3BC4FF0E020016921F091
:1082A0000101016170474FF0E020016941F00101D7
:1082B00001617047F0B5CC78002204F00F03E406AA
:1082C00001D58C7823430C884FF00F0C14F0FF0F6E
:1082D0004FF0010E1AD005680E880EFA02F42640FF
:1082E000A6420FD196000CFA06F7BD4303FA06F634
:1082F0003543CE78282E02D0482E02D002E04461C9
:1083000000E00461521C082AE6D305600A88FF2AAF
:108310001DD94568002202F108060EFA06F40E88FF
:108320002640A6420FD196000CFA06F725EA070769
:1083300003FA06F5CE783D43282E00D14461CE786D
:10834000482E00D10461521C082AE4D34560F0BDD8
:108350000246002092680A4200D001207047416125
:1083600070470161704770B500F028F8CC2000F02C
:10837000EFFB442000F0ECFB332000F030FC00F079
:108380001DF8CC2000F0E4FBBE2000F0E1FB00F083
:108390007BF9054600F078F945EA002424F478409A
:1083A00001F017F96FF0030201F0AAF901F0E2F809
:1083B00014F4784F00D0404270BD000010B500F0BA
:1083C00017FC134C02212046FFF7CBFF012000F0E1
:1083D00006FC02212046FFF7C2FF332000F0FFFB1E
:1083E00002212046FFF7BDFF032000F0F8FB022129
:1083F0002046FFF7ADFF10B1032000F0F0FB332063
:1084000000F0EDFB2046BDE810400221FFF7A9BFB8
:108410000008014070B50F24C278017801254FF0A3
:10842000E026DAB1124A126802F4E062C2F5E062B4
:10843000120AC2F10403D44042789A408378234060
:1084400013431A010B4BCA54007800F01F018D40F2
:10845000400906EB8000C0F8005170BD01F01F001C
:108460008540480906EB8000C0F8805170BD0000CF
:108470000CED00E000E400E0024908430249086016
:10848000704700000000FA050CED00E0044A0029E6
:10849000D16901D0014300E08143D1617047000000
:1084A00000100240044A0029116901D0014300E094
:1084B000814311617047000000100240044A002906
:1084C000916901D0014300E0814391617047000050
:1084D00000100240044A0029D16801D0014300E0A5
:1084E0008143D160704700000010024010B54FF486
:1084F000827000F04BF9BDE810404FF4887000F036
:1085000045B9000070B5114D002435F8140000F095
:108510003DF9641CE4B2032CF7D30C4D002418354C
:1085200005EB4400808800F031F9641CE4B2022CB1
:10853000F6D3064D0024283535F8140000F026F94E
:10854000641CE4B2112CF7D370BD00008C970008B6
:1085500070B5FFF7D7FF054D002435F8140000F083
:1085600015F9641CE4B2062CF7D370BDD697000849
:1085700070B5FFF7C7FF41F27F1000F007F9054D16
:10858000002435F8140000F001F9641CE4B2052C55
:10859000F7D370BDE297000870B50646002400F0DE
:1085A0001BF800280BD00B4DD5F8080140B10A226A
:1085B0003146002000F09CF8FFF798FF012070BDC5
:1085C000641CA4B20A2C01D3002070BD0A2000F064
:1085D000EBFAE9E70080214210B5002404E0002016
:1085E00010BD0A2000F0E0FA272000F0A7F82720AD
:1085F00000F0A4F8641CA4B2322CF2D3EFE7000020
:1086000070B50546002400F01DF800280DD00A22A0
:1086100029460020FFF710FE094D0AE0641CA4B2B1
:10862000322C03D3FFF76EFF002070BD0A2000F04C
:10863000BBFAD5F808010028F0D0012070BD000079
:108640000080214270B50024A02608E0641CA4B27A
:10865000322C01D3002070BD0A2000F0A5FA27209B
:1086600000F06CF836EA000001D0012500E000259A
:10867000272000F063F8FF2804D000200543E5D14F
:10868000012070BD0120F9E770B50024174E254682
:10869000640802213046FFF764FE00BF00BF0221DC
:1086A0003046FFF75CFE00BF00BF00BF022130462E
:1086B000FFF757FE00BF00BF00BF00BF00BF022191
:1086C0003046FFF745FE08B144F08004042000F076
:1086D00086FA6D1CEDB2082DDAD302213046FFF781
:1086E00040FE042000F07BFA204670BD00080140E7
:1086F0002DE9F041002480460E461546012A0FD987
:108700000D4F0221384600F06DF828B14146384639
:1087100000F071F800240BE0641CE4B2C82CF0D91E
:10872000BDE8F081384600F064F83055641CE4B2CE
:10873000AC42F7D3F4E700000038004070B50646BD
:108740000024114D03E0641CE4B2C82C0FD80221B0
:10875000284600F047F80028F5D03146284600F0BA
:108760004AF8002405E0641CE4B2C82C01D90020BA
:1087700070BD0121284600F035F80028F3D02846C6
:1087800000F037F8C0B270BD0038004070B5054643
:1087900000244FF4006000F04DF845F400450B4E06
:1087A00003E0641CE4B2C82C0ED80221304600F06D
:1087B00019F80028F5D02946304600F01CF8BDE82D
:1087C0007040002000F036B870BD00000038004056
:1087D0000029018802D041F0400101E021F0400170
:1087E000018070470246002012890A4200D0012011
:1087F0007047808970478181704730B502884C8806
:1088000002F441530A88CD8822438C882C432243AA
:108810000C8922434C8922438C892243CC892243F0
:108820001A430280828B22F400628283098A0182C9
:1088300030BD000010B586B00021ADF80400012065
:10884000ADF808004002ADF80A000820ADF80C00B1
:108850008020ADF80E00ADF800100720094C4FF451
:108860008272ADF80610ADF81000ADF8022069462E
:108870002046FFF7C2FF01212046FFF7A9FF06B0FF
:1088800010BD0000003800403EB501210846FFF74A
:10889000FDFD4FF08044204600F09CF841F2883105
:1088A000ADF804103F21ADF800100021ADF8021022
:1088B0006946204600F0FAF80121204600F07CF8D5
:1088C00001221146204600F0E9F80121204600F07F
:1088D00076F802491C2000F0ECFD3EBD0D89000831
:1088E00008B54FF4E060FFF7C7FD1C208DF80000CD
:1088F00000208DF8010003208DF8020001208DF882
:1089000003006846FFF786FD08BD000070B54FF014
:1089100080414FF6FE700882214D224A01242868CA
:1089200058B1401C2860322806D11078C04310701E
:10893000107800F0B2FD2C6070BD1B4B002519684B
:10894000491C19605088401C80B25080B1F5C87F26
:1089500002D116490C601D60C828EDD10024558055
:108960001348FFF719FE012815D1114D28786978B1
:108970008842E1D07E2000F0E3F87F2000F0E0F8AC
:10898000285D00F0DDF8641CE4B20A2CF8D3022163
:1089900008A000F0DBF8BDE87040FFF7D9BD00008B
:1089A0001830002044300020143000201030002007
:1089B000803300203C3C0000C943018270470029FD
:1089C000018802D041F0010102E040F2FE32114084
:1089D000018070472A4910B5884202D10121C41490
:1089E00043E0B0F1804F09D0264988420DD10121E2
:1089F0000220FFF757FD002102202DE0012108464B
:108A0000FFF750FD0021012026E01F49884206D1D2
:108A100001210420FFF746FD002104201CE01B4932
:108A2000884206D101210820FFF73CFD00210820E3
:108A300012E01749884206D101211020FFF732FDCC
:108A40000021102008E01349884209D1012120208B
:108A5000FFF728FD00212020BDE81040FFF722BDD0
:108A60000D4988420AD1012144142046FFF732FD06
:108A70002046BDE810400021FFF72CBD10BD0000CE
:108A8000002C01400004004000080040000C0040A1
:108A9000001000400014004000340140002A828988
:108AA00001D00A4300E08A4382817047028802F0C5
:108AB0008F020280CA884B881A4303881A430280B7
:108AC0008A8882850A880285054A904202D0054A32
:108AD000904201D1097A018601218182704700000C
:108AE000002C0140003401402DE9F041124D0027D7
:108AF000124E4FF47A782F6000F02BFD040012D054
:108B0000286822463044114600F0E7FC2868315CB2
:108B10003C2904D1311811F8011C3C2909D020440A
:108B20000027286000E07F1C404600F04AF8642FD0
:108B3000E2D3BDE8F081000040300020603000202A
:108B400001B50121684600F0C3FC08BD00F0C0BCBF
:108B500070B5144E0546002402213046FFF7FFFB96
:108B6000022000F03CF8E8074FF00201304602D046
:108B7000FFF7F7FB01E0FFF7F2FB6D08FFF780FB63
:108B800002213046FFF7EDFB641CE4B2082CE3D36E
:108B900002213046FFF7E5FBBDE87040072000F0FA
:108BA0001EB800000008014070B5051E00DA01255E
:108BB000002403E0642000F012F8641CAC42F9DBEE
:108BC00070BD09E0032100BF00BF00BF00BF00BFB0
:108BD00000BF00BF491EF8D2401EF3D2704700B557
:108BE000034602E00B20FFF7ECFF5B1EFAD200BD4C
:108BF00008B501210420FFF761FC10208DF8030067
:108C000003208DF802000220ADF8000069460248FA
:108C1000FFF750FB08BD000000080140F8B5012136
:108C20000420FFF74BFC4025ADF8005003248DF8DD
:108C3000024010200B4E8DF8030069463046FFF7C6
:108C400039FB0848103005602020ADF800008DF891
:108C5000024004208DF8030069463046FFF72AFBE6
:108C6000F8BD0000000801400A480168491C016085
:108C70000948006800280CD00848426840211AB111
:108C800000224260064803E0012242600448001DC1
:108C90000160704724300020043000204430002060
:108CA0001008014008B501210820FFF707FC8020CB
:108CB000ADF8000003208DF8020010208DF80300AD
:108CC00069460348FFF7F6FA00F004F808BD000013
:108CD000000C014010B580210248FFF740FB002046
:108CE00010BD0000000C014010B580210248FFF7C4
:108CF00038FB012010BD0000000C01400821014894
:108D0000FFF72DBB000C014008B501210820FFF73B
:108D1000D5FB0820ADF8000003208DF802001020DC
:108D20008DF8030069460348FFF7C4FAFFF7E6FF32
:108D300008BD0000000C014008210148FFF711BBED
:108D4000000C014008B54FF40040ADF800000320CE
:108D50008DF8020004208DF8030069460148FFF7F2
:108D6000A9FA08BD0008014010B503211CA000F0BD
:108D7000AFFB4FF4487421461A48FFF7E2F94FF46D
:108D800096620121174800F0A8FB16480078612878
:108D90001FD121461348FFF7D4F94FF47A70FFF73B
:108DA00003FF012110A0FFF7D1FE40F6B8320321E6
:108DB0000C4800F092FB0DA10A48FFF76BF940B197
:108DC0000B4A0120214610600648FFF7BAF901203E
:108DD00010BD21460348FFF7B4F9002010BD000084
:108DE0002B2B2B0060300020610000002B6F6B00EC
:108DF0000830002010B5092111A000F069FB4FF4E4
:108E0000487421461148FFF79CF94FF496621421EB
:108E10000E4800F062FB0EA10C48FFF73BF940B191
:108E20000C4A0020214610600848FFF78AF900200C
:108E300010BD21460548FFF784F9012010BD000050
:108E400041542B454E544D0D0A0000006030002067
:108E50002B6F6B0008300020FC48016821F4702162
:108E60000160016841F440310160FFF71BFFFFF72B
:108E70004BFFFFF7D3FEFFF741FF012000F00DFB92
:108E800000F049FBFFF79AFA00F000FB0021F048E0
:108E900000F046FBFFF700FADFF8B8B34FF0010A25
:108EA000D8460024D8F80C00474688B100F0E6FA0E
:108EB000B86818B9FFF758FFB86838B10A20FFF74B
:108EC00073FE0A21E4A0FFF741FEFC6000F0DAFA2D
:108ED000B869F0B94FF40041E248FFF739FA00F001
:108EE000DCFA3869A8B100F0C9FADF480078D8B1D7
:108EF0003C610321DDA0BC60FFF728FE1021DA48A9
:108F0000FFF724FE0221DAA0FFF720FE7C6100F0CB
:108F1000B9FAFFF717FFD34E4FF4004949463046E0
:108F2000FFF716FA78B12CE0B86820B9FFF71CFFFC
:108F3000B8680028EDD00A20FFF736FE0921CDA041
:108F4000FFF704FEE5E700F099FA4FF6FF7508E039
:108F5000F869401CF861A84203D1FC61386A401CE2
:108F6000386249463046FFF7F3F90028F0D0386AF6
:108F7000052804D3BC60C7E903A4FC613C6200F08F
:108F800081FA00F0E6FA002819D0FFF7ADFDB64DE2
:108F90001035A8783A2813D0B9A12846FFF77AF8F7
:108FA0000028F1D0B7A12846FFF774F800286ED04A
:108FB0000A20FFF7F9FD0A21B3A0FFF7C7FD2BE256
:108FC00000F05CFA287846280CD006DC42287CD0D9
:108FD00043287BD044280FD17FE14C2877D05328F9
:108FE000F9D1BBE1002000F058FA6878482804D095
:108FF000572855D053286BD0CBE10420B862E878CD
:109000008BF8010028798BF80000BBF800005E4661
:10901000F862FFF748F9B846FB6A21E072B644628D
:10902000C0F804A062B6491C81626A5C3AB37470ED
:1090300032703188426A9142FCD872B64462446010
:1090400062B64021874A10321160816A491C8162F0
:109050006A5CEAB1747032703188426A9142FCD81D
:10906000D8F8281040469942D8D3FFF715F90421C3
:1090700088A0FFF76BFD012000F00FFA89E1891C41
:109080006A5C7270491C8162695C3170D1E783E16E
:10909000891C6A5C7270491C8162695C3170DBE713
:1090A0003C63FFF700F941E072B6746262B6FFF705
:1090B00043FE0420B062706A1C28FCD372B674624E
:1090C00062B6FFF71BFEE97803E053E13CE033E1D1
:1090D00037E08BF8011029798BF80010BBF80000FD
:1090E000F0624FF44A70716A8142FCD317E072B6A5
:1090F000746262B6FFF720FEB06A401CB062285C62
:10910000716A8842FCD872B6746262B6FFF7F6FDE7
:10911000B06A401CB062285C716A8842FCD8D6E90B
:109120000A018842E3D3306B401C3063386B3E4603
:109130000628B9D3FFF7B0F8FFF7E0FD042157A0E8
:1091400009E1042157A006E1042158A0FFF7FEFC25
:109150000520C7E90A04FFF7A6F84FF43D79B5E00A
:1091600072B6C7F824A062B620213046FFF7F0F8A7
:109170000028F9D0786A052867D9786AABF800002A
:1091800072B6C7F824A062B69BF8011039B1B86A6C
:109190002C54401C2C54401C2954401CB862B86A02
:1091A0009BF800102954401CB86222E0796A41F211
:1091B000707081421DD9B96A6C54491CABF800101B
:1091C0009BF80120EA709BF8000028713C2068544D
:1091D000491C6854491C4320B962287048206870B3
:1091E0003A20A87020481030FFF7B0FCC7F828904C
:1091F00070E020213046FFF7ABF80128D6D0B86ADE
:10920000484567D2796AABF800109BF8011031B17C
:109210002C54401C2C54401C2954401CB8629BF810
:1092200000102954401CC7E90A044FE0796A4CF247
:109230005030814244D972B67C6262B6F86A401CF2
:10924000F8621E283CD9042134E039E000100140C6
:10925000698C00080030002041542B574D4F444585
:109260000D0A00000008014050300020444D3A0033
:109270003C3C000041542B4E4D41430D0A00000080
:109280002B6F00004150000041542B57414B455972
:109290000D0A000046483C3C0000000046573C3C9C
:1092A0000000000046533C3C0000000043413C3CB1
:1092B000000000005CA0C7F82890FFF747FC05E01D
:1092C00020213046FFF744F80128AFD0B86A48455E
:1092D000FFF446AFFEF7E0FF5BE0FFF713F9FFF79F
:1092E00047F95348FFF78CF9FFF732F9C820FFF729
:1092F0005BFC04214FA0FFF729FC6878532816D0A7
:10930000542846D14FF448714C48FEF71AFF4420C8
:10931000287054206870FFF726F8C0B2A87055284E
:10932000F9D03C20E87028710521444813E0C7E9D2
:10933000024A042142A00EE06878422802D0442864
:1093400005D026E000F0E2F804213FA003E000F0A1
:10935000E2F804213EA0FFF7F9FB1AE068785828EC
:1093600017D10E213CA000F0B3F800F087F800F010
:10937000EBF80EE0FFF7C6F8FFF7FAF82C48FFF716
:109380003FF9FFF7E5F8C820FFF70EFC042129A0FC
:10939000E1E700F077F83FE033A12848FEF77AFED6
:1093A00050B1C7F818A0FC6000F06CF8FFF722FD80
:1093B00090BBFC60BC602FE02DA12048FEF76AFE48
:1093C00020B31E4810211038FEF7BBFE29A11B4810
:1093D000FEF760FE0146194810221038FEF76CFEB9
:1093E000FFF708FD80B93C610321AFF28010BC603B
:1093F000FFF7ACFB114810211038FFF7A7FB022143
:10940000AFF29410FFF7A2FB7C61C2E7FFF7F2FC1A
:1094100010B9FC60BC60BC6108484FF448718470AE
:10942000FEF78FFE3EE5000043433C3C0000000099
:109430003430002042463C3C0000000060300020F8
:1094400044533C3C000000004C423C3C0000000007
:109450004C443C3C00000000656E7465725F7570A2
:10946000675F6D6F646500004F50454E000000005F
:109470004D4143002B6F6B3D000000000021012097
:10948000FFF704B801210846FFF700B810B5FFF751
:1094900027FABDE81040FFF7F7B908B1FFF724BC81
:1094A000FFF718BC2D49096851F820000199019077
:1094B00001BD03B44FF00000DFF8A4F003B44FF097
:1094C0000100DFF89CF003B44FF00200DFF890F0E9
:1094D00003B44FF00300DFF888F003B44FF004004A
:1094E000DFF87CF003B44FF00500DFF874F003B44C
:1094F0004FF00600DFF868F003B44FF00700DFF824
:1095000060F003B44FF00800DFF854F003B44FF0FC
:109510000900DFF84CF003B44FF00A00DFF840F028
:1095200003B44FF00B00DFF838F003B44FF00C0039
:10953000DFF82CF003B44FF00D00DFF824F003B493
:109540004FF00E00DFF818F003B44FF00F00DFF813
:1095500010F003B44FF01000DFF804F04C3000209E
:10956000A594000802494FF0000000F097B800BF32
:109570000000F87F4FEA41034FEA5353A3F580639D
:10958000D3F11E03C8BFD3F1210C0CDD4FF0004214
:1095900042EAC12242EA505232FA03FC8CEAE17CF0
:1095A000ACEBE1707047102BC4BF0020704703F58F
:1095B000787CBCF1FF3F04D06FF0004282EA2100CA
:1095C000704770B500F01CF8499224800020704765
:1095D000F2E710F0004248BF4042B0FA80F310FAC0
:1095E00003F10AD0C3F11D0303F580634FEA415034
:1095F00002EB035202EBD12170474FF0000070479D
:109600000EF1020E2EF0030E5EF8046B364205D406
:10961000012A43EB030515F5001F12D8012841EB81
:10962000010C1CF5001F0CD80ED14FEAD17C15F5AA
:10963000001F0CEB4C0C0CF1020C08BF4CEBD37C64
:1096400004E04FF0080C01E04FEAD37C0CEB4C0532
:1096500026FA05F606F00706B6F1040C06D20EEB64
:10966000860CBDE870404CF0010C6047DFE80CF060
:10967000090B02024FF000414FF00000A1F500215C
:1096800070BD19461046012851EB010418BFD4F5EE
:10969000001484BF002001F0004170BD0CF00F03E6
:1096A000092B08BF082000F059800A2B0BD0082B8B
:1096B00018BF704708BF1CF0400F0AD04FF00000E1
:1096C0004FF0000170471CF0400F18BF4FF00040F2
:1096D00070471CF0100F08D020F0704300F07F425C
:1096E00042EAD3014FEA4370704700F0604021F036
:1096F0007F4242EA000201F07F4040EA7270704708
:109700004FF0FF0C4CF4E06C1CEA11531CBF9CEAB8
:10971000030C9445C2BFDA4201EB02517047002BA3
:109720000DD0BCF1000F0FD0002A01F00041A4BF02
:1097300041F0E04141F07F614FF00000704701F0DF
:1097400000414FF00000704750EA01334FF09B0C8E
:1097500018BF4CF0806C7FF405AF70471CF4801F7D
:1097600011D01CF4E02F03D06FEACC3149007047D0
:109770004FF04050EFF3008222F0704242EA0002C4
:1097800082F3008870474FF0000070474E07C00812
:1097900000096C0780080009D90700080009E407E0
:1097A000C008000968032B04340315041A030B04D2
:1097B0000D0305040002020541065219002C052D77
:1097C000902EAA2F2D30D43100371538953C8818AB
:1097D0001B58306F04019F1144251013555A705CBB
:1097E000100104250F135D5A7C5C0C010000000081
:1097F0000000000000000000010000000000000068
:109800000000000000000000000000000000000058
:109810000000000000000000000000000000000048
:109820004142434445464748496D0000000000005E
:0C9830000000000001000000000000002B
:04000005080080016E
:00000001FF
