:020000040800F2
:1080000030E0FEE754413031008000084D332073EA
:10801000797820617070000000000000003230317B
:10802000332E31322E313000000000004DF804EDC7
:10803000134800F1030020F003001249124B88425C
:1080400006D099423CBF50F8042B41F8042BF8D3DA
:108050000E494FF000028B4238BF43F8042BFAD38D
:108060005DF804FB4DF804ED4DF8040DFFF7DEFF5D
:108070005DF8040B0649086000F0A4FC5DF804FB01
:108080006C8B0008003000204C300020863300202C
:10809000483000204FF0E020016921F0010101612A
:1080A0007047F0B5CC78002204F00F03E40601D548
:1080B0008C7823430C884FF00F0C14F0FF0F4FF017
:1080C000010E1AD005680E880EFA02F42640A64268
:1080D0000FD196000CFA06F7BD4303FA06F63543B6
:1080E000CE78282E02D0482E02D002E0446100E073
:1080F0000461521C082AE6D305600A88FF2A1DD9AC
:108100004568002202F108060EFA06F40E882640A1
:10811000A6420FD196000CFA06F725EA070703FAE4
:1081200006F5CE783D43282E00D14461CE78482E06
:1081300000D10461521C082AE4D34560F0BD024618
:10814000002092680A4200D00120704741617047C8
:108150000161704710B500F091FB134C02212046DD
:10816000FFF7F6FF012000F080FB02212046FFF719
:10817000EDFF332000F079FB02212046FFF7E8FFF6
:10818000032000F072FB02212046FFF7D8FF10B158
:10819000032000F06AFB332000F067FB2046BDE8B7
:1081A00010400221FFF7D4BF0008014070B50F2432
:1081B000C278017801254FF0E026DAB1124A126840
:1081C00002F4E062C2F5E062120AC2F10403D44094
:1081D00042789A408378234013431A010B4BCA54C8
:1081E000007800F01F018D40400906EB8000C0F8C8
:1081F000005170BD01F01F008540480906EB80006A
:10820000C0F8805170BD00000CED00E000E400E01B
:108210000249084302490860704700000000FA055F
:108220000CED00E0044A0029D16901D0014300E0CF
:108230008143D1617047000000100240044A0029C8
:10824000116901D0014300E08143116170470000D2
:1082500000100240044A0029916901D0014300E066
:10826000814391617047000000100240044A0029D8
:10827000D16801D0014300E08143D1607047000024
:108280000010024010B54FF48271002000F02CF96C
:10829000BDE810404FF48871002000F025B90000BF
:1082A00070B5124D002405EB4400C188002000F099
:1082B0001BF9641CE4B2032CF5D30C4D00241835D3
:1082C000002035F8141000F00FF9641CE4B2022C01
:1082D000F6D3064D00242835002035F8141000F0A0
:1082E00003F9641CE4B2112CF6D370BD0C8B0008AA
:1082F00070B5FFF7D5FF064D0024002035F81410A7
:1083000000F0F2F8641CE4B2062CF6D370BD000055
:10831000568B000870B50546002400F021F80028AF
:1083200012D00D494FF47A70D1F808216AB10221B8
:108330000AA000F0A1FB00210A232A46084600F00B
:108340002BF8FFF79FFF012070BD641CA4B284428C
:10835000EAD3002070BD00000080214231320000CD
:1083600070B500242721204600F07AF803254FF449
:10837000FA76B5EB901F03D1FF2801D0012070BD24
:10838000641CA4B2B44201D3002070BD2721002098
:1083900000F066F8EDE700002DE9F04107460C46D5
:1083A00090461E46012B25D9134D0020C5F8B40177
:1083B0004FB1C5F8840100F03FFA2146384600F07D
:1083C0001DF8002409E0C5F8B001F4E7384600F0D4
:1083D0005DF808F80400641CE4B2B442F6D301204E
:1083E0002FB1C5F88401BDE8F04100F025BAC5F809
:1083F000B001F8E7BDE8F081008021422DE9F041AD
:10840000164E0D46002780B1C6F88471C6F8B471C7
:1084100000F012FA0824B84601274046C6F8B48195
:10842000290605D5C6F8BC7104E0C6F8B071EDE7C1
:10843000C6F8BC0100F000FAC6F8B4716806050E73
:1084400000F0FAF9641E14F0FF04E6D1C6F8B48116
:10845000C6F8BC71BDE8F04100F0EEB900802142E1
:1084600070B50546FFF7CAFF284600F00FF804462E
:10847000054801212DB1C0F8841100F0DDF9204636
:1084800070BDC0F8B011F8E7008021422DE9F0413D
:108490000024144E274610B3C6F884714FF001082B
:1084A000C6F8BC8100F0C8F90825C6F8B47100F020
:1084B000C3F96006040EC6F8B48100F0BDF9D6F821
:1084C000380108B144F001046D1E15F0FF05ECD130
:1084D000C6F8B47100F0B0F92046BDE8F081C6F8E6
:1084E000B071DBE7008021422DE9F0471D4E4FF0CF
:1084F00000075FEA00090C46C6F8B47110D0C6F850
:10850000847100F099F944F400451024B84601271D
:108510004046C6F8B481290405D5C6F8BC7104E00C
:10852000C6F8B071EDE7C6F8BC0100F085F9C6F8F1
:10853000B4716804050C00F07FF9641E14F0FF04A8
:10854000E6D1C6F8B481C6F8BC71B9F1000F05D008
:10855000C6F88471BDE8F04700F06EB9C6F8B07196
:10856000F8E7000000802142F8B505460121082007
:10857000FFF770FE4FF42040ADF8000003208DF8A7
:108580000200104E10248DF8034069463046FFF774
:1085900088FD44F20400ADF8000004208DF80300CB
:1085A00069463046FFF77DFD4DB10220ADF8000071
:1085B0008DF8034069463046FFF773FDF8BD4FF470
:1085C0008050F3E7000C01403EB501210846FFF75B
:1085D00029FE4FF08044204600F09CF841F288319B
:1085E000ADF804103F21ADF800100021ADF80210E5
:1085F0006946204600F0FAF80121204600F07CF898
:1086000001221146204600F0E9F80121204600F041
:1086100076F802491C2000F020FA3EBD4D86000885
:1086200008B54FF4E060FFF7F3FD1C208DF8000063
:1086300000208DF8010003208DF8020001208DF844
:1086400003006846FFF7B2FD08BD000070B54FF0AB
:1086500080414FF6FE700882214D224A012428688D
:1086600058B1401C2860322806D11078C0431070E1
:10867000107800F0E6F92C6070BD1B4B00251968DE
:10868000491C19605088401C80B25080B1F5C87FE9
:1086900002D116490C601D60C828EDD10024558018
:1086A0001348FFF737FE012815D1114D2878697856
:1086B0008842E1D07E2000F0B7F87F2000F0B4F8C7
:1086C000285D00F0B1F8641CE4B20A2CF8D3022152
:1086D00008A000F0AFF8BDE87040FFF709BE000049
:1086E00018300020403000201430002010300020CE
:1086F0007C3300203C3C0000C943018270470029C4
:10870000018802D041F0010102E040F2FE32114046
:10871000018070472A4910B5884202D10121C41452
:1087200043E0B0F1804F09D0264988420DD10121A4
:108730000220FFF783FD002102202DE001210846E1
:10874000FFF77CFD0021012026E01F49884206D169
:1087500001210420FFF772FD002104201CE01B49C9
:10876000884206D101210820FFF768FD002108207A
:1087700012E01749884206D101211020FFF75EFD63
:108780000021102008E01349884209D1012120204E
:10879000FFF754FD00212020BDE81040FFF74EBD3B
:1087A0000D4988420AD1012144142046FFF75EFD9D
:1087B0002046BDE810400021FFF758BD10BD000065
:1087C000002C01400004004000080040000C004064
:1087D000001000400014004000340140002A82894B
:1087E00001D00A4300E08A4382817047028802F088
:1087F0008F020280CA884B881A4303881A4302807A
:108800008A8882850A880285054A904202D0054AF4
:10881000904201D1097A01860121818270470000CE
:10882000002C01400034014001B50121684600F0F0
:1088300023F908BD00F020B9032000BF00BF00BF2E
:1088400000BF00BF00BF00BF401EF8D2704709E064
:10885000032100BF00BF00BF00BF00BF00BF00BFBB
:10886000491EF8D2401EF3D2704700B5034602E01D
:108870000B20FFF7ECFF5B1EFAD200BD08B501210B
:108880000420FFF7E7FC10208DF8030003208DF88B
:1088900002000220ADF8000069460248FFF701FC23
:1088A00008BD000000080140F8B501210420FFF7D1
:1088B000D1FC4025ADF8005003248DF80240102073
:1088C0000B4E8DF8030069463046FFF7EAFB084877
:1088D000103005602020ADF800008DF80240042023
:1088E0008DF8030069463046FFF7DBFBF8BD00005A
:1088F000000801400A480168491C016009480068F5
:1089000000280CD00848426840211AB10022426079
:10891000064803E0012242600448001D01607047E0
:108920002430002004300020403000201008014096
:1089300008B501210820FFF78DFC8020ADF800006C
:1089400003208DF8020010208DF8030069460348CB
:10895000FFF7A7FB00F004F808BD0000000C014081
:1089600010B580210248FFF7F1FB002010BD000088
:10897000000C014010B580210248FFF7E9FB0120FF
:1089800010BD0000000C014008210148FFF7DEBBCC
:10899000000C014008B501210820FFF75BFC08200E
:1089A000ADF8000003208DF8020010208DF80300C0
:1089B00069460348FFF775FBFFF7E6FF08BD0000B7
:1089C000000C01401848016821F470210160016821
:1089D00041F440310160FFF7ABFFFFF7DBFFFFF72A
:1089E00063FFFFF7D1FF012000F02BF800F067F8DC
:1089F000FFF7B0FB00F01EF800210C4800F064F80F
:108A0000FFF748FB0020FFF7AFFDFFF749FCFFF73A
:108A10006FFC0748FFF77EFC0028FAD001210448CC
:108A2000FFF708FFF5E7000000100140F588000897
:108A30007C33002010B5FFF7F3FDBDE81040FFF7D1
:108A4000C3BD08B1FFF796BFFFF78ABF2D4909687C
:108A500051F820000199019001BD03B44FF00000CE
:108A6000DFF8A4F003B44FF00100DFF89CF003B48A
:108A70004FF00200DFF890F003B44FF00300DFF88E
:108A800088F003B44FF00400DFF87CF003B44FF03B
:108A90000500DFF874F003B44FF00600DFF868F06B
:108AA00003B44FF00700DFF860F003B44FF00800A4
:108AB000DFF854F003B44FF00900DFF84CF003B4D2
:108AC0004FF00A00DFF840F003B44FF00B00DFF87E
:108AD00038F003B44FF00C00DFF82CF003B44FF083
:108AE0000D00DFF824F003B44FF00E00DFF818F0AB
:108AF00003B44FF00F00DFF810F003B44FF0100094
:108B0000DFF804F0483000204D8A00084E07C00806
:108B100000096C074F08F809D90700080009E407A5
:108B2000C008000968032B04340315041A030B045E
:108B30000D0305040002020541065219002C052D03
:108B4000902EAA2F2D30D43100371538953C881837
:108B50001B58306F04019F1144251013555A705C47
:108B6000100104250F135D5A7C5C0C01000000000D
:108B700000000000000000000100000000000000F4
:108B800000000000000000000000000000000000E5
:108B900000000000000000000000000000000000D5
:108BA0004142434445464748496D000000000000EB
:088BB0000100000000000000BC
:04000005080080016E
:00000001FF
