:020000040800F2
:1080000030E0FEE754413031008000084D332073EA
:10801000797820617070000000000000003230317B
:10802000332E31322E313000000000004DF804EDC7
:10803000134800F1030020F003001249124B88425C
:1080400006D099423CBF50F8042B41F8042BF8D3DA
:108050000E494FF000028B4238BF43F8042BFAD38D
:108060005DF804FB4DF804ED4DF8040DFFF7DEFF5D
:108070005DF8040B0649086001F02CF85DF804FB7C
:1080800092950008003000206C30002090330020D2
:1080900068300020D2B201E000F8012B491EFBD26B
:1080A00070470022F6E710B504460846114602461E
:1080B0002046FFF7EFFF204610BD30B50B460146C6
:1080C00000202022012409E021FA02F59D4205D377
:1080D00003FA02F5491B04FA02F52844151EA2F121
:1080E0000102F1DC30BD000010B5074C60600846AD
:1080F00000F00EF860680028FCD1BDE810400021B7
:10810000024800F01CBD00002830002000040040A0
:108110003EB51A4D04460021284600F010FD00220D
:108120000121284600F086FD022C02D0012C02D04D
:1081300005E0012001E040F2E730ADF804003F2007
:10814000ADF800000020ADF80600ADF80200694669
:10815000284600F077FD0121284600F0EDFC0121C2
:10816000284600F0DBFC01221146284600F062FDA3
:108170000121284600F0E3FC3EBD00000004004061
:108180000121FFF7B1BF0221FFF7AEBF4FF0E020A2
:10819000016921F00101016170474FF0E0200169A0
:1081A00041F0010101617047F0B5CC78002204F084
:1081B0000F03E40601D58C7823430C884FF00F0C95
:1081C00014F0FF0F4FF0010E1AD005680E880EFA5A
:1081D00002F42640A6420FD196000CFA06F7BD43E2
:1081E00003FA06F63543CE78282E02D0482E02D068
:1081F00002E0446100E00461521C082AE6D30560F5
:108200000A88FF2A1DD94568002202F108060EFAE5
:1082100006F40E882640A6420FD196000CFA06F707
:1082200025EA070703FA06F5CE783D43282E00D14C
:108230004461CE78482E00D10461521C082AE4D350
:108240004560F0BD0246002092680A4200D001203D
:108250007047416170470161704700000148007834
:10826000704700004230002072B60349488800225F
:108270004A8062B6704700004230002010B572B6E6
:10828000002107480160A0F58071416081604FF4D2
:108290008071A0F58070FFF704FF62B610BD00008A
:1082A0008433002030B50446012187B0880300F0F4
:1082B000F5F84FF40071ADF8101018218DF8131077
:1082C0000320244D8DF8120004A92846FFF76CFF07
:1082D0002815ADF8100004208DF8130004A92846D5
:1082E000FFF762FF1C4951F8240000900020ADF810
:1082F0000400ADF80600ADF80800ADF80C000C2045
:10830000164CADF80A006946204600F025FD012113
:10831000204600F0D9FC25218DF8141002218DF89B
:10832000161001218DF8171005A800F063F801223E
:1083300040F22551204600F0F7FC4021204600F095
:10834000CDFC0028F9D00649252000F02EFF07B00B
:1083500030BD000000080140B8920008003801401C
:10836000818C000810B5FFF789FFBDE8104001209F
:10837000FFF798BF10B500F027FE134C02212046EE
:10838000FFF769FF012000F007FE02212046FFF7FA
:1083900060FF332000F000FE02212046FFF75BFF64
:1083A000032000F0F9FD02212046FFF74BFF10B13A
:1083B000032000F0F1FD332000F0EEFD2046BDE883
:1083C00010400221FFF747BF00080140410607485F
:1083D000826942F0010282610548426822F0E0624F
:1083E000426042680A434260704700000010024049
:1083F0000000014070B50F24C278017801254FF0CC
:10840000E026DAB1124A126802F4E062C2F5E062D4
:10841000120AC2F10403D44042789A408378234080
:1084200013431A010B4BCA54007800F01F018D4012
:10843000400906EB8000C0F8005170BD01F01F003C
:108440008540480906EB8000C0F8805170BD0000EF
:108450000CED00E000E400E0024908430249086036
:10846000704700000000FA050CED00E0044A002906
:10847000D16901D0014300E08143D1617047000020
:1084800000100240044A0029116901D0014300E0B4
:10849000814311617047000000100240044A002926
:1084A000916901D0014300E0814391617047000070
:1084B00000100240044A0029D16801D0014300E0C5
:1084C0008143D1607047000000100240214A10B57E
:1084D0005168214B11F00C0103D0042901D0082967
:1084E00001D0036012E05168536801F470114FF03D
:1084F000020413F4803F04EB914102D053689B03C4
:1085000001D5164B00E0144B594301605168144BE0
:1085100001F0F00109095C5C0168E14041605468C8
:1085200004F4E064240A1C5D21FA04F484605468B5
:1085300004F46054E40A1B5DD940C1605268084BE2
:1085400002F44042920B1B1F9A5CB1FBF2F10161F5
:1085500010BD00000010024000127A0000093D002A
:108560005430002008B501210820FFF797FF4FF491
:108570000060ADF8000004208DF803006946024851
:10858000FFF712FE08BD0000000C014010B5044CBE
:108590000123237000F046F80021217010BD000077
:1085A0004230002070B5144D002405EB4400C18812
:1085B000002000F095F9641CE4B2032CF5D30E4DB5
:1085C0000024183505EB44008188002000F088F96C
:1085D000641CE4B2022CF5D3074D0024283500209A
:1085E00035F8141000F07CF9641CE4B20E2CF6D3BC
:1085F00002490020087070BD5C92000840300020E5
:1086000070B5FFF7CFFF064D0024002035F8141099
:1086100000F066F9641CE4B2062CF6D370BD0000CD
:10862000A09200082DE9F74F9A4F4FF0000982B051
:1086300087F801908B464C46A7F80490FFF7ADFDF4
:1086400072B67C8062B641F6380502E07888A842AE
:108650000AD858460499FFF7F5FD0028F6D0FFF731
:1086600003FE1038222803D306E17888C828FBD8F7
:1086700058460499FFF7E6FD0028F6D1FFF7F4FD10
:10868000044602E07888A842EED858460499FFF7DD
:10869000D9FD0028F6D0FFF7E7FD142C0BD904EB29
:1086A0004401B0EBC10F06D904EB440101EB041106
:1086B000B0EB410FD8D3A4F179012729D4D21E28D9
:1086C000D2D93228D0D200EB800204EB840172A010
:1086D00000F0AAFB77A000F0A7FBDFF8B881002428
:1086E0004FF47A7A012608F106080925787838B11E
:1086F000FFF7BAFD58460499FFF7A4FDC8BB82E016
:10870000FFF7B2FD58460499FFF79CFD58B931E0D8
:108710007888742807D90095B888234600EB800232
:1087200079786C4813E058460499FFF78BFD0028D0
:10873000EED1FFF799FDB880801E2D2826D3009535
:10874000B888234600EB800262487978583000F000
:108750006BFB5046FFF714FD8EE07888742809D92A
:108760000095B888234600EB80025A487978B030EB
:10877000EDE721E058460499FFF764FD0028ECD0AE
:10878000FFF772FDB880801E2D2801D27E7069E04F
:108790000095B888234600EB800279784E48D6E7EA
:1087A0007888742808D90095B888234600EB8002A1
:1087B000494879785830CAE758460499FFF742FD8E
:1087C0000028EDD1FFF750FD811EB8802D2907D27A
:1087D00087F8019038F8140006FA04F2904333E069
:1087E0003338412806D27E7038F8141006FA04F0A7
:1087F000014035E00095B888234600EB80023648FA
:108800007978B030A3E7FFF72FFD0AE07888742865
:1088100007D30095B888234600EB800279782F486B
:1088200095E758460499FFF70DFD0028EED0FFF7B5
:108830001BFD811EB8802D2909D287F8019038F8D8
:10884000140006FA04F2104328F814000AE0333842
:10885000412815D27E7038F8141006FA04F001434E
:1088600028F814106D1E15F0FF057FF43FAF641C4F
:10887000E4B2042CFFF439AF05B00020BDE8F08F5E
:108880000095B888234600EB800214487978583068
:108890005DE70000423000206E6172726F77203D0C
:1088A0002025642C2077696465203D2025640D0A0D
:1088B000000000002A2A737461727420616E796C62
:1088C00079736973206F727669626F2A2A0D0A0DB7
:1088D0000A000000D0920008D8930008E494000831
:1088E0002DE9F0471F4E4FF000075FEA00090C46E4
:1088F000C6F8B47111D0C6F884710520FFF743FCA7
:1089000044F400451024B84601274046C6F8B48117
:10891000290405D5C6F8BC7104E0C6F8B071ECE7CF
:10892000C6F8BC010520FFF72EFCC6F8B471680438
:10893000050C0520FFF727FC641E14F0FF04E4D1AA
:10894000C6F8B481C6F8BC71B9F1000F06D0C6F8FC
:108950008471BDE8F0470520FFF715BCC6F8B0717B
:10896000F7E7000000802142F8B501210820FFF759
:1089700095FD4FF42040ADF8000003208DF8020073
:10898000144F10248DF8034069463846FFF70CFC5D
:10899000A002ADF8000004208DF8030069463846B7
:1089A000FFF702FC2002ADF800008DF80340694695
:1089B0003846FFF7F9FB084E0125F5624FF002003B
:1089C000ADF800008DF8034069463846FFF7ECFB30
:1089D0003560F8BD000C0140848121423EB5012183
:1089E0000846FFF743FD4FF08044204600F0B2F800
:1089F00041F28831ADF804103F21ADF8001000219C
:108A0000ADF802106946204600F01CF9012120460D
:108A100000F08FF801221146204600F00BF90121E9
:108A2000204600F08CF802491C2000F0BEFB3EBD41
:108A3000998A000808B54FF4E060FFF70DFD1C208F
:108A40008DF8000000208DF8010003208DF8020051
:108A500001208DF803006846FFF7CCFC08BD00003C
:108A600008B54FF4C060FFF7F7FC1D208DF800003B
:108A700000208DF8010004208DF8020001208DF8FF
:108A800003006846FFF7B6FC02491D2000F08DFB8D
:108A900008BD0000ED8D000810B54FF080414FF685
:108AA000FE7008821A4A1B495088401C80B25080D0
:108AB000097807290ED01849097859B9C821B0FB9F
:108AC000F1F301FB130028B91078C043C0B2107055
:108AD00000F05FFB0E480830017811B14188491C55
:108AE00041800B480C30017811B14188491C41800C
:108AF00007481030017811B14188491C4180044871
:108B000014300178002902D04188491C418010BDF1
:108B10002830002025300020243000200029018842
:108B200002D041F0800102E040F27F32114001802A
:108B30007047C94301827047C943018270470029C9
:108B4000018802D041F0010102E040F2FE32114002
:108B5000018070472A4910B5884202D10121C4140E
:108B600043E0B0F1804F09D0264988420DD1012160
:108B70000220FFF787FC002102202DE0012108469A
:108B8000FFF780FC0021012026E01F49884206D122
:108B900001210420FFF776FC002104201CE01B4982
:108BA000884206D101210820FFF76CFC0021082033
:108BB00012E01749884206D101211020FFF762FC1C
:108BC0000021102008E01349884209D1012120200A
:108BD000FFF758FC00212020BDE81040FFF752BCF1
:108BE0000D4988420AD1012144142046FFF762FC56
:108BF0002046BDE810400021FFF75CBC10BD00001E
:108C0000002C01400004004000080040000C00401F
:108C100000100040001400400034014002460020D3
:108C2000138A92890B4202EA010202D0002A00D084
:108C300001207047002A828901D00A4300E08A435C
:108C400082817047028802F08F020280CA884B88B6
:108C50001A4303881A4302808A8882850A8802851B
:108C6000054A904202D0054A904201D1097A018614
:108C70000121818270470000002C01400034014036
:108C800010B572B640F225510D4800F02EF8A0B193
:108C90000C490868FF2810D84A680846824202D367
:108CA000A0F5807048600648001D0288486800F8FA
:108CB000012B48600868401C086062B610BD0000C7
:108CC00000380140843300200029818902D041F41A
:108CD000005101E021F400518181704702460020DB
:108CE00012880A4200D00120704770B501F01F06BB
:108CF00001250024C1F3421305FA06F2012B0FD01F
:108D0000022B0FD0838A4FEA11210088134205FA03
:108D100001F500EA050001D000B10124204670BD34
:108D20008389F0E7038AEEE710B5C1F3421301F03F
:108D30001F040121A140012B07D0022B07D01430C2
:108D4000002A026805D00A4304E00C30F8E710302E
:108D5000F6E78A43026010BD30B50446008A85B04C
:108D60000D464CF6FF710840E98801432182A18934
:108D70004EF6F3100140A8882A8910436A890A43F5
:108D80001043A081A08A4FF6FF410840A989014302
:108D9000A1826846FFF79AFB1148844201D10398EB
:108DA00000E00298642200EBC00101EB001029688A
:108DB0006FF018058900B0FBF1F0B0FBF2F109018A
:108DC0000B096B4300EB8300322303EB0010B0FB75
:108DD000F2F000F00F000843208105B030BD000024
:108DE00000380140C1F308018180704710B50C4C78
:108DF00001212046FFF712FF002809D0012120465B
:108E0000FFF79AFE07494A681AB14868401E486051
:108E100010BD2046BDE810400021FFF790BE0000C5
:108E200000040040283000200FB4054B10B503A902
:108E3000044A029800F008F810BC5DF814FB00002A
:108E4000F58F0008643000202DE9FF4F89B00446FB
:108E50009B46002596E0252833D10027641C4D4A07
:108E6000B84601212378203B01FA03F0104202D0DA
:108E70000743641CF6E720782E2819D114F8010F57
:108E800047F004072A280ED06FF02F022078A0F1B7
:108E9000300109290CD808EB880102EB410100EBF5
:108EA0000108641CF2E70A98641C50F8048B0A90CD
:108EB000207800286AD0642808D0692806D0752850
:108EC0001FD05A460B9990476D1C5AE00A994FF0F3
:108ED0000A0901C90A91002804DAC0F100004FF024
:108EE0002D0102E0390504D52B218DF82010012138
:108EF00004E0F90701D02021F7E700218A4608AEF7
:108F00000CE00A994FF00A0901C90A91F5E74946B0
:108F1000FFF7D3F801F1300106F8011D0028F6D162
:108F2000ADEB060000F12009780701D44FF00108ED
:108F3000C84502DDA8EB090000E0002080460027BC
:108F400006E008A85A46C05D0B9990476D1C7F1C2F
:108F50005745F6DB04E030205A460B9990476D1CCC
:108F6000B8F10001A8F10108F5DC05E016F8010BE5
:108F70005A460B9990476D1CB9F10001A9F10109FE
:108F8000F4DC641C207800287FF465AF0DB028461F
:108F9000BDE8F08F0928010000B5034602E00B2070
:108FA00000F003F85B1EFAD200BD09E0032100BF08
:108FB00000BF00BF00BF00BF00BF00BF491EF8D206
:108FC000401EF3D27047000008B501210420FFF7CE
:108FD00065FA10208DF8030003208DF802000220AE
:108FE000ADF8000069460248FFF7DEF808BD000052
:108FF0000008014070B5074D0446C1B22846FFF78E
:10900000F1FE40212846FFF769FE0028F9D02046EE
:1090100070BD00000044004010B5FFF71FF90028A4
:1090200003D002480188491C018010BD4430002053
:1090300008B501210820FFF731FA8020ADF80000C3
:1090400003208DF8020010208DF8030069460348C4
:10905000FFF7AAF800F004F808BD0000000C01407A
:1090600010B580210248FFF7F4F8002010BD000081
:10907000000C014010B580210248FFF7ECF80120F8
:1090800010BD0000000C014008B501210820FFF7C9
:1090900005FA01210420FFF701FA4020ADF8000095
:1090A00003208DF8020010208DF803006946074860
:1090B000FFF77AF80820ADF8000004208DF80300CF
:1090C00069460348FFF770F808BD0000000801403A
:1090D000000C01400120FFF779F91E48016821F4D6
:1090E00070210160016841F440310160FFF7A0FF89
:1090F000012000F04EF800F08AF8FFF7C5FFFFF7F7
:1091000039F900F03FF8FFF7ABFC0021124800F0FE
:1091100083F8FFF73BF80020FFF726FCFFF722FA61
:10912000FFF720F900F02AF80CA0FFF77DFEFFF70B
:1091300034F8FFF765FA0E4F0E4D4FF40066002429
:10914000324639460C48FFF721FA0028F8D0EC7077
:10915000F6E7000000100140199000087561727474
:1091600020697320776F726B696E670D0A000000CB
:10917000000C0140003000206C3000200121084626
:10918000FFF774B910B5FFF755FCBDE81040FFF7C5
:1091900025BC08B1FFF76EBFFFF762BF2D49096814
:1091A00051F820000199019001BD03B44FF0000077
:1091B000DFF8A4F003B44FF00100DFF89CF003B433
:1091C0004FF00200DFF890F003B44FF00300DFF837
:1091D00088F003B44FF00400DFF87CF003B44FF0E4
:1091E0000500DFF874F003B44FF00600DFF868F014
:1091F00003B44FF00700DFF860F003B44FF008004D
:10920000DFF854F003B44FF00900DFF84CF003B47A
:109210004FF00A00DFF840F003B44FF00B00DFF826
:1092200038F003B44FF00C00DFF82CF003B44FF02B
:109230000D00DFF824F003B44FF00E00DFF818F053
:1092400003B44FF00F00DFF810F003B44FF010003C
:10925000DFF804F0683000209D9100084E07C00838
:1092600000096C0780080009D90700080009E40715
:10927000C008000968032B04340315041A030B0407
:109280000D03050468020F1302054106F0198B1A3D
:10929000101E401B801C061D88181B58006F0401FF
:1092A0009F1144251013555A705C100104250F13AB
:1092B0005D5A7C5C0C01000000000000802500006D
:1092C000004B00000096000000E1000000C2010019
:1092D0006572726F3A207375636F64653A20302C43
:1092E000204750494F3A20312C203E444F55424CA4
:1092F000455F482C207375636F64653D2025642CA1
:1093000020312E2074696D65636F756E74206973EA
:109310002025642C20693D2025642C206B3D2025D0
:10932000640D0A0D0A0000006572726F3A207375B1
:10933000636F64653A20302C204750494F3A203102
:109340002C206F74686572206572722C20737563AF
:109350006F64653D2025642C20312E2074696D6575
:10936000636F756E742069732025642C20693D201D
:1093700025642C206B3D2025640D0A0D0A00000099
:109380006572726F3A207375636F64653A20302C92
:10939000204750494F3A20302C203E444F55424CF4
:1093A000455F482C207375636F64653D2025642CF0
:1093B0002020302E2074696D65636F756E7420698E
:1093C000732025642C693D2025642C206B3D2025CD
:1093D000640D0A0D0A0000006572726F3A20737501
:1093E000636F64653A20302C204750494F3A203053
:1093F0002C206F74686572206572722C20737563FF
:109400006F64653D2025642C20302E2074696D65C5
:10941000636F756E742069732025642C20693D206C
:1094200025642C206B3D2025640D0A0D0A000000E8
:109430006572726F3A207375636F64653A20312CE0
:10944000204750494F3A20312C203E444F55424C42
:10945000455F482C207375636F64653D2025642C3F
:109460002020312E2074696D65636F756E742069DC
:10947000732025642C20693D2025642C206B3D2021
:1094800025640D0A0D0A00006572726F3A2073752B
:10949000636F64653A20312C204750494F3A2031A0
:1094A0002C206F74686572206572720D0A0D0A2C8B
:1094B000207375636F64653D2025642C2020312E58
:1094C0002074696D65636F756E74206973202564FF
:1094D0002C20693D2025642C206B3D2025640D0A3D
:1094E0000D0A00006572726F3A207375636F6465D0
:1094F0003A20312C204750494F3A20312C203E440D
:109500004F55424C455F482C207375636F64653D31
:109510002025642C2020302E2074696D65636F75C2
:109520006E742069732025642C693D2025642C20ED
:109530006B3D2025640D0A0D0A0000006572726FF4
:109540003A207375636F64653A20312C2047504987
:109550004F3A20302C206F74686572206572722C2F
:10956000207375636F64653D2025642C2020302EA8
:109570002074696D65636F756E742069732025644E
:109580002C693D2025642C206B3D2025640D0A0D9F
:109590000A000000000000000101020304050607A4
:1095A00008090A0B0C0D0E0F1011121314151617C3
:1095B00018191A1B1C1D1E1F0000000000000000CF
:1095C000000000000000000000000000000000009B
:1095D000000000000000000000000000000000008B
:1095E000000000000204060800000000010203045D
:1095F0000102030406070809000000000000000043
:04000005080080016E
:00000001FF
