:020000040800F2
:1080000030E0FEE754413031008000084D332073EA
:10801000797820617070000000000000003230317B
:10802000332E31322E313000000000004DF804EDC7
:10803000134800F1030020F003001249124B88425C
:1080400006D099423CBF50F8042B41F8042BF8D3DA
:108050000E494FF000028B4238BF43F8042BFAD38D
:108060005DF804FB4DF804ED4DF8040DFFF7DEFF5D
:108070005DF8040B0649086002F024F95DF804FB82
:10808000D0AA000800300020943000208435002061
:108090009030002040EA01039B0703D009E008C9A3
:1080A000121F08C0042AFAD203E011F8013B00F8BD
:1080B000013B521EF9D27047D2B201E000F8012B09
:1080C000491EFBD270470022F6E710B50446084669
:1080D000114602462046FFF7EFFF204610BD2DE96E
:1080E000FE4F81EA030421F0004504F0004423F030
:1080F00000414FF0000A009450EA050302D052EA12
:10810000010304D10020014603B0BDE8F08FC1F3A4
:108110000A53C5F30A541C44A0FB02B3C5F313056C
:1081200045F4801CC1F3130141F480180CFB0233A9
:1081300000FB083EA4F2F334810A930A41EA8C5111
:1081400043EA88530194A1FB03474FEA9C2505FBB2
:1081500003734FEA982601FB06373D05260545EADD
:108160001435BBEB06016EEB0503850E920E45EA56
:108170008C1542EA8812A5FB0206261E67EB000753
:108180000C0D44EA0334A41947EB1350C1F3130652
:108190004FF0000319464FEA033343EA165343EA0C
:1081A0000403019CE5FB0201A4F10C040294009C71
:1081B0004FEA0632CDE900A400F083F8A4E70EB53B
:1081C000C10F80EAE0700844CA07002140F233433F
:1081D0008DE80E000A460B4600F073F803B000BDB0
:1081E0000EB540F2334102910021CDE900110A465B
:1081F0000B4600F066F803B000BD70B5C1F30A523B
:1082000001F000450024C1F3130140F2FF3341F4B3
:1082100080119A4201DA002070BD40F233439A4245
:10822000A2F2334203DC524200F02EF800E090400C
:108230002C43F1D0404270BD30B5002904DB4FF033
:108240000044404264EB0101002B04DB4FF000448A
:10825000524264EB03038B4208BF824230BD0000F0
:1082600030B5002904DB4FF00044404264EB0101CB
:10827000002B04DB4FF00044524264EB03039942AD
:1082800008BF904230BD0000202A04DB203A21FACA
:1082900002F00021704721FA02F3D040C2F120021F
:1082A000914008431946704710B5002B08DA401C6E
:1082B00041F1000192185B411A4301D120F0010005
:1082C00010BD2DE9F04D92469B4611B1B1FA81F2F5
:1082D00002E0B0FA80F22032904600F044F8064600
:1082E0000F4640EA0A0041EA0B0152465B4608434A
:1082F00003D130463946BDE8F08D194652EA0100F7
:1083000015D0C8F140025046FFF7BEFF04460D46A7
:1083100050465946424600F026F8084301D0012055
:1083200000E00020044345EAE07526432F430A9805
:108330004FEAD625A0EB08000A304FEA46534FF02B
:10834000000245EA47554FEAD72402D500200146EE
:10835000D1E7010550196141DDE90845001969417E
:10836000BDE8F04DA0E7202A04DB203A00FA02F134
:10837000002070479140C2F1200320FA03F3194313
:108380009040704770B505460C460748056020468A
:1083900000F00EF800BF044800680028FBD100215F
:1083A000024801F013FC70BD48300020000400407A
:1083B0003EB504460021194801F008FC00220121C5
:1083C000164801F090FC022C03D10120ADF8040006
:1083D00005E0012C03D140F2E730ADF804003F2066
:1083E000ADF800000020ADF80600ADF802006946C7
:1083F0000A4801F085FC0121084801F0E4FB012155
:10840000064801F0D1FB01221146044801F06BFC43
:108410000121024801F0DAFB3EBD000000040040EB
:1084200010B5044601212046FFF7ACFF10BD10B582
:10843000044602212046FFF7A5FF10BD00B502202B
:1084400001F003FE00BD00B5012001F0FEFD022099
:1084500001F0FBFD022001F0F8FD00BD4FF0E0202F
:10846000006920F001004FF0E021086170474FF0F3
:10847000E020006940F001004FF0E0210861704702
:108480002DE9F041024600250026002000230024AB
:10849000002791F803C00CF00F0591F803C01CF001
:1084A000100F03D091F802C04CEA0505B1F800C0E6
:1084B0001CF0FF0F31D0146800202BE04FF0010CAE
:1084C0000CFA00F3B1F800C00CEA03069E4220D17A
:1084D00083004FF00F0C0CFA03F7BC4305FA03FCC2
:1084E0004CEA040491F803C0BCF1280F06D14FF008
:1084F000010C0CFA00FCC2F814C00AE091F803C0A9
:10850000BCF1480F05D14FF0010C0CFA00FCC2F889
:1085100010C0401C0828D1D31460B1F800C0BCF1D1
:10852000FF0F34DD546800202EE000F1080C4FF0FE
:10853000010808FA0CF3B1F800C00CEA03069E42E9
:1085400021D183004FF00F0C0CFA03F7BC4305FA5E
:1085500003FC4CEA040491F803C0BCF1280F05D1D8
:1085600000F1080C08FA0CF8C2F8148091F803C066
:10857000BCF1480F07D100F1080C4FF0010808FAD0
:108580000CF8C2F81080401C0828CED35460BDE817
:10859000F0810246002093680B4201D0012000E0E8
:1085A0000020704741617047016170470AB1016165
:1085B00000E041617047000001480078704700000A
:1085C000683000202DE9F05F4FF0000AD146C84620
:1085D00000F028FACC2001F0F3FC442001F0F0FC7C
:1085E000332001F032FD00F01DFACC2001F0E8FC50
:1085F000BE2001F0E5FC00F095FF824600F092FFFE
:108600008146C8464FEA082848EA0A0828F4784014
:10861000FFF7D5FD06460022074BFFF760FD044635
:10862000FFF7EBFD834618F4784F03D0CBF1000041
:10863000BDE8F09F5846FBE70000B03F01480068E6
:108640007047000030350020002072B603490888CA
:108650000021024A118062B6704700006A30002093
:1086600008B50121082000F03BFB0420ADF8000014
:108670008DF8030069460248FFF702FF08BD0000BD
:10868000000C014070B5064600250721012001F0CD
:1086900011F8044622462721012001F0C3F814F006
:1086A000400F0BD02023094A6121012000F06EFF0A
:1086B000FF22E221012001F0B5F80125FF22272148
:1086C000012001F0AFF8284670BD000011300020F5
:1086D00070B505460026FF222721012001F0A2F8EF
:1086E000284601F035FDFFF7BBFF00BF0A480068D0
:1086F0000028FBD14FF007014FF0010000F0DAFF36
:10870000044614F0200F00D00126FF22272101206B
:1087100001F088F8304670BD0881214238B5FF204D
:10872000009000F021F80221084800F065F91E22AF
:108730000121684600F08AF89DF8000008B901247C
:1087400000E0002400F010F8204638BD453000203D
:1087500010B50221034800F04FF900F005F80120A0
:1087600010BD00003F30002010B572B60020054952
:1087700008600548486088604FF48071FFF7A3FCEB
:1087800062B610BD303500203034002010B586B000
:1087900004460121880300F0A3FA4FF40070ADF8FD
:1087A000140018208DF8170003208DF8160005A975
:1087B0002248FFF765FE4FF48060ADF814000420F6
:1087C0008DF8170005A91D48FFF75AFE1C4850F800
:1087D000240001900020ADF80800ADF80A00ADF8C3
:1087E0000C00ADF810000C20ADF80E0001A91548E2
:1087F00001F076FB0121134801F00AFB25208DF8DA
:10880000000002208DF8020001208DF80300684668
:1088100000F04AF9012240F225510A4801F03BFBE1
:1088200000BF4021074801F0FFFA0028F9D00649AF
:10883000252002F08EF806B010BD000000080140AF
:10884000B8AA000800380140B99D00082DE9F041A0
:1088500006460C46174661480068A04237D372B6F8
:108860005E48806801195E4881421DD95B48816875
:108870005B48451A59482A4681683046FFF70AFC8A
:10888000584856498860621B0B4670199968FFF773
:1088900001FC52488068611B0844504988600846C2
:1088A0000068001B08600EE04C4822468168304694
:1088B000FFF7F0FB49488068204448498860084633
:1088C0000068001B086062B620B2BDE8F0814FF07E
:1088D000000882E00120FFF7A3FD08F101083F48EE
:1088E0000068A04236D372B63C48806801193C4803
:1088F00081421DD9394881683948451A37482A4686
:1089000081683046FFF7C6FB364834498860621BF1
:108910000B4670199968FFF7BDFB30488068611BF2
:1089200008442E49886008460068001B08600EE075
:108930002A48224681683046FFF7ACFB274880680A
:1089400020442649886008460068001B086062B61B
:1089500020B2BAE7002F40D0B8453ED372B61F48C8
:1089600080681E49096801441D48814221D31B4883
:1089700081681B48451A19482A4681683046FFF726
:1089800089FB1848154988600B461B685A1B0B4623
:1089900070199968FFF77EFB104880680F490968D5
:1089A000491B08440D498860084605680020086096
:1089B00010E00A48026881683046FFF76BFB074801
:1089C00080680649096808440449886008460568C3
:1089D0000020086062B628B277E77BE730350020D8
:1089E000303500203034002010B5FFF7BDFE0120E7
:1089F000FFF7CCFE10BD000070B504460D460CE03C
:108A00006D1E14F8011B064801F0BAFA00BF4021A0
:108A1000034801F009FA0028F9D0002DF0D170BD0B
:108A20000038014010B501F033FB02211148FFF777
:108A3000BBFD012001F009FB02210E48FFF7B2FD4A
:108A4000332001F002FB02210A48FFF7ADFD0320AD
:108A500001F0FBFA02210748FFF79BFD10B103204C
:108A600001F0F3FA332001F0F0FA02210148FFF798
:108A70009BFD10BD0008014001464906084A926965
:108A800042F00102064B9A61064A526822F0E06207
:108A9000044B5A601A4652680A435A6070470000F5
:108AA000001002400000014070B5002100230F2299
:108AB000C4780CB3164C246804F4E064C4F5E06494
:108AC000210AC1F10403CA40447804FA03F184780E
:108AD0001440214309010F4C0678A155047804F095
:108AE0001F050124AC4005786D114FF0E02606EB20
:108AF0008505C5F8004109E0047804F01F0501244C
:108B0000AC40054D0678761145F8264070BD000052
:108B10000CED00E000E400E080E100E002490143E8
:108B2000024A1160704700000000FA050CED00E0F9
:108B300070B504460D4672B600200E49088062B634
:108B4000002229462046FFF731FD00BF0948008872
:108B50002328FBDD72B600200649088062B6012298
:108B600029462046FFF722FD00BF0248008823283F
:108B7000FBDD70BD6A30002070B504460D4672B64C
:108B800000200E49088062B6012229462046FFF7E0
:108B90000DFD00BF094800882328FBDD72B60020C8
:108BA0000649088062B6002229462046FFF7FEFCEF
:108BB00000BF024800882328FBDD70BD6A3000201A
:108BC00070B504460D4672B600201649088062B69C
:108BD000002229462046FFF7E9FC00BF1148008823
:108BE0002328FBDD72B600200E49088062B6012200
:108BF00029462046FFF7DAFC00BF0A4800888C2887
:108C0000FBDD72B600200749088062B600222946C3
:108C10002046FFF7CBFC00BF024800882328FBDD7D
:108C200070BD00006A300020F0B5C1B004460025D8
:108C30000027FFF703FD002830D02DE0FFF7FEFCF2
:108C400086B226B3002701A9481905223146FFF74D
:108C5000FDFDA81985B2062D1BDB9DF80400FA283E
:108C600017D19DF80500C01C01A9085CED2810D1A2
:108C70009DF80500001D20802288A01CFFF70AFA3D
:108C8000294601A8FFF71FFA012041B0F0BD781C6A
:108C9000C7B20120FFF7C4FB0A2FCFDB0020F4E7A7
:108CA00029B1064AD2690243044BDA6104E0034A5F
:108CB000D2698243014BDA61704700000010024024
:108CC00029B1064A12690243044B1A6104E0034ABF
:108CD00012698243014B1A61704700000010024084
:108CE00029B1064A92690243044B9A6104E0034A9F
:108CF00092698243014B9A61704700000010024064
:108D000029B1064AD2680243044BDA6004E0034A00
:108D1000D2688243014BDA607047000000100240C5
:108D200030B500210022002400232D4D6D6805F090
:108D30000C0121B1042905D0082923D105E0294DD2
:108D4000056022E0274D05601FE0254D6D6805F4A4
:108D50007012234D6D6805F48034022505EB9242B4
:108D60001CB9214D554305600BE01D4D6D6815F490
:108D7000003F03D01C4D5543056002E0194D55439B
:108D8000056002E0174D056000BF00BF144D6D681F
:108D900005F0F0010909154D6B5C0568DD40456083
:108DA0000F4D6D6805F4E061090A104D6B5C456874
:108DB000DD4085600A4D6D6805F46051C90A0B4DB0
:108DC0006B5C4568DD40C560054D6D6805F440414C
:108DD000890B074D6B5CC568B5FBF3F5056130BDCC
:108DE0000010024000127A0000093D007830002097
:108DF0008830002008B501210820FFF771FF4FF4EB
:108E00000060ADF8000004208DF8030069460248B8
:108E1000FFF736FB08BD0000000C014008B501213A
:108E20000820FFF75DFF4FF40060ADF8000003205D
:108E30008DF8020010208DF8030069460148FFF705
:108E40001FFB08BD000C01402DE9F0470446884691
:108E50009146A71D01202B490870FFF708FBB4F8C5
:108E6000060228BB4A464146206800F073FD0025F3
:108E70001AE0002613E03888C6F10702012191406C
:108E8000084205D04A464146206800F03BFD04E018
:108E90004A464146206800F00DFD701CC6B2082EFF
:108EA000E9DBBF1C681CC5B2A088A842E1DC20E059
:108EB00049464046FFF784FE002518E0002611E0F1
:108EC0003888C6F1080201219140084204D0494681
:108ED0004046FFF751FE03E049464046FFF728FEB3
:108EE000701CC6B2092EEBDBBF1C681CC5B2042D7A
:108EF000E4DB002003490870FFF7B0FA0120BDE869
:108F0000F0870000683000202DE9F04104460D464E
:108F10001646002701200749087032462946204698
:108F200000F0AAF807460020024908703846BDE85C
:108F3000F08100006830002010B5002407E01348DD
:108F400030F81410002000F019FC601CC4B2032C8F
:108F5000F5DB002407E00E4830F81410002000F084
:108F60000DFC601CC4B2022CF5DB002407E00948AC
:108F700030F81410002000F001FC601CC4B20E2C6C
:108F8000F5DB00200449087010BD000056AA000857
:108F900074AA000880AA00086030002010B5FFF70E
:108FA000CBFF002407E0054830F81410002000F043
:108FB000E5FB601CC4B2062CF5DB10BD9CAA0008C2
:108FC00010B5FFF7B9FF0B480188002000F0D6FB71
:108FD00008480188002000F0D1FB002407E0064883
:108FE00030F81410002000F0C9FB601CC4B2052C3E
:108FF000F5DB10BD68AA0008A8AA000870B5002516
:109000002721002000F056FB044616E004F0C000C3
:10901000C02803D1FF2C01D0012070BD681C85B28F
:10902000B5F5FA7F01DB0020F7E70120FFF7F8F93B
:109030002721002000F03EFB0446E7E770B500253D
:109040002721002000F036FB044613E004F0A000C6
:10905000A02803D1FF2C01D0012070BD681C85B26F
:10906000B5F5FA7F01DB0020F7E72721002000F0AB
:1090700021FB0446EAE700002DE9F74F88B00746D8
:109080004FF0000B0024A046A14600200790824626
:109090000026FE490870FE490880BD1DFFF7E7F96C
:1090A000FFF7D2FA07E0FB480088C82803DD00205C
:1090B0000BB0BDE8F08FDDE90901FFF76AFA00287F
:1090C000F1D1FFF7C1FA8046B8F10A0F01DA0020AA
:1090D000EEE707E0EF48008841F63801884201DDFD
:1090E0000020E5E7DDE90901FFF753FA0028F1D098
:1090F000FFF7AAFA8146B8F1140F7DDD08EB4800AE
:10910000B9EBC00FF9DD08EB480000EB0810B9EB34
:10911000400F71DA0020A7F8060209EB0800C1171A
:1091200000EBD16149110E4639604FF0000BCDE0E4
:109130000024C3E0FFF788FA07E0D648008841F62C
:109140003801884201DD0020B2E7DDE90901FFF7BF
:1091500020FA0028F1D1FFF777FA079007E0CD4811
:10916000008841F63801884201DD0020A0E7DDE9F2
:109170000901FFF70EFA0028F1D0FFF765FA8246E1
:10918000032096FBF0F006EBD671A6EB6101091AFD
:1091900006960798814249DA3046FFF721F8BE4A21
:1091A000BE4BCDE90001FEF79AFFCDE90401079817
:1091B000FFF716F8CDE90201DDE90423FFF73CF8DB
:1091C00034D23046FFF70CF8B34AB44BCDE9000176
:1091D000FEF785FFCDE904015046FFF701F8CDE920
:1091E0000201DDE90423FFF73BF80DD206EB860010
:1091F000504509DD288800E06DE0C4F10702012137
:1092000091408843288057E006EB4600BAEBC00F38
:109210000ADD06EB460000EB0610BAEB400F03DA5E
:10922000A7F804B0584643E7002041E73046FEF770
:10923000D7FF994A994BCDE90001FEF750FFCDE9E0
:1092400004010798FEF7CCFFCDE90201DDE9042314
:10925000FFF706F82ED206EB86010798814229DD3A
:10926000032096FBF0F006EBD671A6EB6101081A1D
:10927000069650451CDA3046FEF7B2FF864A874B09
:10928000CDE90001FEF72BFFCDE904015046FEF7C2
:10929000A7FFCDE90201DDE90423FEF7CDFF07D2E8
:1092A0002888C4F10702012191400843288003E087
:1092B0000020FDE60020FBE6601CC4B2082CFFF68F
:1092C00039AFAD1C0BF1010000F0FF0BBBF1FF0F3C
:1092D0007FF72EAF22E1B8F17C0FFBDDB8F1A00FD4
:1092E000F8DAB9F11E0FF5DDB9F1320FF2DA002428
:1092F0000120A7F80602F2E005E066480088A028F1
:1093000001DD0020D4E6DDE90901FFF742F900287C
:10931000F3D105E05F480088A02801DD0020C7E602
:10932000DDE90901FFF735F90028F3D0FFF78CF9E3
:109330005B4921F814005649088008460088322805
:109340002EDB0846008856282ADC5048007890B961
:10935000092094FBF0F035F81000092194FBF1F29C
:1093600001FB1242012191400843092194FBF1F1D4
:1093700025F8110011E0092094FBF0F035F81000F9
:10938000092194FBF1F201FB124201219140884333
:10939000092194FBF1F125F81100601CC4B29EE094
:1093A0003B48008859284EDB3948008879284ADC38
:1093B00036480078B8B9092094FBF0F035F8100071
:1093C000092194FBF1F201FB124201219140084373
:1093D000092194FBF1F125F8110001202B490870B7
:1093E000601CC4B27BE0002028490870092094FB6F
:1093F000F0F035F81000092194FBF1F201FB124264
:10940000012191408843092194FBF1F125F81100D5
:10941000601CC4B2242C01DB002049E6092094FB27
:10942000F0F035F81000092194FBF1F201FB124233
:10943000012191400843092194FBF1F125F8110025
:10944000601CC4B24BE0124800887C2845DB104801
:109450000088A02841DC0D48007801283BD10B4949
:109460000870092094FBF0F035F81000092194FBF6
:10947000F1F201FB1242012191408843092194FB42
:10948000F1F125F81100601CC4B20BE06C30002033
:109490006E3000206A3000205C8FC2F5285CFF3FF0
:1094A0003C350020242C01DB002001E6092094FB40
:1094B000F0F035F81000092194FBF1F201FB1242A3
:1094C000012191400843092194FBF1F125F8110095
:1094D000601CC4B203E00020EAE50020E8E5242C8B
:1094E000FFF60AAF1ADB05E00D480088A02801DD71
:1094F0000020DDE5DDE90901FFF74BF80028F3D195
:10950000074800887C2807DB05480088A02803DC82
:109510000420B880B888CBE50020C9E50020C7E565
:109520006A30002070B50024002522E0641002217A
:109530001548FFF739F800BF00BF02211248FFF7B6
:1095400031F800BF00BF00BF02210F48FFF72CF821
:1095500000BF00BF00BF00BF00BF02210A48FFF7E5
:1095600018F808B144F08004042000F06EFD681C77
:10957000C5B2082DDADB02210348FFF715F80420F5
:1095800000F063FD204670BD000801402DE9F04168
:109590000546884617461E46012E01DCBDE8F081CF
:1095A0000020154908601DB9A1F10401086002E01E
:1095B0000020124908604FF00500FEF738FF4146D1
:1095C000284600F01FF8002405E0284600F090F837
:1095D0003855601CC4B2B442F7DB1DB901200849FC
:1095E000086002E00120054908604FF00500FEF721
:1095F0001EFF00BFD2E70000B481214284812142D6
:10960000B08121422DE9F04107460D4600241FB9E3
:1096100000202349086002E00020224908604FF042
:109620000000214908604FF00500FEF700FF082602
:1096300025E000201C49086015F0800F03D00120B0
:109640001A49086002E00020184908604FF0050040
:10965000FEF7EDFE0120144908604FEA45604FEA2D
:1096600010654FF00500FEF7E2FE1148D0F8380112
:1096700010B144F0010400E000BF701EC6B2002E1D
:10968000D7D10020084908604FF001000849C1F80F
:10969000BC014FF00500FEF7CAFE2046BDE8F08190
:1096A000B081214284812142B4812142BC81214286
:1096B0000080214270B504460D4629462046FFF73A
:1096C000A1FF204600F014F806461CB90120064907
:1096D000086002E00120054908604FF00500FEF730
:1096E000A6FE304670BD0000B08121428481214237
:1096F00070B5064600241EB900201A49086002E031
:109700000020194908604FF00100184908604FF027
:109710000500FEF78CFE082518E0002014490860BB
:109720004FF00500FEF783FE6006040E012011498C
:10973000C1F8B4010520FEF77AFE0F48006810B1A9
:1097400044F0010400E000BF681EC5B2002DE4D162
:109750000020074908604FF00500FEF768FE20462C
:1097600070BD0000B081214284812142BC81214230
:10977000B4812142008021423881214270B50546E2
:109780000C460020224908601DB9A1F104010860BF
:1097900002E000201F4908604FF00500FEF747FE79
:1097A00044F4004410261DE000201949086014F418
:1097B000004F03D001201849086002E0002016493C
:1097C00008604FF00500FEF732FE012010490860E6
:1097D0004FEA44404FEA10444FF00500FEF727FEE1
:1097E000701EC6B2002EDFD10020094908604FF07C
:1097F00001000A49C1F8BC0115B90949086002E035
:109800000120044908604FF00500FEF710FE70BD0E
:10981000B481214284812142BC81214200802142C5
:10982000B08121422DE9F04104460E4615463146ED
:109830002046FFF7E7FE074629462046FFF7E2FEEF
:109840001CB901200649086002E0012005490860B2
:109850004FF00500FEF7EBFD3846BDE8F081000053
:10986000B0812142848121422DE9F0470546884696
:1098700014461E4641462846FFF7C4FE814600278F
:1098800006E014F8011B2846FFF7BCFE781CC7B29F
:10989000B742F6DB1DB901200449086002E001204F
:1098A000034908604846BDE8F0870000B0812142C6
:1098B0008481214270B504460D46164672B60020DA
:1098C0000F49088062B6012231462846FEF76EFE37
:1098D00000BF0B480088A042FBD972B6002008499F
:1098E000088062B6002231462846FEF75FFE00BFC0
:1098F00004EB4400024909888842F9D270BD000097
:109900006A30002070B504460D46164672B6002037
:109910000F49088062B6012231462846FEF746FE0E
:1099200000BF04EB44000A4909888842F9D272B6A4
:1099300000200749088062B6002231462846FEF71B
:1099400035FE00BF02480088A042FBD970BD000070
:109950006A30002070B504460D46164672B60020E7
:109960000F49088062B6012231462846FEF71EFEE6
:1099700000BF0B480088A042FBD972B600200849FE
:10998000088062B6002231462846FEF70FFE00BF6F
:10999000C4EB4410024909888842F9D270BD000026
:1099A0006A30002038B5044601210820FFF798F9F5
:1099B0004FF42040ADF8000003208DF80200102085
:1099C0008DF8030069461648FEF75AFD4FF48040B3
:1099D000ADF8000004208DF8030069461048FEF73A
:1099E0004FFD4FF48050ADF8000010208DF80300BB
:1099F00069460B48FEF744FD01200A4908604FF014
:109A00000200ADF800004FF010008DF80300694629
:109A10000348FEF735FD01200349C1F8840138BD34
:109A2000000C0140B0812142008021420EB501218D
:109A30000846FFF735F94FF0804000F0D3F841F2C7
:109A40008830ADF804003F20ADF800000020ADF8EC
:109A5000020069464FF0804000F052F9012188076A
:109A600000F0AEF801221146900700F03CF9012108
:109A7000880700F0ABF802491C2000F06AFF0EBD19
:109A8000E99A000808B54FF4E060FFF747F81C209A
:109A90008DF8000000208DF8010003208DF80200F1
:109AA00001208DF803006846FEF7FEFF08BD0000A8
:109AB00008B54FF4C060FFF731F81D208DF80000A5
:109AC00000208DF8010004208DF8020001208DF89F
:109AD00003006846FEF7E8FF02491D2000F039FF49
:109AE00008BD0000899F000810B54FF6FE704FF0CA
:109AF0008041088223480088401C2249088022486F
:109B00000078072813D02148007880B908460088DB
:109B1000C82190FBF1F201FB120040B91C4800780B
:109B2000C0431B4908700846007800F001FF19483F
:109B30000088002804DD17480088401E1549088069
:109B40001548007820B114484088401C12494880CC
:109B50001248007820B111484088401C0F494880C5
:109B60000F48007820B10E484088401C0C494880BE
:109B70000C48007820B10B484088401C09494880B7
:109B800010BD00004C300020343000201030002088
:109B90004E3000200C300020503000205430002087
:109BA000583000205C30002021B1028842F0800251
:109BB000028004E0028840F27F331A40028070473E
:109BC000CA4302827047CA430282704721B10288A9
:109BD00042F00102028004E0028840F2FE331A40A3
:109BE0000280704710B504462F48844208D10121F5
:109BF000C014FFF785F80021E014FFF781F852E068
:109C0000B4F1804F08D101210846FFF759F800212F
:109C10000120FFF755F846E02448844208D101218D
:109C20000220FFF74DF800210220FFF749F83AE043
:109C30001F48844208D101210420FFF741F8002188
:109C40000420FFF73DF82EE01A48844208D1012194
:109C50000820FFF735F800210820FFF731F822E04F
:109C60001548844208D101211020FFF729F800216E
:109C70001020FFF725F816E01048844208D1012192
:109C80002020FFF71DF800212020FFF719F80AE037
:109C90000B48844207D101214014FFF731F800211D
:109CA0006014FFF72DF810BD002C014000040040A7
:109CB00000080040000C004000100040001400406C
:109CC0000034014030B50246002000230024158AEC
:109CD00005EA0103958905EA010413B10CB10120DD
:109CE00000E0002030BD10B51AB183890B43838199
:109CF00004E08389CC43A4B22340838110BD0000DB
:109D0000028802F08F020280CA884B881A430388B7
:109D10001A4302808A8882850A880285054A904211
:109D200002D0054A904201D10A7A0286012282823B
:109D300070470000002C01400034014070B5002540
:109D4000002400201649086025E000F052FE044679
:109D5000ECB11449124A126888182246214600F0D4
:109D60000CFE10480E490968405C3C2807D10C489D
:109D70000068401E0B49085C3C2800D10DE00848F3
:109D800000682044064908600024002500E06D1C9E
:109D90000120FEF745FB142DD7D300BF70BD000096
:109DA000043000209C32002070B504460D46294640
:109DB000204600F0DDFD70BD10B572B640F22551B1
:109DC000104800F03EF8D8B10F480068FF2817D8B7
:109DD0000D4841680D48814203D3A0F580700A49BF
:109DE00048600848001D008807494968087006480F
:109DF0004068401C0449486008460068401C0860F0
:109E000062B610BD003801403035002030350020EA
:109E100021B1828942F40052828104E082894DF6A8
:109E2000FF731A408281704702460020B1F5007F1F
:109E300000D100BF13880B4201D0012000E00020B8
:109E4000704770B502460024002300250020A1F5CC
:109E500010666A3E00D100BFC1F3421501F01F0336
:109E6000012606FA03F3012D02D19689334006E05C
:109E7000022D02D1168A334001E0968A33400C123B
:109E8000012606FA04F41688344013B10CB10120FF
:109E900000E0002070BDF0B5034600240026002538
:109EA0000020A1F510676A3F00D100BF1846C1F33A
:109EB000421401F01F06012707FA06F5012C01D113
:109EC0000C3004E0022C01D1103000E014301AB143
:109ED00007682F43076002E00768AF430760F0BDE3
:109EE0002DE9F04786B005460E460024A24600BF85
:109EF00000BF0027B08900B100BF2F462C8A4CF666
:109F0000FF700440F08804432C82AC894EF6F310B5
:109F10000440B08831890843718908430443AC8107
:109F2000AC8A4FF6FF400440B0890443AC8201A8DC
:109F3000FEF7F6FE1148874202D1DDF810A001E0DD
:109F4000DDF80CA00AEBCA0000EB0A1031688900AA
:109F5000B0FBF1F86420B8FBF0F0040120096421A3
:109F600001FB1089322000EB0910B0FBF1F000F08A
:109F70000F0004432C8106B0BDE8F0870038014093
:109F8000C1F308028280704710B501210A48FFF72B
:109F900099FE80B101210848FFF715FE07480068C7
:109FA00028B106480068401E0449086003E000210B
:109FB0000148FFF70BFE10BD0004004048300020B0
:109FC00070B5044600251AE002211248FEF7EAFAAD
:109FD000FEF734FA14F0010F04D002210D48FEF709
:109FE000E3FA03E002210B48FEF7DCFA6410FEF707
:109FF0002AFA02210748FEF7D7FA681CC5B2082DD5
:10A00000E2DB02210348FEF7CFFA072000F01DF83B
:10A0100070BD000000080140014A024900F004B888
:10A02000BDA000088C3000202DE9F04104460F4609
:10A030001646002503E03946B0476D1C641C2078A5
:10A040000028F8D12846BDE8F08110B5044602E0AA
:10A050000B2000F005F82000A4F10104F8D110BD98
:10A0600011E0032100BF00BF00BF00BF00BF00BF61
:10A0700000BF04E000BF00BF00BF00BF00BF0A0078
:10A08000A1F10101F6D10200A0F10100E9D1704770
:10A0900008B501210420FEF723FE10208DF80300EF
:10A0A00003208DF802000220ADF800006946024846
:10A0B000FEF7E6F908BD00000008014070B504464F
:10A0C0000D46E1B20548FFF75BFF00BF40210348A2
:10A0D000FFF7AAFE0028F9D0204670BD00440040DA
:10A0E00010B500F0D9F80020164908604FF00503BC
:10A0F000154A4FF02A014FF00100FFF7B5FB01228E
:10A1000021211046FFF78EFB012222211046FFF786
:10A1100089FB282225210120FFF784FB2022312101
:10A120000120FFF77FFB072226210120FFF77AFBA2
:10A130000F2220210120FFF775FB01200349C1F800
:10A14000800110BD80812142B2AA00080080214216
:10A1500010B5044600F0A0F800201D4908604FF03B
:10A1600005031C4A4FF030014FF00100FFF77CFB64
:10A170000523184A2A210120FFF776FB20232246D7
:10A18000A0210120FFF770FB012221211046FFF7DB
:10A1900049FB012222211046FFF744FB1A22242109
:10A1A0000120FFF73FFB282225210120FFF73AFB82
:10A1B000072226210120FFF735FB0E222021012056
:10A1C000FFF730FB01200449C1F8800110BD0000F9
:10A1D00080812142B2AA00080080214210B5FEF71A
:10A1E000EBF920B102480088401C0149088010BDED
:10A1F0006A30002008B501210820FEF771FD80209B
:10A20000ADF8000003208DF8020010208DF8030047
:10A2100069460348FEF734F900F004F808BD000071
:10A22000000C014010B580210248FEF7BBF9002068
:10A2300010BD0000000C014010B580210248FEF75F
:10A24000B3F9012010BD0000000C014008B5012148
:10A250000820FEF745FD01210420FEF741FD4020C6
:10A26000ADF8000003208DF8020010208DF80300E7
:10A2700069460748FEF704F90820ADF800000420FD
:10A280008DF8030069460348FEF7FAF808BD0000A0
:10A2900000080140000C014010B50020074908608B
:10A2A0004FF00D024FF020014FF00100FFF7BAFA16
:10A2B00001200349C1F8800110BD000080812142C6
:10A2C00000802142ADF5027D0120FEF7D5FBF74865
:10A2D000006820F47020F54908600846006840F4E2
:10A2E00040300860FFF786FF012000F021FB00F0FE
:10A2F00062FBFFF7ABFFFEF795FB00F013FBFFF7E8
:10A30000D7FB0021EA4800F05BFBFEF7A7F800202E
:10A31000FFF748FBFEF76EFDFEF766FB00F0FCFA68
:10A32000E4A0FFF779FEFEF7A2F8FEF737FEC1E2E0
:10A33000E548007801281FD1E4484088B0F57A7FCD
:10A3400006DD0020E04908700621E148FFF72CFDFA
:10A35000E048FEF797F901280ED10020DA4908708D
:10A360000321DD48FFF720FD0421DA48FFF71CFD3B
:10A370000621D748FFF718FDD8480078012827D1D3
:10A38000D748408847F23051884209DD0020D34940
:10A390000870FEF7DDF90621CD48FFF705FD16E050
:10A3A00041A8FEF741FC90B10020CC490870032180
:10A3B000CC48FFF7F9FCBDF804110DF58370FFF7E9
:10A3C000F3FCFEF7C5F90221C748FFF7EDFC00BF1B
:10A3D00000F00FFB00287DD0FFF7B0FCC348807869
:10A3E0003A2877D1C14800784C280ED006DC4228A4
:10A3F00071D0442870D046286FD1DFE053286DD04B
:10A4000054286CD05628F7D1EAE1B848407848285B
:10A410000CD006DC42287AD0442879D0462878D15E
:10A4200061E0542876D05728F9D117E0AB4800787E
:10A4300078B9FEF773F960B10120A84908700020CF
:10A44000A7494880012008700221A948FFF7ACFC09
:10A4500003E006219E48FFF7A7FCADE00120A549D7
:10A4600008700020A4494880012008700221A348F8
:10A47000FFF79AFC19E00822A1496846FEF744FD5F
:10A4800098B100209B49087003219E48FFF78CFC7F
:10A49000BDF80400082202EB40016846FFF784FC87
:10A4A00002219148FFF780FC08E093484088B0F50E
:10A4B0007A7F03DC8F4800780128DCD000BF8E480B
:10A4C0004088B0F57A7F0DDD00208A4908700621AA
:10A4D0007F4805E0CEE1A5E148E1C9E192E13BE139
:10A4E000FFF762FC68E00120874908700020874977
:10A4F000488001200870FEF751FD02218448FFF7D3
:10A5000053FCFEF77BFD58B3FEF774FC1EE044E0FD
:10A510004AE050E02CE04FF4006279496846FEF7CB
:10A52000F3FC98B100207849087003217948FFF7BF
:10A530003BFCBDF80400082202EB40016846FFF72F
:10A5400033FC02216848FFF72FFC08E06F48408881
:10A55000B0F57A7F03DC6C4800780128DBD000BFBF
:10A5600000206949087006215948FFF71DFC23E0C7
:10A570005548007802280FD002216548FFF714FCE7
:10A58000FFF7AEFD0020514948800120087000F01F
:10A59000C3F901204C4908700EE000F007FA0621CB
:10A5A0005D48FFF701FC07E000F005FA06215A4874
:10A5B000FFF7FAFB00E000BF00BF5AE14B484078CC
:10A5C000462845D0482804D054286BD057286AD153
:10A5D0001EE003215148FFF7E7FB4448C078FA2802
:10A5E00001D1012000E000204049085C58B1084634
:10A5F0000079011D3D48C01CFEF7FEF906214648C2
:10A60000FFF7D2FB03E006213148FFF7CDFBA1E0C5
:10A61000002403214248FFF7C7FB4FF4027233497D
:10A62000C91C6846FDF736FD002240213D48FDF774
:10A63000BDFF06E0601CC4B240223A496846FEF7FE
:10A6400003FC062CF6DB06213348FFF7ADFB81E067
:10A65000002403213448FFF7A7FBFEF76DFCFEF74B
:10A66000AFFCFEF7EBFCF8B1FEF7D8FB82221F49E6
:10A67000C91C6846FDF70EFDBDF8060208B90624A0
:10A6800000E00F2407E0601EC4B24FF400621C49D2
:10A690006846FEF7D9FB002CF5D106211E48FFF7CE
:10A6A00083FB47E047E054E040E000000010014039
:10A6B000DDA100087561727420697320776F726B79
:10A6C000696E670D0A0000000A3000205430002037
:10A6D0000EAA00081130002032AA0008093000201C
:10A6E0005C3000201BAA000814AA00089C3200203D
:10A6F00019AA00080E3000205030002021AA0008BE
:10A70000000C014023AA00080F3000205830002020
:10A7100029AA00082BAA000808AA000816AA0008FF
:10A720001EAA00080008014026AA00080621624867
:10A73000FFF73AFB0EE06148FDF7CAFF20B10621A2
:10A740005F48FFF731FB03E006215B48FFF72CFB76
:10A7500000E000BF00BF8CE05848001F40784B2845
:10A7600003D106215748FFF71FFB82E05348001F23
:10A770004078542813D100BFFDF724FF80B28190A8
:10A780005528F9D0032150A0FFF70EFB022181A824
:10A79000FFF70AFB02214DA0FFF706FB1FE0474829
:10A7A000001F4078532804D1042149A0FFF7FCFA88
:10A7B00015E04248001F40784D280CD1032146A0E7
:10A7C000FFF7F2FA0C214548FFF7EEFA02213FA00D
:10A7D000FFF7EAFA03E006213748FFF7E5FA48E019
:10A7E0003648001F407845280BD104213CA0FFF7D4
:10A7F000DBFA04213B48FFF7D7FA022133A0FFF729
:10A80000D3FA36E02D48001F4078582809D10E2190
:10A8100035A000F0ADF800F079F800F0E5F800F0B0
:10A820007BF826E02548001F407844281FD12348A4
:10A83000001FD0F803107F91D0F807108091D0F856
:10A840000B00819003212CA0FFF7AEFA0C212348C6
:10A85000FFF7AAFA012129A0FFF7A6FA0C217FA889
:10A86000FFF7A2FA022119A0FFF79EFA00BF00BF6E
:10A8700000BF00BF22480088B0B94FF400622149F0
:10A880002148FEF741FB78B11F48B0F806020128C5
:10A8900002D121201A4908801B4880880A2202EB35
:10A8A00040011948FFF780FA4FF480710348001FF8
:10A8B000FDF709FC3CE500000EAA0008A0320020CC
:10A8C00008AA000849AA000844543A003C3C000089
:10A8D00044533C3C00000000444D3A00A0330020AB
:10A8E00056453A0004AA0008656E7465725F75707B
:10A8F000675F6D6F6465000042443A002C00000001
:10A900000C300020000C01409430002010B50021D4
:10A910000120FEF7C5F910BD10B501210846FEF76C
:10A92000BFF910BD10B5FFF7ADF8FFF77FF810BD08
:10A9300010B5044614B1FFF77FFC01E0FFF772FC8D
:10A9400010BD00002D49096851F8200001990190BF
:10A9500001BD03B44FF00000DFF8A4F003B44FF0E2
:10A960000100DFF89CF003B44FF00200DFF890F034
:10A9700003B44FF00300DFF888F003B44FF0040095
:10A98000DFF87CF003B44FF00500DFF874F003B497
:10A990004FF00600DFF868F003B44FF00700DFF86F
:10A9A00060F003B44FF00800DFF854F003B44FF048
:10A9B0000900DFF84CF003B44FF00A00DFF840F074
:10A9C00003B44FF00B00DFF838F003B44FF00C0085
:10A9D000DFF82CF003B44FF00D00DFF824F003B4DF
:10A9E0004FF00E00DFF818F003B44FF00F00DFF85F
:10A9F00010F003B44FF01000DFF804F090300020A6
:10AA000045A9000856312E3052453A303C3C52455B
:10AA10003A313C3C3C3C46483A4C4842483A46571E
:10AA20003A4C5742573A46463A4C4642463A4654C2
:10AA30004C5442543A4654445444534C42004C44BF
:10AA4000444D42445358424E3A544B3A303C3C00F9
:10AA50004E07C00800096C0780080009D9070008E4
:10AA60000009E407C00800097F117C1179117611F3
:10AA700068032B04340315041A030B040D030504A7
:10AA800068020F1302054106F0198B1A101E401BB5
:10AA9000801C061D88181B58006F04019F11442557
:10AAA0001013555A705C100104250F135D5A7C5C1D
:10AAB0000C0134431010010000000000802500004C
:10AAC000004B00000096000000E1000000C2010001
:10AAD000FAF5000000000000000000000000000087
:10AAE00000010102030405060708090A0B0C0D0EFC
:10AAF0000F101112131415161718191A1B1C1D1EEE
:10AB00001F00000000FAF1FAF2FAF3FAF4FAF5FA8B
:10AB1000F6FAF7FAF8FAFD00000000000000000065
:10AB20000000000000000000000000000000000025
:10AB30000000000000000000000000000000000015
:10AB400000000000000000000000000001020304FB
:10AB500001020304060708090204060800000000B9
:04AB600000000000F1
:04000005080080016E
:00000001FF
