:020000040800F2
:1080000030E0FEE754413031008000084D332073EA
:10801000797820617070000000000000003230317B
:10802000332E31322E313000000000004DF804EDC7
:10803000134800F1030020F003001249124B88425C
:1080400006D099423CBF50F8042B41F8042BF8D3DA
:108050000E494FF000028B4238BF43F8042BFAD38D
:108060005DF804FB4DF804ED4DF8040DFFF7DEFF5D
:108070005DF8040B0649086001F01CFE5DF804FB86
:10808000F4A200080030002074300020903200205C
:108090007030002040EA01039B0703D009E008C9C3
:1080A000121F08C0042AFAD203E011F8013B00F8BD
:1080B000013B521EF9D27047D2B201E000F8012B09
:1080C000491EFBD270470022F6E710B50446084669
:1080D000114602462046FFF7EFFF204610BD30B59F
:1080E0000EE003460A4601E05B1C521C1C78157822
:1080F000AC4201D1002CF7D115F0FF0F04D0401C89
:108100000278002AEDD1002030BD2DE9FE4F81EA32
:10811000030421F0004504F0004423F000414FF037
:10812000000A009450EA050302D052EA010304D188
:108130000020014603B0BDE8F08FC1F30A53C5F338
:108140000A541C44A0FB02B3C5F3130545F4801C7C
:10815000C1F3130141F480180CFB023300FB083E0D
:10816000A4F2F334810A930A41EA8C5143EA88531A
:108170000194A1FB03474FEA9C2505FB03734FEADB
:10818000982601FB06373D05260545EA1435BBEB6D
:1081900006016EEB0503850E920E45EA8C1542EA48
:1081A0008812A5FB0206261E67EB00070C0D44EAA9
:1081B0000334A41947EB1350C1F313064FF0000327
:1081C00019464FEA033343EA165343EA0403019C7A
:1081D000E5FB0201A4F10C040294009C4FEA063274
:1081E000CDE900A400F09BF8A4E770B521F00043AE
:1081F00003430CD0C1F30A540026D4EB060566EB0A
:108200000603D417AD1AA34102DB0020014670BD5E
:10821000001C41EB025170BD0EB5C10F80EAE07049
:108220000844CA07002140F233438DE80E000A4695
:108230000B4600F074F803B000BD0EB540F23341B8
:1082400002910021CDE900110A460B4600F067F8C3
:1082500003B000BD70B5C1F30A5201F0004500241F
:10826000C1F3130140F2FF3341F480119A4201DA65
:10827000002070BD40F233439A42A2F2334203DC45
:10828000524200F02FF800E090402C43F1D04042E1
:1082900070BD000030B5002904DB4FF000444042BF
:1082A00064EB0101002B04DB4FF00044524264EB0D
:1082B00003038B4208BF824230BD000030B5002965
:1082C00004DB4FF00044404264EB0101002B04DB6F
:1082D0004FF00044524264EB0303994208BF9042BE
:1082E00030BD0000202A04DB203A21FA02F00021F0
:1082F000704721FA02F3D040C2F1200291400843B6
:108300001946704710B5002B08DA401C41F10001F6
:1083100092185B411A4301D120F0010010BD2DE9F4
:10832000F04D92469B4611B1B1FA81F202E0B0FAEB
:1083300080F22032904600F044F806460F4640EAAC
:108340000A0041EA0B0152465B46084303D130461E
:108350003946BDE8F08D194652EA010015D0C8F142
:1083600040025046FFF7BEFF04460D4650465946B0
:10837000424600F026F8084301D0012000E000202A
:10838000044345EAE07526432F430A984FEAD62571
:10839000A0EB08000A304FEA46534FF0000245EACE
:1083A00047554FEAD72402D500200146D1E7010501
:1083B00050196141DDE9084500196941BDE8F04DFA
:1083C000A0E7202A04DB203A00FA02F100207047DF
:1083D0009140C2F1200320FA03F319439040704703
:1083E00010B5074C6060084600F00EF86068002881
:1083F000FCD1BDE810400021024801F06EB8000039
:1084000038300020000400403EB51A4D04460021DB
:10841000284601F062F800220121284601F0D8F830
:10842000022C02D0012C02D005E0012001E040F234
:10843000E730ADF804003F20ADF800000020ADF8B3
:108440000600ADF802006946284601F0C9F801218E
:10845000284601F03FF80121284601F02DF80122BD
:108460001146284601F0B4F80121284601F035F8FC
:108470003EBD0000000400400121FFF7B1BF022112
:10848000FFF7AEBF00B5012001F0ABFA022001F00A
:10849000A8FA02205DF804EB01F0A3BA4FF0E02047
:1084A000016921F00101016170474FF0E02001698D
:1084B00041F0010101617047F0B5CC78002204F071
:1084C0000F03E40601D58C7823430C884FF00F0C82
:1084D00014F0FF0F4FF0010E1AD005680E880EFA47
:1084E00002F42640A6420FD196000CFA06F7BD43CF
:1084F00003FA06F63543CE78282E02D0482E02D055
:1085000002E0446100E00461521C082AE6D30560E1
:108510000A88FF2A1DD94568002202F108060EFAD2
:1085200006F40E882640A6420FD196000CFA06F7F4
:1085300025EA070703FA06F5CE783D43282E00D139
:108540004461CE78482E00D10461521C082AE4D33D
:108550004560F0BD0246002092680A4200D001202A
:10856000704741617047016170470AB1016170470E
:108570004161704701480078704700005230002088
:1085800070B500F0EBF9CC2001F0E6F9442001F0E1
:10859000E3F9332001F025FA00F0E0F9CC2001F0F6
:1085A000DBF9BE2001F0D8F900F036FD054600F0F9
:1085B00033FD45EA002424F47840FFF72DFE6FF0E8
:1085C0000302FFF712FEFFF745FE14F4784F00D0C8
:1085D000404270BD014800687047000084320020AE
:1085E00072B60349488800224A8062B6704700008C
:1085F0005230002008B50121082000F083FA042041
:10860000ADF800008DF8030069460248FFF754FFFB
:1086100008BD0000000C014070B5002407210120B6
:1086200000F0A2FD054602462721012000F02AFEA7
:1086300068060BD52023094A6121012000F020FDA6
:10864000FF22E221012000F01DFE0124FF2227214C
:10865000012000F017FE204670BD00000C30002005
:1086600070B505460024FF222721012000F00AFEF4
:10867000284601F029FAFFF7BDFF0949D1F8082182
:10868000002AFBD10721012000F06EFD800600D5F5
:108690000124FF222721012000F0F4FD204670BDB7
:1086A0000080214238B5FF208DF8000000F022F84C
:1086B0000221094800F03CF91E220121684600F021
:1086C0008DF89DF8000020B1002400F013F820463A
:1086D00038BD0124F9E700003530002010B5022133
:1086E000034800F025F900F005F8012010BD000056
:1086F0003330002010B572B6002107480160A0F5A4
:108700008071416081604FF48071A0F58070FFF747
:10871000DAFC62B610BD00008432002030B5044699
:10872000012187B0880300F0EDF94FF40071ADF836
:10873000101018218DF813100320244D8DF812000D
:1087400004A92846FFF7B8FE2815ADF8100004204C
:108750008DF8130004A92846FFF7AEFE1C4951F816
:10876000240000900020ADF80400ADF80600ADF83C
:108770000800ADF80C000C20164CADF80A00694654
:10878000204600F0E3FF0121204600F097FF25215D
:108790008DF8141002218DF8161001218DF8171094
:1087A00005A800F01BF9012240F22551204600F0F7
:1087B000B5FF4021204600F08BFF0028F9D0064984
:1087C000252001F0EAFC07B030BD000000080140A0
:1087D000DCA2000800380140759600082DE9F05F22
:1087E000DFF8388182460C46D8F800001746A8F515
:1087F000807B0BF580760FFA81F9A0422AD372B6FE
:10880000D8F808100819B04215D9ABEB010505F5E9
:1088100080755E462A465046FFF73CFC671B0AEB14
:1088200005003A463146C8F80860FFF733FCD8F82F
:108830000810C81906E022465046FFF72BFCD8F86E
:1088400008002044C8F80800D8F80000001BC8F849
:1088500000002FE000250120FFF70EFED8F80000F1
:108860006D1CA0422AD372B64546D8F808100819E4
:10887000B04215D9ABEB010606F580765F4632466D
:108880005046FFF707FCA4EB06080AEB0600424639
:108890003946AF60FFF7FEFBA96801EB080005E071
:1088A00022465046FFF7F6FBA8682044A8602868D7
:1088B000001B286062B64846BDE8F09F002FCAD072
:1088C000BD42C8D372B64446D8F80810D8F80000A4
:1088D00000270844B04214D3ABEB010505F58075C1
:1088E0005E462A465046FFF7D5FBA6602068314613
:1088F000421B0AEB0500FFF7CDFB2168A068491B6E
:1089000005E022685046FFF7C5FB2168A0680844CF
:10891000A0602068276062B600B2CDE784320020F4
:1089200010B5FFF7E7FEBDE810400120FFF7F6BEE7
:1089300070B504460D46084E0BE06D1E14F8011B81
:10894000304600F049FF4021304600F0C1FE0028CB
:10895000F9D0002DF1D170BD0038014010B501F003
:1089600057F8134C02212046FFF7FDFD012001F0CE
:1089700038F802212046FFF7F4FD332001F031F8EA
:1089800002212046FFF7EFFD032001F02AF8022123
:108990002046FFF7DFFD10B1032001F022F833205D
:1089A00001F01FF82046BDE810400221FFF7DBBDB3
:1089B0000008014041060748826942F001028261D5
:1089C0000548426822F0E062426042680A43426021
:1089D00070470000001002400000014070B50F24F5
:1089E000C278017801254FF0E026DAB1124A126808
:1089F00002F4E062C2F5E062120AC2F10403D4405C
:108A000042789A408378234013431A010B4BCA548F
:108A1000007800F01F018D40400906EB8000C0F88F
:108A2000005170BD01F01F008540480906EB800031
:108A3000C0F8805170BD00000CED00E000E400E0E3
:108A40000249084302490860704700000000FA0527
:108A50000CED00E02DE9F0430024C1B0814625462D
:108A6000FFF7B8FDA0B3E8460DF10307FFF7B2FD2D
:108A70000604360C25D0002508EB040005223146FB
:108A8000FFF7ACFEA01984B2062C1CD39DF80000A1
:108A9000FA2818D19DF80100C05DED2813D19DF88A
:108AA00001206946121DA9F8002009F10200FFF714
:108AB000F1FA21466846FFF706FB012041B0BDE808
:108AC000F0836D1CEDB20120FFF7D6FC0A2DCDD34B
:108AD0000020F3E7044A0029D16901D0014300E0F6
:108AE0008143D1617047000000100240044A002910
:108AF000116901D0014300E081431161704700001A
:108B000000100240044A0029916901D0014300E0AD
:108B1000814391617047000000100240044A00291F
:108B2000D16801D0014300E08143D160704700006B
:108B300000100240214A10B55168214B11F00C0180
:108B400003D0042901D0082901D0036012E0516844
:108B5000536801F470114FF0020413F4803F04EBEA
:108B6000914102D053689B0301D5164B00E0144B92
:108B7000594301605168144B01F0F00109095C5C34
:108B80000168E1404160546804F4E064240A1C5D1B
:108B900021FA04F48460546804F46054E40A1B5D10
:108BA000D940C1605268084B02F44042920B1B1F2F
:108BB0009A5CB1FBF2F1016110BD000000100240AF
:108BC00000127A0000093D005A30002008B501214A
:108BD0000820FFF797FF4FF40060ADF80000042075
:108BE0008DF8030069460248FFF766FC08BD0000E7
:108BF000000C014008B501210820FFF783FF4FF466
:108C00000060ADF8000003208DF8020010208DF800
:108C1000030069460148FFF74FFC08BD000C014006
:108C20002DE9F05F414E0546871D0120884691469B
:108C30003070FFF73AFC2C6872B64FF0000BA6F8C4
:108C400002B062B6012249464046FFF78EFC7088AA
:108C5000A042FCD972B6A6F802B062B6002249461C
:108C60004046FFF782FCC4EB441071888842FCD276
:108C700000204FE000243978C4F107020120904021
:108C80002E68014272B61FD028494FF0000BA1F8A0
:108C900002B062B6012249464046FFF766FC23480F
:108CA00006EB460142889142FCD272B65946834691
:108CB000418062B6002249464046FFF756FC5846BE
:108CC0004188B142FCD91DE0DFF860B00020ABF86C
:108CD000020062B6012249464046FFF746FC58466C
:108CE0004188B142FCD972B60021418062B60A4681
:108CF00049464046FFF739FC584606EB4601428894
:108D00009142FCD2641CE4B2082CB4D30AF10100F5
:108D10007F1CC0B2A98882465145ABD803490020C8
:108D20000870FFF7BBFB0120BDE8F09F5230002028
:108D300010B5044C0123237000F094F80021217039
:108D400010BD00005230002070B5144D002405EB1A
:108D50004400C188002000F051FA641CE4B2032CE6
:108D6000F5D30E4D0024183505EB44008188002012
:108D700000F044FA641CE4B2022CF5D3074D002441
:108D80002835002035F8141000F038FA641CE4B2DD
:108D90000E2CF6D302490020087070BD7CA200089A
:108DA0005030002070B5FFF7CFFF41F27F1421460D
:108DB000002000F023FA2146002000F01FFA064DA3
:108DC0000024002035F8141000F018FA641CE4B2F6
:108DD000052CF6D370BD0000CCA2000870B50024AD
:108DE0002721204600F0C0F903254FF4FA76B5EBB1
:108DF000901F06D1FF2804D00AA000F0D9FD012061
:108E000070BD641CA4B2B44201D3002070BD06A0A2
:108E100000F0CEFD0120FFF72FFB2721002000F0FE
:108E2000A3F9E4E7310D0A00300D0A0070B5002403
:108E30002721204600F098F9A0254FF4FA7635EA6C
:108E4000000103D1FF2801D0012070BD641CA4B231
:108E5000B44201D3002070BD2721002000F084F926
:108E6000EDE700002DE9F74F82B0029CA41DFFF74B
:108E70001CFB72B60020654E708062B602E07088FE
:108E8000C8287AD8DDE90301FFF764FB0028F6D192
:108E9000FFF7A6FB054605E05C48418841F638002F
:108EA00081426AD8DDE90301FFF754FB0028F3D0C3
:108EB000FFF796FB142D60D905EB4501B0EBC10F10
:108EC0005BD905EB450101EB0511B0EB410F54D225
:108ED0002844460902980660002092E0FFF780FBD4
:108EE0004A4F41F6380902E07988494545D8DDE91D
:108EF0000301FFF72FFB0028F6D1FFF771FBBA46FD
:108F000080464F4603E0BAF80200B8427CD8DDE95B
:108F10000301FFF71FFB0028F5D0FFF761FB0746B1
:108F20000320B6FBF0F0A6EB5601081A009040456E
:108F300037DA3046FFF781F9354A364BFFF7E5F867
:108F4000824689464046FFF778F952464B46FFF77E
:108F5000A1F926D23846FFF770F952464B46FFF783
:108F6000ADF90BD206EB8600B84207D92178C5F1DE
:108F7000070201209040814339E045E006EB4600BE
:108F8000B7EBC00F40D906EB460000EB0610B7EB7D
:108F9000400F39D202995846A1F804B005B0BDE897
:108FA000F08F3046FFF749F9194A1A4BFFF7ADF831
:108FB00081468A464046FFF740F94A465346FFF746
:108FC0007DF921D206EB860141451DD90098B842B2
:108FD0001ADA3846FFF731F94A465346FFF75AF98D
:108FE00012D22178C5F107020120904001436D1C87
:108FF000EDB22170082DFFF471AF0BF10100641C7C
:10900000C0B28346002569E70020C7E75230002040
:109010005C8FC2F5285CFF3F70B50024174E2546D3
:10902000640802213046FFF79EFA00BF00BF02210C
:109030003046FFF796FA00BF00BF00BF022130465E
:10904000FFF791FA00BF00BF00BF00BF00BF0221C1
:109050003046FFF77FFA08B144F08004042000F0A6
:10906000C0FC6D1CEDB2082DDAD302213046FFF7AB
:109070007AFA042000F0B5FC204670BD00080140DB
:109080002DE9F04107460C4690461E46012B27D994
:10909000144D0020C5F8B40157B1C5F8840105206E
:1090A000FFF7EDF92146384600F01EF8002409E0EC
:1090B000C5F8B001F3E7384600F06EF808F8040090
:1090C000641CE4B2B442F6D3012037B1C5F8840180
:1090D000BDE8F0410520FFF7D2B9C5F8B001F7E7C8
:1090E000BDE8F081008021422DE9F0470027020011
:1090F0001C480D463E4631D0C0F884618046C0F819
:10910000B4610520FFF7BBF9B146464608244FF08D
:1091100001084846C6F8B491290600D54046C6F86D
:10912000BC010520FFF7ABF9C6F8B4816806050E4F
:109130000520FFF7A4F9D6F8380108B147F0010778
:10914000641E14F0FF04E4D1C6F8B491C6F8BC81E3
:109150000520FFF794F93846BDE8F087C0F8B06104
:10916000CCE700000080214270B50546FFF7BCFF48
:10917000284600F011F804460648012135B1C0F830
:1091800084110520FFF77BF9204670BDC0F8B011AF
:10919000F7E70000008021422DE9F0410024164E3F
:1091A000274630B3C6F884714FF00108C6F8BC8179
:1091B0000520FFF764F90825C6F8B4710520FFF70C
:1091C0005EF96006040EC6F8B4810520FFF757F972
:1091D000D6F8380108B144F001046D1E15F0FF0502
:1091E000EAD1C6F8B4710520FFF749F92046BDE879
:1091F000F081C6F8B071D7E7008021422DE9F04731
:109200001F4E4FF000075FEA00090C46C6F8B47124
:1092100011D0C6F884710520FFF731F944F40045F8
:109220001024B84601274046C6F8B481290405D564
:10923000C6F8BC7104E0C6F8B071ECE7C6F8BC0132
:109240000520FFF71CF9C6F8B4716804050C052069
:10925000FFF715F9641E14F0FF04E4D1C6F8B481D9
:10926000C6F8BC71B9F1000F06D0C6F88471BDE82C
:10927000F0470520FFF703B9C6F8B071F7E7000023
:109280000080214270B504461646FFF72DFF0546C3
:1092900031462046FFF728FF0649012034B1C1F8C6
:1092A00084010520FFF7EBF8284670BDC1F8B00136
:1092B000F7E70000008021422DE9F04107461546FE
:1092C0001E46FFF711FF8046002406E015F8011B3B
:1092D0003846FFF709FF641CE4B2B442F6D30549EF
:1092E000012027B1C1F884014046BDE8F081C1F8F2
:1092F000B001F9E70080214270B5074D0024D5F890
:109300003C0130B90A20FFF7B7F8D5F83C0100B9A5
:109310000124204670BD000000002142F8B5012163
:109320000820FFF7EFFB4FF42040ADF800000320CA
:109330008DF80200144F10248DF80340694638461A
:10934000FFF7BAF8A002ADF8000004208DF8030082
:1093500069463846FFF7B0F82002ADF800008DF8F6
:10936000034069463846FFF7A7F8084E0125F56225
:109370004FF00200ADF800008DF803406946384612
:10938000FFF79AF83560F8BD000C01408481214256
:109390003EB501210846FFF79DFB4FF08044204673
:1093A00000F0A6F841F28831ADF804103F21ADF885
:1093B00000100021ADF802106946204600F010F9B7
:1093C0000121204600F083F801221146204600F0DA
:1093D000FFF80121204600F080F802491C2000F02F
:1093E000DCFE3EBD4D94000808B54FF4E060FFF789
:1093F00027FB1C208DF8000000208DF801000320C1
:109400008DF8020001208DF803006846FFF7E6FAA8
:1094100008BD000008B54FF4C060FFF711FB1D2028
:109420008DF8000000208DF8010004208DF8020066
:1094300001208DF803006846FFF7D0FA02491D208D
:1094400000F0ABFE08BD0000E197000810B54FF03A
:1094500080404FF6FE71018215480078062801D041
:1094600000F098FB1348017811B14188491C4180F4
:109470001048001D017811B14188491C41800D48F8
:109480000830017811B14188491C418009480C30ED
:10949000017811B14188491C41800648083801789B
:1094A000C94301700078BDE8104000F06ABE0000BA
:1094B00030300020403000200029018802D041F0E7
:1094C000800102E040F27F32114001807047C943C1
:1094D00001827047C943018270470029018802D088
:1094E00041F0010102E040F2FE321140018070477C
:1094F0002A4910B5884202D10121C41443E0B0F1D9
:10950000804F09D0264988420DD101210220FFF762
:10951000EDFA002102202DE001210846FFF7E6FACE
:109520000021012026E01F49884206D101210420A4
:10953000FFF7DCFA002104201CE01B49884206D119
:1095400001210820FFF7D2FA0021082012E0174974
:10955000884206D101211020FFF7C8FA002110200F
:1095600008E01349884209D101212020FFF7BEFA03
:1095700000212020BDE81040FFF7B8BA0D4988420D
:109580000AD1012144142046FFF7C8FA2046BDE85D
:1095900010400021FFF7C2BA10BD0000002C0140AE
:1095A0000004004000080040000C00400010004093
:1095B000001400400034014002460020138A9289C2
:1095C0000B4202EA010202D0002A00D001207047BB
:1095D000002A828901D00A4300E08A4382817047D1
:1095E000028802F08F020280CA884B881A430388DF
:1095F0001A4302808A8882850A880285054A904239
:1096000002D0054A904201D1097A01860121818266
:1096100070470000002C0140003401402DE9F0416A
:10962000114D0027114E2F6000F007FE040012D0EC
:10963000286822463044114600F0C3FD2868315C9A
:109640003C2904D1311811F8011C3C2909D02044CF
:109650000027286000E07F1C0120FEF70DFF142F7B
:10966000E2D3BDE8F08100002C30002074300020EF
:1096700000F0A2BD10B572B640F225510D4800F0C1
:109680002EF8A0B10C490868FF2810D84A6808468F
:10969000824202D3A0F5807048600648001D02880F
:1096A000486800F8012B48600868401C086062B6F2
:1096B00010BD00000038014084320020002981895B
:1096C00002D041F4005101E021F400518181704742
:1096D0000246002012880A4200D00120704770B56F
:1096E00001F01F0601250024C1F3421305FA06F21A
:1096F000012B0FD0022B0FD0838A4FEA1121008853
:10970000134205FA01F500EA050001D000B1012479
:10971000204670BD8389F0E7038AEEE710B5C1F3F8
:10972000421301F01F040121A140012B07D0022B9D
:1097300007D01430002A026805D00A4304E00C3038
:10974000F8E71030F6E78A43026010BD30B50446F2
:10975000008A85B00D464CF6FF710840E988014348
:109760002182A1894EF6F3100140A8882A8910436E
:109770006A890A431043A081A08A4FF6FF4108403E
:10978000A9890143A1826846FFF7D4F911488442B0
:1097900001D1039800E00298642200EBC00101EBC4
:1097A000001029686FF018058900B0FBF1F0B0FBDC
:1097B000F2F109010B096B4300EB8300322303EB49
:1097C0000010B0FBF2F000F00F000843208105B05C
:1097D00030BD000000380140C1F3080181807047AE
:1097E00010B50C4C01212046FFF7E6FE002809D0F9
:1097F00001212046FFF76EFE07494A681AB1486802
:10980000401E486010BD2046BDE810400021FFF713
:1098100064BE00000004004038300020F0B53F4C2A
:1098200091B00026207858B100254FF49677012892
:109830000BD003282FD004284BD0062866D066E032
:1098400000F0F4F901285DD061E000F0BFFC402198
:109850006846FEF738FC0A2131A0FFF709FF3846B9
:10986000FEF70AFE00F0E9FC30B100F0E6FC01462C
:109870000A22684600F0A5FC2CA16846FEF72FFCE2
:10988000032708B1277042E029A16846FEF727FCAC
:109890000028F7D138E000F099FC0A2125A0FFF755
:1098A000E7FE3846FEF7E8FD00F0C7FC30B100F0F7
:1098B000C4FC01460A22684600F083FC20A16846E9
:1098C000FEF70DFC00B340216846FEF7FCFB0420C8
:1098D00018E000F07BFC09211BA000F06DFC38466D
:1098E000FEF7CAFD00F0A9FC30B100F0A6FC01466D
:1098F0000A22684600F065FC16A16846FEF7EFFBF9
:1099000010B10620207002E0257000E00126402101
:109910006846FEF7D8FB11B03046F0BD303000206D
:1099200041542B574D4F44450D0A00004150000053
:109930005354410041542B57414B45590D0A0000E7
:109940004F50454E0000000041542B454E544D0DE4
:109950000A0000002B6F6B0070B5144E0546002402
:1099600002213046FEF7FDFD022000F03AF8E8073C
:109970004FF00201304602D0FEF7F5FD01E0FEF7A0
:10998000F0FD6D08FEF77EFD02213046FEF7EBFD8F
:10999000641CE4B2082CE3D302213046FEF7E3FD59
:1099A000BDE87040072000F01CB80000000801402E
:1099B000014A024900F004B83D9A00086C300020CA
:1099C0002DE9F04104460F461646002503E03946CE
:1099D000B0476D1C641C20780028F8D12846BDE8EB
:1099E000F08100B5034602E00B2000F003F85B1E97
:1099F000FAD200BD09E0032100BF00BF00BF00BFD5
:109A000000BF00BF00BF491EF8D2401EF3D270470E
:109A100008B501210420FFF775F810208DF8030028
:109A200003208DF802000220ADF8000069460248CC
:109A3000FEF742FD08BD00000008014070B5074D6B
:109A40000446C1B22846FFF7C7FE40212846FFF76B
:109A50003FFE0028F9D0204670BD000000440040C1
:109A600010B500F0D1F8164C002020604FF005032F
:109A7000144A4FF02A014FF00100FFF71DFC0122AC
:109A800021211046FFF7FEFB012222211046FFF79D
:109A9000F9FB282225210120FFF7F4FB20223121A8
:109AA0000120FFF7EFFB072226210120FFF7EAFB49
:109AB0000F2220210120FFF7E5FB0120206010BDCF
:109AC00080812142D6A2000870B5054600F09CF8BE
:109AD0001C4C002121604FF005031B4A4FF0300160
:109AE0004FF00100FFF7E8FB0523174A2A21012068
:109AF000FFF7E2FB20232A46A0210120FFF7DCFB31
:109B0000012221211046FFF7BDFB01222221104630
:109B1000FFF7B8FB1A2224210120FFF7B3FB28220C
:109B200025210120FFF7AEFB072226210120FFF7A8
:109B3000A9FB0E2220210120FFF7A4FB01202060B9
:109B400070BD000080812142D6A2000810B5FEF74A
:109B500011FD002803D002480188491C018010BD76
:109B60005430002008B501210820FEF7CBFF8020EB
:109B7000ADF8000003208DF8020010208DF80300DE
:109B800069460348FEF798FC00F004F808BD0000A1
:109B9000000C014010B580210248FEF7E2FC0020D5
:109BA00010BD0000000C014010B580210248FEF7F6
:109BB000DAFC012010BD0000000C014008B50121B5
:109BC0000820FEF79FFF01210420FEF79BFF4020A5
:109BD000ADF8000003208DF8020010208DF803007E
:109BE00069460748FEF768FC0820ADF8000004202D
:109BF0008DF8030069460348FEF75EFC08BD0000CF
:109C000000080140000C014010B5074C0020206006
:109C10004FF00D024FF020014FF00100FFF732FB33
:109C20000120206010BD00008081214210B500F0AD
:109C3000CDFA03211AA000F0BFFA4FF400742146B8
:109C40001848FEF740FA4FF496620121154800F0DB
:109C5000B8FA1448007861281BD121461148FEF754
:109C600032FA012110A0FFF703FD40F6B8320321BC
:109C70000C4800F0A6FA0DA10A48FEF730FA40B1F0
:109C80000B4A0120214610600648FEF71CFA01200D
:109C900010BD21460348FEF716FA002010BD000053
:109CA0002B2B2B0074300020610000002B6F6B0009
:109CB00004300020C2B00120FEF77CFEFB480168A2
:109CC00021F470210160016841F440310160FFF727
:109CD00049FF012000F055FA00F091FAFFF76EFFFE
:109CE000FEF73CFE00F046FAFFF794FB0021F04837
:109CF00000F08AFAFEF7D2FB0020FFF70FFBFEF719
:109D000065FFFEF70DFE00F031FAEAA0FFF750FE06
:109D1000DFF8B4A34FF47A78DFF8B0934FF4006B18
:109D200001250024FFF7E8FA08B1E9480470FFF7BD
:109D300075FD0028F6D0E74E707801281DD1E64861
:109D40004088404504D974700621E448FFF790FC30
:109D5000E0480C30FEF760FC01280ED1DF4874703B
:109D600003210D38FFF784FCDA4804210C30FFF79B
:109D70007FFC0621D948FFF77BFC3078012822D1EF
:109D8000BAF8020047F23051884205D93470FEF724
:109D9000A5FC0621D14814E06846FEF75BFE90B1B1
:109DA000CE48347003211938FFF762FCBDF800106B
:109DB0000DF10200FFF75CFCFEF790FCC7480221A2
:109DC0002438FFF755FC00F038FA00286FD0FFF771
:109DD00025FCC34FB8783A2869D13878532867D022
:109DE00006DC44287DD046287CD04C28F4D104E001
:109DF000542878D05628EFD147E1787848280CD0FD
:109E000006DC422870D044286FD04628E4D141E0D7
:109E1000542874D05728DFD10FE03078002838D18B
:109E2000FEF740FC002834D03570AAF80240AB4859
:109E300002218AF80050223824E1AA4FB5707C80B4
:109E4000A6483D7002212038FFF712FC17E00822D7
:109E500049466846FEF76CFF88B1A048B4700321FC
:109E60001338FFF705FCBDF8041068460831FFF70A
:109E7000FFFB9A4802212438FFF7FAFB05E07888B7
:109E8000404502D8B0780128E1D0788840450ED905
:109E9000B47069E0944FF5707C803D70FEF79EFFD2
:109EA00058B392A0FFF784FDFEF790FE1FE036E066
:109EB0003AE15A4649466846FEF73AFFB8B1874844
:109EC000F47003211038FFF7D3FBBDF80410684687
:109ED0000831FFF7CDFB814802212438FFF7C8FB8A
:109EE0000BE090E022E087E01AE01CE007E07888D1
:109EF000404502D8F0780128DBD0F47034E0707867
:109F000002280CD0754802211E38FFF7B1FBFFF77D
:109F1000A7FD71484480057000F028F9757010E1C4
:109F200000F068F93EE000F06AF93BE078784628F6
:109F30003CD0482804D0542858D05728EFD116E0F8
:109F4000664803211C38FFF793FBF9783846FA2955
:109F500008D00021415C39B10179F81C091DFEF7D8
:109F6000E7FC1FE00121F5E706215C488AE05B4839
:109F7000002603211638FFF77BFB4FF48472F91C8F
:109F80006846FEF787F85C4F002240213846FEF70E
:109F9000ECFA761CF6B2402239466846FEF740FEDF
:109FA000062EF6D34D480621801F6BE04B48002655
:109FB00003211038FFF75CFBFEF7C6FEFEF7F2FE4A
:109FC000FEF734FF0028CFD0FEF714FE8222F91CE2
:109FD0006846FEF75FF84F46761CF6B25A46394699
:109FE0006846FEF71DFE062EF6D3DBE7381DFEF7AA
:109FF00037FB0028D6D1B7E778784B280AD1374805
:10A000000621801D3EE07878542804D0532810D0D3
:10A010004D2813D095E0FEF7B3FA80B2ADF80000FA
:10A020005528F8D0032135A0FFF722FB022168460E
:10A0300035E0C6E90145042131A023E000F0C6F86F
:10A040003220FEF719FA00F0F8F868B300F0F5F8DE
:10A0500001460A22224800F0B4F82BA12048FEF75E
:10A060003EF808B329A11E48FEF739F80146102230
:10A070002848FEF70FF8032127A0FFF7F9FA10216F
:10A0800024480CE0FFF7F4FA5BE07878452858D1D3
:10A09000042122A0FFF7ECFA104804210A38FFF748
:10A0A000E7FA02211FA0EDE74BE00000001001409D
:10A0B0004D9B00087561727420697320776F726B15
:10A0C000696E670D0A0000004C300020000C014052
:10A0D00030300020003000204430002070A2000802
:10A0E00074300020403000204830002034333320CA
:10A0F0006973206F6B0D0A000008014044543A0058
:10A1000044533C3C000000004D4143002B6F6B3D2D
:10A110000000000074310020444D3A005645523A88
:10A12000000000003C3C00007878582809D10E213E
:10A1300007A000F041F800F015F800F079F800F001
:10A1400015F84FF480710648FDF7BDFFEAE5000001
:10A15000656E7465725F7570675F6D6F6465000032
:10A160007430002000210120FEF7B4BC0121084614
:10A17000FEF7B0BC10B5FFF737F9BDE81040FFF7A8
:10A1800007B908B1FFF710BDFFF704BD2D490968F5
:10A1900051F820000199019001BD03B44FF0000077
:10A1A000DFF8A4F003B44FF00100DFF89CF003B433
:10A1B0004FF00200DFF890F003B44FF00300DFF837
:10A1C00088F003B44FF00400DFF87CF003B44FF0E4
:10A1D0000500DFF874F003B44FF00600DFF868F014
:10A1E00003B44FF00700DFF860F003B44FF008004D
:10A1F000DFF854F003B44FF00900DFF84CF003B47B
:10A200004FF00A00DFF840F003B44FF00B00DFF826
:10A2100038F003B44FF00C00DFF82CF003B44FF02B
:10A220000D00DFF824F003B44FF00E00DFF818F053
:10A2300003B44FF00F00DFF810F003B44FF010003C
:10A24000DFF804F0703000208DA100083C3C4C4841
:10A250004C574C4646483A42483A46573A42573A93
:10A2600046463A42543A56312E3052453A303C3CFA
:10A2700052453A313C3C544B3A303C3C4E07C008C6
:10A2800000096C0780080009D90700080009E407E5
:10A29000C008000968032B04340315041A030B04D7
:10A2A0000D03050468020F1302054106F0198B1A0D
:10A2B000101E401B801C061D88181B58006F0401CF
:10A2C0009F1144251013555A705C100104250F137B
:10A2D0005D5A7C5C0C01344310100100000000004A
:10A2E00080250000004B00000096000000E1000007
:10A2F00000C201000000000000000000010000009A
:10A30000010102030405060708090A0B0C0D0E0FD4
:10A31000101112131415161718191A1B1C1D1E1FC5
:10A320000000000000FAF4FAF6FAFD000000000058
:10A33000000000000000000000000000000000001D
:10A3400000000000000000000000020406080000F9
:10A3500000000102030401020304060708090000CB
:08A360000000000000000000F5
:04000005080080016E
:00000001FF
