:020000040800F2
:1080000030E0FEE754413031008000084D332073EA
:10801000797820617070000000000000003230317B
:10802000332E31322E313000000000004DF804EDC7
:10803000134800F1030020F003001249124B88425C
:1080400006D099423CBF50F8042B41F8042BF8D3DA
:108050000E494FF000028B4238BF43F8042BFAD38D
:108060005DF804FB4DF804ED4DF8040DFFF7DEFF5D
:108070005DF8040B0649086000F074FF5DF804FB2E
:1080800067910008003000209030002094380020D4
:108090008C300020D2B201E000F8012B491EFBD247
:1080A00070470022F6E710B504460846114602461E
:1080B0002046FFF7EFFF204610BD000010B5074C2B
:1080C000A060084600F00EF8A0680028FCD1BDE8CA
:1080D00010400021024800F0DEBC000054300020B7
:1080E000000400403EB51A4D04460021284600F029
:1080F000D2FC00220121284600F048FD022C02D0CB
:10810000012C02D005E0012001E040F2E730ADF89B
:1081100004003F20ADF800000020ADF80600ADF8E7
:1081200002006946284600F039FD0121284600F08A
:10813000AFFC0121284600F09DFC01221146284693
:1081400000F024FD0121284600F0A5FC3EBD000002
:10815000000400400121FFF7B1BF4FF0E0200169AA
:1081600021F00101016170474FF0E020016941F009
:10817000010101617047F0B5CC78002204F00F03D3
:10818000E40601D58C7823430C884FF00F0C14F0D3
:10819000FF0F4FF0010E1AD005680E880EFA02F498
:1081A0002640A6420FD196000CFA06F7BD4303FA0B
:1081B00006F63543CE78282E02D0482E02D002E0B3
:1081C000446100E00461521C082AE6D305600A8875
:1081D000FF2A1DD94568002202F108060EFA06F4AE
:1081E0000E882640A6420FD196000CFA06F725EA23
:1081F000070703FA06F5CE783D43282E00D14461E7
:10820000CE78482E00D10461521C082AE4D3456080
:10821000F0BD0246002092680A4200D0012070475B
:108220004161704701617047014800787047000064
:108230006030002001480078704700004A3000207C
:1082400010B500F037FD134C02212046FFF7EAFF7E
:10825000012000F017FD02212046FFF7E1FF332047
:1082600000F010FD02212046FFF7DCFF032000F0A4
:1082700009FD02212046FFF7CCFF10B1032000F0DA
:1082800001FD332000F0FEFC2046BDE81040022135
:10829000FFF7C8BF000801401FB513A00523D0E9B0
:1082A0000010CDE9021012A002AAD0E90010CDE919
:1082B00000103021012000F0BBFA05236A4610218E
:1082C000012000F0ABF9002069460A5CA52A03D121
:1082D000401CC0B20528F8D3052802D0012004B004
:1082E00010BD0020FBE70000A5A5A5A5A500000086
:1082F000FFFFFFFFFF00000070B50F24C278017878
:1083000001254FF0E026DAB1124A126802F4E06269
:10831000C2F5E062120AC2F10403D44042789A40E6
:108320008378234013431A010B4BCA54007800F0A2
:108330001F018D40400906EB8000C0F8005170BD60
:1083400001F01F008540480906EB8000C0F880510D
:1083500070BD00000CED00E000E400E002490843BD
:1083600002490860704700000000FA050CED00E0CB
:10837000044A0029D16901D0014300E08143D16161
:108380007047000000100240044A0029116901D022
:10839000014300E08143116170470000001002407A
:1083A000044A0029916901D0014300E081439161B1
:1083B0007047000000100240044A0029D16801D033
:1083C000014300E08143D16070470000001002408B
:1083D00008B501210820FFF7E3FF4FF40060ADF876
:1083E000000004208DF8030069460248FFF7C3FE31
:1083F00008BD0000000C01402DE9F0474F4F064634
:108400000024012025463870FFF7E2FFFFF7ACFE9D
:108410004B494FF0FF3941F2883C4FF0C808002229
:1084200035B1012D20D0022D35D0032D55D07CE063
:1084300072B67A6062B64CF2503005E07B6803EBAE
:108440008303B0EB430F70D3D1F82C31002BF5D15F
:10845000786840F2DC5300EB8000B3EB400F01D2B0
:10846000012564E0002562E072B67A6062B63548A4
:1084700005E07B6803EB8303B0EB430F55D3D1F8E2
:108480002C31002BF5D0786800EB8000BCEB400F5E
:108490004DD202254BE072B67A6062B602E0BCEBC8
:1084A000400F21D3D1F82C010028786800EB800020
:1084B000F5D1B8EB400F3AD2786800EB8000450068
:1084C00006EB8400641C4368A4B265F30E0343F416
:1084D000004343603480032529E072B67A6062B6B7
:1084E00005E0BCEB400F02D22046BDE8F087D1F892
:1084F0002C010028786800EB8000F2D0B8EB400F28
:1085000015D2786800EB8000450006EB8400641CFF
:108510004368A4B265F30E0323F400434360348040
:1085200072B67A6062B6B4E7FFE74846DDE7B4F5B5
:10853000007FFFF475AFFFF710FED5E76030002035
:1085400000802142A086010070B5144D002405EB87
:108550004400C188002000F013F9641CE4B2032C2D
:10856000F5D30E4D0024183505EB4400818800201A
:1085700000F006F9641CE4B2022CF5D3074D002488
:108580002835002035F8141000F0FAF8641CE4B225
:108590000E2CF6D302490020087070BD0891000827
:1085A0006030002070B5FFF7CFFF064D002400209B
:1085B00035F8141000F0E4F8641CE4B2062CF6D38D
:1085C00070BD00004C91000810B5044600F00CF896
:1085D000002805D02046FFF70FFF024A0021117046
:1085E00010BD00006030002070B500242721204617
:1085F00000F082F80325B5EB901F03D1FF2801D0CE
:10860000012070BD641CA4B2322C01D3002070BDC7
:108610002721002000F070F8EDE700002DE9F0417F
:1086200007460C4690461E46012B25D9134D0020C7
:10863000C5F8B4014FB1C5F8840100F018FB21461C
:10864000384600F01DF8002409E0C5F8B001F4E751
:10865000384600F067F808F80400641CE4B2B4423D
:10866000F6D301202FB1C5F88401BDE8F04100F038
:10867000FEBAC5F8B001F8E7BDE8F08100802142FC
:108680002DE9F047002702001A480D463E462DD03E
:10869000C0F884618046C0F8B46100F0E8FAB146E1
:1086A000464608244FF001084846C6F8B49129060A
:1086B00000D54046C6F8BC0100F0D9FAC6F8B4812E
:1086C0006806050E00F0D3FAD6F8380108B147F075
:1086D0000107641E14F0FF04E6D1C6F8B491C6F891
:1086E000BC8100F0C4FA3846BDE8F087C0F8B0613C
:1086F000D0E700000080214270B50546FFF7C0FFBB
:10870000284600F00FF80446054801212DB1C0F8B5
:10871000841100F0ACFA204670BDC0F8B011F8E743
:10872000008021422DE9F0410024144E274610B369
:10873000C6F884714FF00108C6F8BC8100F097FAC2
:108740000825C6F8B47100F092FA6006040EC6F867
:10875000B48100F08CFAD6F8380108B144F0010475
:108760006D1E15F0FF05ECD1C6F8B47100F07FFA6C
:108770002046BDE8F081C6F8B071DBE700802142F9
:108780002DE9F0471D4E4FF000075FEA00090C4647
:10879000C6F8B47110D0C6F8847100F068FA44F4D9
:1087A00000451024B84601274046C6F8B481290484
:1087B00005D5C6F8BC7104E0C6F8B071EDE7C6F89F
:1087C000BC0100F054FAC6F8B4716804050C00F05E
:1087D0004EFA641E14F0FF04E6D1C6F8B481C6F860
:1087E000BC71B9F1000F05D0C6F88471BDE8F0473F
:1087F00000F03DBAC6F8B071F8E7000000802142F1
:1088000070B504461646FFF73BFF05463146204645
:10881000FFF736FF054901202CB1C1F8840100F0B3
:1088200026FA284670BDC1F8B001F8E70080214261
:108830002DE9F041074615461E46FFF721FF804609
:10884000002406E015F8011B3846FFF719FF641CE9
:10885000E4B2B442F6D30549012027B1C1F884013E
:108860004046BDE8F081C1F8B001F9E7008021423F
:10887000F8B5054601210820FFF792FD4FF420408E
:10888000ADF8000003208DF80200184F10248DF879
:10889000034069463846FFF76EFCA002ADF80000C1
:1088A00004208DF8030069463846FFF764FC280071
:1088B0000F4E4FF001050BD00220ADF800008DF8EF
:1088C000034069463846FFF756FCC6F88451F8BDA8
:1088D0004FF48050ADF800008DF8034069463846EB
:1088E000FFF749FCC6F8B051F8BD0000000C01408C
:1088F000008021423EB501210846FFF739FD4FF0C7
:108900008044204600F0D2F841F28831ADF80410DE
:108910003F21ADF800100021ADF802106946204655
:1089200000F03CF90121204600F0AFF80122114689
:10893000204600F02BF90121204600F0ACF8024956
:108940001C2000F088FB3EBDB189000808B54FF43B
:10895000E060FFF703FD1C208DF8000000208DF87B
:10896000010003208DF8020001208DF80300684605
:10897000FFF7C2FC08BD000008B54FF4C060FFF768
:10898000EDFC1D208DF8000000208DF80100042072
:108990008DF8020001208DF803006846FFF7ACFC5B
:1089A00002491D2000F057FB08BD0000018C0008A3
:1089B00070B54FF080414FF6FE700882264D274A71
:1089C0000124286858B1401C2860322806D110784C
:1089D000C0431070107800F032FB2C6070BD204B4B
:1089E00000251868401C18605188491C89B25180C4
:1089F000B0F5C87F02D11B4804601D60C829EDD1C5
:108A00005580194800F07EFA01281BD1164D2878B0
:108A10007E2817D168787E2814D1A878342811D1FF
:108A20007E2000F0D9F87E2000F0D6F80024285DE2
:108A300000F0D2F8641CE4B2202CF8D302210BA081
:108A400000F0D0F80A48FFF7BFFDC0B20128C5D03A
:108A5000BDE87040FFF7A6BD18300020543000205C
:108A60001430002010300020683000203C3C000012
:108A7000903000200029018802D041F0800102E0FE
:108A800040F27F32114001807047C9430182704734
:108A9000C943018270470029018802D041F00101D9
:108AA00002E040F2FE321140018070472A4910B5C1
:108AB000884202D10121C41443E0B0F1804F09D0B3
:108AC000264988420DD101210220FFF75DFC0021DB
:108AD00002202DE001210846FFF756FC002101206D
:108AE00026E01F49884206D101210420FFF74CFCF3
:108AF000002104201CE01B49884206D101210820E6
:108B0000FFF742FC0021082012E01749884206D1F5
:108B100001211020FFF738FC0021102008E0134944
:108B2000884209D101212020FFF72EFC00212020BE
:108B3000BDE81040FFF728BC0D4988420AD1012149
:108B400044142046FFF738FC2046BDE810400021C1
:108B5000FFF732BC10BD0000002C014000040040B3
:108B600000080040000C00400010004000140040CD
:108B70000034014002460020138A92890B4202EA27
:108B8000010202D0002A00D001207047002A828909
:108B900001D00A4300E08A4382817047028802F0D4
:108BA0008F020280CA884B881A4303881A430280C6
:108BB0008A8882850A880285054A904202D0054A41
:108BC000904201D1097A018601218182704700001B
:108BD000002C01400034014001B50121684600F03D
:108BE00049FA08BD00F046BA0246002012880A423F
:108BF00000D001207047C1F3080181807047000058
:108C000010B50C4C01212046FFF7B4FF002809D015
:108C100001212046FFF73CFF07498A681AB188689E
:108C2000401E886010BD2046BDE810400021FFF7BF
:108C300032BF00000004004054300020014A0249C5
:108C400000F004B8E18C0008883000202DE9F041E4
:108C500004460F461646002503E03946B0476D1C12
:108C6000641C20780028F8D12846BDE8F081032054
:108C700000BF00BF00BF00BF00BF00BF00BF401E5D
:108C8000F8D2704700B5034602E00B2000F003F86D
:108C90005B1EFAD200BD09E0032100BF00BF00BF88
:108CA00000BF00BF00BF00BF491EF8D2401EF3D274
:108CB0007047000008B501210420FFF771FB102068
:108CC0008DF8030003208DF802000220ADF80000AB
:108CD00069460248FFF74FFA08BD0000000801404E
:108CE00070B5074D0446C1B22846FFF784FF402106
:108CF0002846FFF779FF0028F9D0204670BD000014
:108D00000044004010B500F01BF9164C0020206014
:108D10004FF00503144A4FF02A014FF00100FFF70E
:108D200087FD012221211046FFF76AFD0122222141
:108D30001046FFF765FD282225210120FFF760FD81
:108D4000202231210120FFF75BFD0722262101208F
:108D5000FFF756FD0F2220210120FFF751FD0120D2
:108D6000206010BD8081214262910008F8B5012188
:108D70000420FFF715FB4025ADF8005003248DF8C3
:108D8000024010200B4E8DF8030069463046FFF775
:108D9000F2F90848103005602020ADF800008DF889
:108DA000024004208DF8030069463046FFF7E3F9DE
:108DB000F8BD00000008014038B501210820FFF788
:108DC000EFFA0124ADF8004003208DF802001020D6
:108DD0008DF8030069460448FFF7CDF903480021E8
:108DE00001604460416338BD000C01408081214234
:108DF000124810B50168491C01601148006860B153
:108E00001048426840211AB1002242600E4803E037
:108E1000012242600C48001D0160FFF705FA18B1FD
:108E20000A480168491C0160FFF704FA002803D0D2
:108E300007480188491C018010BD00002430002033
:108E4000043000205430002010080140643000201D
:108E50004C30002008B501210420FFF7A1FA1020B2
:108E6000ADF8000003218DF802108DF8030069466B
:108E70000248FFF780F900F003F808BD0008014040
:108E800010B510210248FFF7CBF9002010BD0000FB
:108E90000008014010B510210248FFF7C3F9012076
:108EA00010BD00000008014008210148FFF7B8B9D3
:108EB000000C014008B501210820FFF771FA0121DB
:108EC0000420FFF76DFA0820ADF8000003208DF8AC
:108ED000020010208DF8030069460848FFF74BF99F
:108EE0004FF48070ADF8000004208DF8030069464F
:108EF0000348FFF740F9FFF7D7FF08BD000C01401A
:108F00000008014070B50646002407210120FFF744
:108F1000F3FB0546FF2227210120FFF771FC6806BD
:108F20000BD52023324661210120FFF777FBFF227A
:108F3000E2210120FFF764FC0124204670BD0000FF
:108F400010B5074C002020604FF00D024FF02001BB
:108F50004FF00100FFF754FC0120206010BD00001D
:108F60008081214224480021017041630121417028
:108F70002248016821F470210160016841F4403108
:108F80000160FFF767FF012000F059F800F095F845
:108F9000FFF790FFFFF7EAFEFFF752F900F048F8FD
:108FA000FFF7EAFC0021164800F08CF8FFF7D5F82F
:108FB00014A0FFF743FE0120FFF75AFCFFF7FCFE69
:108FC000FFF7A0FEFFF768F90028FBD112A0FFF71A
:108FD00035FE1648FFF796FF50B100F069F80A21F8
:108FE0001248FFF7FFFDFF2220211048FFF752F83B
:108FF0006420FFF7AFF8ECE70030002000100140DC
:10900000F18D00087561727420697320776F726B3F
:10901000696E670D0A0000006E726632346C303182
:10902000206973206F6B0D0A00000000683000207B
:1090300010B5FFF78BFCBDE81040FFF75BBC08B133
:10904000FFF728BFFFF71CBF2D49096851F8200022
:109050000199019001BD03B44FF00000DFF8A4F0C6
:1090600003B44FF00100DFF89CF003B44FF00200AE
:10907000DFF890F003B44FF00300DFF888F003B49A
:109080004FF00400DFF87CF003B44FF00500DFF888
:1090900074F003B44FF00600DFF868F003B44FF04B
:1090A0000700DFF860F003B44FF00800DFF854F079
:1090B00003B44FF00900DFF84CF003B44FF00A009E
:1090C000DFF840F003B44FF00B00DFF838F003B4E2
:1090D0004FF00C00DFF82CF003B44FF00D00DFF878
:1090E00024F003B44FF00E00DFF818F003B44FF093
:1090F0000F00DFF810F003B44FF01000DFF804F0B9
:109100008C300020499000084E07C00800096C0709
:1091100080080009D90700080009E407C008000911
:1091200068032B04340315041A030B040D03050410
:1091300068020F1302054106F0198B1A101E401B1E
:10914000801C061D88181B58006F04019F114425C0
:109150001013555A705C100104250F135D5A7C5C86
:109160000C0134431010010000000000000000005A
:1091700000000000010000000000000000000000EE
:1091800000000000000000000000000000000000DF
:1091900000000000000000000000000000000000CF
:1091A0007E7E34431010010001000000000000002A
:1091B00001000000000000000000000000000000AE
:1091C000010000000000000000000000000000009E
:1091D000010102030405060708090A0B0C0D0E0F16
:1091E000101112131415161718191A1B1C1D1E1F07
:0891F000000000000000000077
:04000005080080016E
:00000001FF
