:020000040800F2
:1080000030E0FEE754413031008000084D332073EA
:10801000797820617070000000000000003230317B
:10802000332E31322E313000000000004DF804EDC7
:10803000134800F1030020F003001249124B88425C
:1080400006D099423CBF50F8042B41F8042BF8D3DA
:108050000E494FF000028B4238BF43F8042BFAD38D
:108060005DF804FB4DF804ED4DF8040DFFF7DEFF5D
:108070005DF8040B0649086001F0DEFD5DF804FBC5
:10808000C3A20008003000207030002080310020A2
:108090006C30002040EA01039B0703D009E008C9C7
:1080A000121F08C0042AFAD203E011F8013B00F8BD
:1080B000013B521EF9D27047D2B201E000F8012B09
:1080C000491EFBD270470022F6E710B50446084669
:1080D000114602462046FFF7EFFF204610BD30B59F
:1080E0000EE003460A4601E05B1C521C1C78157822
:1080F000AC4201D1002CF7D115F0FF0F04D0401C89
:108100000278002AEDD1002030BD2DE9FE4F81EA32
:10811000030421F0004504F0004423F000414FF037
:10812000000A009450EA050302D052EA010304D188
:108130000020014603B0BDE8F08FC1F30A53C5F338
:108140000A541C44A0FB02B3C5F3130545F4801C7C
:10815000C1F3130141F480180CFB023300FB083E0D
:10816000A4F2F334810A930A41EA8C5143EA88531A
:108170000194A1FB03474FEA9C2505FB03734FEADB
:10818000982601FB06373D05260545EA1435BBEB6D
:1081900006016EEB0503850E920E45EA8C1542EA48
:1081A0008812A5FB0206261E67EB00070C0D44EAA9
:1081B0000334A41947EB1350C1F313064FF0000327
:1081C00019464FEA033343EA165343EA0403019C7A
:1081D000E5FB0201A4F10C040294009C4FEA063274
:1081E000CDE900A400F0B1F8A4E770B521F0004398
:1081F00003430CD0C1F30A540026D4EB060566EB0A
:108200000603D417AD1AA34102DB0020014670BD5E
:10821000001C41EB025170BD0EB5C10F80EAE07049
:108220000844CA07002140F233438DE80E000A4695
:108230000B4600F08AF803B000BD0EB540F23341A2
:1082400002910021CDE900110A460B4600F07DF8AD
:1082500003B000BD70B5C1F30A5201F0004500241F
:10826000C1F3130140F2FF3341F480119A4201DA65
:10827000002070BD40F233439A42A2F2334203DC45
:10828000524200F045F800E090402C43F1D04042CB
:1082900070BD000030B5002904DB4FF000444042BF
:1082A00064EB0101002B04DB4FF00044524264EB0D
:1082B00003038B4208BF824230BD000030B5002965
:1082C00004DB4FF00044404264EB0101002B04DB6F
:1082D0004FF00044524264EB0303994208BF9042BE
:1082E00030BD000030B50B4601460020202201249D
:1082F00009E021FA02F59D4205D303FA02F5491B74
:1083000004FA02F52844151EA2F10102F1DC30BD89
:10831000202A04DB203A21FA02F00021704721FADA
:1083200002F3D040C2F12002914008431946704741
:1083300010B5002B08DA401C41F1000192185B4196
:108340001A4301D120F0010010BD2DE9F04D9246F5
:108350009B4611B1B1FA81F202E0B0FA80F220320C
:10836000904600F044F806460F4640EA0A0041EA0B
:108370000B0152465B46084303D130463946BDE8FF
:10838000F08D194652EA010015D0C8F1400250465E
:10839000FFF7BEFF04460D4650465946424600F0E0
:1083A00026F8084301D0012000E00020044345EAFC
:1083B000E07526432F430A984FEAD625A0EB080024
:1083C0000A304FEA46534FF0000245EA47554FEA5C
:1083D000D72402D500200146D1E70105501961419B
:1083E000DDE9084500196941BDE8F04DA0E7202A04
:1083F00004DB203A00FA02F1002070479140C2F1FC
:10840000200320FA03F319439040704710B5074C3E
:10841000A060084600F00EF8A0680028FCD1BDE876
:1084200010400021024801F040B800004830002010
:10843000000400403EB51A4D04460021284601F0D4
:1084400034F800220121284601F0AAF8022C02D0BB
:10845000012C02D005E0012001E040F2E730ADF848
:1084600004003F20ADF800000020ADF80600ADF894
:1084700002006946284601F09BF80121284601F0D8
:1084800011F80121284600F0FFFF0122114628467D
:1084900001F086F80121284601F007F83EBD0000F2
:1084A000000400400121FFF7B1BF0221FFF7AEBF7A
:1084B0002DE9F04107460C4690461E46012B26D971
:1084C000144D0020C5F8B40157B1C5F8840101F07E
:1084D000CDF944F08001384600F0D6FD002409E0D3
:1084E000C5F8B001F3E718F80410002000F0CCFD47
:1084F000641CE4B2B442F6D301202FB1C5F8840164
:10850000BDE8F04101F0B2B9C5F8B001F8E7BDE847
:10851000F08100000080214200B5012001F0BEF989
:10852000022001F0BBF902205DF804EB01F0B6B9BE
:108530004FF0E020016921F00101016170474FF027
:10854000E020016941F0010101617047F0B5CC788C
:10855000002204F00F03E40601D58C7823430C8835
:108560004FF00F0C14F0FF0F4FF0010E1AD00568FA
:108570000E880EFA02F42640A6420FD196000CFA9D
:1085800006F7BD4303FA06F63543CE78282E02D00F
:10859000482E02D002E0446100E00461521C082A27
:1085A000E6D305600A88FF2A1DD94568002202F13A
:1085B00008060EFA06F40E882640A6420FD1960051
:1085C0000CFA06F725EA070703FA06F5CE783D43CD
:1085D000282E00D14461CE78482E00D10461521C6F
:1085E000082AE4D34560F0BD0246002092680A42A2
:1085F00000D001207047416170470161704770B53C
:1086000000F096F8CC2001F04DF8442001F04AF833
:10861000332001F043F900F08BF8CC2001F042F850
:10862000BE2001F03FF800F0C9FC054600F0C6FC92
:1086300045EA002424F47840FFF7EEFD6FF00302D2
:10864000FFF7D3FDFFF706FE14F4784F00D0404249
:1086500070BD0000014800787047000060300020C5
:1086600072B60349488800224A8062B6704700000B
:10867000443000200148007870470000443000205A
:1086800008B50121082000F0E7F80420ADF800004B
:108690008DF8030069460248FFF758FF08BD000047
:1086A000000C014070B500240721012000F028FDD6
:1086B000054602462721012000F0A6FD68060BD5DD
:1086C0002023094A6121012000F0ACFCFF22E221B5
:1086D000012000F099FD0124FF222721012000F054
:1086E00093FD204670BD00001C30002070B505468B
:1086F0000024FF222721012000F086FD284601F0FA
:1087000041F9FFF7BDFF0949D1F80821002AFBD143
:108710000721012000F0F4FC800600D50124FF228F
:108720002721012000F070FD204670BD008021420D
:1087300010B501F0CBF8134C02212046FFF75DFF86
:10874000012001F0ABF802212046FFF754FF33204F
:1087500001F0A4F802212046FFF74FFF032001F0AB
:108760009DF802212046FFF73FFF10B1032001F0E2
:1087700095F8332001F092F82046BDE81040022120
:10878000FFF73BBF0008014041060748826942F0FD
:10879000010282610548426822F0E062426042685C
:1087A0000A43426070470000001002400000014090
:1087B00070B50F24C278017801254FF0E026DAB1B8
:1087C000124A126802F4E062C2F5E062120AC2F1D3
:1087D0000403D44042789A408378234013431A011B
:1087E0000B4BCA54007800F01F018D40400906EB86
:1087F0008000C0F8005170BD01F01F00854048099D
:1088000006EB8000C0F8805170BD00000CED00E068
:1088100000E400E002490843024908607047000094
:108820000000FA050CED00E0044A0029D16901D0EE
:10883000014300E08143D161704700000010024015
:10884000044A0029116901D0014300E0814311610C
:108850007047000000100240044A0029916901D0CD
:10886000014300E081439161704700000010024025
:10887000044A0029D16801D0014300E08143D1605E
:10888000704700000010024010B500F097FA03286E
:1088900001D0002010BD012010BD00002DE9F047DF
:1088A000DFF8589001240546061D89F80040FFF7BF
:1088B00046FE286800F058F80027A04600243178CA
:1088C000C4F1070208FA02F00142286802D000F061
:1088D00031F801E000F014F8641CE4B2082CEED387
:1088E0007F1C761CFFB2032FE8D3002189F800100B
:1088F000FFF71EFE0120BDE8F08700004430002095
:1089000070B5054672B60026094C668062B601F065
:108910002BF96088A842FCD972B6668062B601F075
:10892000F5F805EB450061888842FCD270BD000077
:108930004430002070B5054672B60026094C6680AA
:1089400062B601F011F905EB450160888142FCD265
:1089500072B6668062B601F0D9F86088A842FCD988
:1089600070BD00004430002070B5054672B6002688
:10897000094C668062B601F0F7F86088A842FCD91D
:1089800072B6668062B601F0C1F8C5EB4510618829
:108990008842FCD270BD00004430002008B501219F
:1089A0000820FFF759FF4FF40060ADF800000420E5
:1089B0008DF8030069460248FFF7C8FD08BD0000B6
:1089C000000C014008B501210820FFF745FF4FF4D6
:1089D0000060ADF8000003208DF8020010208DF833
:1089E000030069460148FFF7B1FD08BD000C0140D6
:1089F0002DE9F041484F06460024012025463870F5
:108A0000FFF7CCFF45494FF0FF3E41F2883C002282
:108A100035B1012D1ED0022D31D0032D4FD073E082
:108A200072B67A6062B64CF2503004E07B6803EBB9
:108A30008303834268D8D1F82C31002BF6D17868B3
:108A400040F2DC5300EB8000984201D901255DE043
:108A500000255BE072B67A6062B6314804E07B685C
:108A600003EB830383424FD8D1F82C31002BF6D08F
:108A7000786800EB8000604548D9022546E072B670
:108A80007A6062B601E060451FD8D1F82C01002859
:108A9000786800EB8000F6D1C82837D9786800EBF9
:108AA000800306EB4400641C4588A4B263F30E0502
:108AB000ABB243F4004343803480032526E072B612
:108AC0007A6062B604E0604502D92046BDE8F081D4
:108AD000D1F82C010028786800EB8000F3D0C8287A
:108AE00014D9786800EB800306EB4400641C4588C9
:108AF000A4B263F30E05ABB223F400434380348089
:108B000072B67A6062B6B8E77046DFE7402CFFF4D1
:108B10007FAFFFF70DFDD8E76030002000802142D5
:108B2000A086010070B5144D002405EB4400C188F7
:108B3000002000F029FB641CE4B2032CF5D30E4D99
:108B40000024183505EB44008188002000F01CFB50
:108B5000641CE4B2022CF5D3074D00242835002014
:108B600035F8141000F010FB641CE4B20E2CF6D3A0
:108B700002490020087070BD64A200086030002027
:108B800070B5FFF7CFFF064D0024002035F8141014
:108B900000F0FAFA641CE4B2062CF6D370BD0000B3
:108BA000A8A2000870B5FFF7BDFF41F27F1421466F
:108BB000002000F0E9FA2146002000F0E5FA064D19
:108BC0000024002035F8141000F0DEFA641CE4B232
:108BD000052CF6D370BD0000B4A200082DE9F041C9
:108BE0008046002400F01EF800280FD0FFF7A7FCF5
:108BF0000B4F0026641CA4B24046FFF7F9FE054661
:108C0000082805DDFFF794FC3E702846BDE8F0819A
:108C10000A2CEFD3FFF78CFC3E700020F6E7000033
:108C20006030002070B500242721204600F068FA4B
:108C300003254FF4FA76B5EB901F03D1FF2801D03E
:108C4000012070BD641CA4B2B44201D3002070BDE9
:108C50002721002000F054FAEDE700002DE9F04153
:108C6000104C0126074626604FF00A00FFF71AFC59
:108C7000384600F019F8002525600A20FFF712FC9D
:108C8000384600F011F825600A20FFF70BFC384643
:108C900000F00AF826603220FFF704FC0120BDE84E
:108CA000F0810000AC8121422DE9F041054600240D
:108CB000FFF745FCFFF786FE1BA000F01FFD1D4ED1
:108CC000022000273070DFF8708014E005EB4400CC
:108CD0004188090472B6776062B61AD50122C8F8D5
:108CE000AC214088C0F30E01706800EB8000884220
:108CF000FAD3641CA4B22888A042E7D8FFF718FC76
:108D0000C8F8AC711420FFF7D0FB37700120BDE824
:108D1000F081C8F8AC714088C0F30E01706800EBB8
:108D200080008842FAD3E4E773656E64696E670D6C
:108D30000A000000603000200080214270B5054626
:108D4000002400F01FF8002810D000210A232A4632
:108D50000846FFF7ADFB4FF4FA70094907E0641CC1
:108D6000A4B2844203D3FFF7DDFE002070BDD1F82A
:108D70000821002AF3D02846FFF770FF012070BDBC
:108D80000080214270B500242721204600F0B8F968
:108D9000A0254FF4FA7635EA000103D1FF2801D06F
:108DA000012070BD641CA4B2B44201D3002070BD88
:108DB0002721002000F0A4F9EDE700002DE9F14F94
:108DC0007A4C82B002202070FFF7B9FB72B6002007
:108DD000608062B6764B02E06088C8287ED8D3F8FF
:108DE00020010028F8D1FFF73BFC054640F6B830DB
:108DF00003E06E4949888142F0D8D3F82011002958
:108E0000F7D0FFF72DFC41194A090299142D0A6089
:108E100064D905EB4501B0EBC10FF9D905EB45016C
:108E200001EB0511B0EB410F58D200279946002401
:108E30000026FFF715FC4A4605E05C48418841F6EC
:108E4000380081424AD8D2F8200191460028F4D156
:108E5000FFF706FC80460320B5FBF0F0A5EB5501BB
:108E6000091A41451CDA2846FFF7E7F9514A524BE7
:108E7000FFF74BF982468B464046FFF7DEF9524634
:108E80005B46FFF707FA0BD207EB47016846084439
:108E9000C6F10703025D012199408A43025521E092
:108EA0002846FFF7CAF9434A434BFFF72EF982469B
:108EB0008B464046FFF7C1F952465B46FFF7FEF985
:108EC00070D205EB850141456CD907EB4701684637
:108ED0000844C6F10703015D012200E062E09A4008
:108EE00011430155314B41F63808D9F8200158B1EA
:108EF000761CF6B2082E9CD3641CE4B2032C97D3E4
:108F0000FFF7AEFB4C4606E059884145EDD949E0F4
:108F10005888C82846D8D4F820010028F8D1FFF78F
:108F20009FFB0546404602E0598881423AD8D4F872
:108F300020110029F8D0FFF793FB05EB850101EB29
:108F4000C501B0EB410F2DD305EB450101EB051138
:108F5000B0EB410F26D8029928447F1C0968FFB264
:108F600001EB501041080298022F0160FFF45FAF3F
:108F70009DF800009DF80310884213D19DF8010070
:108F80009DF8041088420DD19DF802109DF805004F
:108F9000814207D10298BDF80020828081710320B0
:108FA000BDE8FE8F4FF0FF30FAE7000044300020AC
:108FB000000021425C8FC2F5285CFF3F70B50024A1
:108FC000174E2546640802213046FFF716FB00BF06
:108FD00000BF02213046FFF70EFB00BF00BF00BFFD
:108FE00002213046FFF709FB00BF00BF00BF00BFF2
:108FF00000BF02213046FFF7F7FA08B144F08004C1
:10900000042000F04BFC6D1CEDB2082DDAD30221D8
:109010003046FFF7F2FA042000F040FC204670BD15
:10902000000801402DE9F04107460C4690461E46D7
:10903000012B25D9134D0020C5F8B4014FB1C5F857
:10904000840100F013FC2146384600F01DF800248E
:1090500009E0C5F8B001F4E7384600F067F808F811
:109060000400641CE4B2B442F6D301202FB1C5F869
:109070008401BDE8F04100F0F9BBC5F8B001F8E7A4
:10908000BDE8F081008021422DE9F0470027020071
:109090001A480D463E462DD0C0F884618046C0F87F
:1090A000B46100F0E3FBB146464608244FF00108E6
:1090B0004846C6F8B491290600D54046C6F8BC011A
:1090C00000F0D4FBC6F8B4816806050E00F0CEFBB4
:1090D000D6F8380108B147F00107641E14F0FF0408
:1090E000E6D1C6F8B491C6F8BC8100F0BFFB3846A3
:1090F000BDE8F087C0F8B061D0E7000000802142F1
:1091000070B50546FFF7C0FF284600F00FF804468B
:10911000054801212DB1C0F8841100F0A7FB2046BD
:1091200070BDC0F8B011F8E7008021422DE9F04190
:109130000024144E274610B3C6F884714FF001087E
:10914000C6F8BC8100F092FB0825C6F8B47100F0A7
:109150008DFB6006040EC6F8B48100F087FBD6F8DC
:10916000380108B144F001046D1E15F0FF05ECD183
:10917000C6F8B47100F07AFB2046BDE8F081C6F86D
:10918000B071DBE7008021422DE9F0471D4E4FF022
:1091900000075FEA00090C46C6F8B47110D0C6F8A3
:1091A000847100F063FB44F400451024B8460127A5
:1091B0004046C6F8B481290405D5C6F8BC7104E060
:1091C000C6F8B071EDE7C6F8BC0100F04FFBC6F879
:1091D000B4716804050C00F049FB641E14F0FF0430
:1091E000E6D1C6F8B481C6F8BC71B9F1000F05D05C
:1091F000C6F88471BDE8F04700F038BBC6F8B0711E
:10920000F8E700000080214270B504461646FFF7DB
:109210003BFF054631462046FFF736FF0549012052
:109220002CB1C1F8840100F021FB284670BDC1F8C3
:10923000B001F8E7008021422DE9F04107461546CC
:109240001E46FFF721FF8046002406E015F8011BAB
:109250003846FFF719FF641CE4B2B442F6D305495F
:10926000012027B1C1F884014046BDE8F081C1F872
:10927000B001F9E700802142F8B501210820FFF78D
:10928000EBFA4FF42040ADF8000003208DF8020007
:10929000144F10248DF8034069463846FFF756F9FD
:1092A000A002ADF8000004208DF80300694638469E
:1092B000FFF74CF92002ADF800008DF80340694635
:1092C0003846FFF743F9084E0125F5624FF00200DA
:1092D000ADF800008DF8034069463846FFF736F9CF
:1092E0003560F8BD000C0140848121423EB501216A
:1092F0000846FFF799FA4FF08044204600F0E0F866
:1093000041F28831ADF804103F21ADF80010002182
:10931000ADF802106946204600F04AF901212046C6
:1093200000F0BDF801221146204600F039F9012174
:10933000204600F0BAF802491C2000F02CFF3EBD88
:10934000A993000808B54FF4E060FFF763FA1C200A
:109350008DF8000000208DF8010003208DF8020038
:1093600001208DF803006846FFF722FA08BD0000CF
:1093700008B54FF4C060FFF74DFA1D208DF80000CE
:1093800000208DF8010004208DF8020001208DF8E6
:1093900003006846FFF70CFA02491D2000F0FBFEAF
:1093A00008BD00006996000870B54FF080404FF688
:1093B000FE7101822E48017811B14188491C41801B
:1093C0002B48001D017811B14188491C4180284873
:1093D0000830017811B14188491C4180254D244A4B
:1093E000012428680C3A58B1401C2860322806D164
:1093F0001078C0431070107800F0C1FE2C6070BD72
:109400001D4B00251968491C19605088401C80B20A
:109410005080B1F5C87F02D118490C601D60C82882
:10942000EDD15580164800F0A5FB01281BD1144D45
:1094300028787E2817D168787E2814D1A878342817
:1094400011D17E2000F0FCF87E2000F0F9F8002415
:10945000285D00F0F5F8641CE4B2202CF8D302215A
:1094600008A000F0F3F8BDE87040FFF789BB0000EA
:10947000543000201830002014300020103000201C
:109480001C3000203C3C00000029018802D041F043
:10949000800102E040F27F32114001807047C943F1
:1094A00001827047C943018270470029018802D0B8
:1094B00041F0010102E040F2FE32114001807047AC
:1094C0002A4910B5884202D10121C41443E0B0F109
:1094D000804F09D0264988420DD101210220FFF793
:1094E000AFF9002102202DE001210846FFF7A8F97D
:1094F0000021012026E01F49884206D101210420D5
:10950000FFF79EF9002104201CE01B49884206D188
:1095100001210820FFF794F90021082012E01749E3
:10952000884206D101211020FFF78AF9002110207E
:1095300008E01349884209D101212020FFF780F972
:1095400000212020BDE81040FFF77AB90D4988427C
:109550000AD1012144142046FFF78AF92046BDE8CC
:1095600010400021FFF784B910BD0000002C01401D
:109570000004004000080040000C004000100040C3
:10958000001400400034014002460020138A9289F2
:109590000B4202EA010202D0002A00D001207047EB
:1095A000002A828901D00A4300E08A438281704701
:1095B000028802F08F020280CA884B881A4303880F
:1095C0001A4302808A8882850A880285054A904269
:1095D00002D0054A904201D1097A01860121818297
:1095E00070470000002C0140003401402DE9F0419B
:1095F000114D0027114E2F6000F01DFE040012D007
:10960000286822463044114600F0D9FD2868315CB4
:109610003C2904D1311811F8011C3C2909D02044FF
:109620000027286000E07F1C0120FEF73BFF642F2D
:10963000E2D3BDE8F08100004030002080300020FF
:1096400001B50121684600F0B5FD08BD00F0B2BDCE
:109650000246002012880A4200D001207047C1F360
:10966000080181807047000010B50C4C0121204694
:10967000FFF78AFF002809D001212046FFF712FFDB
:1096800007498A681AB18868401E886010BD204664
:10969000BDE810400021FFF708BF000000040040B3
:1096A0004830002070B5144E054600240221304693
:1096B000FEF7A1FF022000F0F1F8E8074FF00201E9
:1096C000304602D0FEF799FF01E0FEF794FF6D08E7
:1096D000FEF722FF02213046FEF78FFF641CE4B242
:1096E000082CE3D302213046FEF787FFBDE8704027
:1096F000072000F0D3B80000000801400FB4054B6C
:1097000010B503A9044A029800F008F810BC5DF8EF
:1097100014FB0000F9980008683000202DE9FF4F85
:1097200089B004469B46002596E0252833D10027C2
:10973000641C4D4AB84601212378203B01FA03F00E
:10974000104202D00743641CF6E720782E2819D176
:1097500014F8010F47F004072A280ED06FF02F02EB
:109760002078A0F1300109290CD808EB880102EB20
:10977000410100EB0108641CF2E70A98641C50F8F0
:10978000048B0A90207800286AD0642808D06928C1
:1097900006D075281FD05A460B9990476D1C5AE089
:1097A0000A994FF00A0901C90A91002804DAC0F1A8
:1097B00000004FF02D0102E0390504D52B218DF872
:1097C0002010012104E0F90701D02021F7E7002152
:1097D0008A4608AE0CE00A994FF00A0901C90A91BD
:1097E000F5E74946FEF77EFD01F1300106F8011D5F
:1097F0000028F6D1ADEB060000F12009780701D46E
:109800004FF00108C84502DDA8EB090000E0002088
:109810008046002706E008A85A46C05D0B9990478D
:109820006D1C7F1C5745F6DB04E030205A460B992F
:1098300090476D1CB8F10001A8F10108F5DC05E0C6
:1098400016F8010B5A460B9990476D1CB9F10001AF
:10985000A9F10109F4DC641C207800287FF465AFCD
:109860000DB02846BDE8F08F09280100032000BF95
:1098700000BF00BF00BF00BF00BF00BF401EF8D246
:10988000704770B5051E00DA0125002403E064204E
:1098900000F004F8641CAC42F9DB70BD00B503466F
:1098A00002E00B2000F003F85B1EFAD200BD09E0D5
:1098B000032100BF00BF00BF00BF00BF00BF00BF4B
:1098C000491EF8D2401EF3D27047000008B50121AE
:1098D0000420FEF7C1FF10208DF8030003208DF84F
:1098E00002000220ADF8000069460248FEF72EFE95
:1098F00008BD00000008014070B5074D0446C1B224
:109900002846FFF7ACFE40212846FFF7A1FE0028BD
:10991000F9D0204670BD00000044004010B500F0B2
:1099200047F9164C002020604FF00503144A4FF011
:109930002A014FF00100FFF77FFC01222121104690
:10994000FFF762FC012222211046FFF75DFC28226E
:1099500025210120FFF758FC202231210120FFF7AB
:1099600053FC072226210120FFF74EFC0F22202165
:109970000120FFF749FC0120206010BD80812142B9
:10998000BEA2000870B5054600F012F91C4C00217B
:1099900021604FF005031B4A4FF030014FF00100EA
:1099A000FFF74AFC0523174A2A210120FFF744FC50
:1099B00020232A46A0210120FFF73EFC012221217D
:1099C0001046FFF721FC012222211046FFF71CFC64
:1099D0001A2224210120FFF717FC2822252101202B
:1099E000FFF712FC072226210120FFF70DFC0E22B3
:1099F00020210120FFF708FC0120206070BD00003D
:109A000080812142BEA20008F8B501210420FEF7A2
:109A100023FF4025ADF8005003248DF802401020AC
:109A20000B4E8DF8030069463046FEF78FFD08485F
:109A3000103005602020ADF800008DF802400420B1
:109A40008DF8030069463046FEF780FDF8BD000042
:109A500000080140124810B50168491C0160114816
:109A6000006860B11048426840211AB1002242608B
:109A70000E4803E0012242600C48001D0160FEF721
:109A8000E9FD18B10A480168491C0160FEF7F2FDC2
:109A9000002803D007480188491C018010BD000040
:109AA0003C300020003000204830002010080140E9
:109AB000643000204630002008B501210420FEF764
:109AC000CBFE1020ADF8000003218DF802108DF8B8
:109AD000030069460248FEF739FD00F003F808BDAF
:109AE0000008014010B510210248FEF784FD002057
:109AF00010BD00000008014010B510210248FEF71B
:109B00007CFD012010BD0000000801400821014833
:109B1000FEF771BD000C014008B501210820FEF7D9
:109B20009BFE01210420FEF797FE0820ADF80000FF
:109B300003208DF8020010208DF8030069460848C4
:109B4000FEF704FD4FF48070ADF8000004208DF89E
:109B5000030069460348FEF7F9FCFFF7D7FF08BD8D
:109B6000000C01400008014008210148FEF745BDF6
:109B7000000C014070B50646002407210120FFF7C4
:109B8000BFFA0546FF2227210120FFF73DFB6806AB
:109B90000BD52023324661210120FFF743FAFF2233
:109BA000E2210120FFF730FB0124204670BD0000B8
:109BB00010B5074C002020604FF00D024FF020013F
:109BC0004FF00100FFF720FB0120206010BD0000D6
:109BD0008081214210B5092111A000F0EBFA4FF469
:109BE000487421461148FEF76EFA4FF4966214212C
:109BF0000E4800F0E4FA0EA10C48FEF770FA40B1EE
:109C00000C4A0020214610600848FEF75CFA00204C
:109C100010BD21460548FEF756FA012010BD000090
:109C200041542B454E544D0D0A0000008030002059
:109C30002B6F6B0008300020A2B0F94E00240120E9
:109C40007470FEF7A1FDF748016821F470210160EE
:109C5000016841F440310160FFF72EFF012000F060
:109C60008EFA00F0CAFAFFF757FFFFF7CDFEFEF7B6
:109C70005FFD00F07DFAFFF77BFB0021EA4800F072
:109C8000C1FAFEF755FC0020FFF7F6FAE7A0FFF750
:109C900035FDDFF8ACB3EB4F0125B24656469AF8D6
:109CA0000000012802D0022815D037E07888B0F5EE
:109CB0007A7F06D9347000F053FA0621E248FFF7A4
:109CC000C5FCD7481830FEF7EDFC012826D13470CA
:109CD00000F046FA1DE07888B0F57A7F06D9347036
:109CE00000F03EFA0621D848FFF7B0FCCC48183007
:109CF000FEF7D8FC012811D1347000F031FAD248B7
:109D000002210E38FFF7A2FCC54820211830FFF7CA
:109D10009DFCCD480621801FFFF798FC00F08BFAD0
:109D200000281AD0FFF762FCDFF8208398F80200C1
:109D30003A2813D0C6A14046FEF7D1F90028F0D04A
:109D4000C4A14046FEF7CBF900286FD00A20FFF7E8
:109D500098FD0A21C0A0FFF779FCE2E100F000FACB
:109D600098F800004C280CD006DC42286FD044281C
:109D70006ED0462841D179E053286AD05428F9D1D1
:109D80002BE198F80100482837D006DC422861D042
:109D9000442862D04628EDD130E0542847D05728D7
:109DA000E8D17570B1465E46ABF802408BF80050C2
:109DB00000F0DAF9B0464E4612E06846FEF764FD60
:109DC00070B1A148747003210C38FFF73FFC0821E3
:109DD0006846FFF73BFC9C4802211638FFF736FC2B
:109DE000B8F80200642802D870780128E5D000F0A5
:109DF000B7F9B8F80200642870D852E1FEF792FE75
:109E0000FEF7BEFE6846FEF7E9FE002807DD8E4835
:109E100003210938FFF71AFC8221684601E0062178
:109E20008948FFF713FC00F09FF93AE13CE13078F4
:109E30000228E2D0844802211238FFF707FCFFF71E
:109E40006DFD7C803D7000F08FF9357029E152E0A6
:109E5000C8E019E100F0CCF923E1042181A0FFF76B
:109E6000F5FB00F0CAF9042180A0D5E098F80100C4
:109E700046281BD04828C0D0542830D05728BCD101
:109E80007148002603210C38FFF7E0FB6F481038BB
:109E9000D0F813100091D0F8170001906846FEF733
:109EA000FDFC761CF6B2062EF8D31DE066480321B1
:109EB0000938FFF7CBFBFEF735FEFEF773FE822273
:109EC00008F103016846FEF7E5F8BDF8001069A047
:109ED000FFF714FC6846FEF731FF05E04CE008F19F
:109EE0000400FEF703FC18B157480621801F93E0D9
:109EF0000621554890E098F8010048285BD004DC22
:109F0000442858D0462856D138E0542854D05728F1
:109F100051D17570B2465E46ABF802408BF80050E6
:109F200000F022F9484802211438FFF78FFBB046B1
:109F30004FF47A79564612E06846FEF7A5FC70B1F8
:109F40004148747002211438FFF780FB08216846ED
:109F5000FFF77CFB3C4802211638FFF777FBB8F887
:109F60000200484502D870780128E5D000F0F8F8E2
:109F7000B8F8020048451ED97470B9E7324802218A
:109F80001038FFF763FBABF802408BF8005000F08D
:109F9000EBF8FEF7C7FDFEF7F3FD6846FEF71EFE81
:109FA000002802DD8221684601E006212648FFF7ED
:109FB0004DFB00F0D5F874E03078012871D02248CC
:109FC00002211038FFF742FBFFF7A8FC7C803D70B0
:109FD00000F0CAF80220307063E098F801004B28C6
:109FE00082D05EE098F80100542802D053280FD0A8
:109FF00057E0FEF704FBC0B288F802005528F8D0FD
:10A000003C2088F8030088F8040005210F4803E08D
:10A01000C6E9014504211AA0FFF718FB41E0000042
:10A020000430002000100140559A000875617274D8
:10A0300020697320776F726B696E670D0A000000EC
:10A0400054300020583000205EA2000880300020EC
:10A050002B6F00004150000041542B57414B455994
:10A060000D0A000054463C3C000000004C443C3CBF
:10A07000000000006C656E203D2025640D0A000084
:10A0800044533C3C0000000098F80100582808D1D7
:10A090000E2127A000F08EF800F062F800F0C6F85C
:10A0A000C1E600F061F83CE025A12748FEF717F86B
:10A0B00048B17561B46000F057F8FFF78BFD80BBC5
:10A0C000B46074602DE021A11F48FEF708F810B3BA
:10A0D0001D4810211038FDF7F6FF1DA11A48FDF7A5
:10A0E000FEFF0146184810221038FDF7D3FFFFF796
:10A0F00071FD70B9F460032117A07460FFF7A6FA30
:10A10000114810211038FFF7A1FA022113A0FFF720
:10A110009DFA3461C5E7FFF75DFD10B9B460746066
:10A12000746109484FF480718470FDF7CCFFB5E588
:10A13000656E7465725F7570675F6D6F6465000052
:10A140004F50454E00000000803000204D4143003C
:10A150002B6F6B3D00000000444D3A003C3C00007A
:10A1600000210120FEF760BB01210846FEF75CBB21
:10A1700010B5FFF7E7F8BDE81040FFF7B7B808B132
:10A18000FFF7BABCFFF7AEBC2D49096851F82000B3
:10A190000199019001BD03B44FF00000DFF8A4F075
:10A1A00003B44FF00100DFF89CF003B44FF002005D
:10A1B000DFF890F003B44FF00300DFF888F003B449
:10A1C0004FF00400DFF87CF003B44FF00500DFF837
:10A1D00074F003B44FF00600DFF868F003B44FF0FA
:10A1E0000700DFF860F003B44FF00800DFF854F028
:10A1F00003B44FF00900DFF84CF003B44FF00A004D
:10A20000DFF840F003B44FF00B00DFF838F003B490
:10A210004FF00C00DFF82CF003B44FF00D00DFF826
:10A2200024F003B44FF00E00DFF818F003B44FF041
:10A230000F00DFF810F003B44FF01000DFF804F067
:10A240006C30002089A100083C3C42574C464246F5
:10A25000425446573A46463A52453A303C3C5245BB
:10A260003A313C3C4E07C00800096C0780080009E1
:10A27000D90700080009E407C008000968032B0497
:10A28000340315041A030B040D03050468020F13AD
:10A2900002054106F0198B1A101E401B801C061D7A
:10A2A00088181B58006F04019F1144251013555A3C
:10A2B000705C100104250F135D5A7C5C0C01344363
:10A2C000101001000000000000000000000000006D
:10A2D000010000000000000000000000000000007D
:10A2E000010102030405060708090A0B0C0D0E0FF5
:10A2F000101112131415161718191A1B1C1D1E1FE6
:10A30000000000000000000000000000000000004D
:10A31000010000000000000000000000000000003C
:10A32000000000000000000000000000000000002D
:04A330000000000029
:04000005080080016E
:00000001FF
