:020000040800F2
:1080000030E0FEE754413031008000084D332073EA
:10801000797820617070000000000000003230317B
:10802000332E31322E313000000000004DF804EDC7
:10803000134800F1030020F003001249124B88425C
:1080400006D099423CBF50F8042B41F8042BF8D3DA
:108050000E494FF000028B4238BF43F8042BFAD38D
:108060005DF804FB4DF804ED4DF8040DFFF7DEFF5D
:108070005DF8040B0649086001F016FA5DF804FB90
:10808000079700080030002088300020C0430020FF
:10809000843000202DE9F05F0546002092469B4683
:1080A00088460646814640241BE02846414647460E
:1080B000224600F020F852465B46801A994110D3C0
:1080C00010461946224600F026F82D1A67EB0108E3
:1080D0004F4622460120002100F01DF817EB000951
:1080E0004E41201EA4F10104DFDC484631462A46F9
:1080F0004346BDE8F09F202A04DB203A21FA02F033
:108100000021704721FA02F3D040C2F120029140D1
:10811000084319467047202A04DB203A00FA02F18E
:10812000002070479140C2F1200320FA03F3194365
:108130009040704710B5074CA060084600F00EF85C
:10814000A0680028FCD1BDE810400021024800F0E2
:10815000F0BD00004C300020000400403EB51A4D38
:1081600004460021284600F0E4FD002201212846B3
:1081700000F05AFE022C02D0012C02D005E00120B2
:1081800001E040F2E730ADF804003F20ADF8000018
:108190000020ADF80600ADF802006946284600F060
:1081A0004BFE0121284600F0C1FD0121284600F0C8
:1081B000AFFD01221146284600F036FE0121284677
:1081C00000F0B7FD3EBD0000000400400121FFF7B4
:1081D000B1BF0221FFF7AEBF2DE9F04107460C46C3
:1081E00090461E46012B26D9144D0020C5F8B40137
:1081F00057B1C5F8840100F0E7FF44F0800138462C
:1082000000F086FB002409E0C5F8B001F3E718F898
:108210000410002000F07CFB641CE4B2B442F6D3EE
:1082200001202FB1C5F88401BDE8F04100F0CCBFBA
:10823000C5F8B001F8E7BDE8F081000000802142F8
:108240004FF0E020016921F00101016170474FF01A
:10825000E020016941F0010101617047F0B5CC787F
:10826000002204F00F03E40601D58C7823430C8828
:108270004FF00F0C14F0FF0F4FF0010E1AD00568ED
:108280000E880EFA02F42640A6420FD196000CFA90
:1082900006F7BD4303FA06F63543CE78282E02D002
:1082A000482E02D002E0446100E00461521C082A1A
:1082B000E6D305600A88FF2A1DD94568002202F12D
:1082C00008060EFA06F40E882640A6420FD1960044
:1082D0000CFA06F725EA070703FA06F5CE783D43C0
:1082E000282E00D14461CE78482E00D10461521C62
:1082F000082AE4D34560F0BD0246002092680A4295
:1083000000D0012070474161704701617047000053
:1083100001480078704700005830002010B500F088
:1083200075FF134C02212046FFF7EFFF012000F0FC
:1083300064FF02212046FFF7E6FF332000F05DFFD7
:1083400002212046FFF7E1FF032000F056FF022143
:108350002046FFF7D1FF10B1032000F04EFF33207D
:1083600000F04BFF2046BDE810400221FFF7CDBFD3
:10837000000801401FB513A00523D0E90010CDE986
:10838000021012A002AAD0E90010CDE9001030219D
:10839000012000F095FB05236A461021012000F022
:1083A00085FA002069460A5CA52A03D1401CC0B2A8
:1083B0000528F8D3052802D0012004B010BD002004
:1083C000FBE70000A5A5A5A5A5000000FFFFFFFF96
:1083D000FF00000070B50F24C278017801254FF02E
:1083E000E026DAB1124A126802F4E062C2F5E062F5
:1083F000120AC2F10403D44042789A4083782340A1
:1084000013431A010B4BCA54007800F01F018D4032
:10841000400906EB8000C0F8005170BD01F01F005C
:108420008540480906EB8000C0F8805170BD00000F
:108430000CED00E000E400E0024908430249086056
:10844000704700000000FA050CED00E0044A002926
:10845000D16901D0014300E08143D1617047000040
:1084600000100240044A0029116901D0014300E0D4
:10847000814311617047000000100240044A002946
:10848000916901D0014300E0814391617047000090
:1084900000100240044A0029D16801D0014300E0E5
:1084A0008143D160704700000010024008B50121EF
:1084B0000820FFF7E3FF4FF40060ADF80000042050
:1084C0008DF8030069460248FFF7C8FE08BD0000AA
:1084D000000C014008B501210820FFF7CFFF4FF441
:1084E0000060ADF8000003208DF8020010208DF828
:1084F000030069460148FFF7B1FE08BD000C0140CA
:108500002DE9F0474F4F06460024012025463870DC
:10851000FFF7CCFFFFF79BFE4B494FF0FF3941F2CD
:10852000883C4FF0C808002235B1012D20D0022D23
:1085300035D0032D55D07CE072B67A6062B64CF22D
:10854000503005E07B6803EB8303B0EB430F70D33F
:10855000D1F82C31002BF5D1786840F2DC5300EBD8
:108560008000B3EB400F01D2012564E0002562E0FA
:1085700072B67A6062B6354805E07B6803EB830328
:10858000B0EB430F55D3D1F82C31002BF5D07868E0
:1085900000EB8000BCEB400F4DD202254BE072B6E1
:1085A0007A6062B602E0BCEB400F21D3D1F82C0117
:1085B0000028786800EB8000F5D1B8EB400F3AD284
:1085C000786800EB8000450006EB8400641C43687B
:1085D000A4B265F30E0343F40043436034800325E3
:1085E00029E072B67A6062B605E0BCEB400F02D2B9
:1085F0002046BDE8F087D1F82C010028786800EB10
:108600008000F2D0B8EB400F15D2786800EB800004
:10861000450006EB8400641C4368A4B265F30E03B6
:1086200023F400434360348072B67A6062B6B4E7E4
:10863000FFE74846DDE7B4F5007FFFF475AFFFF7CD
:10864000FFFDD5E75830002000802142A0860100C0
:1086500070B5144D002405EB4400C188002000F0E3
:10866000D7F9641CE4B2032CF5D30E4D0024183561
:1086700005EB44008188002000F0CAF9641CE4B2D4
:10868000022CF5D3074D00242835002035F81410AE
:1086900000F0BEF9641CE4B20E2CF6D302490020AF
:1086A000087070BDA89600085830002070B5FFF71C
:1086B000CFFF064D0024002035F8141000F0A8F973
:1086C000641CE4B2062CF6D370BD0000EC960008E2
:1086D00070B5FFF7BDFF41F27F142146002000F086
:1086E00097F92146002000F093F9064D0024002060
:1086F00035F8141000F08CF9641CE4B2052CF6D3A4
:1087000070BD0000F896000810B5044600F00CF8A3
:10871000002805D02046FFF7F3FE024A0021117021
:1087200010BD00005830002070B5002427212046DD
:1087300000F02AF90325B5EB901F03D1FF2801D0E3
:10874000012070BD641CA4B2322C01D3002070BD86
:108750002721002000F018F9EDE700002DE9F04195
:10876000104C0126074626604FF00A00FFF72EFD49
:10877000384600F019F8002525600A20FFF726FD8D
:10878000384600F011F825600A20FFF71FFD384633
:1087900000F00AF826603220FFF718FD0120BDE83E
:1087A000F0810000AC8121422DE9F0410546002412
:1087B000FFF74DFDFFF78EFE1B4E022000273070A5
:1087C000DFF8688015E005EB84004168090472B6A3
:1087D000776062B61BD50122C8F8AC214068C0F3AF
:1087E0000E01706800EB8000B1EB400FF9D8641CFB
:1087F000A4B22888A042E6D8FFF722FDC8F8AC71E1
:108800001420FFF7E6FC37700120BDE8F081C8F8BE
:10881000AC714068C0F30E01706800EB8000B1EBF2
:10882000400FF9D8E3E700005830002000802142D3
:1088300070B50546002400F01DF800280ED0002178
:108840000A232A460846FFF7C7FC094907E0641CCB
:10885000A4B2322C03D3FFF7FBFE002070BDD1F889
:1088600008010028F3D02846FFF778FF012070BDEB
:108870000080214270B500242721204600F084F8B2
:10888000A0254FF4FA7635EA000103D1FF2801D084
:10889000012070BD641CA4B2B44201D3002070BD9D
:1088A0002721002000F070F8EDE700002DE9F041ED
:1088B00007460C4690461E46012B25D9134D002035
:1088C000C5F8B4014FB1C5F8840100F07DFC214624
:1088D000384600F01DF8002409E0C5F8B001F4E7BF
:1088E000384600F067F808F80400641CE4B2B442AB
:1088F000F6D301202FB1C5F88401BDE8F04100F0A6
:1089000063BCC5F8B001F8E7BDE8F0810080214202
:108910002DE9F047002702001A480D463E462DD0AB
:10892000C0F884618046C0F8B46100F04DFCB146E7
:10893000464608244FF001084846C6F8B491290677
:1089400000D54046C6F8BC0100F03EFCC6F8B48134
:108950006806050E00F038FCD6F8380108B147F07B
:108960000107641E14F0FF04E6D1C6F8B491C6F8FE
:10897000BC8100F029FC3846BDE8F087C0F8B06142
:10898000D0E700000080214270B50546FFF7C0FF28
:10899000284600F00FF80446054801212DB1C0F823
:1089A000841100F011FC204670BDC0F8B011F8E74A
:1089B000008021422DE9F0410024144E274610B3D7
:1089C000C6F884714FF00108C6F8BC8100F0FCFBCA
:1089D0000825C6F8B47100F0F7FB6006040EC6F86F
:1089E000B48100F0F1FBD6F8380108B144F001047D
:1089F0006D1E15F0FF05ECD1C6F8B47100F0E4FB74
:108A00002046BDE8F081C6F8B071DBE70080214266
:108A10002DE9F0471D4E4FF000075FEA00090C46B4
:108A2000C6F8B47110D0C6F8847100F0CDFB44F4E0
:108A300000451024B84601274046C6F8B4812904F1
:108A400005D5C6F8BC7104E0C6F8B071EDE7C6F80C
:108A5000BC0100F0B9FBC6F8B4716804050C00F065
:108A6000B3FB641E14F0FF04E6D1C6F8B481C6F867
:108A7000BC71B9F1000F05D0C6F88471BDE8F047AC
:108A800000F0A2BBC6F8B071F8E7000000802142F8
:108A900070B504461646FFF73BFF054631462046B3
:108AA000FFF736FF054901202CB1C1F8840100F021
:108AB0008BFB284670BDC1F8B001F8E70080214269
:108AC0002DE9F041074615461E46FFF721FF804677
:108AD000002406E015F8011B3846FFF719FF641C57
:108AE000E4B2B442F6D30549012027B1C1F88401AC
:108AF0004046BDE8F081C1F8B001F9E700802142AD
:108B0000F8B5054601210820FFF7B8FC4FF42040D6
:108B1000ADF8000003208DF80200184F10248DF8E6
:108B2000034069463846FFF799FBA002ADF8000004
:108B300004208DF8030069463846FFF78FFB2800B4
:108B40000F4E4FF001050BD00220ADF800008DF85C
:108B5000034069463846FFF781FBC6F88451F8BDEB
:108B60004FF48050ADF800008DF803406946384658
:108B7000FFF774FBC6F8B051F8BD0000000C0140CF
:108B8000008021423EB501210846FFF75FFC4FF00F
:108B90008044204600F0D8F841F28831ADF8041046
:108BA0003F21ADF800100021ADF8021069462046C3
:108BB00000F042F90121204600F0B5F801221146EB
:108BC000204600F031F90121204600F0B2F80249B8
:108BD0001C2000F010FD3EBD418C000808B54FF48C
:108BE000E060FFF729FC1C208DF8000000208DF8C4
:108BF000010003208DF8020001208DF80300684673
:108C0000FFF7E8FB08BD000008B54FF4C060FFF7B0
:108C100013FC1D208DF8000000208DF801000420B9
:108C20008DF8020001208DF803006846FFF7D2FBA3
:108C300002491D2000F0DFFC08BD00009D8E0008E9
:108C400070B54FF080414FF6FE70088228A000F00A
:108C500043F9284D284A0124286858B1401C28604F
:108C6000322806D11078C0431070107800F0B7FC9D
:108C70002C6070BD214B00251868401C186051887D
:108C8000491C89B25180B0F5C87F02D11C480460EC
:108C90001D60C829EDD155801A4800F0D5FB012888
:108CA0001BD1184D28787E2817D168787E2814D1DA
:108CB000A878342811D17E2000F0DCF87E2000F066
:108CC000D9F80024285D00F0D5F8641CE4B2202C0B
:108CD000F8D302210CA000F0D3F80C48FFF714FDE4
:108CE000C0B20128C5D0BDE87040FFF7DFBC00006E
:108CF000310D0A00183000204C30002014300020C4
:108D000010300020603000203C3C0000BC3B0020C4
:108D10000029018802D041F0800102E040F27F3258
:108D2000114001807047C94301827047C9430182E5
:108D300070470029018802D041F0010102E040F2B1
:108D4000FE321140018070472A4910B5884202D195
:108D50000121C41443E0B0F1804F09D02649884274
:108D60000DD101210220FFF77DFB002102202DE023
:108D700001210846FFF776FB0021012026E01F496C
:108D8000884206D101210420FFF76CFB002104205A
:108D90001CE01B49884206D101210820FFF762FB35
:108DA0000021082012E01749884206D10121102035
:108DB000FFF758FB0021102008E01349884209D131
:108DC00001212020FFF74EFB00212020BDE81040AC
:108DD000FFF748BB0D4988420AD1012144142046BF
:108DE000FFF758FB2046BDE810400021FFF752BBBB
:108DF00010BD0000002C01400004004000080040AD
:108E0000000C0040001000400014004000340140FD
:108E100002460020138A92890B4202EA010202D024
:108E2000002A00D001207047002A828901D00A431D
:108E300000E08A4382817047028802F08F0202803C
:108E4000CA884B881A4303881A4302808A8882851D
:108E50000A880285054A904202D0054A904201D113
:108E6000097A01860121818270470000002C0140AF
:108E70000034014001B50121684600F0CBFB08BD7C
:108E800000F0C8BB0246002012880A4200D0012030
:108E90007047C1F3080181807047000010B50C4C89
:108EA00001212046FFF7B4FF002809D00121204608
:108EB000FFF73CFF07498A681AB18868401E88603E
:108EC00010BD2046BDE810400021FFF732BF000072
:108ED000000400404C3000200FB4054B10B503A92E
:108EE000044A029800F008F810BC5DF814FB00007A
:108EF00039920008803000202DE9FF4F8DB00446E4
:108F00009B460F46002641E1252801D00F9963E0DA
:108F10000025641CA14AA84601212378203B01FAC0
:108F200003F0104202D00543641CF6E720782E2897
:108F300017D114F8010F45F004052A280ED06FF060
:108F40002F022078A0F1300109290AD808EB880106
:108F500002EB410100EB0108641CF2E757F8048BB7
:108F6000641C20786C280DD004DC4C2812D06A28B0
:108F700011D104E074280DD07A280CD10AE045F410
:108F8000001507E0617845F48015814202D1641C28
:108F900005F58015641C94F800C0BCF1690F4DD034
:108FA0000CDCBCF1000F6ED0BCF1580F6FD0BCF1DF
:108FB000630F16D0BCF1640F0CD13FE0BCF1700F11
:108FC0006AD0BCF1730F15D0BCF1750F5DD0BCF148
:108FD000780F5CD00F9960465A46904706F101061B
:108FE000D3E001CF8DF8000000208DF80100E946A4
:108FF000012003E057F8049B4FF0FF3069074FF062
:10900000000501D40AE06D1C45450DDA8542FADB06
:1090100019F805100029F6D106E06D1C8542FCDB2D
:1090200019F805100029F8D12E4404E019F8010BB5
:109030005A460F9990476D1EF8D2A6E00A200021EB
:10904000CDE90801C5F3025002280AD001CFC117AB
:1090500000290DDA0023D0EB030063EB01012D2280
:1090600009E007F1070727F00707F7E80201EFE734
:109070002A0504D52B228DF82820012230E0EA07AA
:109080002ED02022F7E785E001E00A2000E0102042
:109090000021CDE9080107E01020002145F004057A
:1090A000CDE908014FF00808C5F3025002281CD092
:1090B00001CF00214FF0000A2A0712D5BCF1700F32
:1090C00019D0DDE9083283F01003134309D150EAC7
:1090D000010206D030228DF828208DF829C0022206
:1090E0009246BCF1580F10D00AE0FF1D27F0070789
:1090F000F7E80201DEE740228DF828204FF0010A50
:1091000027A20DF120090B9209E02AA2F9E7DDE977
:109110000823FEF7BFFF0B9B9B5C09F8013D50EA5B
:109120000102F4D1ADEB090000F1200008906807BE
:1091300001D44FF001080899884502DDA8EB010031
:1091400000E000208046002506E00AA85A46405D5F
:109150000F999047761C6D1C5545F6DB04E03020D6
:109160005A460F999047761CB8F10001A8F1010802
:10917000F5DC05E019F8010B5A460F999047761C6B
:109180000899481E08900029F4DC641C2078002807
:109190007FF4BAAE11B03046BDE8F08F0928010067
:1091A000303132333435363738396162636465665D
:1091B000000000003031323334353637383941421F
:1091C0004344454600000000032000BF00BF00BF2D
:1091D00000BF00BF00BF00BF401EF8D2704709E0CB
:1091E000032100BF00BF00BF00BF00BF00BF00BF22
:1091F000491EF8D2401EF3D2704700B5034602E084
:109200000B20FFF7ECFF5B1EFAD200BD08B5012171
:109210000420FFF733F910208DF8030003208DF8A8
:1092200002000220ADF8000069460248FFF716F878
:1092300008BD00000008014070B5074D0446C1B2EA
:109240002846FFF726FE40212846FFF71BFE002890
:10925000F9D0204670BD00000044004010B500F079
:1092600011F9164C002020604FF00503144A4FF00E
:109270002A014FF00100FFF723FC012221211046B3
:10928000FFF706FC012222211046FFF701FC2822ED
:1092900025210120FFF7FCFB202231210120FFF7CF
:1092A000F7FB072226210120FFF7F2FB0F222021E6
:1092B0000120FFF7EDFB0120206010BD80812142DD
:1092C00002970008F8B501210420FFF7D7F84025E0
:1092D000ADF8005003248DF8024010200B4E8DF89D
:1092E000030069463046FEF7B9FF084810300560B4
:1092F0002020ADF800008DF8024004208DF8030016
:1093000069463046FEF7AAFFF8BD0000000801409C
:1093100038B501210820FFF7B1F80124ADF800406D
:1093200003208DF8020010208DF8030069460448E0
:10933000FEF794FF0348002101604460416338BD9B
:10934000000C0140808121420E4810B50168491C83
:1093500001600D48006860B10C48426840211AB1B4
:10936000002242600A4803E0012242600848001DD2
:109370000160FEF7CDFF002803D006480168491CB4
:10938000016010BD24300020043000204C3000204B
:10939000100801405C30002008B501210420FFF7CF
:1093A0006DF81020ADF8000003218DF802108DF843
:1093B000030069460248FEF751FF00F003F808BDBC
:1093C0000008014010B510210248FEF79CFF002064
:1093D00010BD00000008014010B510210248FEF742
:1093E00094FF012010BD0000000801400821014841
:1093F000FEF789BF000C014008B501210820FFF7E6
:109400003DF801210420FFF739F80820ADF80000ED
:1094100003208DF8020010208DF8030069460848EB
:10942000FEF71CFF4FF48070ADF8000004208DF8AB
:10943000030069460348FEF711FFFFF7D7FF08BD99
:10944000000C01400008014070B5064600240721C9
:109450000120FFF799FA0546FF2227210120FFF797
:1094600017FB68060BD52023324661210120FFF748
:109470001DFAFF22E2210120FFF70AFB012420460A
:1094800070BD000010B5074C002020604FF00D02A9
:109490004FF020014FF00100FFF7FAFA01202060A1
:1094A00010BD0000808121420021324801704163DB
:1094B000012141703048016821F470210160016888
:1094C00041F440310160FFF767FF012000F087F8A9
:1094D00000F0C3F8FFF790FFFFF7F4FEFFF786FFF9
:1094E000FEF71CFF00F074F8FFF78EFB0021234805
:1094F00000F0B8F8FEF7A4FE0120FFF701FBFFF72C
:1095000007FFFFF7ABFEFEF735FF0028FBD11CA0DD
:10951000FFF7E2FC0020FFF7F3FAFFF799F8FFF7F7
:10952000C5F840F2326529460020FFF771FA06219E
:109530000020FFF729FA014616A0FFF7CDFC1748D7
:10954000FFF7E2F80446FEF77BFE002CEBDD214638
:1095500013A0FFF7C1FCFFF7BBF841F288350F48B5
:10956000FFF766F92846FEF731FE214612A0FFF705
:10957000B3FCF4E7003000200010014049930008DC
:109580006E726632346C3031206973206F6B0D0A55
:109590000000000025580D0A00000000BC3B002020
:1095A000726563656976652064617461206C656EBF
:1095B000203D2025640D0A0073656E64206461748B
:1095C00061206C656E203D2025640D0A00000000BE
:1095D00010B5FFF703FBBDE81040FFF7D3BA08B1A1
:1095E000FFF7FABEFFF7EEBE2D49096851F82000DB
:1095F0000199019001BD03B44FF00000DFF8A4F021
:1096000003B44FF00100DFF89CF003B44FF0020008
:10961000DFF890F003B44FF00300DFF888F003B4F4
:109620004FF00400DFF87CF003B44FF00500DFF8E2
:1096300074F003B44FF00600DFF868F003B44FF0A5
:109640000700DFF860F003B44FF00800DFF854F0D3
:1096500003B44FF00900DFF84CF003B44FF00A00F8
:10966000DFF840F003B44FF00B00DFF838F003B43C
:109670004FF00C00DFF82CF003B44FF00D00DFF8D2
:1096800024F003B44FF00E00DFF818F003B44FF0ED
:109690000F00DFF810F003B44FF01000DFF804F013
:1096A00084300020E99500084E07C00800096C07C7
:1096B00080080009D90700080009E407C00800096C
:1096C00068032B04340315041A030B040D0305046B
:1096D00068020F1302054106F0198B1A101E401B79
:1096E000801C061D88181B58006F04019F1144251B
:1096F0001013555A705C100104250F135D5A7C5CE1
:109700000C013443101001000000000000000000B4
:109710000000000001000000000000000000000048
:109720000000000000000000000000000000000039
:109730000000000000000000000000000000000029
:109740007E7E344310100100010000000000000084
:109750000100000000000000010000000000000007
:1097600000000000000000000101020304050607DC
:1097700008090A0B0C0D0E0F1011121314151617F1
:1097800018191A1B1C1D1E1F0000000000000000FD
:04000005080080016E
:00000001FF
