:020000040800F2
:1080000030E0FEE754413031008000084D332073EA
:10801000797820617070000000000000003230317B
:10802000332E31322E313000000000004DF804EDC7
:10803000134800F1030020F003001249124B88425C
:1080400006D099423CBF50F8042B41F8042BF8D3DA
:108050000E494FF000028B4238BF43F8042BFAD38D
:108060005DF804FB4DF804ED4DF8040DFFF7DEFF5D
:108070005DF8040B0649086001F030FD5DF804FB73
:10808000F4A00008003000206C300020883200206E
:108090006830002040EA01039B0703D009E008C9CB
:1080A000121F08C0042AFAD203E011F8013B00F8BD
:1080B000013B521EF9D27047D2B201E000F8012B09
:1080C000491EFBD270470022F6E710B50446084669
:1080D000114602462046FFF7EFFF204610BD2DE96E
:1080E000FE4F81EA030421F0004504F0004423F030
:1080F00000414FF0000A009450EA050302D052EA12
:10810000010304D10020014603B0BDE8F08FC1F3A4
:108110000A53C5F30A541C44A0FB02B3C5F313056C
:1081200045F4801CC1F3130141F480180CFB0233A9
:1081300000FB083EA4F2F334810A930A41EA8C5111
:1081400043EA88530194A1FB03474FEA9C2505FBB2
:1081500003734FEA982601FB06373D05260545EADD
:108160001435BBEB06016EEB0503850E920E45EA56
:108170008C1542EA8812A5FB0206261E67EB000753
:108180000C0D44EA0334A41947EB1350C1F3130652
:108190004FF0000319464FEA033343EA165343EA0C
:1081A0000403019CE5FB0201A4F10C040294009C71
:1081B0004FEA0632CDE900A400F09BF8A4E770B5C1
:1081C00021F0004303430CD0C1F30A540026D4EB42
:1081D000060566EB0603D417AD1AA34102DB0020A7
:1081E000014670BD001C41EB025170BD0EB5C10FC0
:1081F00080EAE0700844CA07002140F233438DE86A
:108200000E000A460B4600F074F803B000BD0EB530
:1082100040F2334102910021CDE900110A460B469C
:1082200000F067F803B000BD70B5C1F30A5201F069
:1082300000450024C1F3130140F2FF3341F48011E3
:108240009A4201DA002070BD40F233439A42A2F212
:10825000334203DC524200F02FF800E090402C4300
:10826000F1D0404270BD000030B5002904DB4FF072
:108270000044404264EB0101002B04DB4FF000445A
:10828000524264EB03038B4208BF824230BD0000C0
:1082900030B5002904DB4FF00044404264EB01019B
:1082A000002B04DB4FF00044524264EB030399427D
:1082B00008BF904230BD0000202A04DB203A21FA9A
:1082C00002F00021704721FA02F3D040C2F12002EF
:1082D000914008431946704710B5002B08DA401C3E
:1082E00041F1000192185B411A4301D120F00100D5
:1082F00010BD2DE9F04D92469B4611B1B1FA81F2C5
:1083000002E0B0FA80F22032904600F044F80646CF
:108310000F4640EA0A0041EA0B0152465B46084319
:1083200003D130463946BDE8F08D194652EA0100C6
:1083300015D0C8F140025046FFF7BEFF04460D4677
:1083400050465946424600F026F8084301D0012025
:1083500000E00020044345EAE07526432F430A98D5
:108360004FEAD625A0EB08000A304FEA46534FF0FB
:10837000000245EA47554FEAD72402D500200146BE
:10838000D1E7010550196141DDE90845001969414E
:10839000BDE8F04DA0E7202A04DB203A00FA02F104
:1083A000002070479140C2F1200320FA03F31943E3
:1083B0009040704710B5074C6060084600F00EF81A
:1083C00060680028FCD1BDE810400021024801F09F
:1083D0007AB8000030300020000400403EB51A4D4D
:1083E00004460021284601F06EF8002201212846AB
:1083F00001F0E4F8022C02D0012C02D005E00120AB
:1084000001E040F2E730ADF804003F20ADF8000095
:108410000020ADF80600ADF802006946284601F0DC
:10842000D5F80121284601F04BF80121284601F03A
:1084300039F801221146284601F0C0F801212846EA
:1084400001F041F83EBD0000000400400121FFF7AB
:10845000B1BF0221FFF7AEBF00B5012001F019FA4C
:10846000022001F016FA02205DF804EB01F011BAC7
:108470004FF0E020016921F00101016170474FF0E8
:10848000E020016941F0010101617047F0B5CC784D
:10849000002204F00F03E40601D58C7823430C88F6
:1084A0004FF00F0C14F0FF0F4FF0010E1AD00568BB
:1084B0000E880EFA02F42640A6420FD196000CFA5E
:1084C00006F7BD4303FA06F63543CE78282E02D0D0
:1084D000482E02D002E0446100E00461521C082AE8
:1084E000E6D305600A88FF2A1DD94568002202F1FB
:1084F00008060EFA06F40E882640A6420FD1960012
:108500000CFA06F725EA070703FA06F5CE783D438D
:10851000282E00D14461CE78482E00D10461521C2F
:10852000082AE4D34560F0BD0246002092680A4262
:1085300000D00120704741617047016170470AB166
:108540000161704741617047014800787047000041
:108550004A30002070B500F0EBF9CC2001F054F95E
:10856000442001F051F9332001F093F900F0E0F9D3
:10857000CC2001F049F9BE2001F046F900F048FD99
:10858000054600F045FD45EA002424F47840FFF755
:108590002DFE6FF00302FFF712FEFFF745FE14F405
:1085A000784F00D0404270BD01480068704700001D
:1085B0007C32002072B60349488800224A8062B6A5
:1085C000704700004A30002008B50121082000F063
:1085D00083FA0420ADF800008DF8030069460248D4
:1085E000FFF754FF08BD0000000C014070B50024E7
:1085F0000721012000F0B4FD054602462721012095
:1086000000F03CFE68060BD52023094A61210120B9
:1086100000F032FDFF22E221012000F02FFE0124B4
:10862000FF222721012000F029FE204670BD000016
:108630000830002070B505460024FF2227210120C4
:1086400000F01CFE284601F097F9FFF7BDFF09492D
:10865000D1F80821002AFBD10721012000F080FD7C
:10866000800600D50124FF222721012000F006FE0C
:10867000204670BD0080214238B5FF208DF80000F3
:1086800000F022F80221094800F03CF91E220121E5
:10869000684600F08DF89DF8000020B1002400F03D
:1086A00013F8204638BD0124F9E700002E300020E1
:1086B00010B50221034800F025F900F005F801206B
:1086C00010BD00002C30002010B572B60021074804
:1086D0000160A0F58071416081604FF48071A0F568
:1086E0008070FFF7F0FC62B610BD00007C32002005
:1086F00030B50446012187B0880300F0EDF94FF44E
:108700000071ADF8101018218DF813100320244DBE
:108710008DF8120004A92846FFF7B8FE2815ADF819
:10872000100004208DF8130004A92846FFF7AEFEC0
:108730001C4951F8240000900020ADF80400ADF869
:108740000600ADF80800ADF80C000C20164CADF892
:108750000A006946204600F0EFFF0121204600F0A4
:10876000A3FF25218DF8141002218DF81610012188
:108770008DF8171005A800F01BF9012240F22551D1
:10878000204600F0C1FF4021204600F097FF00285E
:10879000F9D00649252001F0FEFB07B030BD0000EE
:1087A00000080140DCA00008003801406196000884
:1087B0002DE9F05FDFF8388182460C46D8F80000DA
:1087C0001746A8F5807B0BF580760FFA81F9A04259
:1087D0002AD372B6D8F808100819B04215D9ABEBF5
:1087E000010505F580755E462A465046FFF752FCA6
:1087F000671B0AEB05003A463146C8F80860FFF7E8
:1088000049FCD8F80810C81906E022465046FFF780
:1088100041FCD8F808002044C8F80800D8F8000047
:10882000001BC8F800002FE000250120FFF70EFE16
:10883000D8F800006D1CA0422AD372B64546D8F87D
:1088400008100819B04215D9ABEB010606F5807681
:108850005F4632465046FFF71DFCA4EB06080AEBC4
:10886000060042463946AF60FFF714FCA96801EBE9
:10887000080005E022465046FFF70CFCA86820449B
:10888000A8602868001B286062B64846BDE8F09FD3
:10889000002FCAD0BD42C8D372B64446D8F80810DB
:1088A000D8F8000000270844B04214D3ABEB010510
:1088B00005F580755E462A465046FFF7EBFBA6603D
:1088C00020683146421B0AEB0500FFF7E3FB2168F5
:1088D000A068491B05E022685046FFF7DBFB2168D2
:1088E000A0680844A0602068276062B600B2CDE7A7
:1088F0007C32002010B5FFF7E7FEBDE810400120F4
:10890000FFF7F6BE70B504460D46084E0BE06D1E2F
:1089100014F8011B304600F055FF4021304600F0AE
:10892000CDFE0028F9D0002DF1D170BD00380140F6
:1089300010B500F0C5FF134C02212046FFF7FDFDE6
:10894000012000F0A6FF02212046FFF7F4FD3320AE
:1089500000F09FFF02212046FFF7EFFD032000F00B
:1089600098FF02212046FFF7DFFD10B1032000F041
:1089700090FF332000F08DFF2046BDE8104002211B
:10898000FFF7DBBD0008014041060748826942F05D
:10899000010282610548426822F0E062426042685A
:1089A0000A4342607047000000100240000001408E
:1089B00070B50F24C278017801254FF0E026DAB1B6
:1089C000124A126802F4E062C2F5E062120AC2F1D1
:1089D0000403D44042789A408378234013431A0119
:1089E0000B4BCA54007800F01F018D40400906EB84
:1089F0008000C0F8005170BD01F01F00854048099B
:108A000006EB8000C0F8805170BD00000CED00E066
:108A100000E400E002490843024908607047000092
:108A20000000FA050CED00E02DE9F0430024C1B090
:108A300081462546FFF7B8FDA0B3E8460DF10307D0
:108A4000FFF7B2FD0604360C25D0002508EB040024
:108A500005223146FFF7ACFEA01984B2062C1CD3C8
:108A60009DF80000FA2818D19DF80100C05DED289E
:108A700013D19DF801206946121DA9F8002009F1C3
:108A80000200FFF707FB21466846FFF71CFB0120A9
:108A900041B0BDE8F0836D1CEDB20120FFF7D6FCBC
:108AA0000A2DCDD30020F3E7044A0029D16901D073
:108AB000014300E08143D161704700000010024093
:108AC000044A0029116901D0014300E0814311618A
:108AD0007047000000100240044A0029916901D04B
:108AE000014300E0814391617047000000100240A3
:108AF000044A0029D16801D0014300E08143D160DC
:108B00007047000000100240214A10B55168214B07
:108B100011F00C0103D0042901D0082901D0036011
:108B200012E05168536801F470114FF0020413F41D
:108B3000803F04EB914102D053689B0301D5164B53
:108B400000E0144B594301605168144B01F0F001EF
:108B500009095C5C0168E1404160546804F4E06428
:108B6000240A1C5D21FA04F48460546804F46054FF
:108B7000E40A1B5DD940C1605268084B02F44042D0
:108B8000920B1B1F9A5CB1FBF2F1016110BD00005A
:108B90000010024000127A0000093D00523000200F
:108BA00008B501210820FFF797FF4FF40060ADF8EA
:108BB000000004208DF8030069460248FFF766FCB8
:108BC00008BD0000000C014008B501210820FFF796
:108BD00083FF4FF40060ADF8000003208DF8020021
:108BE00010208DF8030069460148FFF74FFC08BDCF
:108BF000000C01402DE9F05F414E0546871D012024
:108C0000884691463070FFF73AFC2C6872B64FF0F8
:108C1000000BA6F802B062B6012249464046FFF7B3
:108C20008EFC7088A042FCD972B6A6F802B062B67B
:108C3000002249464046FFF782FCC4EB441071888D
:108C40008842FCD200204FE000243978C4F10702AA
:108C5000012090402E68014272B61FD028494FF083
:108C6000000BA1F802B062B6012249464046FFF768
:108C700066FC234806EB460142889142FCD272B65C
:108C800059468346418062B6002249464046FFF776
:108C900056FC58464188B142FCD91DE0DFF860B06F
:108CA0000020ABF8020062B6012249464046FFF7B9
:108CB00046FC58464188B142FCD972B60021418039
:108CC00062B60A4649464046FFF739FC584606EB6D
:108CD000460142889142FCD2641CE4B2082CB4D311
:108CE0000AF101007F1CC0B2A98882465145ABD869
:108CF000034900200870FFF7BBFB0120BDE8F09F8F
:108D00004A30002010B5044C0123237000F0A6F86F
:108D10000021217010BD00004A30002070B5144DB4
:108D2000002405EB4400C188002000F063FA641CB5
:108D3000E4B2032CF5D30E4D0024183505EB4400A6
:108D40008188002000F056FA641CE4B2022CF5D3AE
:108D5000074D00242835002035F8141000F04AFA99
:108D6000641CE4B20E2CF6D302490020087070BDDA
:108D70007CA000084830002070B5FFF7CFFF064DFB
:108D80000024002035F8141000F034FA641CE4B21A
:108D9000062CF6D370BD0000C0A0000870B5FFF728
:108DA000BDFF41F27F142146002000F023FA214646
:108DB000002000F01FFA064D0024002035F81410A2
:108DC00000F018FA641CE4B2052CF6D370BD000064
:108DD000CCA0000870B500242721204600F0C0F97F
:108DE00003254FF4FA76B5EB901F06D1FF2804D087
:108DF0000AA000F035FD012070BD641CA4B2B4428D
:108E000001D3002070BD06A000F02AFD0120FFF76D
:108E10001DFB2721002000F0A3F9E4E7310D0A0033
:108E2000300D0A0070B500242721204600F098F983
:108E3000A0254FF4FA7635EA000103D1FF2801D0CE
:108E4000012070BD641CA4B2B44201D3002070BDE7
:108E50002721002000F084F9EDE700002DE9F74F0D
:108E600082B0029CA41DFFF70AFB72B60020654E7B
:108E7000708062B602E07088C8287AD8DDE9030104
:108E8000FFF752FB0028F6D1FFF794FB054605E0FB
:108E90005C48418841F6380081426AD8DDE9030127
:108EA000FFF742FB0028F3D0FFF784FB142D60D9B5
:108EB00005EB4501B0EBC10F5BD905EB450101EBBB
:108EC0000511B0EB410F54D22844460902980660C0
:108ED000002092E0FFF76EFB4A4F41F6380902E0AE
:108EE0007988494545D8DDE90301FFF71DFB0028D6
:108EF000F6D1FFF75FFBBA4680464F4603E0BAF86B
:108F00000200B8427CD8DDE90301FFF70DFB002821
:108F1000F5D0FFF74FFB07460320B6FBF0F0A6EBBA
:108F20005601081A0090404537DA3046FFF76FF9CE
:108F3000354A364BFFF7D3F8824689464046FFF75D
:108F400066F952464B46FFF78FF926D23846FFF7AF
:108F50005EF952464B46FFF79BF90BD206EB8600B3
:108F6000B84207D92178C5F107020120904081431A
:108F700039E045E006EB4600B7EBC00F40D906EB01
:108F8000460000EB0610B7EB400F39D20299584665
:108F9000A1F804B005B0BDE8F08F3046FFF737F90F
:108FA000194A1A4BFFF79BF881468A464046FFF75D
:108FB0002EF94A465346FFF76BF921D206EB86019C
:108FC00041451DD90098B8421ADA3846FFF71FF913
:108FD0004A465346FFF748F912D22178C5F10702F5
:108FE0000120904001436D1CEDB22170082DFFF46B
:108FF00071AF0BF10100641CC0B28346002569E724
:109000000020C7E74A3000205C8FC2F5285CFF3F94
:1090100070B50024174E2546640802213046FFF73C
:109020008CFA00BF00BF02213046FFF784FA00BF70
:1090300000BF00BF02213046FFF77FFA00BF00BF2C
:1090400000BF00BF00BF02213046FFF76DFA08B134
:1090500044F08004042000F01CFC6D1CEDB2082DCF
:10906000DAD302213046FFF768FA042000F011FC41
:10907000204670BD000801402DE9F04107460C462E
:1090800090461E46012B27D9144D0020C5F8B40187
:1090900057B1C5F884010520FFF7DBF921463846B2
:1090A00000F01EF8002409E0C5F8B001F3E73846E7
:1090B00000F06EF808F80400641CE4B2B442F6D381
:1090C000012037B1C5F88401BDE8F0410520FFF764
:1090D000C0B9C5F8B001F7E7BDE8F08100802142D2
:1090E0002DE9F047002702001C480D463E4631D0CE
:1090F000C0F884618046C0F8B4610520FFF7A9F983
:10910000B146464608244FF001084846C6F8B491D7
:10911000290600D54046C6F8BC010520FFF799F99D
:10912000C6F8B4816806050E0520FFF792F9D6F857
:10913000380108B147F00107641E14F0FF04E4D1C0
:10914000C6F8B491C6F8BC810520FFF782F938460D
:10915000BDE8F087C0F8B061CCE700000080214294
:1091600070B50546FFF7BCFF284600F011F804462D
:109170000648012135B1C0F884110520FFF769F9CF
:10918000204670BDC0F8B011F7E700000080214212
:109190002DE9F0410024164E274630B3C6F88471FD
:1091A0004FF00108C6F8BC810520FFF752F90825E9
:1091B000C6F8B4710520FFF74CF96006040EC6F836
:1091C000B4810520FFF745F9D6F8380108B144F01D
:1091D00001046D1E15F0FF05EAD1C6F8B471052033
:1091E000FFF737F92046BDE8F081C6F8B071D7E740
:1091F000008021422DE9F0471F4E4FF000075FEA43
:1092000000090C46C6F8B47111D0C6F88471052067
:10921000FFF71FF944F400451024B84601274046E3
:10922000C6F8B481290405D5C6F8BC7104E0C6F8B7
:10923000B071ECE7C6F8BC010520FFF70AF9C6F8E3
:10924000B4716804050C0520FFF703F9641E14F0DF
:10925000FF04E4D1C6F8B481C6F8BC71B9F1000FBF
:1092600006D0C6F88471BDE8F0470520FFF7F1B8D5
:10927000C6F8B071F7E700000080214270B50446DF
:109280001646FFF72DFF054631462046FFF728FF1B
:109290000649012034B1C1F884010520FFF7D9F84F
:1092A000284670BDC1F8B001F7E7000000802142F8
:1092B0002DE9F041074615461E46FFF711FF80468F
:1092C000002406E015F8011B3846FFF709FF641C6F
:1092D000E4B2B442F6D30549012027B1C1F88401B4
:1092E0004046BDE8F081C1F8B001F9E700802142B5
:1092F000F8B501210820FFF7EFFB4FF42040ADF84F
:10930000000003208DF80200144F10248DF8034054
:1093100069463846FFF7BAF8A002ADF8000004200D
:109320008DF8030069463846FFF7B0F82002ADF823
:1093300000008DF8034069463846FFF7A7F8084E4D
:109340000125F5624FF00200ADF800008DF80340F2
:1093500069463846FFF79AF83560F8BD000C0140C1
:10936000848121423EB501210846FFF79DFB4FF065
:109370008044204600F0B2F841F28831ADF8041084
:109380003F21ADF800100021ADF8021069462046DB
:1093900000F01CF90121204600F08FF8012211464F
:1093A000204600F00BF90121204600F08CF802491C
:1093B0001C2000F0F0FD3EBD2194000808B54FF4DC
:1093C000E060FFF727FB1C208DF8000000208DF8DF
:1093D000010003208DF8020001208DF8030068468B
:1093E000FFF7E6FA08BD000008B54FF4C060FFF7CC
:1093F00011FB1D208DF8000000208DF801000420D5
:109400008DF8020001208DF803006846FFF7D0FABE
:1094100002491D2000F0BFFD08BD0000CD970008E7
:1094200010B54FF080414FF6FE7008821A4A1B4972
:109430005088401C80B25080097807290ED0184906
:10944000097859B9C821B0FBF1F301FB130028B921
:109450001078C043C0B2107000F091FD0E48083083
:10946000017811B14188491C41800B480C300178CA
:1094700011B14188491C418007481030017811B171
:109480004188491C4180044814300178002902D0E9
:109490004188491C418010BD303000202930002017
:1094A000283000200029018802D041F0800102E02C
:1094B00040F27F32114001807047C94301827047FA
:1094C000C943018270470029018802D041F001019F
:1094D00002E040F2FE321140018070472A4910B587
:1094E000884202D10121C41443E0B0F1804F09D079
:1094F000264988420DD101210220FFF7E1FA00211F
:1095000002202DE001210846FFF7DAFA00210120B0
:1095100026E01F49884206D101210420FFF7D0FA36
:10952000002104201CE01B49884206D101210820AB
:10953000FFF7C6FA0021082012E01749884206D139
:1095400001211020FFF7BCFA0021102008E0134988
:10955000884209D101212020FFF7B2FA0021202002
:10956000BDE81040FFF7ACBA0D4988420AD101218D
:1095700044142046FFF7BCFA2046BDE81040002105
:10958000FFF7B6BA10BD0000002C014000040040F7
:1095900000080040000C0040001000400014004093
:1095A0000034014002460020138A92890B4202EAED
:1095B000010202D0002A00D001207047002A8289CF
:1095C00001D00A4300E08A4382817047028802F09A
:1095D0008F020280CA884B881A4303881A4302808C
:1095E0008A8882850A880285054A904202D0054A07
:1095F000904201D1097A01860121818270470000E1
:10960000002C0140003401402DE9F041114D0027AC
:10961000114E2F6000F00FFD040012D02868224682
:109620003044114600F0CBFC2868315C3C2904D161
:10963000311811F8011C3C2909D02044002728606A
:1096400000E07F1C0120FEF701FF142FE2D3BDE8EC
:10965000F0810000003000206C30002000F0AABC37
:1096600010B572B640F225510D4800F02EF8A0B1A9
:109670000C490868FF2810D84A680846824202D37D
:10968000A0F5807048600648001D0288486800F810
:10969000012B48600868401C086062B610BD0000DD
:1096A000003801407C3200200029818902D041F439
:1096B000005101E021F400518181704702460020F1
:1096C00012880A4200D00120704770B501F01F06D1
:1096D00001250024C1F3421305FA06F2012B0FD035
:1096E000022B0FD0838A4FEA11210088134205FA1A
:1096F00001F500EA050001D000B10124204670BD4B
:109700008389F0E7038AEEE710B5C1F3421301F055
:109710001F040121A140012B07D0022B07D01430D8
:10972000002A026805D00A4304E00C30F8E7103044
:10973000F6E78A43026010BD30B50446008A85B062
:109740000D464CF6FF710840E98801432182A1894A
:109750004EF6F3100140A8882A8910436A890A430B
:109760001043A081A08A4FF6FF410840A989014318
:10977000A1826846FFF7C8F91148844201D10398D5
:1097800000E00298642200EBC00101EB00102968A0
:109790006FF018058900B0FBF1F0B0FBF2F10901A0
:1097A0000B096B4300EB8300322303EB0010B0FB8B
:1097B000F2F000F00F000843208105B030BD00003A
:1097C00000380140C1F308018180704710B50C4C8E
:1097D00001212046FFF7E6FE002809D0012120469E
:1097E000FFF76EFE07494A681AB14868401E486094
:1097F00010BD2046BDE810400021FFF764BE000008
:10980000000400403030002070B5144E054600249E
:1098100002213046FEF78FFE022000F03AF8E807FA
:109820004FF00201304602D0FEF787FE01E0FEF75E
:1098300082FE6D08FEF710FE02213046FEF77DFE27
:10984000641CE4B2082CE3D302213046FEF775FE17
:10985000BDE87040072000F01CB80000000801407F
:10986000014A024900F004B8ED9800086430002075
:109870002DE9F04104460F461646002503E039461F
:10988000B0476D1C641C20780028F8D12846BDE83C
:10989000F08100B5034602E00B2000F003F85B1EE8
:1098A000FAD200BD09E0032100BF00BF00BF00BF26
:1098B00000BF00BF00BF491EF8D2401EF3D2704760
:1098C00008B501210420FFF707F910208DF80300E7
:1098D00003208DF802000220ADF80000694602481E
:1098E000FEF7D4FD08BD00000008014070B5074D2B
:1098F0000446C1B22846FFF765FF40212846FFF71E
:10990000DDFE0028F9D0204670BD00000044004074
:1099100010B500F0D1F8164C002020604FF0050380
:10992000144A4FF02A014FF00100FFF7C1FC012259
:1099300021211046FFF7A2FC012222211046FFF749
:109940009DFC282225210120FFF798FC20223121AF
:109950000120FFF793FC072226210120FFF78EFC50
:109960000F2220210120FFF789FC0120206010BD7B
:1099700080812142D6A0000870B5054600F09CF811
:109980001C4C002121604FF005031B4A4FF03001B1
:109990004FF00100FFF78CFC0523174A2A21012014
:1099A000FFF786FC20232A46A0210120FFF780FC38
:1099B000012221211046FFF761FC012222211046DD
:1099C000FFF75CFC1A2224210120FFF757FC282214
:1099D00025210120FFF752FC072226210120FFF755
:1099E0004DFC0E2220210120FFF748FC01202060C1
:1099F00070BD000080812142D6A0000810B5FEF79E
:109A0000A3FD002803D002480188491C018010BD35
:109A10004C30002008B501210820FFF75DF88020B8
:109A2000ADF8000003208DF8020010208DF803002F
:109A300069460348FEF72AFD00F004F808BD00005F
:109A4000000C014010B580210248FEF774FD002093
:109A500010BD0000000C014010B580210248FEF747
:109A60006CFD012010BD0000000C014008B5012173
:109A70000820FFF731F801210420FFF72DF84020DE
:109A8000ADF8000003208DF8020010208DF80300CF
:109A900069460748FEF7FAFC0820ADF800000420EC
:109AA0008DF8030069460348FEF7F0FC08BD00008E
:109AB00000080140000C014010B5074C0020206058
:109AC0004FF00D024FF020014FF00100FFF7D6FBE1
:109AD0000120206010BD000080812142C2B0012021
:109AE000FEF752FFFE48016821F470210160016811
:109AF00041F440310160FFF78DFF012000F03FFA93
:109B000000F07BFAFFF7B2FFFEF712FF00F030FA29
:109B1000FFF76AFC0021F34800F074FAFEF7A8FC96
:109B20000020FFF7E5FBFFF73BF8FEF7E3FE00F050
:109B30001BFAEDA0FFF794FEDFF8C0B30126DFF8B3
:109B4000C0934FF47A7800244FF4006AED4D6878A2
:109B500001281DD1EC484088404504D96C7006218D
:109B6000EA48FFF77BFDE748001DFEF73FFD0128AF
:109B70000ED1E6486C7003210D38FFF76FFDE14808
:109B80000421001DFFF76AFD0621E048FFF766FD8E
:109B90002878012822D1BBF8020047F230518842D0
:109BA00005D92C70FEF784FD0621D84814E06846DC
:109BB000FEF73AFF90B1D5482C7003211C38FFF70F
:109BC0004DFDBDF800100DF10200FFF747FDFEF757
:109BD0006FFDCE4802212738FFF740FD00F02BFA39
:109BE000002875D0FFF710FDC94FB8783A286FD11B
:109BF00038784C280ED006DC42286AD0442869D038
:109C00004628F4D1A3E053287DD054287CD0562890
:109C1000EDD12BE1787848280CD006DC422874D0AE
:109C2000442873D04628E2D141E0542878D0572800
:109C3000DDD10FE02878002838D1FEF71DFD00287F
:109C400034D02E70ABF80240B04802218BF800608F
:109C50002538DAE0AF4FAE707C80AC483E70022110
:109C60002338FFF7FBFC17E0082249466846FFF758
:109C700049F888B1A548AC7003211638FFF7EEFC0F
:109C8000BDF8041068460831FFF7E8FC9F48022140
:109C90002738FFF7E3FC05E07888404502D8A8782C
:109CA0000128E1D07888404512D9AC70C4E09A4FC1
:109CB000EE707C803E70FFF75FF8944802212138F7
:109CC000FFF7CCFCFFF786F840B3FEF769FF1FE013
:109CD00036E0E4E0A9E0524649466846FFF712F84C
:109CE000B0B18A48EC7003211038FFF7B7FCBDF81B
:109CF000041068460831FFF7B1FC84480221273878
:109D0000FFF7ACFC0AE0BCE088E01AE01CE007E0EA
:109D10007888404502D8E8780128DCD0EC708BE0E8
:109D2000687802280CD0794802212138FFF796FC88
:109D3000FFF7EEFD74484480067000F015F96E7070
:109D4000B0E000F055F93BE000F057F938E07878E2
:109D5000462839D0482804D0542859D0572856D1FD
:109D600013E06A4803211F38FFF778FCF97838467A
:109D7000FA2908D00021415CF1B30179F81C091DD2
:109D8000FEF7C0FD1CE00121F5E760480025032136
:109D90001938FFF763FC4FF48472F91C6846FEF72C
:109DA00079F95E4F002240213846FEF7C8FB6D1C52
:109DB000EDB2402239466846FEF71CFF062DF6D369
:109DC00052480621801F20E0504800250321133807
:109DD000FFF744FCFEF7A2FFFEF7E0FFFFF722F8D3
:109DE00050B1FEF7F1FE8222F91C6846FEF752F9E7
:109DF0004F466D1CEDB200E01EE052463946684603
:109E0000FEF7F8FE062DF4D3DAE7FFF727FC49E06A
:109E1000381DFEF70FFC0028D2D10DE078784B28D2
:109E200040D13A480621801DEFE77878542806D0C3
:109E3000532811D04D2812D006213448E5E7FEF70B
:109E400089FB80B2ADF800005528F8D0032134A07A
:109E5000FFF704FC022141E0042132A0D5E70321F1
:109E600032A0FFF7FBFB0C21314838E07878452819
:109E700018D104212FA0FFF7F1FB244804210A3850
:109E80002DE0787858280DD10E212BA000F092F803
:109E900000F066F800F0CAF800F066F802E07878A2
:109EA000442805D04FF480711948FEF70CF94DE6AF
:109EB000D7F803000090D7F807000190D7F80B00FF
:109EC0000290032120A0FFF7C9FB0C211848FFF7DF
:109ED000C5FB01211DA0FFF7C1FB0C21684637E03F
:109EE00000100140FD9900087561727420697320AB
:109EF000776F726B696E670D0A00000044300020B6
:109F0000000C0140043000203C3000206FA000080D
:109F10006C30002038300020403000200008014024
:109F200044543A0044533C3C00000000444D3A0085
:109F30007031002056453A00656E7465725F757029
:109F4000675F6D6F6465000042443A002C000000BA
:109F5000FFF784FB022101A057E700003C3C000012
:109F600000210120FEF7A0BD01210846FEF79CBD9F
:109F700010B5FFF723FABDE81040FFF7F3B908B1B9
:109F8000FFF76ABDFFF75EBD2D49096851F8200053
:109F90000199019001BD03B44FF00000DFF8A4F077
:109FA00003B44FF00100DFF89CF003B44FF002005F
:109FB000DFF890F003B44FF00300DFF888F003B44B
:109FC0004FF00400DFF87CF003B44FF00500DFF839
:109FD00074F003B44FF00600DFF868F003B44FF0FC
:109FE0000700DFF860F003B44FF00800DFF854F02A
:109FF00003B44FF00900DFF84CF003B44FF00A004F
:10A00000DFF840F003B44FF00B00DFF838F003B492
:10A010004FF00C00DFF82CF003B44FF00D00DFF828
:10A0200024F003B44FF00E00DFF818F003B44FF043
:10A030000F00DFF810F003B44FF01000DFF804F069
:10A0400068300020899F00083C3C4C484C574C46E7
:10A0500046483A42483A46573A42573A46463A42C2
:10A06000463A42543A56312E3052453A303C3C52F0
:10A07000453A313C3C544B3A303C3C004E07C0081A
:10A0800000096C0780080009D90700080009E407E7
:10A09000C008000968032B04340315041A030B04D9
:10A0A0000D03050468020F1302054106F0198B1A0F
:10A0B000101E401B801C061D88181B58006F0401D1
:10A0C0009F1144251013555A705C100104250F137D
:10A0D0005D5A7C5C0C01344310100100000000004C
:10A0E00080250000004B00000096000000E1000009
:10A0F00000C2010000000000000000000101020396
:10A100000405060708090A0B0C0D0E0F1011121397
:10A110001415161718191A1B1C1D1E1F0000FAF41F
:10A12000FAF6FAFD00000000000000000000000048
:10A13000000000000000000000000000000000001F
:10A1400000000204060800000000010203040102EE
:10A1500003040607080900000000000000000000DA
:04000005080080016E
:00000001FF
